{
  "contractName": "Admin",
  "abi": [
    {
      "inputs": [],
      "stateMutability": "nonpayable",
      "type": "constructor"
    },
    {
      "inputs": [],
      "name": "corporateFactory",
      "outputs": [
        {
          "internalType": "contract CorporateFactory",
          "name": "",
          "type": "address"
        }
      ],
      "stateMutability": "view",
      "type": "function",
      "constant": true
    },
    {
      "inputs": [],
      "name": "fundsPool",
      "outputs": [
        {
          "internalType": "contract FundsPool",
          "name": "",
          "type": "address"
        }
      ],
      "stateMutability": "view",
      "type": "function",
      "constant": true
    },
    {
      "inputs": [],
      "name": "owner",
      "outputs": [
        {
          "internalType": "address",
          "name": "",
          "type": "address"
        }
      ],
      "stateMutability": "view",
      "type": "function",
      "constant": true
    },
    {
      "inputs": [],
      "name": "receiverFactory",
      "outputs": [
        {
          "internalType": "contract ReceiverFactory",
          "name": "",
          "type": "address"
        }
      ],
      "stateMutability": "view",
      "type": "function",
      "constant": true
    },
    {
      "inputs": [
        {
          "internalType": "contract FundsPool",
          "name": "pool",
          "type": "address"
        }
      ],
      "name": "updateFundsPool",
      "outputs": [],
      "stateMutability": "nonpayable",
      "type": "function"
    },
    {
      "inputs": [
        {
          "internalType": "contract CorporateFactory",
          "name": "fac",
          "type": "address"
        }
      ],
      "name": "updateCorporateFactory",
      "outputs": [],
      "stateMutability": "nonpayable",
      "type": "function"
    },
    {
      "inputs": [
        {
          "internalType": "contract ReceiverFactory",
          "name": "fac",
          "type": "address"
        }
      ],
      "name": "updateReceiverFactory",
      "outputs": [],
      "stateMutability": "nonpayable",
      "type": "function"
    }
  ],
  "bytecode": "0x608060405234801561001057600080fd5b5033600360006101000a81548173ffffffffffffffffffffffffffffffffffffffff021916908373ffffffffffffffffffffffffffffffffffffffff160217905550610a38806100616000396000f3fe608060405234801561001057600080fd5b506004361061007d5760003560e01c80638da5cb5b1161005b5780638da5cb5b146100dc578063a635a0a8146100fa578063b34485ce14610116578063cfb17d61146101325761007d565b80634979716d146100825780637011329f146100a05780638a90d601146100be575b600080fd5b61008a61014e565b604051610097919061077b565b60405180910390f35b6100a8610174565b6040516100b591906107b1565b60405180910390f35b6100c6610198565b6040516100d39190610796565b60405180910390f35b6100e46101be565b6040516100f19190610760565b60405180910390f35b610114600480360381019061010f9190610684565b6101e4565b005b610130600480360381019061012b9190610657565b610335565b005b61014c600480360381019061014791906106b1565b610486565b005b600260009054906101000a900473ffffffffffffffffffffffffffffffffffffffff1681565b60008054906101000a900473ffffffffffffffffffffffffffffffffffffffff1681565b600160009054906101000a900473ffffffffffffffffffffffffffffffffffffffff1681565b600360009054906101000a900473ffffffffffffffffffffffffffffffffffffffff1681565b8073ffffffffffffffffffffffffffffffffffffffff1663f851a4406040518163ffffffff1660e01b815260040160206040518083038186803b15801561022a57600080fd5b505afa15801561023e573d6000803e3d6000fd5b505050506040513d601f19601f82011682018060405250810190610262919061062a565b73ffffffffffffffffffffffffffffffffffffffff16600360009054906101000a900473ffffffffffffffffffffffffffffffffffffffff1673ffffffffffffffffffffffffffffffffffffffff16146102f1576040517f08c379a00000000000000000000000000000000000000000000000000000000081526004016102e8906107ec565b60405180910390fd5b80600160006101000a81548173ffffffffffffffffffffffffffffffffffffffff021916908373ffffffffffffffffffffffffffffffffffffffff16021790555050565b8073ffffffffffffffffffffffffffffffffffffffff16638da5cb5b6040518163ffffffff1660e01b815260040160206040518083038186803b15801561037b57600080fd5b505afa15801561038f573d6000803e3d6000fd5b505050506040513d601f19601f820116820180604052508101906103b3919061062a565b73ffffffffffffffffffffffffffffffffffffffff16600360009054906101000a900473ffffffffffffffffffffffffffffffffffffffff1673ffffffffffffffffffffffffffffffffffffffff1614610442576040517f08c379a0000000000000000000000000000000000000000000000000000000008152600401610439906107cc565b60405180910390fd5b80600260006101000a81548173ffffffffffffffffffffffffffffffffffffffff021916908373ffffffffffffffffffffffffffffffffffffffff16021790555050565b8073ffffffffffffffffffffffffffffffffffffffff16638da5cb5b6040518163ffffffff1660e01b815260040160206040518083038186803b1580156104cc57600080fd5b505afa1580156104e0573d6000803e3d6000fd5b505050506040513d601f19601f82011682018060405250810190610504919061062a565b73ffffffffffffffffffffffffffffffffffffffff16600360009054906101000a900473ffffffffffffffffffffffffffffffffffffffff1673ffffffffffffffffffffffffffffffffffffffff1614610593576040517f08c379a000000000000000000000000000000000000000000000000000000000815260040161058a906107cc565b60405180910390fd5b806000806101000a81548173ffffffffffffffffffffffffffffffffffffffff021916908373ffffffffffffffffffffffffffffffffffffffff16021790555050565b6000815190506105e5816109a6565b92915050565b6000813590506105fa816109bd565b92915050565b60008135905061060f816109d4565b92915050565b600081359050610624816109eb565b92915050565b6000602082840312156106405761063f610903565b5b600061064e848285016105d6565b91505092915050565b60006020828403121561066d5761066c610903565b5b600061067b848285016105eb565b91505092915050565b60006020828403121561069a57610699610903565b5b60006106a884828501610600565b91505092915050565b6000602082840312156106c7576106c6610903565b5b60006106d584828501610615565b91505092915050565b6106e78161081d565b82525050565b6106f681610897565b82525050565b610705816108bb565b82525050565b610714816108df565b82525050565b600061072760248361080c565b915061073282610908565b604082019050919050565b600061074a60218361080c565b915061075582610957565b604082019050919050565b600060208201905061077560008301846106de565b92915050565b600060208201905061079060008301846106ed565b92915050565b60006020820190506107ab60008301846106fc565b92915050565b60006020820190506107c6600083018461070b565b92915050565b600060208201905081810360008301526107e58161071a565b9050919050565b600060208201905081810360008301526108058161073d565b9050919050565b600082825260208201905092915050565b600061082882610877565b9050919050565b600061083a82610877565b9050919050565b600061084c8261081d565b9050919050565b600061085e8261082f565b9050919050565b60006108708261081d565b9050919050565b600073ffffffffffffffffffffffffffffffffffffffff82169050919050565b60006108a2826108a9565b9050919050565b60006108b482610877565b9050919050565b60006108c6826108cd565b9050919050565b60006108d882610877565b9050919050565b60006108ea826108f1565b9050919050565b60006108fc82610877565b9050919050565b600080fd5b7f466163746f727920776173206e6f74206372656174656420627920746865206160008201527f646d696e00000000000000000000000000000000000000000000000000000000602082015250565b7f506f6f6c20776173206e6f742063726561746564206279207468652061646d6960008201527f6e00000000000000000000000000000000000000000000000000000000000000602082015250565b6109af8161081d565b81146109ba57600080fd5b50565b6109c681610841565b81146109d157600080fd5b50565b6109dd81610853565b81146109e857600080fd5b50565b6109f481610865565b81146109ff57600080fd5b5056fea2646970667358221220958b0823c1f46bfb8a88e9acab6c909011dc001019109ad6cf3ecfe6b8a7ce0a64736f6c63430008060033",
  "immutableReferences": {},
  "source": "pragma solidity >=0.7.0 <0.9.0;\nimport \"./ReceiverFactory.sol\";\nimport \"./CorporateFactory.sol\";\nimport \"./FundsPool.sol\";\n\n\n// Contract that funds are received at\n// needs to contain an idenitifier\ncontract Admin {\n\n    ReceiverFactory public receiverFactory;\n    FundsPool public fundsPool; \n    CorporateFactory public corporateFactory;\n    address public owner;\n\n\n    constructor() {\n        owner = msg.sender;\n    }\n\n    function updateFundsPool(FundsPool pool) public {\n        // make sure that this pool was created by the admin contract \n        require(owner == pool.admin(), \"Pool was not created by the admin\");\n        fundsPool = pool;\n    }\n\n    function updateCorporateFactory(CorporateFactory fac) public {\n        // make sure that this pool was created by the admin contract \n        require(owner == fac.owner(), \"Factory was not created by the admin\");\n        corporateFactory = fac;\n    }\n\n    function updateReceiverFactory(ReceiverFactory fac) public {\n        // make sure that this pool was created by the admin contract \n        require(owner == fac.owner(), \"Factory was not created by the admin\");\n        receiverFactory = fac;\n    }\n    \n    modifier onlyFundsPool() {\n        require(msg.sender == address(fundsPool));\n        _;\n    }\n\n    modifier onlyOwner() {\n        require(msg.sender == owner);\n        _;\n    }\n\n\n}\n\n\n",
  "sourcePath": "/Users/Will/Documents/University /Final Year/T2/P2/COMP6452-HelpChain/contracts/Admin.sol",
  "compiler": {
    "name": "solc",
    "version": "0.8.6+commit.11564f7e.Emscripten.clang"
  },
  "schemaVersion": "3.4.2",
  "updatedAt": "2021-07-29T03:31:43.263Z",
  "networkType": "ethereum",
  "devdoc": {
    "kind": "dev",
    "methods": {},
    "version": 1
  },
  "userdoc": {
    "kind": "user",
    "methods": {},
    "version": 1
  }
}