{
  "contractName": "Admin",
  "abi": [
    {
      "inputs": [
        {
          "internalType": "contract FundsPool",
          "name": "funds_",
          "type": "address"
        },
        {
          "internalType": "contract ReceiverFactory",
          "name": "receiver_",
          "type": "address"
        },
        {
          "internalType": "contract CorporateFactory",
          "name": "corp_",
          "type": "address"
        }
      ],
      "stateMutability": "nonpayable",
      "type": "constructor"
    },
    {
      "inputs": [],
      "name": "corporateFactory",
      "outputs": [
        {
          "internalType": "contract CorporateFactory",
          "name": "",
          "type": "address"
        }
      ],
      "stateMutability": "view",
      "type": "function"
    },
    {
      "inputs": [],
      "name": "fundsPool",
      "outputs": [
        {
          "internalType": "contract FundsPool",
          "name": "",
          "type": "address"
        }
      ],
      "stateMutability": "view",
      "type": "function"
    },
    {
      "inputs": [],
      "name": "owner",
      "outputs": [
        {
          "internalType": "address",
          "name": "",
          "type": "address"
        }
      ],
      "stateMutability": "view",
      "type": "function"
    },
    {
      "inputs": [],
      "name": "receiverFactory",
      "outputs": [
        {
          "internalType": "contract ReceiverFactory",
          "name": "",
          "type": "address"
        }
      ],
      "stateMutability": "view",
      "type": "function"
    }
  ],
  "bytecode": "0x608060405234801561001057600080fd5b5060405161057d38038061057d8339818101604052810190610032919061017c565b82600160006101000a81548173ffffffffffffffffffffffffffffffffffffffff021916908373ffffffffffffffffffffffffffffffffffffffff160217905550816000806101000a81548173ffffffffffffffffffffffffffffffffffffffff021916908373ffffffffffffffffffffffffffffffffffffffff16021790555080600260006101000a81548173ffffffffffffffffffffffffffffffffffffffff021916908373ffffffffffffffffffffffffffffffffffffffff16021790555033600360006101000a81548173ffffffffffffffffffffffffffffffffffffffff021916908373ffffffffffffffffffffffffffffffffffffffff160217905550505050610293565b60008151905061014c8161024e565b92915050565b60008151905061016181610265565b92915050565b6000815190506101768161027c565b92915050565b60008060006060848603121561019557610194610249565b5b60006101a386828701610152565b93505060206101b486828701610167565b92505060406101c58682870161013d565b9150509250925092565b60006101da82610229565b9050919050565b60006101ec82610229565b9050919050565b60006101fe826101cf565b9050919050565b6000610210826101e1565b9050919050565b6000610222826101cf565b9050919050565b600073ffffffffffffffffffffffffffffffffffffffff82169050919050565b600080fd5b610257816101f3565b811461026257600080fd5b50565b61026e81610205565b811461027957600080fd5b50565b61028581610217565b811461029057600080fd5b50565b6102db806102a26000396000f3fe608060405234801561001057600080fd5b506004361061004c5760003560e01c80634979716d146100515780637011329f1461006f5780638a90d6011461008d5780638da5cb5b146100ab575b600080fd5b6100596100c9565b60405161006691906101b6565b60405180910390f35b6100776100ef565b60405161008491906101ec565b60405180910390f35b610095610113565b6040516100a291906101d1565b60405180910390f35b6100b3610139565b6040516100c0919061019b565b60405180910390f35b600260009054906101000a900473ffffffffffffffffffffffffffffffffffffffff1681565b60008054906101000a900473ffffffffffffffffffffffffffffffffffffffff1681565b600160009054906101000a900473ffffffffffffffffffffffffffffffffffffffff1681565b600360009054906101000a900473ffffffffffffffffffffffffffffffffffffffff1681565b61016881610207565b82525050565b61017781610239565b82525050565b6101868161025d565b82525050565b61019581610281565b82525050565b60006020820190506101b0600083018461015f565b92915050565b60006020820190506101cb600083018461016e565b92915050565b60006020820190506101e6600083018461017d565b92915050565b6000602082019050610201600083018461018c565b92915050565b600061021282610219565b9050919050565b600073ffffffffffffffffffffffffffffffffffffffff82169050919050565b60006102448261024b565b9050919050565b600061025682610219565b9050919050565b60006102688261026f565b9050919050565b600061027a82610219565b9050919050565b600061028c82610293565b9050919050565b600061029e82610219565b905091905056fea26469706673582212204ec77971df1dd60f8a5be6326ae7cc3be51ded7465e477afe1ee66bb8e8ab2da64736f6c63430008060033",
  "immutableReferences": {},
  "source": "pragma solidity >=0.7.0 <0.9.0;\nimport \"./ReceiverFactory.sol\";\nimport \"./CorporateFactory.sol\";\n\n\n// Contract that funds are received at\n// needs to contain an idenitifier\ncontract Admin {\n\n    ReceiverFactory public receiverFactory;\n    FundsPool public fundsPool; \n    CorporateFactory public corporateFactory;\n    address public owner;\n\n\n    constructor(FundsPool funds_, ReceiverFactory receiver_, CorporateFactory corp_) {\n        fundsPool = funds_;\n        receiverFactory = receiver_;\n        corporateFactory = corp_;\n        owner = msg.sender;\n    }\n\n\n    modifier onlyFundsPool() {\n        require(msg.sender == address(fundsPool));\n        _;\n    }\n\n    modifier onlyOwner() {\n        require(msg.sender == owner);\n        _;\n    }\n\n\n}\n\ncontract FundsPool{\n    address public admin;\n    uint public funds;\n    event ValueReceived(address user, uint amount);\n\n    constructor(address admin_){\n        admin = admin_;\n    }\n\n    function distributeFunds(uint amount, address[] memory receivers) public onlyOwner{\n        require(amount <= address(this).balance, \"not enough funds\");\n        uint fundsToSend;\n        fundsToSend = amount / receivers.length; \n\n        for (uint i = 1; i <= receivers.length; i++){\n            sendFunds(fundsToSend, receivers[i]);\n        }\n        \n    }\n\n    function sendFunds(uint amount, address receiver) public payable onlyOwner{\n        require(amount <= address(this).balance, \"not enough funds\");\n        payable(receiver).transfer(amount); \n        funds -= amount;  \n    }\n\n    receive() external payable{\n        emit ValueReceived(msg.sender, msg.value);\n        funds = address(this).balance;\n    }\n\n\n    modifier onlyOwner() {\n        require(msg.sender == admin);\n        _;\n    }\n\n}\n\n",
  "sourcePath": "/Users/dylan/Library/Mobile Documents/com~apple~CloudDocs/Developer/UNSW/COMP6452_Blockchain_Architecture/COMP6452-HelpChain/contracts/Admin.sol",
  "compiler": {
    "name": "solc",
    "version": "0.8.6+commit.11564f7e.Emscripten.clang"
  },
  "schemaVersion": "3.4.2",
  "updatedAt": "2021-07-27T22:25:46.791Z",
  "devdoc": {
    "kind": "dev",
    "methods": {},
    "version": 1
  },
  "userdoc": {
    "kind": "user",
    "methods": {},
    "version": 1
  }
}