{
  "contractName": "Admin",
  "abi": [
    {
      "inputs": [],
      "stateMutability": "nonpayable",
      "type": "constructor"
    },
    {
      "inputs": [],
      "name": "corporateFactory",
      "outputs": [
        {
          "internalType": "contract CorporateFactory",
          "name": "",
          "type": "address"
        }
      ],
      "stateMutability": "view",
      "type": "function"
    },
    {
      "inputs": [],
      "name": "fundsPool",
      "outputs": [
        {
          "internalType": "contract FundsPool",
          "name": "",
          "type": "address"
        }
      ],
      "stateMutability": "view",
      "type": "function"
    },
    {
      "inputs": [],
      "name": "giverFactory",
      "outputs": [
        {
          "internalType": "contract GiverFactory",
          "name": "",
          "type": "address"
        }
      ],
      "stateMutability": "view",
      "type": "function"
    },
    {
      "inputs": [],
      "name": "owner",
      "outputs": [
        {
          "internalType": "address",
          "name": "",
          "type": "address"
        }
      ],
      "stateMutability": "view",
      "type": "function"
    },
    {
      "inputs": [],
      "name": "receiverFactory",
      "outputs": [
        {
          "internalType": "contract ReceiverFactory",
          "name": "",
          "type": "address"
        }
      ],
      "stateMutability": "view",
      "type": "function"
    },
    {
      "inputs": [
        {
          "internalType": "contract FundsPool",
          "name": "pool",
          "type": "address"
        }
      ],
      "name": "updateFundsPool",
      "outputs": [],
      "stateMutability": "nonpayable",
      "type": "function"
    },
    {
      "inputs": [
        {
          "internalType": "contract CorporateFactory",
          "name": "fac",
          "type": "address"
        }
      ],
      "name": "updateCorporateFactory",
      "outputs": [],
      "stateMutability": "nonpayable",
      "type": "function"
    },
    {
      "inputs": [
        {
          "internalType": "contract ReceiverFactory",
          "name": "fac",
          "type": "address"
        }
      ],
      "name": "updateReceiverFactory",
      "outputs": [],
      "stateMutability": "nonpayable",
      "type": "function"
    },
    {
      "inputs": [
        {
          "internalType": "contract GiverFactory",
          "name": "fac",
          "type": "address"
        }
      ],
      "name": "updateGiverFactory",
      "outputs": [],
      "stateMutability": "nonpayable",
      "type": "function"
    }
  ],
  "bytecode": "0x608060405234801561001057600080fd5b5033600460006101000a81548173ffffffffffffffffffffffffffffffffffffffff021916908373ffffffffffffffffffffffffffffffffffffffff160217905550610cb8806100616000396000f3fe608060405234801561001057600080fd5b50600436106100935760003560e01c80638da5cb5b116100665780638da5cb5b1461010e578063a635a0a81461012c578063b34485ce14610148578063cab9e70614610164578063cfb17d611461018257610093565b80634979716d146100985780635d9f790b146100b65780637011329f146100d25780638a90d601146100f0575b600080fd5b6100a061019e565b6040516100ad9190610993565b60405180910390f35b6100d060048036038101906100cb919061088d565b6101c4565b005b6100da610315565b6040516100e791906109e4565b60405180910390f35b6100f8610339565b60405161010591906109ae565b60405180910390f35b61011661035f565b6040516101239190610978565b60405180910390f35b61014660048036038101906101419190610860565b610385565b005b610162600480360381019061015d9190610833565b6104d6565b005b61016c610627565b60405161017991906109c9565b60405180910390f35b61019c600480360381019061019791906108ba565b61064d565b005b600260009054906101000a900473ffffffffffffffffffffffffffffffffffffffff1681565b8073ffffffffffffffffffffffffffffffffffffffff16638da5cb5b6040518163ffffffff1660e01b815260040160206040518083038186803b15801561020a57600080fd5b505afa15801561021e573d6000803e3d6000fd5b505050506040513d601f19601f820116820180604052508101906102429190610806565b73ffffffffffffffffffffffffffffffffffffffff16600460009054906101000a900473ffffffffffffffffffffffffffffffffffffffff1673ffffffffffffffffffffffffffffffffffffffff16146102d1576040517f08c379a00000000000000000000000000000000000000000000000000000000081526004016102c8906109ff565b60405180910390fd5b80600360006101000a81548173ffffffffffffffffffffffffffffffffffffffff021916908373ffffffffffffffffffffffffffffffffffffffff16021790555050565b60008054906101000a900473ffffffffffffffffffffffffffffffffffffffff1681565b600160009054906101000a900473ffffffffffffffffffffffffffffffffffffffff1681565b600460009054906101000a900473ffffffffffffffffffffffffffffffffffffffff1681565b8073ffffffffffffffffffffffffffffffffffffffff1663f851a4406040518163ffffffff1660e01b815260040160206040518083038186803b1580156103cb57600080fd5b505afa1580156103df573d6000803e3d6000fd5b505050506040513d601f19601f820116820180604052508101906104039190610806565b73ffffffffffffffffffffffffffffffffffffffff16600460009054906101000a900473ffffffffffffffffffffffffffffffffffffffff1673ffffffffffffffffffffffffffffffffffffffff1614610492576040517f08c379a000000000000000000000000000000000000000000000000000000000815260040161048990610a1f565b60405180910390fd5b80600160006101000a81548173ffffffffffffffffffffffffffffffffffffffff021916908373ffffffffffffffffffffffffffffffffffffffff16021790555050565b8073ffffffffffffffffffffffffffffffffffffffff16638da5cb5b6040518163ffffffff1660e01b815260040160206040518083038186803b15801561051c57600080fd5b505afa158015610530573d6000803e3d6000fd5b505050506040513d601f19601f820116820180604052508101906105549190610806565b73ffffffffffffffffffffffffffffffffffffffff16600460009054906101000a900473ffffffffffffffffffffffffffffffffffffffff1673ffffffffffffffffffffffffffffffffffffffff16146105e3576040517f08c379a00000000000000000000000000000000000000000000000000000000081526004016105da906109ff565b60405180910390fd5b80600260006101000a81548173ffffffffffffffffffffffffffffffffffffffff021916908373ffffffffffffffffffffffffffffffffffffffff16021790555050565b600360009054906101000a900473ffffffffffffffffffffffffffffffffffffffff1681565b8073ffffffffffffffffffffffffffffffffffffffff16638da5cb5b6040518163ffffffff1660e01b815260040160206040518083038186803b15801561069357600080fd5b505afa1580156106a7573d6000803e3d6000fd5b505050506040513d601f19601f820116820180604052508101906106cb9190610806565b73ffffffffffffffffffffffffffffffffffffffff16600460009054906101000a900473ffffffffffffffffffffffffffffffffffffffff1673ffffffffffffffffffffffffffffffffffffffff161461075a576040517f08c379a0000000000000000000000000000000000000000000000000000000008152600401610751906109ff565b60405180910390fd5b806000806101000a81548173ffffffffffffffffffffffffffffffffffffffff021916908373ffffffffffffffffffffffffffffffffffffffff16021790555050565b6000815190506107ac81610c0f565b92915050565b6000813590506107c181610c26565b92915050565b6000813590506107d681610c3d565b92915050565b6000813590506107eb81610c54565b92915050565b60008135905061080081610c6b565b92915050565b60006020828403121561081c5761081b610b6c565b5b600061082a8482850161079d565b91505092915050565b60006020828403121561084957610848610b6c565b5b6000610857848285016107b2565b91505092915050565b60006020828403121561087657610875610b6c565b5b6000610884848285016107c7565b91505092915050565b6000602082840312156108a3576108a2610b6c565b5b60006108b1848285016107dc565b91505092915050565b6000602082840312156108d0576108cf610b6c565b5b60006108de848285016107f1565b91505092915050565b6108f081610a50565b82525050565b6108ff81610adc565b82525050565b61090e81610b00565b82525050565b61091d81610b24565b82525050565b61092c81610b48565b82525050565b600061093f602483610a3f565b915061094a82610b71565b604082019050919050565b6000610962602183610a3f565b915061096d82610bc0565b604082019050919050565b600060208201905061098d60008301846108e7565b92915050565b60006020820190506109a860008301846108f6565b92915050565b60006020820190506109c36000830184610905565b92915050565b60006020820190506109de6000830184610914565b92915050565b60006020820190506109f96000830184610923565b92915050565b60006020820190508181036000830152610a1881610932565b9050919050565b60006020820190508181036000830152610a3881610955565b9050919050565b600082825260208201905092915050565b6000610a5b82610abc565b9050919050565b6000610a6d82610abc565b9050919050565b6000610a7f82610a50565b9050919050565b6000610a9182610a62565b9050919050565b6000610aa382610a50565b9050919050565b6000610ab582610a50565b9050919050565b600073ffffffffffffffffffffffffffffffffffffffff82169050919050565b6000610ae782610aee565b9050919050565b6000610af982610abc565b9050919050565b6000610b0b82610b12565b9050919050565b6000610b1d82610abc565b9050919050565b6000610b2f82610b36565b9050919050565b6000610b4182610abc565b9050919050565b6000610b5382610b5a565b9050919050565b6000610b6582610abc565b9050919050565b600080fd5b7f466163746f727920776173206e6f74206372656174656420627920746865206160008201527f646d696e00000000000000000000000000000000000000000000000000000000602082015250565b7f506f6f6c20776173206e6f742063726561746564206279207468652061646d6960008201527f6e00000000000000000000000000000000000000000000000000000000000000602082015250565b610c1881610a50565b8114610c2357600080fd5b50565b610c2f81610a74565b8114610c3a57600080fd5b50565b610c4681610a86565b8114610c5157600080fd5b50565b610c5d81610a98565b8114610c6857600080fd5b50565b610c7481610aaa565b8114610c7f57600080fd5b5056fea264697066735822122060ed841fd9142ef18a05a9bc4cff6af5dcce0a91aeb34caf42dd56ab0b88c27a64736f6c63430008060033",
  "immutableReferences": {},
  "source": "pragma solidity >=0.7.0 <0.9.0;\nimport \"./ReceiverFactory.sol\";\nimport \"./CorporateFactory.sol\";\nimport \"./GiverFactory.sol\";\nimport \"./FundsPool.sol\";\n\n\n// Contract that funds are received at\n// needs to contain an idenitifier\ncontract Admin {\n\n    ReceiverFactory public receiverFactory;\n    FundsPool public fundsPool; \n    CorporateFactory public corporateFactory;\n    GiverFactory public giverFactory;\n    address public owner;\n\n\n    constructor() {\n        owner = msg.sender;\n    }\n\n    function updateFundsPool(FundsPool pool) public {\n        // make sure that this pool was created by the admin contract \n        require(owner == pool.admin(), \"Pool was not created by the admin\");\n        fundsPool = pool;\n    }\n\n    function updateCorporateFactory(CorporateFactory fac) public {\n        // make sure that this pool was created by the admin contract \n        require(owner == fac.owner(), \"Factory was not created by the admin\");\n        corporateFactory = fac;\n    }\n\n    function updateReceiverFactory(ReceiverFactory fac) public {\n        // make sure that this pool was created by the admin contract \n        require(owner == fac.owner(), \"Factory was not created by the admin\");\n        receiverFactory = fac;\n    }\n\n    function updateGiverFactory(GiverFactory fac) public {\n        // make sure that this pool was created by the admin contract \n        require(owner == fac.owner(), \"Factory was not created by the admin\");\n        giverFactory = fac;\n    }\n    \n    modifier onlyFundsPool() {\n        require(msg.sender == address(fundsPool));\n        _;\n    }\n\n    modifier onlyOwner() {\n        require(msg.sender == owner);\n        _;\n    }\n\n\n}\n\n\n",
  "sourcePath": "/Users/Will/Documents/University /Final Year/T2/P2/COMP6452-HelpChain/contracts/Admin.sol",
  "compiler": {
    "name": "solc",
    "version": "0.8.6+commit.11564f7e.Emscripten.clang"
  },
  "schemaVersion": "3.4.2",
  "updatedAt": "2021-07-29T06:51:51.739Z",
  "devdoc": {
    "kind": "dev",
    "methods": {},
    "version": 1
  },
  "userdoc": {
    "kind": "user",
    "methods": {},
    "version": 1
  }
}