{
  "contractName": "CorporateFactory",
  "abi": [
    {
      "inputs": [],
      "stateMutability": "nonpayable",
      "type": "constructor"
    },
    {
      "inputs": [
        {
          "internalType": "uint256",
          "name": "",
          "type": "uint256"
        }
      ],
      "name": "corporates",
      "outputs": [
        {
          "internalType": "address",
          "name": "corpAddress",
          "type": "address"
        },
        {
          "internalType": "uint256",
          "name": "id",
          "type": "uint256"
        },
        {
          "internalType": "bool",
          "name": "valid",
          "type": "bool"
        }
      ],
      "stateMutability": "view",
      "type": "function",
      "constant": true
    },
    {
      "inputs": [],
      "name": "owner",
      "outputs": [
        {
          "internalType": "address",
          "name": "",
          "type": "address"
        }
      ],
      "stateMutability": "view",
      "type": "function",
      "constant": true
    },
    {
      "inputs": [
        {
          "internalType": "string",
          "name": "corpName",
          "type": "string"
        }
      ],
      "name": "createCorp",
      "outputs": [
        {
          "internalType": "bool",
          "name": "",
          "type": "bool"
        }
      ],
      "stateMutability": "nonpayable",
      "type": "function"
    },
    {
      "inputs": [
        {
          "internalType": "uint256",
          "name": "id",
          "type": "uint256"
        }
      ],
      "name": "getCorporate",
      "outputs": [
        {
          "internalType": "address",
          "name": "",
          "type": "address"
        }
      ],
      "stateMutability": "view",
      "type": "function",
      "constant": true
    },
    {
      "inputs": [],
      "name": "toggleContractActivation",
      "outputs": [
        {
          "internalType": "bool",
          "name": "",
          "type": "bool"
        }
      ],
      "stateMutability": "nonpayable",
      "type": "function"
    }
  ],
  "bytecode": "0x60806040526001600360006101000a81548160ff02191690831515021790555034801561002b57600080fd5b50336000806101000a81548173ffffffffffffffffffffffffffffffffffffffff021916908373ffffffffffffffffffffffffffffffffffffffff160217905550611f658061007b6000396000f3fe60806040523480156200001157600080fd5b50600436106200005e5760003560e01c8063010d666314620000635780634aa2f240146200009957806368a0b4e714620000bb5780638da5cb5b14620000f3578063a5102b371462000115575b600080fd5b6200008160048036038101906200007b919062000694565b6200014b565b60405162000090919062000788565b60405180910390f35b620000a36200021d565b604051620000b2919062000816565b60405180910390f35b620000d96004803603810190620000d3919062000694565b620002f0565b604051620000ea93929190620007d9565b60405180910390f35b620000fd62000347565b6040516200010c919062000788565b60405180910390f35b6200013360048036038101906200012d919062000643565b6200036b565b60405162000142919062000816565b60405180910390f35b60008060009054906101000a900473ffffffffffffffffffffffffffffffffffffffff1673ffffffffffffffffffffffffffffffffffffffff163373ffffffffffffffffffffffffffffffffffffffff1614620001df576040517f08c379a0000000000000000000000000000000000000000000000000000000008152600401620001d69062000855565b60405180910390fd5b6001600083815260200190815260200160002060000160009054906101000a900473ffffffffffffffffffffffffffffffffffffffff169050919050565b60008060009054906101000a900473ffffffffffffffffffffffffffffffffffffffff1673ffffffffffffffffffffffffffffffffffffffff163373ffffffffffffffffffffffffffffffffffffffff1614620002b1576040517f08c379a0000000000000000000000000000000000000000000000000000000008152600401620002a89062000855565b60405180910390fd5b600360009054906101000a900460ff1615600360006101000a81548160ff021916908315150217905550600360009054906101000a900460ff16905090565b60016020528060005260406000206000915090508060000160009054906101000a900473ffffffffffffffffffffffffffffffffffffffff16908060010154908060020160009054906101000a900460ff16905083565b60008054906101000a900473ffffffffffffffffffffffffffffffffffffffff1681565b60008060009054906101000a900473ffffffffffffffffffffffffffffffffffffffff1673ffffffffffffffffffffffffffffffffffffffff163373ffffffffffffffffffffffffffffffffffffffff1614620003ff576040517f08c379a0000000000000000000000000000000000000000000000000000000008152600401620003f69062000855565b60405180910390fd5b6001600360006101000a81548160ff02191690831515021790556200045b576040517f08c379a0000000000000000000000000000000000000000000000000000000008152600401620004529062000833565b60405180910390fd5b60008060009054906101000a900473ffffffffffffffffffffffffffffffffffffffff16836040516200048e90620005a0565b6200049b929190620007a5565b604051809103906000f080158015620004b8573d6000803e3d6000fd5b50905060405180606001604052808273ffffffffffffffffffffffffffffffffffffffff16815260200160025481526020016001151581525060016000600254815260200190815260200160002060008201518160000160006101000a81548173ffffffffffffffffffffffffffffffffffffffff021916908373ffffffffffffffffffffffffffffffffffffffff1602179055506020820151816001015560408201518160020160006101000a81548160ff0219169083151502179055509050506001600260008282546200058f9190620008f2565b925050819055506001915050919050565b6114068062000b2a83390190565b6000620005c5620005bf84620008a0565b62000877565b905082815260208101848484011115620005e457620005e362000a77565b5b620005f184828562000999565b509392505050565b600082601f83011262000611576200061062000a72565b5b813562000623848260208601620005ae565b91505092915050565b6000813590506200063d8162000b0f565b92915050565b6000602082840312156200065c576200065b62000a81565b5b600082013567ffffffffffffffff8111156200067d576200067c62000a7c565b5b6200068b84828501620005f9565b91505092915050565b600060208284031215620006ad57620006ac62000a81565b5b6000620006bd848285016200062c565b91505092915050565b620006d1816200094f565b82525050565b620006e28162000963565b82525050565b6000620006f582620008d6565b620007018185620008e1565b935062000713818560208601620009a8565b6200071e8162000a86565b840191505092915050565b600062000738601983620008e1565b9150620007458262000a97565b602082019050919050565b60006200075f602783620008e1565b91506200076c8262000ac0565b604082019050919050565b62000782816200098f565b82525050565b60006020820190506200079f6000830184620006c6565b92915050565b6000604082019050620007bc6000830185620006c6565b8181036020830152620007d08184620006e8565b90509392505050565b6000606082019050620007f06000830186620006c6565b620007ff602083018562000777565b6200080e6040830184620006d7565b949350505050565b60006020820190506200082d6000830184620006d7565b92915050565b600060208201905081810360008301526200084e8162000729565b9050919050565b60006020820190508181036000830152620008708162000750565b9050919050565b60006200088362000896565b9050620008918282620009de565b919050565b6000604051905090565b600067ffffffffffffffff821115620008be57620008bd62000a43565b5b620008c98262000a86565b9050602081019050919050565b600081519050919050565b600082825260208201905092915050565b6000620008ff826200098f565b91506200090c836200098f565b9250827fffffffffffffffffffffffffffffffffffffffffffffffffffffffffffffffff0382111562000944576200094362000a14565b5b828201905092915050565b60006200095c826200096f565b9050919050565b60008115159050919050565b600073ffffffffffffffffffffffffffffffffffffffff82169050919050565b6000819050919050565b82818337600083830152505050565b60005b83811015620009c8578082015181840152602081019050620009ab565b83811115620009d8576000848401525b50505050565b620009e98262000a86565b810181811067ffffffffffffffff8211171562000a0b5762000a0a62000a43565b5b80604052505050565b7f4e487b7100000000000000000000000000000000000000000000000000000000600052601160045260246000fd5b7f4e487b7100000000000000000000000000000000000000000000000000000000600052604160045260246000fd5b600080fd5b600080fd5b600080fd5b600080fd5b6000601f19601f8301169050919050565b7f436f6e7472616374206e6f206c6f6e6765722061637469766500000000000000600082015250565b7f4f6e6c7920746865206f776e65722063616e206163636573732074686973206660008201527f756e6374696f6e00000000000000000000000000000000000000000000000000602082015250565b62000b1a816200098f565b811462000b2657600080fd5b5056fe60806040523480156200001157600080fd5b50604051620014063803806200140683398181016040528101906200003791906200021e565b81600160006101000a81548173ffffffffffffffffffffffffffffffffffffffff021916908373ffffffffffffffffffffffffffffffffffffffff160217905550336000806101000a81548173ffffffffffffffffffffffffffffffffffffffff021916908373ffffffffffffffffffffffffffffffffffffffff1602179055508060029080519060200190620000d0929190620000d9565b50505062000456565b828054620000e7906200034d565b90600052602060002090601f0160209004810192826200010b576000855562000157565b82601f106200012657805160ff191683800117855562000157565b8280016001018555821562000157579182015b828111156200015657825182559160200191906001019062000139565b5b5090506200016691906200016a565b5090565b5b80821115620001855760008160009055506001016200016b565b5090565b6000620001a06200019a84620002ad565b62000284565b905082815260208101848484011115620001bf57620001be6200041c565b5b620001cc84828562000317565b509392505050565b600081519050620001e5816200043c565b92915050565b600082601f83011262000203576200020262000417565b5b81516200021584826020860162000189565b91505092915050565b6000806040838503121562000238576200023762000426565b5b60006200024885828601620001d4565b925050602083015167ffffffffffffffff8111156200026c576200026b62000421565b5b6200027a85828601620001eb565b9150509250929050565b600062000290620002a3565b90506200029e828262000383565b919050565b6000604051905090565b600067ffffffffffffffff821115620002cb57620002ca620003e8565b5b620002d6826200042b565b9050602081019050919050565b6000620002f082620002f7565b9050919050565b600073ffffffffffffffffffffffffffffffffffffffff82169050919050565b60005b83811015620003375780820151818401526020810190506200031a565b8381111562000347576000848401525b50505050565b600060028204905060018216806200036657607f821691505b602082108114156200037d576200037c620003b9565b5b50919050565b6200038e826200042b565b810181811067ffffffffffffffff82111715620003b057620003af620003e8565b5b80604052505050565b7f4e487b7100000000000000000000000000000000000000000000000000000000600052602260045260246000fd5b7f4e487b7100000000000000000000000000000000000000000000000000000000600052604160045260246000fd5b600080fd5b600080fd5b600080fd5b600080fd5b6000601f19601f8301169050919050565b6200044781620002e3565b81146200045357600080fd5b50565b610fa080620004666000396000f3fe608060405234801561001057600080fd5b50600436106100935760003560e01c806389165e401161006657806389165e40146101485780638ba4d864146101665780638da5cb5b14610184578063f4111496146101a2578063f8a64f9a146101d257610093565b80630e0a42db146100985780634e82b299146100ca578063553777a6146100fa578063805f420214610118575b600080fd5b6100b260048036038101906100ad91906107ec565b610202565b6040516100c1939291906108a9565b60405180910390f35b6100e460048036038101906100df91906107ec565b610259565b6040516100f1919061088e565b60405180910390f35b610102610349565b60405161010f91906108fb565b60405180910390f35b610132600480360381019061012d91906107ec565b61036f565b60405161013f91906108e0565b60405180910390f35b6101506105c3565b60405161015d919061088e565b60405180910390f35b61016e6105e7565b60405161017b9190610916565b60405180910390f35b61018c610675565b604051610199919061088e565b60405180910390f35b6101bc60048036038101906101b791906107ec565b61069b565b6040516101c9919061088e565b60405180910390f35b6101ec60048036038101906101e791906107ec565b61078b565b6040516101f9919061088e565b60405180910390f35b60036020528060005260406000206000915090508060000160009054906101000a900473ffffffffffffffffffffffffffffffffffffffff16908060010154908060020160009054906101000a900460ff16905083565b6000600160009054906101000a900473ffffffffffffffffffffffffffffffffffffffff1673ffffffffffffffffffffffffffffffffffffffff163373ffffffffffffffffffffffffffffffffffffffff161480610302575060008054906101000a900473ffffffffffffffffffffffffffffffffffffffff1673ffffffffffffffffffffffffffffffffffffffff163373ffffffffffffffffffffffffffffffffffffffff16145b61030b57600080fd5b6003600083815260200190815260200160002060000160009054906101000a900473ffffffffffffffffffffffffffffffffffffffff169050919050565b600560009054906101000a900473ffffffffffffffffffffffffffffffffffffffff1681565b6000600160009054906101000a900473ffffffffffffffffffffffffffffffffffffffff1673ffffffffffffffffffffffffffffffffffffffff163373ffffffffffffffffffffffffffffffffffffffff161480610418575060008054906101000a900473ffffffffffffffffffffffffffffffffffffffff1673ffffffffffffffffffffffffffffffffffffffff163373ffffffffffffffffffffffffffffffffffffffff16145b61042157600080fd5b600073ffffffffffffffffffffffffffffffffffffffff166104428361069b565b73ffffffffffffffffffffffffffffffffffffffff16141561046357600080fd5b600030604051610472906107ca565b61047c919061088e565b604051809103906000f080158015610498573d6000803e3d6000fd5b5090506004819080600181540180825580915050600190039060005260206000200160009091909190916101000a81548173ffffffffffffffffffffffffffffffffffffffff021916908373ffffffffffffffffffffffffffffffffffffffff16021790555060405180606001604052808273ffffffffffffffffffffffffffffffffffffffff168152602001848152602001600115158152506003600085815260200190815260200160002060008201518160000160006101000a81548173ffffffffffffffffffffffffffffffffffffffff021916908373ffffffffffffffffffffffffffffffffffffffff1602179055506020820151816001015560408201518160020160006101000a81548160ff0219169083151502179055509050506001915050919050565b60008054906101000a900473ffffffffffffffffffffffffffffffffffffffff1681565b600280546105f4906109f3565b80601f0160208091040260200160405190810160405280929190818152602001828054610620906109f3565b801561066d5780601f106106425761010080835404028352916020019161066d565b820191906000526020600020905b81548152906001019060200180831161065057829003601f168201915b505050505081565b600160009054906101000a900473ffffffffffffffffffffffffffffffffffffffff1681565b6000600160009054906101000a900473ffffffffffffffffffffffffffffffffffffffff1673ffffffffffffffffffffffffffffffffffffffff163373ffffffffffffffffffffffffffffffffffffffff161480610744575060008054906101000a900473ffffffffffffffffffffffffffffffffffffffff1673ffffffffffffffffffffffffffffffffffffffff163373ffffffffffffffffffffffffffffffffffffffff16145b61074d57600080fd5b6003600083815260200190815260200160002060000160009054906101000a900473ffffffffffffffffffffffffffffffffffffffff169050919050565b6004818154811061079b57600080fd5b906000526020600020016000915054906101000a900473ffffffffffffffffffffffffffffffffffffffff1681565b6104e980610a8283390190565b6000813590506107e681610a6a565b92915050565b60006020828403121561080257610801610a54565b5b6000610810848285016107d7565b91505092915050565b61082281610954565b82525050565b61083181610966565b82525050565b6108408161099c565b82525050565b600061085182610938565b61085b8185610943565b935061086b8185602086016109c0565b61087481610a59565b840191505092915050565b61088881610992565b82525050565b60006020820190506108a36000830184610819565b92915050565b60006060820190506108be6000830186610819565b6108cb602083018561087f565b6108d86040830184610828565b949350505050565b60006020820190506108f56000830184610828565b92915050565b60006020820190506109106000830184610837565b92915050565b600060208201905081810360008301526109308184610846565b905092915050565b600081519050919050565b600082825260208201905092915050565b600061095f82610972565b9050919050565b60008115159050919050565b600073ffffffffffffffffffffffffffffffffffffffff82169050919050565b6000819050919050565b60006109a7826109ae565b9050919050565b60006109b982610972565b9050919050565b60005b838110156109de5780820151818401526020810190506109c3565b838111156109ed576000848401525b50505050565b60006002820490506001821680610a0b57607f821691505b60208210811415610a1f57610a1e610a25565b5b50919050565b7f4e487b7100000000000000000000000000000000000000000000000000000000600052602260045260246000fd5b600080fd5b6000601f19601f8301169050919050565b610a7381610992565b8114610a7e57600080fd5b5056fe608060405234801561001057600080fd5b506040516104e93803806104e983398181016040528101906100329190610095565b806000806101000a81548173ffffffffffffffffffffffffffffffffffffffff021916908373ffffffffffffffffffffffffffffffffffffffff160217905550600060018190555050610110565b60008151905061008f816100f9565b92915050565b6000602082840312156100ab576100aa6100f4565b5b60006100b984828501610080565b91505092915050565b60006100cd826100d4565b9050919050565b600073ffffffffffffffffffffffffffffffffffffffff82169050919050565b600080fd5b610102816100c2565b811461010d57600080fd5b50565b6103ca8061011f6000396000f3fe60806040526004361061002d5760003560e01c80634daa6a98146100725780638b734233146100af5761006d565b3661006d577f7e71433ddf847725166244795048ecf3e3f9f35628254ecbf73605666423349333346040516100639291906102ec565b60405180910390a1005b600080fd5b34801561007e57600080fd5b506100996004803603810190610094919061027f565b6100cd565b6040516100a69190610315565b60405180910390f35b6100b76101a5565b6040516100c49190610315565b60405180910390f35b60008060009054906101000a900473ffffffffffffffffffffffffffffffffffffffff1673ffffffffffffffffffffffffffffffffffffffff163373ffffffffffffffffffffffffffffffffffffffff16148061017a575060011515600260003373ffffffffffffffffffffffffffffffffffffffff1673ffffffffffffffffffffffffffffffffffffffff16815260200190815260200160002060009054906101000a900460ff161515145b61018357600080fd5b8160036000858152602001908152602001600020819055506001905092915050565b60008060009054906101000a900473ffffffffffffffffffffffffffffffffffffffff1673ffffffffffffffffffffffffffffffffffffffff163373ffffffffffffffffffffffffffffffffffffffff161461020057600080fd5b60006001549050600060018190555060008054906101000a900473ffffffffffffffffffffffffffffffffffffffff1673ffffffffffffffffffffffffffffffffffffffff166108fc829081150290604051600060405180830381858888f1935050505091505090565b6000813590506102798161037d565b92915050565b6000806040838503121561029657610295610378565b5b60006102a48582860161026a565b92505060206102b58582860161026a565b9150509250929050565b6102c881610330565b82525050565b6102d781610342565b82525050565b6102e68161036e565b82525050565b600060408201905061030160008301856102bf565b61030e60208301846102dd565b9392505050565b600060208201905061032a60008301846102ce565b92915050565b600061033b8261034e565b9050919050565b60008115159050919050565b600073ffffffffffffffffffffffffffffffffffffffff82169050919050565b6000819050919050565b600080fd5b6103868161036e565b811461039157600080fd5b5056fea26469706673582212203dde24f4d878d71f86a3ea2302d77f11a6b0d50467eb55a38ebcb13466d9829964736f6c63430008060033a26469706673582212203966a1fdc669d547503b0d1cdeb080793da1c08f245df12f5e09097dea1f323564736f6c63430008060033a264697066735822122098d172f5841829f97da011f6f07dbe28b367ea93030b90fab26f18b74a726f4f64736f6c63430008060033",
  "immutableReferences": {},
  "source": "pragma solidity >=0.7.0 <0.9.0;\n\nimport \"./whitelist.sol\";\n\n\ncontract CorporateFactory { \n    address public owner; // owner address \n    mapping(uint => corporate) public corporates;\n    uint numCorps; // a mapping of contract ids to the corporate struct.\n    bool active = true;\n\n    struct corporate {\n        address corpAddress;\n        uint id;\n        bool valid;\n    }\n\n    constructor() {\n        owner = msg.sender;\n    }\n\n    function createCorp(string memory corpName) public  permissioned activeContract returns(bool){\n        Corporate newCorp = new Corporate(owner,corpName);\n        corporates[numCorps] = corporate(address(newCorp), numCorps, true);\n        numCorps += 1;\n        return true;\n    }\n\n    function getCorporate(uint id) public view permissioned returns(address)  {\n        return corporates[id].corpAddress;\n    }\n\n    function toggleContractActivation() public permissioned returns (bool){\n        active = !active;\n        return(active);\n    }\n\n    modifier permissioned {\n        require(msg.sender == owner, \"Only the owner can access this function\");\n        _;\n    }\n\n    modifier activeContract{\n        require(active = true, \"Contract no longer active\");\n        _;\n    }\n}\n\ncontract Corporate {\n    address public creator_; // creator of the contract\n    address public owner; // creator of the contract\n    string public corporate_name_; // name of the contract\n    mapping(uint => sub) public subsidiaries; // a mapping of contract ids to the sub struct.\n    address[] public subs; // could make this into a struct so the id can be found easily.\n    whitelist public whitelist_;\n    \n    struct sub {\n        address subAddress;\n        uint id;\n        bool init;\n    }\n\n\n    constructor(address owner_, string memory name){\n        owner = owner_;\n        creator_ = msg.sender;\n        corporate_name_ = name;     \n    }\n\n    function createSub(uint id) public  permissioned returns(bool){\n        // if set to default address the contract does not yet exist \n        require(getSubContract(id) != address(0));\n        Subsidiary newSub = new Subsidiary(address(this));\n        subs.push(address(newSub));\n        subsidiaries[id] = sub(address(newSub), id, true);\n        return true;\n    }\n\n    function getSubContract(uint id) public permissioned returns(address)  {\n        return subsidiaries[id].subAddress;\n    }\n\n    function updateWhitelist(uint id) public permissioned returns(address)  {\n        return subsidiaries[id].subAddress;\n    }\n\n    modifier permissioned {\n        require(msg.sender == owner || msg.sender == creator_);\n        _;\n    }\n}\n\n\ncontract Subsidiary {\n    address payable parent_;\n    uint amount;\n    mapping(address => bool) permissionedAddress;\n    event ValueReceived(address user, uint amount);\n\n    // transaction id to person id\n    mapping(uint => uint) transactions;\n\n    constructor(address parent) {\n        parent_ = payable(parent);\n        amount = 0;\n    }\n\n    // need to make sure no possibility for double spend\n    // Will reset to zero and prevent withdrawl whilst the send transaction is processed.\n    function getTake() accountsAccess() public payable returns(bool)  {\n        uint prevAmount = amount;\n        amount = 0;\n        return parent_.send(prevAmount); // need to write a fallback function if this fails.\n    }\n\n    // Oracle end point.\n    // reassess this function as it always returns true.\n    function insertTransaction(uint transID, uint person_id) restricted() public returns(bool) {\n        transactions[transID] = person_id;\n        return true;\n    }\n\n    receive() external payable{\n        emit ValueReceived(msg.sender, msg.value);\n    }\n    \n    modifier restricted {\n        require(msg.sender == parent_ || permissionedAddress[msg.sender] == true);\n        _;\n    }\n\n    modifier accountsAccess {\n        require(msg.sender == parent_);\n        _;\n    }\n}",
  "sourcePath": "/Users/cameronbaker/Documents/Third_Year_Uni/comp6452/Ass2-Group/COMP6452-HelpChain/contracts/CorporateFactory.sol",
  "compiler": {
    "name": "solc",
    "version": "0.8.6+commit.11564f7e.Emscripten.clang"
  },
  "schemaVersion": "3.3.4",
  "updatedAt": "2021-07-27T11:35:19.103Z",
  "networkType": "ethereum",
  "devdoc": {
    "kind": "dev",
    "methods": {},
    "version": 1
  },
  "userdoc": {
    "kind": "user",
    "methods": {},
    "version": 1
  }
}