{
  "contractName": "Corporate",
  "abi": [
    {
      "inputs": [
        {
          "internalType": "address",
          "name": "owner_",
          "type": "address"
        },
        {
          "internalType": "string",
          "name": "name",
          "type": "string"
        }
      ],
      "stateMutability": "nonpayable",
      "type": "constructor"
    },
    {
      "inputs": [],
      "name": "corporate_name_",
      "outputs": [
        {
          "internalType": "string",
          "name": "",
          "type": "string"
        }
      ],
      "stateMutability": "view",
      "type": "function"
    },
    {
      "inputs": [],
      "name": "creator_",
      "outputs": [
        {
          "internalType": "address",
          "name": "",
          "type": "address"
        }
      ],
      "stateMutability": "view",
      "type": "function"
    },
    {
      "inputs": [],
      "name": "owner",
      "outputs": [
        {
          "internalType": "address",
          "name": "",
          "type": "address"
        }
      ],
      "stateMutability": "view",
      "type": "function"
    },
    {
      "inputs": [
        {
          "internalType": "uint256",
          "name": "",
          "type": "uint256"
        }
      ],
      "name": "subs",
      "outputs": [
        {
          "internalType": "address",
          "name": "",
          "type": "address"
        }
      ],
      "stateMutability": "view",
      "type": "function"
    },
    {
      "inputs": [
        {
          "internalType": "uint256",
          "name": "",
          "type": "uint256"
        }
      ],
      "name": "subsidiaries",
      "outputs": [
        {
          "internalType": "address",
          "name": "subAddress",
          "type": "address"
        },
        {
          "internalType": "uint256",
          "name": "id",
          "type": "uint256"
        },
        {
          "internalType": "bool",
          "name": "init",
          "type": "bool"
        }
      ],
      "stateMutability": "view",
      "type": "function"
    },
    {
      "inputs": [],
      "name": "whitelist_",
      "outputs": [
        {
          "internalType": "contract whitelist",
          "name": "",
          "type": "address"
        }
      ],
      "stateMutability": "view",
      "type": "function"
    },
    {
      "inputs": [
        {
          "internalType": "uint256",
          "name": "id",
          "type": "uint256"
        }
      ],
      "name": "createSub",
      "outputs": [
        {
          "internalType": "bool",
          "name": "",
          "type": "bool"
        }
      ],
      "stateMutability": "nonpayable",
      "type": "function"
    },
    {
      "inputs": [
        {
          "internalType": "uint256",
          "name": "id",
          "type": "uint256"
        }
      ],
      "name": "getSubContract",
      "outputs": [
        {
          "internalType": "address",
          "name": "",
          "type": "address"
        }
      ],
      "stateMutability": "nonpayable",
      "type": "function"
    },
    {
      "inputs": [
        {
          "internalType": "uint256",
          "name": "id",
          "type": "uint256"
        }
      ],
      "name": "updateWhitelist",
      "outputs": [
        {
          "internalType": "address",
          "name": "",
          "type": "address"
        }
      ],
      "stateMutability": "nonpayable",
      "type": "function"
    }
  ],
  "bytecode": "0x60806040523480156200001157600080fd5b50604051620014063803806200140683398181016040528101906200003791906200021e565b81600160006101000a81548173ffffffffffffffffffffffffffffffffffffffff021916908373ffffffffffffffffffffffffffffffffffffffff160217905550336000806101000a81548173ffffffffffffffffffffffffffffffffffffffff021916908373ffffffffffffffffffffffffffffffffffffffff1602179055508060029080519060200190620000d0929190620000d9565b50505062000456565b828054620000e7906200034d565b90600052602060002090601f0160209004810192826200010b576000855562000157565b82601f106200012657805160ff191683800117855562000157565b8280016001018555821562000157579182015b828111156200015657825182559160200191906001019062000139565b5b5090506200016691906200016a565b5090565b5b80821115620001855760008160009055506001016200016b565b5090565b6000620001a06200019a84620002ad565b62000284565b905082815260208101848484011115620001bf57620001be6200041c565b5b620001cc84828562000317565b509392505050565b600081519050620001e5816200043c565b92915050565b600082601f83011262000203576200020262000417565b5b81516200021584826020860162000189565b91505092915050565b6000806040838503121562000238576200023762000426565b5b60006200024885828601620001d4565b925050602083015167ffffffffffffffff8111156200026c576200026b62000421565b5b6200027a85828601620001eb565b9150509250929050565b600062000290620002a3565b90506200029e828262000383565b919050565b6000604051905090565b600067ffffffffffffffff821115620002cb57620002ca620003e8565b5b620002d6826200042b565b9050602081019050919050565b6000620002f082620002f7565b9050919050565b600073ffffffffffffffffffffffffffffffffffffffff82169050919050565b60005b83811015620003375780820151818401526020810190506200031a565b8381111562000347576000848401525b50505050565b600060028204905060018216806200036657607f821691505b602082108114156200037d576200037c620003b9565b5b50919050565b6200038e826200042b565b810181811067ffffffffffffffff82111715620003b057620003af620003e8565b5b80604052505050565b7f4e487b7100000000000000000000000000000000000000000000000000000000600052602260045260246000fd5b7f4e487b7100000000000000000000000000000000000000000000000000000000600052604160045260246000fd5b600080fd5b600080fd5b600080fd5b600080fd5b6000601f19601f8301169050919050565b6200044781620002e3565b81146200045357600080fd5b50565b610fa080620004666000396000f3fe608060405234801561001057600080fd5b50600436106100935760003560e01c806389165e401161006657806389165e40146101485780638ba4d864146101665780638da5cb5b14610184578063f4111496146101a2578063f8a64f9a146101d257610093565b80630e0a42db146100985780634e82b299146100ca578063553777a6146100fa578063805f420214610118575b600080fd5b6100b260048036038101906100ad91906107ec565b610202565b6040516100c1939291906108a9565b60405180910390f35b6100e460048036038101906100df91906107ec565b610259565b6040516100f1919061088e565b60405180910390f35b610102610349565b60405161010f91906108fb565b60405180910390f35b610132600480360381019061012d91906107ec565b61036f565b60405161013f91906108e0565b60405180910390f35b6101506105c3565b60405161015d919061088e565b60405180910390f35b61016e6105e7565b60405161017b9190610916565b60405180910390f35b61018c610675565b604051610199919061088e565b60405180910390f35b6101bc60048036038101906101b791906107ec565b61069b565b6040516101c9919061088e565b60405180910390f35b6101ec60048036038101906101e791906107ec565b61078b565b6040516101f9919061088e565b60405180910390f35b60036020528060005260406000206000915090508060000160009054906101000a900473ffffffffffffffffffffffffffffffffffffffff16908060010154908060020160009054906101000a900460ff16905083565b6000600160009054906101000a900473ffffffffffffffffffffffffffffffffffffffff1673ffffffffffffffffffffffffffffffffffffffff163373ffffffffffffffffffffffffffffffffffffffff161480610302575060008054906101000a900473ffffffffffffffffffffffffffffffffffffffff1673ffffffffffffffffffffffffffffffffffffffff163373ffffffffffffffffffffffffffffffffffffffff16145b61030b57600080fd5b6003600083815260200190815260200160002060000160009054906101000a900473ffffffffffffffffffffffffffffffffffffffff169050919050565b600560009054906101000a900473ffffffffffffffffffffffffffffffffffffffff1681565b6000600160009054906101000a900473ffffffffffffffffffffffffffffffffffffffff1673ffffffffffffffffffffffffffffffffffffffff163373ffffffffffffffffffffffffffffffffffffffff161480610418575060008054906101000a900473ffffffffffffffffffffffffffffffffffffffff1673ffffffffffffffffffffffffffffffffffffffff163373ffffffffffffffffffffffffffffffffffffffff16145b61042157600080fd5b600073ffffffffffffffffffffffffffffffffffffffff166104428361069b565b73ffffffffffffffffffffffffffffffffffffffff16141561046357600080fd5b600030604051610472906107ca565b61047c919061088e565b604051809103906000f080158015610498573d6000803e3d6000fd5b5090506004819080600181540180825580915050600190039060005260206000200160009091909190916101000a81548173ffffffffffffffffffffffffffffffffffffffff021916908373ffffffffffffffffffffffffffffffffffffffff16021790555060405180606001604052808273ffffffffffffffffffffffffffffffffffffffff168152602001848152602001600115158152506003600085815260200190815260200160002060008201518160000160006101000a81548173ffffffffffffffffffffffffffffffffffffffff021916908373ffffffffffffffffffffffffffffffffffffffff1602179055506020820151816001015560408201518160020160006101000a81548160ff0219169083151502179055509050506001915050919050565b60008054906101000a900473ffffffffffffffffffffffffffffffffffffffff1681565b600280546105f4906109f3565b80601f0160208091040260200160405190810160405280929190818152602001828054610620906109f3565b801561066d5780601f106106425761010080835404028352916020019161066d565b820191906000526020600020905b81548152906001019060200180831161065057829003601f168201915b505050505081565b600160009054906101000a900473ffffffffffffffffffffffffffffffffffffffff1681565b6000600160009054906101000a900473ffffffffffffffffffffffffffffffffffffffff1673ffffffffffffffffffffffffffffffffffffffff163373ffffffffffffffffffffffffffffffffffffffff161480610744575060008054906101000a900473ffffffffffffffffffffffffffffffffffffffff1673ffffffffffffffffffffffffffffffffffffffff163373ffffffffffffffffffffffffffffffffffffffff16145b61074d57600080fd5b6003600083815260200190815260200160002060000160009054906101000a900473ffffffffffffffffffffffffffffffffffffffff169050919050565b6004818154811061079b57600080fd5b906000526020600020016000915054906101000a900473ffffffffffffffffffffffffffffffffffffffff1681565b6104e980610a8283390190565b6000813590506107e681610a6a565b92915050565b60006020828403121561080257610801610a54565b5b6000610810848285016107d7565b91505092915050565b61082281610954565b82525050565b61083181610966565b82525050565b6108408161099c565b82525050565b600061085182610938565b61085b8185610943565b935061086b8185602086016109c0565b61087481610a59565b840191505092915050565b61088881610992565b82525050565b60006020820190506108a36000830184610819565b92915050565b60006060820190506108be6000830186610819565b6108cb602083018561087f565b6108d86040830184610828565b949350505050565b60006020820190506108f56000830184610828565b92915050565b60006020820190506109106000830184610837565b92915050565b600060208201905081810360008301526109308184610846565b905092915050565b600081519050919050565b600082825260208201905092915050565b600061095f82610972565b9050919050565b60008115159050919050565b600073ffffffffffffffffffffffffffffffffffffffff82169050919050565b6000819050919050565b60006109a7826109ae565b9050919050565b60006109b982610972565b9050919050565b60005b838110156109de5780820151818401526020810190506109c3565b838111156109ed576000848401525b50505050565b60006002820490506001821680610a0b57607f821691505b60208210811415610a1f57610a1e610a25565b5b50919050565b7f4e487b7100000000000000000000000000000000000000000000000000000000600052602260045260246000fd5b600080fd5b6000601f19601f8301169050919050565b610a7381610992565b8114610a7e57600080fd5b5056fe608060405234801561001057600080fd5b506040516104e93803806104e983398181016040528101906100329190610095565b806000806101000a81548173ffffffffffffffffffffffffffffffffffffffff021916908373ffffffffffffffffffffffffffffffffffffffff160217905550600060018190555050610110565b60008151905061008f816100f9565b92915050565b6000602082840312156100ab576100aa6100f4565b5b60006100b984828501610080565b91505092915050565b60006100cd826100d4565b9050919050565b600073ffffffffffffffffffffffffffffffffffffffff82169050919050565b600080fd5b610102816100c2565b811461010d57600080fd5b50565b6103ca8061011f6000396000f3fe60806040526004361061002d5760003560e01c80634daa6a98146100725780638b734233146100af5761006d565b3661006d577f7e71433ddf847725166244795048ecf3e3f9f35628254ecbf73605666423349333346040516100639291906102ec565b60405180910390a1005b600080fd5b34801561007e57600080fd5b506100996004803603810190610094919061027f565b6100cd565b6040516100a69190610315565b60405180910390f35b6100b76101a5565b6040516100c49190610315565b60405180910390f35b60008060009054906101000a900473ffffffffffffffffffffffffffffffffffffffff1673ffffffffffffffffffffffffffffffffffffffff163373ffffffffffffffffffffffffffffffffffffffff16148061017a575060011515600260003373ffffffffffffffffffffffffffffffffffffffff1673ffffffffffffffffffffffffffffffffffffffff16815260200190815260200160002060009054906101000a900460ff161515145b61018357600080fd5b8160036000858152602001908152602001600020819055506001905092915050565b60008060009054906101000a900473ffffffffffffffffffffffffffffffffffffffff1673ffffffffffffffffffffffffffffffffffffffff163373ffffffffffffffffffffffffffffffffffffffff161461020057600080fd5b60006001549050600060018190555060008054906101000a900473ffffffffffffffffffffffffffffffffffffffff1673ffffffffffffffffffffffffffffffffffffffff166108fc829081150290604051600060405180830381858888f1935050505091505090565b6000813590506102798161037d565b92915050565b6000806040838503121561029657610295610378565b5b60006102a48582860161026a565b92505060206102b58582860161026a565b9150509250929050565b6102c881610330565b82525050565b6102d781610342565b82525050565b6102e68161036e565b82525050565b600060408201905061030160008301856102bf565b61030e60208301846102dd565b9392505050565b600060208201905061032a60008301846102ce565b92915050565b600061033b8261034e565b9050919050565b60008115159050919050565b600073ffffffffffffffffffffffffffffffffffffffff82169050919050565b6000819050919050565b600080fd5b6103868161036e565b811461039157600080fd5b5056fea26469706673582212201d4a40055e091cfc0f17bd26ce2ed109d3c9ac4c506e56c05bc19a09b637e4ce64736f6c63430008060033a2646970667358221220b10d5bd7e1271d865af768a62b02046d1365449e5dd95d86bf7698ebbc3560d064736f6c63430008060033",
  "immutableReferences": {},
  "source": "pragma solidity >=0.7.0 <0.9.0;\n\nimport \"./whitelist.sol\";\n\n\ncontract CorporateFactory { \n    address public owner; // owner address \n    mapping(uint => corporate) public corporates;\n    uint numCorps; // a mapping of contract ids to the corporate struct.\n    bool active = true;\n\n    struct corporate {\n        address corpAddress;\n        uint id;\n        bool valid;\n    }\n\n    constructor() {\n        owner = msg.sender;\n    }\n\n    function createCorp(string memory corpName) public  permissioned activeContract returns(bool){\n        Corporate newCorp = new Corporate(owner,corpName);\n        corporates[numCorps] = corporate(address(newCorp), numCorps, true);\n        numCorps += 1;\n        return true;\n    }\n\n    function getCorporate(uint id) public view permissioned returns(address)  {\n        return corporates[id].corpAddress;\n    }\n\n    function toggleContractActivation() public permissioned returns (bool){\n        active = !active;\n        return(active);\n    }\n\n    modifier permissioned {\n        require(msg.sender == owner, \"Only the owner can access this function\");\n        _;\n    }\n\n    modifier activeContract{\n        require(active = true, \"Contract no longer active\");\n        _;\n    }\n}\n\ncontract Corporate {\n    address public creator_; // creator of the contract\n    address public owner; // creator of the contract\n    string public corporate_name_; // name of the contract\n    mapping(uint => sub) public subsidiaries; // a mapping of contract ids to the sub struct.\n    address[] public subs; // could make this into a struct so the id can be found easily.\n    whitelist public whitelist_;\n    \n    struct sub {\n        address subAddress;\n        uint id;\n        bool init;\n    }\n\n\n    constructor(address owner_, string memory name){\n        owner = owner_;\n        creator_ = msg.sender;\n        corporate_name_ = name;     \n    }\n\n    function createSub(uint id) public  permissioned returns(bool){\n        // if set to default address the contract does not yet exist \n        require(getSubContract(id) != address(0));\n        Subsidiary newSub = new Subsidiary(address(this));\n        subs.push(address(newSub));\n        subsidiaries[id] = sub(address(newSub), id, true);\n        return true;\n    }\n\n    function getSubContract(uint id) public permissioned returns(address)  {\n        return subsidiaries[id].subAddress;\n    }\n\n    function updateWhitelist(uint id) public permissioned returns(address)  {\n        return subsidiaries[id].subAddress;\n    }\n\n    modifier permissioned {\n        require(msg.sender == owner || msg.sender == creator_);\n        _;\n    }\n}\n\n\ncontract Subsidiary {\n    address payable parent_;\n    uint amount;\n    mapping(address => bool) permissionedAddress;\n    event ValueReceived(address user, uint amount);\n\n    // transaction id to person id\n    mapping(uint => uint) transactions;\n\n    constructor(address parent) {\n        parent_ = payable(parent);\n        amount = 0;\n    }\n\n    // need to make sure no possibility for double spend\n    // Will reset to zero and prevent withdrawl whilst the send transaction is processed.\n    function getTake() accountsAccess() public payable returns(bool)  {\n        uint prevAmount = amount;\n        amount = 0;\n        return parent_.send(prevAmount); // need to write a fallback function if this fails.\n    }\n\n    // Oracle end point.\n    // reassess this function as it always returns true.\n    function insertTransaction(uint transID, uint person_id) restricted() public returns(bool) {\n        transactions[transID] = person_id;\n        return true;\n    }\n\n    receive() external payable{\n        emit ValueReceived(msg.sender, msg.value);\n    }\n    \n    modifier restricted {\n        require(msg.sender == parent_ || permissionedAddress[msg.sender] == true);\n        _;\n    }\n\n    modifier accountsAccess {\n        require(msg.sender == parent_);\n        _;\n    }\n}",
  "sourcePath": "/Users/dylan/Library/Mobile Documents/com~apple~CloudDocs/Developer/UNSW/COMP6452_Blockchain_Architecture/COMP6452-HelpChain/contracts/CorporateFactory.sol",
  "compiler": {
    "name": "solc",
    "version": "0.8.6+commit.11564f7e.Emscripten.clang"
  },
  "schemaVersion": "3.4.2",
  "updatedAt": "2021-07-27T22:25:46.812Z",
  "devdoc": {
    "kind": "dev",
    "methods": {},
    "version": 1
  },
  "userdoc": {
    "kind": "user",
    "methods": {},
    "version": 1
  }
}