{
  "contractName": "CorporateFactory",
  "abi": [
    {
      "inputs": [
        {
          "internalType": "contract Admin",
          "name": "admin_",
          "type": "address"
        }
      ],
      "stateMutability": "nonpayable",
      "type": "constructor"
    },
    {
      "inputs": [],
      "name": "admin",
      "outputs": [
        {
          "internalType": "contract Admin",
          "name": "",
          "type": "address"
        }
      ],
      "stateMutability": "view",
      "type": "function"
    },
    {
      "inputs": [
        {
          "internalType": "uint256",
          "name": "",
          "type": "uint256"
        }
      ],
      "name": "corporates",
      "outputs": [
        {
          "internalType": "address",
          "name": "corpAddress",
          "type": "address"
        },
        {
          "internalType": "uint256",
          "name": "id",
          "type": "uint256"
        },
        {
          "internalType": "bool",
          "name": "valid",
          "type": "bool"
        }
      ],
      "stateMutability": "view",
      "type": "function"
    },
    {
      "inputs": [],
      "name": "owner",
      "outputs": [
        {
          "internalType": "address",
          "name": "",
          "type": "address"
        }
      ],
      "stateMutability": "view",
      "type": "function"
    },
    {
      "inputs": [
        {
          "internalType": "string",
          "name": "corpName",
          "type": "string"
        }
      ],
      "name": "createCorp",
      "outputs": [
        {
          "internalType": "address",
          "name": "",
          "type": "address"
        }
      ],
      "stateMutability": "nonpayable",
      "type": "function"
    },
    {
      "inputs": [
        {
          "internalType": "uint256",
          "name": "id",
          "type": "uint256"
        }
      ],
      "name": "getCorporate",
      "outputs": [
        {
          "internalType": "address",
          "name": "",
          "type": "address"
        }
      ],
      "stateMutability": "view",
      "type": "function"
    },
    {
      "inputs": [],
      "name": "toggleContractActivation",
      "outputs": [
        {
          "internalType": "bool",
          "name": "",
          "type": "bool"
        }
      ],
      "stateMutability": "nonpayable",
      "type": "function"
    },
    {
      "inputs": [
        {
          "internalType": "uint256",
          "name": "id",
          "type": "uint256"
        }
      ],
      "name": "disableCorporate",
      "outputs": [
        {
          "internalType": "bool",
          "name": "",
          "type": "bool"
        }
      ],
      "stateMutability": "nonpayable",
      "type": "function"
    },
    {
      "inputs": [
        {
          "internalType": "uint256",
          "name": "id",
          "type": "uint256"
        }
      ],
      "name": "checkIfCorporateValid",
      "outputs": [
        {
          "internalType": "bool",
          "name": "",
          "type": "bool"
        }
      ],
      "stateMutability": "view",
      "type": "function"
    }
  ],
  "bytecode": "0x60806040526001600460006101000a81548160ff0219169083151502179055503480156200002c57600080fd5b50604051620033de380380620033de8339818101604052810190620000529190620000f1565b336000806101000a81548173ffffffffffffffffffffffffffffffffffffffff021916908373ffffffffffffffffffffffffffffffffffffffff16021790555080600160006101000a81548173ffffffffffffffffffffffffffffffffffffffff021916908373ffffffffffffffffffffffffffffffffffffffff160217905550506200018a565b600081519050620000eb8162000170565b92915050565b6000602082840312156200010a57620001096200016b565b5b60006200011a84828501620000da565b91505092915050565b600062000130826200014b565b9050919050565b6000620001448262000123565b9050919050565b600073ffffffffffffffffffffffffffffffffffffffff82169050919050565b600080fd5b6200017b8162000137565b81146200018757600080fd5b50565b613244806200019a6000396000f3fe60806040523480156200001157600080fd5b5060043610620000945760003560e01c80638da5cb5b11620000635780638da5cb5b146200015f578063a5102b371462000181578063dad1540214620001b7578063f851a44014620001ed5762000094565b8063010d666314620000995780631f2e4f0614620000cf5780634aa2f240146200010557806368a0b4e71462000127575b600080fd5b620000b76004803603810190620000b1919062000ac4565b6200020f565b604051620000c6919062000bf0565b60405180910390f35b620000ed6004803603810190620000e7919062000ac4565b620002a8565b604051620000fc919062000c8e565b60405180910390f35b6200010f62000426565b6040516200011e919062000c8e565b60405180910390f35b6200014560048036038101906200013f919062000ac4565b62000552565b604051620001569392919062000c51565b60405180910390f35b62000169620005a9565b60405162000178919062000bf0565b60405180910390f35b6200019f600480360381019062000199919062000a73565b620005cd565b604051620001ae919062000bf0565b60405180910390f35b620001d56004803603810190620001cf919062000ac4565b6200087b565b604051620001e4919062000c8e565b60405180910390f35b620001f7620009aa565b60405162000206919062000cab565b60405180910390f35b600060011515600460009054906101000a900460ff161515146200026a576040517f08c379a0000000000000000000000000000000000000000000000000000000008152600401620002619062000cc8565b60405180910390fd5b6002600083815260200190815260200160002060000160009054906101000a900473ffffffffffffffffffffffffffffffffffffffff169050919050565b60008060009054906101000a900473ffffffffffffffffffffffffffffffffffffffff1673ffffffffffffffffffffffffffffffffffffffff163373ffffffffffffffffffffffffffffffffffffffff161480620003535750600160009054906101000a900473ffffffffffffffffffffffffffffffffffffffff1673ffffffffffffffffffffffffffffffffffffffff163373ffffffffffffffffffffffffffffffffffffffff16145b62000395576040517f08c379a00000000000000000000000000000000000000000000000000000000081526004016200038c9062000cea565b60405180910390fd5b60011515600460009054906101000a900460ff16151514620003ee576040517f08c379a0000000000000000000000000000000000000000000000000000000008152600401620003e59062000cc8565b60405180910390fd5b60006002600084815260200190815260200160002060020160006101000a81548160ff02191690831515021790555060019050919050565b60008060009054906101000a900473ffffffffffffffffffffffffffffffffffffffff1673ffffffffffffffffffffffffffffffffffffffff163373ffffffffffffffffffffffffffffffffffffffff161480620004d15750600160009054906101000a900473ffffffffffffffffffffffffffffffffffffffff1673ffffffffffffffffffffffffffffffffffffffff163373ffffffffffffffffffffffffffffffffffffffff16145b62000513576040517f08c379a00000000000000000000000000000000000000000000000000000000081526004016200050a9062000cea565b60405180910390fd5b600460009054906101000a900460ff1615600460006101000a81548160ff021916908315150217905550600460009054906101000a900460ff16905090565b60026020528060005260406000206000915090508060000160009054906101000a900473ffffffffffffffffffffffffffffffffffffffff16908060010154908060020160009054906101000a900460ff16905083565b60008054906101000a900473ffffffffffffffffffffffffffffffffffffffff1681565b60008060009054906101000a900473ffffffffffffffffffffffffffffffffffffffff1673ffffffffffffffffffffffffffffffffffffffff163373ffffffffffffffffffffffffffffffffffffffff161480620006785750600160009054906101000a900473ffffffffffffffffffffffffffffffffffffffff1673ffffffffffffffffffffffffffffffffffffffff163373ffffffffffffffffffffffffffffffffffffffff16145b620006ba576040517f08c379a0000000000000000000000000000000000000000000000000000000008152600401620006b19062000cea565b60405180910390fd5b60011515600460009054906101000a900460ff1615151462000713576040517f08c379a00000000000000000000000000000000000000000000000000000000081526004016200070a9062000cc8565b60405180910390fd5b60008060009054906101000a900473ffffffffffffffffffffffffffffffffffffffff16600160009054906101000a900473ffffffffffffffffffffffffffffffffffffffff16846040516200076990620009d0565b620007779392919062000c0d565b604051809103906000f08015801562000794573d6000803e3d6000fd5b50905060405180606001604052808273ffffffffffffffffffffffffffffffffffffffff16815260200160035481526020016001151581525060026000600354815260200190815260200160002060008201518160000160006101000a81548173ffffffffffffffffffffffffffffffffffffffff021916908373ffffffffffffffffffffffffffffffffffffffff1602179055506020820151816001015560408201518160020160006101000a81548160ff0219169083151502179055509050506001600360008282546200086b919062000da9565b9250508190555080915050919050565b600060011515600460009054906101000a900460ff16151514620008d6576040517f08c379a0000000000000000000000000000000000000000000000000000000008152600401620008cd9062000cc8565b60405180910390fd5b600073ffffffffffffffffffffffffffffffffffffffff166002600084815260200190815260200160002060000160009054906101000a900473ffffffffffffffffffffffffffffffffffffffff1673ffffffffffffffffffffffffffffffffffffffff1614156200097f576040517f08c379a0000000000000000000000000000000000000000000000000000000008152600401620009769062000d0c565b60405180910390fd5b6002600083815260200190815260200160002060020160009054906101000a900460ff169050919050565b600160009054906101000a900473ffffffffffffffffffffffffffffffffffffffff1681565b6121dd806200103283390190565b6000620009f5620009ef8462000d57565b62000d2e565b90508281526020810184848401111562000a145762000a1362000f56565b5b62000a2184828562000e78565b509392505050565b600082601f83011262000a415762000a4062000f51565b5b813562000a53848260208601620009de565b91505092915050565b60008135905062000a6d8162001017565b92915050565b60006020828403121562000a8c5762000a8b62000f60565b5b600082013567ffffffffffffffff81111562000aad5762000aac62000f5b565b5b62000abb8482850162000a29565b91505092915050565b60006020828403121562000add5762000adc62000f60565b5b600062000aed8482850162000a5c565b91505092915050565b62000b018162000e06565b82525050565b62000b128162000e1a565b82525050565b62000b238162000e50565b82525050565b600062000b368262000d8d565b62000b42818562000d98565b935062000b5481856020860162000e87565b62000b5f8162000f65565b840191505092915050565b600062000b7960198362000d98565b915062000b868262000f76565b602082019050919050565b600062000ba0602d8362000d98565b915062000bad8262000f9f565b604082019050919050565b600062000bc760158362000d98565b915062000bd48262000fee565b602082019050919050565b62000bea8162000e46565b82525050565b600060208201905062000c07600083018462000af6565b92915050565b600060608201905062000c24600083018662000af6565b62000c33602083018562000b18565b818103604083015262000c47818462000b29565b9050949350505050565b600060608201905062000c68600083018662000af6565b62000c77602083018562000bdf565b62000c86604083018462000b07565b949350505050565b600060208201905062000ca5600083018462000b07565b92915050565b600060208201905062000cc2600083018462000b18565b92915050565b6000602082019050818103600083015262000ce38162000b6a565b9050919050565b6000602082019050818103600083015262000d058162000b91565b9050919050565b6000602082019050818103600083015262000d278162000bb8565b9050919050565b600062000d3a62000d4d565b905062000d48828262000ebd565b919050565b6000604051905090565b600067ffffffffffffffff82111562000d755762000d7462000f22565b5b62000d808262000f65565b9050602081019050919050565b600081519050919050565b600082825260208201905092915050565b600062000db68262000e46565b915062000dc38362000e46565b9250827fffffffffffffffffffffffffffffffffffffffffffffffffffffffffffffffff0382111562000dfb5762000dfa62000ef3565b5b828201905092915050565b600062000e138262000e26565b9050919050565b60008115159050919050565b600073ffffffffffffffffffffffffffffffffffffffff82169050919050565b6000819050919050565b600062000e5d8262000e64565b9050919050565b600062000e718262000e26565b9050919050565b82818337600083830152505050565b60005b8381101562000ea757808201518184015260208101905062000e8a565b8381111562000eb7576000848401525b50505050565b62000ec88262000f65565b810181811067ffffffffffffffff8211171562000eea5762000ee962000f22565b5b80604052505050565b7f4e487b7100000000000000000000000000000000000000000000000000000000600052601160045260246000fd5b7f4e487b7100000000000000000000000000000000000000000000000000000000600052604160045260246000fd5b600080fd5b600080fd5b600080fd5b600080fd5b6000601f19601f8301169050919050565b7f436f6e7472616374206e6f206c6f6e6765722061637469766500000000000000600082015250565b7f4f6e6c7920746865206f776e65722f61646d696e2063616e206163636573732060008201527f746869732066756e6374696f6e00000000000000000000000000000000000000602082015250565b7f4e6f7420612076616c696420636f72706f726174650000000000000000000000600082015250565b620010228162000e46565b81146200102e57600080fd5b5056fe60806040523480156200001157600080fd5b50604051620021dd380380620021dd833981810160405281019062000037919062000292565b82600160006101000a81548173ffffffffffffffffffffffffffffffffffffffff021916908373ffffffffffffffffffffffffffffffffffffffff16021790555081600260006101000a81548173ffffffffffffffffffffffffffffffffffffffff021916908373ffffffffffffffffffffffffffffffffffffffff160217905550336000806101000a81548173ffffffffffffffffffffffffffffffffffffffff021916908373ffffffffffffffffffffffffffffffffffffffff16021790555080600490805190602001906200011192919062000136565b506001600760146101000a81548160ff0219169083151502179055505050506200050d565b8280546200014490620003ea565b90600052602060002090601f016020900481019282620001685760008555620001b4565b82601f106200018357805160ff1916838001178555620001b4565b82800160010185558215620001b4579182015b82811115620001b357825182559160200191906001019062000196565b5b509050620001c39190620001c7565b5090565b5b80821115620001e2576000816000905550600101620001c8565b5090565b6000620001fd620001f78462000336565b6200030d565b9050828152602081018484840111156200021c576200021b620004b9565b5b62000229848285620003b4565b509392505050565b6000815190506200024281620004d9565b92915050565b6000815190506200025981620004f3565b92915050565b600082601f830112620002775762000276620004b4565b5b815162000289848260208601620001e6565b91505092915050565b600080600060608486031215620002ae57620002ad620004c3565b5b6000620002be8682870162000231565b9350506020620002d18682870162000248565b925050604084015167ffffffffffffffff811115620002f557620002f4620004be565b5b62000303868287016200025f565b9150509250925092565b6000620003196200032c565b905062000327828262000420565b919050565b6000604051905090565b600067ffffffffffffffff82111562000354576200035362000485565b5b6200035f82620004c8565b9050602081019050919050565b6000620003798262000394565b9050919050565b60006200038d826200036c565b9050919050565b600073ffffffffffffffffffffffffffffffffffffffff82169050919050565b60005b83811015620003d4578082015181840152602081019050620003b7565b83811115620003e4576000848401525b50505050565b600060028204905060018216806200040357607f821691505b602082108114156200041a576200041962000456565b5b50919050565b6200042b82620004c8565b810181811067ffffffffffffffff821117156200044d576200044c62000485565b5b80604052505050565b7f4e487b7100000000000000000000000000000000000000000000000000000000600052602260045260246000fd5b7f4e487b7100000000000000000000000000000000000000000000000000000000600052604160045260246000fd5b600080fd5b600080fd5b600080fd5b600080fd5b6000601f19601f8301169050919050565b620004e4816200036c565b8114620004f057600080fd5b50565b620004fe8162000380565b81146200050a57600080fd5b50565b611cc0806200051d6000396000f3fe60806040523480156200001157600080fd5b5060043610620000e25760003560e01c80638ba4d864116200009957806398f4448a116200006f57806398f4448a1462000255578063f41114961462000277578063f851a44014620002ad578063f8a64f9a14620002cf57620000e2565b80638ba4d86414620001ef5780638da5cb5b146200021157806393e59dc1146200023357620000e2565b806334929e9a14620000e75780633d0f963e14620001095780636fdbaf431462000129578063805f4202146200015f578063869080bf146200019557806389165e4014620001cd575b600080fd5b620000f162000305565b60405162000100919062001075565b60405180910390f35b62000127600480360381019062000121919062000de6565b6200030b565b005b62000147600480360381019062000141919062000d82565b62000630565b60405162000156919062000f99565b60405180910390f35b6200017d600480360381019062000177919062000e18565b6200077f565b6040516200018c919062000f3f565b60405180910390f35b620001b36004803603810190620001ad919062000d82565b620009e4565b604051620001c49392919062000f5c565b60405180910390f35b620001d762000a3b565b604051620001e6919062000f3f565b60405180910390f35b620001f962000a5f565b6040516200020891906200100d565b60405180910390f35b6200021b62000af5565b6040516200022a919062000f3f565b60405180910390f35b6200023d62000b1b565b6040516200024c919062000ff0565b60405180910390f35b6200025f62000b41565b6040516200026e919062000f99565b60405180910390f35b6200029560048036038101906200028f919062000e18565b62000c46565b604051620002a4919062000f3f565b60405180910390f35b620002b762000cb2565b604051620002c6919062000fb6565b60405180910390f35b620002ed6004803603810190620002e7919062000e18565b62000cd8565b604051620002fc919062000f3f565b60405180910390f35b60035481565b600160009054906101000a900473ffffffffffffffffffffffffffffffffffffffff1673ffffffffffffffffffffffffffffffffffffffff163373ffffffffffffffffffffffffffffffffffffffff161480620003b3575060008054906101000a900473ffffffffffffffffffffffffffffffffffffffff1673ffffffffffffffffffffffffffffffffffffffff163373ffffffffffffffffffffffffffffffffffffffff16145b620003bd57600080fd5b60011515600760149054906101000a900460ff16151514620003de57600080fd5b600160009054906101000a900473ffffffffffffffffffffffffffffffffffffffff1673ffffffffffffffffffffffffffffffffffffffff168173ffffffffffffffffffffffffffffffffffffffff16638da5cb5b6040518163ffffffff1660e01b815260040160206040518083038186803b1580156200045e57600080fd5b505afa15801562000473573d6000803e3d6000fd5b505050506040513d601f19601f8201168201806040525081019062000499919062000db4565b73ffffffffffffffffffffffffffffffffffffffff161480620005aa575060008054906101000a900473ffffffffffffffffffffffffffffffffffffffff1673ffffffffffffffffffffffffffffffffffffffff16600760009054906101000a900473ffffffffffffffffffffffffffffffffffffffff1673ffffffffffffffffffffffffffffffffffffffff16638da5cb5b6040518163ffffffff1660e01b815260040160206040518083038186803b1580156200055757600080fd5b505afa1580156200056c573d6000803e3d6000fd5b505050506040513d601f19601f8201168201806040525081019062000592919062000db4565b73ffffffffffffffffffffffffffffffffffffffff16145b620005ec576040517f08c379a0000000000000000000000000000000000000000000000000000000008152600401620005e39062001053565b60405180910390fd5b80600760006101000a81548173ffffffffffffffffffffffffffffffffffffffff021916908373ffffffffffffffffffffffffffffffffffffffff16021790555050565b600060011515600760149054906101000a900460ff161515146200065357600080fd5b600073ffffffffffffffffffffffffffffffffffffffff16600560008473ffffffffffffffffffffffffffffffffffffffff1673ffffffffffffffffffffffffffffffffffffffff16815260200190815260200160002060000160009054906101000a900473ffffffffffffffffffffffffffffffffffffffff1673ffffffffffffffffffffffffffffffffffffffff16141562000728576040517f08c379a00000000000000000000000000000000000000000000000000000000081526004016200071f9062001031565b60405180910390fd5b600560008373ffffffffffffffffffffffffffffffffffffffff1673ffffffffffffffffffffffffffffffffffffffff16815260200190815260200160002060020160009054906101000a900460ff169050919050565b6000600160009054906101000a900473ffffffffffffffffffffffffffffffffffffffff1673ffffffffffffffffffffffffffffffffffffffff163373ffffffffffffffffffffffffffffffffffffffff16148062000829575060008054906101000a900473ffffffffffffffffffffffffffffffffffffffff1673ffffffffffffffffffffffffffffffffffffffff163373ffffffffffffffffffffffffffffffffffffffff16145b6200083357600080fd5b60011515600760149054906101000a900460ff161515146200085457600080fd5b600030604051620008659062000d18565b62000871919062000fd3565b604051809103906000f0801580156200088e573d6000803e3d6000fd5b5090506006819080600181540180825580915050600190039060005260206000200160009091909190916101000a81548173ffffffffffffffffffffffffffffffffffffffff021916908373ffffffffffffffffffffffffffffffffffffffff16021790555060405180606001604052808273ffffffffffffffffffffffffffffffffffffffff16815260200184815260200160011515815250600560008373ffffffffffffffffffffffffffffffffffffffff1673ffffffffffffffffffffffffffffffffffffffff16815260200190815260200160002060008201518160000160006101000a81548173ffffffffffffffffffffffffffffffffffffffff021916908373ffffffffffffffffffffffffffffffffffffffff1602179055506020820151816001015560408201518160020160006101000a81548160ff02191690831515021790555090505080915050919050565b60056020528060005260406000206000915090508060000160009054906101000a900473ffffffffffffffffffffffffffffffffffffffff16908060010154908060020160009054906101000a900460ff16905083565b60008054906101000a900473ffffffffffffffffffffffffffffffffffffffff1681565b6004805462000a6e90620011ba565b80601f016020809104026020016040519081016040528092919081815260200182805462000a9c90620011ba565b801562000aed5780601f1062000ac15761010080835404028352916020019162000aed565b820191906000526020600020905b81548152906001019060200180831162000acf57829003601f168201915b505050505081565b600160009054906101000a900473ffffffffffffffffffffffffffffffffffffffff1681565b600760009054906101000a900473ffffffffffffffffffffffffffffffffffffffff1681565b6000600160009054906101000a900473ffffffffffffffffffffffffffffffffffffffff1673ffffffffffffffffffffffffffffffffffffffff163373ffffffffffffffffffffffffffffffffffffffff16148062000beb575060008054906101000a900473ffffffffffffffffffffffffffffffffffffffff1673ffffffffffffffffffffffffffffffffffffffff163373ffffffffffffffffffffffffffffffffffffffff16145b62000bf557600080fd5b60011515600760149054906101000a900460ff1615151462000c1657600080fd5b6000600760146101000a81548160ff021916908315150217905550600760149054906101000a900460ff16905090565b600060011515600760149054906101000a900460ff1615151462000c6957600080fd5b6006828154811062000c805762000c7f6200121f565b5b9060005260206000200160009054906101000a900473ffffffffffffffffffffffffffffffffffffffff169050919050565b600260009054906101000a900473ffffffffffffffffffffffffffffffffffffffff1681565b6006818154811062000ce957600080fd5b906000526020600020016000915054906101000a900473ffffffffffffffffffffffffffffffffffffffff1681565b610960806200132b83390190565b60008135905062000d3781620012dc565b92915050565b60008151905062000d4e81620012dc565b92915050565b60008135905062000d6581620012f6565b92915050565b60008135905062000d7c8162001310565b92915050565b60006020828403121562000d9b5762000d9a6200124e565b5b600062000dab8482850162000d26565b91505092915050565b60006020828403121562000dcd5762000dcc6200124e565b5b600062000ddd8482850162000d3d565b91505092915050565b60006020828403121562000dff5762000dfe6200124e565b5b600062000e0f8482850162000d54565b91505092915050565b60006020828403121562000e315762000e306200124e565b5b600062000e418482850162000d6b565b91505092915050565b62000e5581620010ae565b82525050565b62000e6681620010c2565b82525050565b62000e77816200110c565b82525050565b62000e888162001134565b82525050565b62000e99816200115c565b82525050565b600062000eac8262001092565b62000eb881856200109d565b935062000eca81856020860162001184565b62000ed58162001253565b840191505092915050565b600062000eef6018836200109d565b915062000efc8262001264565b602082019050919050565b600062000f166024836200109d565b915062000f23826200128d565b604082019050919050565b62000f398162001102565b82525050565b600060208201905062000f56600083018462000e4a565b92915050565b600060608201905062000f73600083018662000e4a565b62000f82602083018562000f2e565b62000f91604083018462000e5b565b949350505050565b600060208201905062000fb0600083018462000e5b565b92915050565b600060208201905062000fcd600083018462000e6c565b92915050565b600060208201905062000fea600083018462000e7d565b92915050565b600060208201905062001007600083018462000e8e565b92915050565b6000602082019050818103600083015262001029818462000e9f565b905092915050565b600060208201905081810360008301526200104c8162000ee0565b9050919050565b600060208201905081810360008301526200106e8162000f07565b9050919050565b60006020820190506200108c600083018462000f2e565b92915050565b600081519050919050565b600082825260208201905092915050565b6000620010bb82620010e2565b9050919050565b60008115159050919050565b6000620010db82620010ae565b9050919050565b600073ffffffffffffffffffffffffffffffffffffffff82169050919050565b6000819050919050565b6000620011198262001120565b9050919050565b60006200112d82620010e2565b9050919050565b6000620011418262001148565b9050919050565b60006200115582620010e2565b9050919050565b6000620011698262001170565b9050919050565b60006200117d82620010e2565b9050919050565b60005b83811015620011a457808201518184015260208101905062001187565b83811115620011b4576000848401525b50505050565b60006002820490506001821680620011d357607f821691505b60208210811415620011ea57620011e9620011f0565b5b50919050565b7f4e487b7100000000000000000000000000000000000000000000000000000000600052602260045260246000fd5b7f4e487b7100000000000000000000000000000000000000000000000000000000600052603260045260246000fd5b600080fd5b6000601f19601f8301169050919050565b7f4e6f742061207375627369646961727920616464726573730000000000000000600082015250565b7f57686974656c697374206e6f742063726561746564206279206b6e6f776e207060008201527f6172747900000000000000000000000000000000000000000000000000000000602082015250565b620012e781620010ae565b8114620012f357600080fd5b50565b6200130181620010ce565b81146200130d57600080fd5b50565b6200131b8162001102565b81146200132757600080fd5b5056fe608060405234801561001057600080fd5b5060405161096038038061096083398181016040528101906100329190610095565b806000806101000a81548173ffffffffffffffffffffffffffffffffffffffff021916908373ffffffffffffffffffffffffffffffffffffffff160217905550600060018190555050610122565b60008151905061008f8161010b565b92915050565b6000602082840312156100ab576100aa610106565b5b60006100b984828501610080565b91505092915050565b60006100cd826100e6565b9050919050565b60006100df826100c2565b9050919050565b600073ffffffffffffffffffffffffffffffffffffffff82169050919050565b600080fd5b610114816100d4565b811461011f57600080fd5b50565b61082f806101316000396000f3fe6080604052600436106100385760003560e01c80638b7342331461007d578063b119a9d61461009b578063ef5ea07c146100c657610078565b36610078577f7e71433ddf847725166244795048ecf3e3f9f35628254ecbf736056664233493333460405161006e9291906105bd565b60405180910390a1005b600080fd5b610085610103565b60405161009291906105e6565b60405180910390f35b3480156100a757600080fd5b506100b06101c8565b6040516100bd9190610601565b60405180910390f35b3480156100d257600080fd5b506100ed60048036038101906100e8919061050b565b6101ec565b6040516100fa91906105e6565b60405180910390f35b60008060009054906101000a900473ffffffffffffffffffffffffffffffffffffffff1673ffffffffffffffffffffffffffffffffffffffff163373ffffffffffffffffffffffffffffffffffffffff161461015e57600080fd5b60006001549050600060018190555060008054906101000a900473ffffffffffffffffffffffffffffffffffffffff1673ffffffffffffffffffffffffffffffffffffffff166108fc829081150290604051600060405180830381858888f1935050505091505090565b60008054906101000a900473ffffffffffffffffffffffffffffffffffffffff1681565b60008060009054906101000a900473ffffffffffffffffffffffffffffffffffffffff1673ffffffffffffffffffffffffffffffffffffffff163373ffffffffffffffffffffffffffffffffffffffff161480610299575060011515600260003373ffffffffffffffffffffffffffffffffffffffff1673ffffffffffffffffffffffffffffffffffffffff16815260200190815260200160002060009054906101000a900460ff161515145b6102a257600080fd5b6001548373ffffffffffffffffffffffffffffffffffffffff163110156102fe576040517f08c379a00000000000000000000000000000000000000000000000000000000081526004016102f59061061c565b60405180910390fd5b7fe8315ec63c4fa3a5871a02ea19c7f3d5e7e399992ed31f05d0ba17345ddb95bf8484846040516103319392919061063c565b60405180910390a160405180608001604052808581526020018473ffffffffffffffffffffffffffffffffffffffff1681526020018381526020016040518060400160405280601581526020017f687474703a2f2f6d756d626f4a756d626f2e6a70670000000000000000000000815250815250600360008681526020019081526020016000206000820151816000015560208201518160010160006101000a81548173ffffffffffffffffffffffffffffffffffffffff021916908373ffffffffffffffffffffffffffffffffffffffff16021790555060408201518160020155606082015181600301908051906020019061042f92919061043e565b50905050600190509392505050565b82805461044a906106f0565b90600052602060002090601f01602090048101928261046c57600085556104b3565b82601f1061048557805160ff19168380011785556104b3565b828001600101855582156104b3579182015b828111156104b2578251825591602001919060010190610497565b5b5090506104c091906104c4565b5090565b5b808211156104dd5760008160009055506001016104c5565b5090565b6000813590506104f0816107cb565b92915050565b600081359050610505816107e2565b92915050565b60008060006060848603121561052457610523610751565b5b6000610532868287016104f6565b9350506020610543868287016104e1565b9250506040610554868287016104f6565b9150509250925092565b61056781610684565b82525050565b61057681610696565b82525050565b610585816106cc565b82525050565b6000610598604b83610673565b91506105a382610756565b606082019050919050565b6105b7816106c2565b82525050565b60006040820190506105d2600083018561055e565b6105df60208301846105ae565b9392505050565b60006020820190506105fb600083018461056d565b92915050565b6000602082019050610616600083018461057c565b92915050565b600060208201905081810360008301526106358161058b565b9050919050565b600060608201905061065160008301866105ae565b61065e602083018561055e565b61066b60408301846105ae565b949350505050565b600082825260208201905092915050565b600061068f826106a2565b9050919050565b60008115159050919050565b600073ffffffffffffffffffffffffffffffffffffffff82169050919050565b6000819050919050565b60006106d7826106de565b9050919050565b60006106e9826106a2565b9050919050565b6000600282049050600182168061070857607f821691505b6020821081141561071c5761071b610722565b5b50919050565b7f4e487b7100000000000000000000000000000000000000000000000000000000600052602260045260246000fd5b600080fd5b7f54686520526563656976657220636f6e747261637420646f6573206e6f74206860008201527f6176652073756666696369656e742062616c616e636520666f7220746869732060208201527f7472616e73616374696f6e000000000000000000000000000000000000000000604082015250565b6107d481610684565b81146107df57600080fd5b50565b6107eb816106c2565b81146107f657600080fd5b5056fea264697066735822122064ad65b24f1f74a3ce7043137d08f83f1f0cce31364de8df8d3756d24b87967464736f6c63430008060033a264697066735822122038bb75101ba84d2ac553c1af39fb471c23f796be35eaefd5d1fdacc5af51ac0464736f6c63430008060033a264697066735822122046098ad28bded2136472e5434da629d2641190c0904d25d435fb3dc693efe0e064736f6c63430008060033",
  "immutableReferences": {},
  "source": "pragma solidity >=0.7.0 <0.9.0;\n\nimport \"./Whitelist.sol\";\nimport \"./Admin.sol\";\n\n\ncontract CorporateFactory { \n    address public owner; // owner address \n    Admin public admin;\n    mapping(uint => corporate) public corporates;\n    uint numCorps; // a mapping of contract ids to the corporate struct.\n    bool active = true;\n\n    struct corporate {\n        address corpAddress;\n        uint id;\n        bool valid;\n    }\n\n    constructor(Admin admin_) {\n        owner = msg.sender;\n        admin = admin_;\n    }\n\n    function createCorp(string memory corpName) public  permissioned activeContract returns(address){\n        Corporate newCorp = new Corporate(owner,admin,corpName);\n        corporates[numCorps] = corporate(address(newCorp), numCorps, true);\n        numCorps += 1;\n        return address(newCorp);\n    }\n\n    function getCorporate(uint id) public view activeContract returns(address)  {\n        return corporates[id].corpAddress;\n    }\n\n    function toggleContractActivation() public permissioned returns (bool){\n        active = !active;\n        return(active);\n    }\n\n    function disableCorporate(uint id) public permissioned activeContract returns (bool){\n        corporates[id].valid = false;\n        return true;\n    }\n\n    function checkIfCorporateValid(uint id) public view activeContract returns (bool){\n        require(corporates[id].corpAddress != address(0), 'Not a valid corporate');\n        return corporates[id].valid;\n\n    }\n    \n    modifier permissioned {\n        require(msg.sender == owner || msg.sender == address(admin), \"Only the owner/admin can access this function\");\n        _;\n    }\n\n    modifier activeContract{\n        require(active == true, \"Contract no longer active\");\n        _;\n    }\n}\n\ncontract Corporate {\n    address public creator_; // creator of the contract\n    address public owner; // owner of the contract i.e the corporate\n    Admin public admin;\n    uint public corporate_id;\n    string public corporate_name_; // name of the contract\n    mapping(address => sub) public subsidiaries; // a mapping of addresses to the sub struct.\n    address[] public subs; // could make this into a struct so the id can be found easily.\n    Whitelist public whitelist; //whitelist associated with the corporate\n    bool valid; //checks if the contract is valid \n    \n    struct sub {\n        address subAddress;\n        uint id;\n        bool valid;\n    }\n\n\n    // allows for an owner i.e. corporate to be passed into the constructor \n    constructor(address owner_, Admin admin_, string memory name){\n        owner = owner_;\n        admin = admin_;\n        creator_ = msg.sender;\n        corporate_name_ = name; \n        valid = true;    \n    }\n\n    // This function is used to create a Subsidiary branch of the Corporate representing a store\n    function createSub(uint id) public  permissioned validContract returns(address){\n        // if set to default address the contract does not yet exist \n        //require(subs[id] == address(0));\n        Subsidiary newSub = new Subsidiary(this);\n        subs.push(address(newSub)); // add new sub to subsidiary array \n        subsidiaries[address(newSub)] = sub(address(newSub), id, true); // add new sub to mapping\n        return address(newSub);\n    }\n\n    // returns the subsidiary struct\n    function getSubContract(uint id) public view validContract returns(address)  {\n        return subs[id];\n    }\n\n    function checkIfSubsidiaryValid(address toCheck) public view validContract returns(bool){\n        require(subsidiaries[toCheck].subAddress != address(0), \"Not a subsidiary address\");\n        return subsidiaries[toCheck].valid;\n    }\n\n    // updates the whiteList \n    function updateWhitelist(Whitelist whitelist_) public permissioned validContract {\n        require(whitelist_.owner() == owner || whitelist.owner() == creator_, \"Whitelist not created by known party\");\n        whitelist = whitelist_;\n    }\n\n    //disable the Corporate\n    function disableCorporate() public permissioned validContract returns(bool){\n        valid = false;\n        return valid;\n    }\n\n    modifier permissioned {\n        require(msg.sender == owner || msg.sender == creator_);\n        _;\n    }\n\n    modifier validContract {\n        require(valid == true);\n        _;\n    }\n}\n\n\n\n// This contract represent a Subsidiary branch of a corporate \ncontract Subsidiary {\n    Corporate public parent_; // Corporate Contract\n    uint amount; //Balanace\n    mapping(address => bool) private permissionedAddress; //provides an array of addresses the Sub can withdraw funds to\n    event ValueReceived(address user, uint amount);\n\n    // Transaction struct to be sent to the off-chain oracle \n    struct Transaction {\n        uint txId; \n        address receiverId;\n        uint txAmount;\n        string txLink;\n    }\n\n    // event that triggers the off-chain oracle\n    event TransactionRequest (\n        uint txId,\n        address receiverId,\n        uint txAmount\n    );\n\n    // transaction id to person id\n    mapping(uint => Transaction) transactions; // List of transactions @DEV: need to provide rec address and amount (maybe through struct)\n    uint numOfTransactions;\n\n    constructor(Corporate corp) {\n        parent_ = corp;\n        amount = 0;\n    }\n\n    // need to make sure no possibility for double spend\n    // Will reset to zero and prevent withdrawl whilst the send transaction is processed.\n    function getTake() public payable accountsAccess returns(bool)  {\n        uint prevAmount = amount;\n        amount = 0;\n        return payable(address(parent_)).send(prevAmount); // need to write a fallback function if this fails.\n    }\n\n    // Oracle end point.\n    // reassess this function as it always returns true.\n    function insertTransaction(uint txId, address receiverId, uint txAmount) restricted public returns(bool) {\n        require(receiverId.balance >= amount, \"The Receiver contract does not have sufficient balance for this transaction\"); \n        emit TransactionRequest(txId, receiverId, txAmount);\n        transactions[txId] = Transaction(txId, receiverId, txAmount, \"http://mumboJumbo.jpg\");\n        return true;\n    }\n\n    // provides functionality to receive funds\n    receive() external payable{\n        emit ValueReceived(msg.sender, msg.value);\n    }\n    \n    modifier restricted {\n        require(msg.sender == address(parent_) || permissionedAddress[msg.sender] == true);\n        _;\n    }\n\n    modifier accountsAccess {\n        require(msg.sender == address(parent_));\n        _;\n    }\n}",
  "sourcePath": "/Users/Will/Documents/University /Final Year/T2/P2/COMP6452-HelpChain/contracts/CorporateFactory.sol",
  "compiler": {
    "name": "solc",
    "version": "0.8.6+commit.11564f7e.Emscripten.clang"
  },
  "schemaVersion": "3.4.2",
  "updatedAt": "2021-07-29T06:51:52.589Z",
  "networkType": "ethereum",
  "devdoc": {
    "kind": "dev",
    "methods": {},
    "version": 1
  },
  "userdoc": {
    "kind": "user",
    "methods": {},
    "version": 1
  }
}