{
  "contractName": "CorporateFactory",
  "abi": [
    {
      "inputs": [
        {
          "internalType": "contract Admin",
          "name": "admin_",
          "type": "address"
        }
      ],
      "stateMutability": "nonpayable",
      "type": "constructor"
    },
    {
      "inputs": [],
      "name": "admin",
      "outputs": [
        {
          "internalType": "contract Admin",
          "name": "",
          "type": "address"
        }
      ],
      "stateMutability": "view",
      "type": "function"
    },
    {
      "inputs": [
        {
          "internalType": "uint256",
          "name": "",
          "type": "uint256"
        }
      ],
      "name": "corporates",
      "outputs": [
        {
          "internalType": "address",
          "name": "corpAddress",
          "type": "address"
        },
        {
          "internalType": "uint256",
          "name": "id",
          "type": "uint256"
        },
        {
          "internalType": "bool",
          "name": "valid",
          "type": "bool"
        }
      ],
      "stateMutability": "view",
      "type": "function"
    },
    {
      "inputs": [],
      "name": "numCorps",
      "outputs": [
        {
          "internalType": "uint256",
          "name": "",
          "type": "uint256"
        }
      ],
      "stateMutability": "view",
      "type": "function"
    },
    {
      "inputs": [],
      "name": "owner",
      "outputs": [
        {
          "internalType": "address",
          "name": "",
          "type": "address"
        }
      ],
      "stateMutability": "view",
      "type": "function"
    },
    {
      "inputs": [
        {
          "internalType": "string",
          "name": "corpName",
          "type": "string"
        },
        {
          "internalType": "address",
          "name": "owner_",
          "type": "address"
        }
      ],
      "name": "createCorp",
      "outputs": [
        {
          "internalType": "address",
          "name": "corpAddr",
          "type": "address"
        }
      ],
      "stateMutability": "nonpayable",
      "type": "function"
    },
    {
      "inputs": [
        {
          "internalType": "uint256",
          "name": "id",
          "type": "uint256"
        }
      ],
      "name": "getCorporate",
      "outputs": [
        {
          "internalType": "address",
          "name": "",
          "type": "address"
        }
      ],
      "stateMutability": "view",
      "type": "function"
    },
    {
      "inputs": [],
      "name": "toggleContractActivation",
      "outputs": [
        {
          "internalType": "bool",
          "name": "",
          "type": "bool"
        }
      ],
      "stateMutability": "nonpayable",
      "type": "function"
    },
    {
      "inputs": [
        {
          "internalType": "uint256",
          "name": "id",
          "type": "uint256"
        }
      ],
      "name": "disableCorporate",
      "outputs": [],
      "stateMutability": "nonpayable",
      "type": "function"
    },
    {
      "inputs": [
        {
          "internalType": "uint256",
          "name": "id",
          "type": "uint256"
        }
      ],
      "name": "checkIfCorporateValid",
      "outputs": [
        {
          "internalType": "bool",
          "name": "",
          "type": "bool"
        }
      ],
      "stateMutability": "view",
      "type": "function"
    }
  ],
  "bytecode": "0x60806040526001600460006101000a81548160ff0219169083151502179055503480156200002c57600080fd5b5060405162004a9238038062004a928339818101604052810190620000529190620000f1565b336000806101000a81548173ffffffffffffffffffffffffffffffffffffffff021916908373ffffffffffffffffffffffffffffffffffffffff16021790555080600160006101000a81548173ffffffffffffffffffffffffffffffffffffffff021916908373ffffffffffffffffffffffffffffffffffffffff160217905550506200018a565b600081519050620000eb8162000170565b92915050565b6000602082840312156200010a57620001096200016b565b5b60006200011a84828501620000da565b91505092915050565b600062000130826200014b565b9050919050565b6000620001448262000123565b9050919050565b600073ffffffffffffffffffffffffffffffffffffffff82169050919050565b600080fd5b6200017b8162000137565b81146200018757600080fd5b50565b6148f8806200019a6000396000f3fe60806040523480156200001157600080fd5b5060043610620000a05760003560e01c806368a0b4e7116200006f57806368a0b4e7146200013f5780638da5cb5b1462000177578063dad154021462000199578063e5c4a2b914620001cf578063f851a440146200020557620000a0565b8063010d666314620000a55780630d917aeb14620000db5780631f2e4f0614620000fd5780634aa2f240146200011d575b600080fd5b620000c36004803603810190620000bd919062000de2565b62000227565b604051620000d2919062000f35565b60405180910390f35b620000e5620002c0565b604051620000f49190620010a5565b60405180910390f35b6200011b600480360381019062000115919062000de2565b620002c6565b005b6200012762000564565b60405162000136919062000f8f565b60405180910390f35b6200015d600480360381019062000157919062000de2565b620006b9565b6040516200016e9392919062000f52565b60405180910390f35b6200018162000710565b60405162000190919062000f35565b60405180910390f35b620001b76004803603810190620001b1919062000de2565b62000734565b604051620001c6919062000f8f565b60405180910390f35b620001ed6004803603810190620001e7919062000d7c565b620008f7565b604051620001fc919062000f35565b60405180910390f35b6200020f62000c0a565b6040516200021e919062000fac565b60405180910390f35b600060011515600460009054906101000a900460ff1615151462000282576040517f08c379a0000000000000000000000000000000000000000000000000000000008152600401620002799062001061565b60405180910390fd5b6002600083815260200190815260200160002060000160009054906101000a900473ffffffffffffffffffffffffffffffffffffffff169050919050565b60035481565b60008054906101000a900473ffffffffffffffffffffffffffffffffffffffff1673ffffffffffffffffffffffffffffffffffffffff163373ffffffffffffffffffffffffffffffffffffffff161480620003ef5750600160009054906101000a900473ffffffffffffffffffffffffffffffffffffffff1673ffffffffffffffffffffffffffffffffffffffff16638da5cb5b6040518163ffffffff1660e01b815260040160206040518083038186803b1580156200038557600080fd5b505afa1580156200039a573d6000803e3d6000fd5b505050506040513d601f19601f82011682018060405250810190620003c0919062000d18565b73ffffffffffffffffffffffffffffffffffffffff163373ffffffffffffffffffffffffffffffffffffffff16145b62000431576040517f08c379a0000000000000000000000000000000000000000000000000000000008152600401620004289062001083565b60405180910390fd5b60011515600460009054906101000a900460ff161515146200048a576040517f08c379a0000000000000000000000000000000000000000000000000000000008152600401620004819062001061565b60405180910390fd5b60011515620004998262000734565b151514620004a657600080fd5b6002600082815260200190815260200160002060000160009054906101000a900473ffffffffffffffffffffffffffffffffffffffff1673ffffffffffffffffffffffffffffffffffffffff166398f4448a6040518163ffffffff1660e01b8152600401602060405180830381600087803b1580156200052557600080fd5b505af11580156200053a573d6000803e3d6000fd5b505050506040513d601f19601f8201168201806040525081019062000560919062000d4a565b5050565b6000600160009054906101000a900473ffffffffffffffffffffffffffffffffffffffff1673ffffffffffffffffffffffffffffffffffffffff16638da5cb5b6040518163ffffffff1660e01b815260040160206040518083038186803b158015620005cf57600080fd5b505afa158015620005e4573d6000803e3d6000fd5b505050506040513d601f19601f820116820180604052508101906200060a919062000d18565b73ffffffffffffffffffffffffffffffffffffffff163373ffffffffffffffffffffffffffffffffffffffff16146200067a576040517f08c379a000000000000000000000000000000000000000000000000000000000815260040162000671906200101d565b60405180910390fd5b600460009054906101000a900460ff1615600460006101000a81548160ff021916908315150217905550600460009054906101000a900460ff16905090565b60026020528060005260406000206000915090508060000160009054906101000a900473ffffffffffffffffffffffffffffffffffffffff16908060010154908060020160009054906101000a900460ff16905083565b60008054906101000a900473ffffffffffffffffffffffffffffffffffffffff1681565b600060011515600460009054906101000a900460ff161515146200078f576040517f08c379a0000000000000000000000000000000000000000000000000000000008152600401620007869062001061565b60405180910390fd5b600073ffffffffffffffffffffffffffffffffffffffff166002600084815260200190815260200160002060000160009054906101000a900473ffffffffffffffffffffffffffffffffffffffff1673ffffffffffffffffffffffffffffffffffffffff16141562000838576040517f08c379a00000000000000000000000000000000000000000000000000000000081526004016200082f906200103f565b60405180910390fd5b6002600083815260200190815260200160002060000160009054906101000a900473ffffffffffffffffffffffffffffffffffffffff1673ffffffffffffffffffffffffffffffffffffffff1663c19912196040518163ffffffff1660e01b815260040160206040518083038186803b158015620008b557600080fd5b505afa158015620008ca573d6000803e3d6000fd5b505050506040513d601f19601f82011682018060405250810190620008f0919062000d4a565b9050919050565b60008060009054906101000a900473ffffffffffffffffffffffffffffffffffffffff1673ffffffffffffffffffffffffffffffffffffffff163373ffffffffffffffffffffffffffffffffffffffff16148062000a235750600160009054906101000a900473ffffffffffffffffffffffffffffffffffffffff1673ffffffffffffffffffffffffffffffffffffffff16638da5cb5b6040518163ffffffff1660e01b815260040160206040518083038186803b158015620009b957600080fd5b505afa158015620009ce573d6000803e3d6000fd5b505050506040513d601f19601f82011682018060405250810190620009f4919062000d18565b73ffffffffffffffffffffffffffffffffffffffff163373ffffffffffffffffffffffffffffffffffffffff16145b62000a65576040517f08c379a000000000000000000000000000000000000000000000000000000000815260040162000a5c9062001083565b60405180910390fd5b60011515600460009054906101000a900460ff1615151462000abe576040517f08c379a000000000000000000000000000000000000000000000000000000000815260040162000ab59062001061565b60405180910390fd5b6000600160009054906101000a900473ffffffffffffffffffffffffffffffffffffffff16848460035460405162000af69062000c30565b62000b05949392919062000fc9565b604051809103906000f08015801562000b22573d6000803e3d6000fd5b50905060405180606001604052808273ffffffffffffffffffffffffffffffffffffffff16815260200160035481526020016001151581525060026000600354815260200190815260200160002060008201518160000160006101000a81548173ffffffffffffffffffffffffffffffffffffffff021916908373ffffffffffffffffffffffffffffffffffffffff1602179055506020820151816001015560408201518160020160006101000a81548160ff02191690831515021790555090505060016003600082825462000bf991906200113d565b925050819055508091505092915050565b600160009054906101000a900473ffffffffffffffffffffffffffffffffffffffff1681565b61347a806200144983390190565b600062000c5562000c4f84620010eb565b620010c2565b90508281526020810184848401111562000c745762000c73620012ea565b5b62000c818482856200120c565b509392505050565b60008135905062000c9a81620013fa565b92915050565b60008151905062000cb181620013fa565b92915050565b60008151905062000cc88162001414565b92915050565b600082601f83011262000ce65762000ce5620012e5565b5b813562000cf884826020860162000c3e565b91505092915050565b60008135905062000d12816200142e565b92915050565b60006020828403121562000d315762000d30620012f4565b5b600062000d418482850162000ca0565b91505092915050565b60006020828403121562000d635762000d62620012f4565b5b600062000d738482850162000cb7565b91505092915050565b6000806040838503121562000d965762000d95620012f4565b5b600083013567ffffffffffffffff81111562000db75762000db6620012ef565b5b62000dc58582860162000cce565b925050602062000dd88582860162000c89565b9150509250929050565b60006020828403121562000dfb5762000dfa620012f4565b5b600062000e0b8482850162000d01565b91505092915050565b62000e1f816200119a565b82525050565b62000e3081620011ae565b82525050565b62000e4181620011e4565b82525050565b600062000e548262001121565b62000e6081856200112c565b935062000e728185602086016200121b565b62000e7d81620012f9565b840191505092915050565b600062000e976027836200112c565b915062000ea4826200130a565b604082019050919050565b600062000ebe6016836200112c565b915062000ecb8262001359565b602082019050919050565b600062000ee56019836200112c565b915062000ef28262001382565b602082019050919050565b600062000f0c602d836200112c565b915062000f1982620013ab565b604082019050919050565b62000f2f81620011da565b82525050565b600060208201905062000f4c600083018462000e14565b92915050565b600060608201905062000f69600083018662000e14565b62000f78602083018562000f24565b62000f87604083018462000e25565b949350505050565b600060208201905062000fa6600083018462000e25565b92915050565b600060208201905062000fc3600083018462000e36565b92915050565b600060808201905062000fe0600083018762000e36565b818103602083015262000ff4818662000e47565b905062001005604083018562000e14565b62001014606083018462000f24565b95945050505050565b60006020820190508181036000830152620010388162000e88565b9050919050565b600060208201905081810360008301526200105a8162000eaf565b9050919050565b600060208201905081810360008301526200107c8162000ed6565b9050919050565b600060208201905081810360008301526200109e8162000efd565b9050919050565b6000602082019050620010bc600083018462000f24565b92915050565b6000620010ce620010e1565b9050620010dc828262001251565b919050565b6000604051905090565b600067ffffffffffffffff821115620011095762001108620012b6565b5b6200111482620012f9565b9050602081019050919050565b600081519050919050565b600082825260208201905092915050565b60006200114a82620011da565b91506200115783620011da565b9250827fffffffffffffffffffffffffffffffffffffffffffffffffffffffffffffffff038211156200118f576200118e62001287565b5b828201905092915050565b6000620011a782620011ba565b9050919050565b60008115159050919050565b600073ffffffffffffffffffffffffffffffffffffffff82169050919050565b6000819050919050565b6000620011f182620011f8565b9050919050565b60006200120582620011ba565b9050919050565b82818337600083830152505050565b60005b838110156200123b5780820151818401526020810190506200121e565b838111156200124b576000848401525b50505050565b6200125c82620012f9565b810181811067ffffffffffffffff821117156200127e576200127d620012b6565b5b80604052505050565b7f4e487b7100000000000000000000000000000000000000000000000000000000600052601160045260246000fd5b7f4e487b7100000000000000000000000000000000000000000000000000000000600052604160045260246000fd5b600080fd5b600080fd5b600080fd5b600080fd5b6000601f19601f8301169050919050565b7f4f6e6c79207468652061646d696e2063616e206163636573732074686973206660008201527f756e6374696f6e00000000000000000000000000000000000000000000000000602082015250565b7f4e6f742061206c697374656420636f72706f7261746500000000000000000000600082015250565b7f436f6e7472616374206e6f206c6f6e6765722061637469766500000000000000600082015250565b7f4f6e6c7920746865206f776e65722f61646d696e2063616e206163636573732060008201527f746869732066756e6374696f6e00000000000000000000000000000000000000602082015250565b62001405816200119a565b81146200141157600080fd5b50565b6200141f81620011ae565b81146200142b57600080fd5b50565b6200143981620011da565b81146200144557600080fd5b5056fe60806040523480156200001157600080fd5b506040516200347a3803806200347a8339818101604052810190620000379190620002b1565b83600160006101000a81548173ffffffffffffffffffffffffffffffffffffffff021916908373ffffffffffffffffffffffffffffffffffffffff160217905550816000806101000a81548173ffffffffffffffffffffffffffffffffffffffff021916908373ffffffffffffffffffffffffffffffffffffffff1602179055508260049080519060200190620000d09291906200013e565b508060038190555033600260006101000a81548173ffffffffffffffffffffffffffffffffffffffff021916908373ffffffffffffffffffffffffffffffffffffffff1602179055506001600760146101000a81548160ff0219169083151502179055505050505062000566565b8280546200014c9062000429565b90600052602060002090601f016020900481019282620001705760008555620001bc565b82601f106200018b57805160ff1916838001178555620001bc565b82800160010185558215620001bc579182015b82811115620001bb5782518255916020019190600101906200019e565b5b509050620001cb9190620001cf565b5090565b5b80821115620001ea576000816000905550600101620001d0565b5090565b600062000205620001ff846200036b565b62000342565b905082815260208101848484011115620002245762000223620004f8565b5b62000231848285620003f3565b509392505050565b6000815190506200024a8162000518565b92915050565b600081519050620002618162000532565b92915050565b600082601f8301126200027f576200027e620004f3565b5b815162000291848260208601620001ee565b91505092915050565b600081519050620002ab816200054c565b92915050565b60008060008060808587031215620002ce57620002cd62000502565b5b6000620002de8782880162000250565b945050602085015167ffffffffffffffff811115620003025762000301620004fd565b5b620003108782880162000267565b9350506040620003238782880162000239565b925050606062000336878288016200029a565b91505092959194509250565b60006200034e62000361565b90506200035c82826200045f565b919050565b6000604051905090565b600067ffffffffffffffff821115620003895762000388620004c4565b5b620003948262000507565b9050602081019050919050565b6000620003ae82620003c9565b9050919050565b6000620003c282620003a1565b9050919050565b600073ffffffffffffffffffffffffffffffffffffffff82169050919050565b6000819050919050565b60005b8381101562000413578082015181840152602081019050620003f6565b8381111562000423576000848401525b50505050565b600060028204905060018216806200044257607f821691505b6020821081141562000459576200045862000495565b5b50919050565b6200046a8262000507565b810181811067ffffffffffffffff821117156200048c576200048b620004c4565b5b80604052505050565b7f4e487b7100000000000000000000000000000000000000000000000000000000600052602260045260246000fd5b7f4e487b7100000000000000000000000000000000000000000000000000000000600052604160045260246000fd5b600080fd5b600080fd5b600080fd5b600080fd5b6000601f19601f8301169050919050565b6200052381620003a1565b81146200052f57600080fd5b50565b6200053d81620003b5565b81146200054957600080fd5b50565b6200055781620003e9565b81146200056357600080fd5b50565b612f0480620005766000396000f3fe60806040523480156200001157600080fd5b50600436106200010c5760003560e01c80638ba4d86411620000a5578063c1991219116200006f578063c19912191462000299578063f411149614620002bb578063f851a44014620002f1578063f8a64f9a1462000313576200010c565b80638ba4d86414620002115780638da5cb5b146200023357806393e59dc1146200025557806398f4448a1462000277576200010c565b80636fdbaf4311620000e75780636fdbaf4314620001755780637687f68514620001ab578063869080bf14620001cd578063894ba8331462000205576200010c565b806334929e9a14620001115780633d0f963e14620001335780634aaf1ed81462000153575b600080fd5b6200011b62000349565b6040516200012a91906200170d565b60405180910390f35b6200015160048036038101906200014b919062001436565b6200034f565b005b6200015d62000807565b6040516200016c9190620015a5565b60405180910390f35b6200019360048036038101906200018d9190620013d2565b62000bdd565b604051620001a29190620015ff565b60405180910390f35b620001b562000d2c565b604051620001c491906200170d565b60405180910390f35b620001eb6004803603810190620001e59190620013d2565b62000d32565b604051620001fc93929190620015c2565b60405180910390f35b6200020f62000d89565b005b6200021b62000f8b565b6040516200022a919062001683565b60405180910390f35b6200023d62001021565b6040516200024c9190620015a5565b60405180910390f35b6200025f62001045565b6040516200026e919062001666565b60405180910390f35b620002816200106b565b604051620002909190620015ff565b60405180910390f35b620002a362001283565b604051620002b29190620015ff565b60405180910390f35b620002d96004803603810190620002d3919062001468565b62001296565b604051620002e89190620015a5565b60405180910390f35b620002fb62001302565b6040516200030a91906200161c565b60405180910390f35b6200033160048036038101906200032b919062001468565b62001328565b604051620003409190620015a5565b60405180910390f35b60035481565b60008054906101000a900473ffffffffffffffffffffffffffffffffffffffff1673ffffffffffffffffffffffffffffffffffffffff163373ffffffffffffffffffffffffffffffffffffffff161480620004785750600160009054906101000a900473ffffffffffffffffffffffffffffffffffffffff1673ffffffffffffffffffffffffffffffffffffffff16638da5cb5b6040518163ffffffff1660e01b815260040160206040518083038186803b1580156200040e57600080fd5b505afa15801562000423573d6000803e3d6000fd5b505050506040513d601f19601f8201168201806040525081019062000449919062001404565b73ffffffffffffffffffffffffffffffffffffffff163373ffffffffffffffffffffffffffffffffffffffff16145b80620004d15750600260009054906101000a900473ffffffffffffffffffffffffffffffffffffffff1673ffffffffffffffffffffffffffffffffffffffff163373ffffffffffffffffffffffffffffffffffffffff16145b62000513576040517f08c379a00000000000000000000000000000000000000000000000000000000081526004016200050a90620016c9565b60405180910390fd5b60011515600760149054906101000a900460ff161515146200053457600080fd5b60008054906101000a900473ffffffffffffffffffffffffffffffffffffffff1673ffffffffffffffffffffffffffffffffffffffff168173ffffffffffffffffffffffffffffffffffffffff16638da5cb5b6040518163ffffffff1660e01b815260040160206040518083038186803b158015620005b257600080fd5b505afa158015620005c7573d6000803e3d6000fd5b505050506040513d601f19601f82011682018060405250810190620005ed919062001404565b73ffffffffffffffffffffffffffffffffffffffff161480620007815750600160009054906101000a900473ffffffffffffffffffffffffffffffffffffffff1673ffffffffffffffffffffffffffffffffffffffff16638da5cb5b6040518163ffffffff1660e01b815260040160206040518083038186803b1580156200067457600080fd5b505afa15801562000689573d6000803e3d6000fd5b505050506040513d601f19601f82011682018060405250810190620006af919062001404565b73ffffffffffffffffffffffffffffffffffffffff16600760009054906101000a900473ffffffffffffffffffffffffffffffffffffffff1673ffffffffffffffffffffffffffffffffffffffff16638da5cb5b6040518163ffffffff1660e01b815260040160206040518083038186803b1580156200072e57600080fd5b505afa15801562000743573d6000803e3d6000fd5b505050506040513d601f19601f8201168201806040525081019062000769919062001404565b73ffffffffffffffffffffffffffffffffffffffff16145b620007c3576040517f08c379a0000000000000000000000000000000000000000000000000000000008152600401620007ba90620016eb565b60405180910390fd5b80600760006101000a81548173ffffffffffffffffffffffffffffffffffffffff021916908373ffffffffffffffffffffffffffffffffffffffff16021790555050565b60008060009054906101000a900473ffffffffffffffffffffffffffffffffffffffff1673ffffffffffffffffffffffffffffffffffffffff163373ffffffffffffffffffffffffffffffffffffffff161480620009335750600160009054906101000a900473ffffffffffffffffffffffffffffffffffffffff1673ffffffffffffffffffffffffffffffffffffffff16638da5cb5b6040518163ffffffff1660e01b815260040160206040518083038186803b158015620008c957600080fd5b505afa158015620008de573d6000803e3d6000fd5b505050506040513d601f19601f8201168201806040525081019062000904919062001404565b73ffffffffffffffffffffffffffffffffffffffff163373ffffffffffffffffffffffffffffffffffffffff16145b806200098c5750600260009054906101000a900473ffffffffffffffffffffffffffffffffffffffff1673ffffffffffffffffffffffffffffffffffffffff163373ffffffffffffffffffffffffffffffffffffffff16145b620009ce576040517f08c379a0000000000000000000000000000000000000000000000000000000008152600401620009c590620016c9565b60405180910390fd5b60011515600760149054906101000a900460ff16151514620009ef57600080fd5b6000600160009054906101000a900473ffffffffffffffffffffffffffffffffffffffff1660008054906101000a900473ffffffffffffffffffffffffffffffffffffffff1660405162000a439062001368565b62000a5092919062001639565b604051809103906000f08015801562000a6d573d6000803e3d6000fd5b5090506006819080600181540180825580915050600190039060005260206000200160009091909190916101000a81548173ffffffffffffffffffffffffffffffffffffffff021916908373ffffffffffffffffffffffffffffffffffffffff16021790555060405180606001604052808273ffffffffffffffffffffffffffffffffffffffff168152602001600854815260200160011515815250600560008373ffffffffffffffffffffffffffffffffffffffff1673ffffffffffffffffffffffffffffffffffffffff16815260200190815260200160002060008201518160000160006101000a81548173ffffffffffffffffffffffffffffffffffffffff021916908373ffffffffffffffffffffffffffffffffffffffff1602179055506020820151816001015560408201518160020160006101000a81548160ff0219169083151502179055509050506008600081548092919062000bd19062001860565b91905055508091505090565b600060011515600760149054906101000a900460ff1615151462000c0057600080fd5b600073ffffffffffffffffffffffffffffffffffffffff16600560008473ffffffffffffffffffffffffffffffffffffffff1673ffffffffffffffffffffffffffffffffffffffff16815260200190815260200160002060000160009054906101000a900473ffffffffffffffffffffffffffffffffffffffff1673ffffffffffffffffffffffffffffffffffffffff16141562000cd5576040517f08c379a000000000000000000000000000000000000000000000000000000000815260040162000ccc90620016a7565b60405180910390fd5b600560008373ffffffffffffffffffffffffffffffffffffffff1673ffffffffffffffffffffffffffffffffffffffff16815260200190815260200160002060020160009054906101000a900460ff169050919050565b60085481565b60056020528060005260406000206000915090508060000160009054906101000a900473ffffffffffffffffffffffffffffffffffffffff16908060010154908060020160009054906101000a900460ff16905083565b60008054906101000a900473ffffffffffffffffffffffffffffffffffffffff1673ffffffffffffffffffffffffffffffffffffffff163373ffffffffffffffffffffffffffffffffffffffff16148062000eb25750600160009054906101000a900473ffffffffffffffffffffffffffffffffffffffff1673ffffffffffffffffffffffffffffffffffffffff16638da5cb5b6040518163ffffffff1660e01b815260040160206040518083038186803b15801562000e4857600080fd5b505afa15801562000e5d573d6000803e3d6000fd5b505050506040513d601f19601f8201168201806040525081019062000e83919062001404565b73ffffffffffffffffffffffffffffffffffffffff163373ffffffffffffffffffffffffffffffffffffffff16145b8062000f0b5750600260009054906101000a900473ffffffffffffffffffffffffffffffffffffffff1673ffffffffffffffffffffffffffffffffffffffff163373ffffffffffffffffffffffffffffffffffffffff16145b62000f4d576040517f08c379a000000000000000000000000000000000000000000000000000000000815260040162000f4490620016c9565b60405180910390fd5b60011515600760149054906101000a900460ff1615151462000f6e57600080fd5b6000600760146101000a81548160ff021916908315150217905550565b6004805462000f9a906200182a565b80601f016020809104026020016040519081016040528092919081815260200182805462000fc8906200182a565b8015620010195780601f1062000fed5761010080835404028352916020019162001019565b820191906000526020600020905b81548152906001019060200180831162000ffb57829003601f168201915b505050505081565b60008054906101000a900473ffffffffffffffffffffffffffffffffffffffff1681565b600760009054906101000a900473ffffffffffffffffffffffffffffffffffffffff1681565b60008060009054906101000a900473ffffffffffffffffffffffffffffffffffffffff1673ffffffffffffffffffffffffffffffffffffffff163373ffffffffffffffffffffffffffffffffffffffff161480620011975750600160009054906101000a900473ffffffffffffffffffffffffffffffffffffffff1673ffffffffffffffffffffffffffffffffffffffff16638da5cb5b6040518163ffffffff1660e01b815260040160206040518083038186803b1580156200112d57600080fd5b505afa15801562001142573d6000803e3d6000fd5b505050506040513d601f19601f8201168201806040525081019062001168919062001404565b73ffffffffffffffffffffffffffffffffffffffff163373ffffffffffffffffffffffffffffffffffffffff16145b80620011f05750600260009054906101000a900473ffffffffffffffffffffffffffffffffffffffff1673ffffffffffffffffffffffffffffffffffffffff163373ffffffffffffffffffffffffffffffffffffffff16145b62001232576040517f08c379a00000000000000000000000000000000000000000000000000000000081526004016200122990620016c9565b60405180910390fd5b60011515600760149054906101000a900460ff161515146200125357600080fd5b6000600760146101000a81548160ff021916908315150217905550600760149054906101000a900460ff16905090565b600760149054906101000a900460ff1681565b600060011515600760149054906101000a900460ff16151514620012b957600080fd5b60068281548110620012d057620012cf6200190c565b5b9060005260206000200160009054906101000a900473ffffffffffffffffffffffffffffffffffffffff169050919050565b600160009054906101000a900473ffffffffffffffffffffffffffffffffffffffff1681565b600681815481106200133957600080fd5b906000526020600020016000915054906101000a900473ffffffffffffffffffffffffffffffffffffffff1681565b6114688062001a6783390190565b600081359050620013878162001a18565b92915050565b6000815190506200139e8162001a18565b92915050565b600081359050620013b58162001a32565b92915050565b600081359050620013cc8162001a4c565b92915050565b600060208284031215620013eb57620013ea6200193b565b5b6000620013fb8482850162001376565b91505092915050565b6000602082840312156200141d576200141c6200193b565b5b60006200142d848285016200138d565b91505092915050565b6000602082840312156200144f576200144e6200193b565b5b60006200145f84828501620013a4565b91505092915050565b6000602082840312156200148157620014806200193b565b5b60006200149184828501620013bb565b91505092915050565b620014a58162001746565b82525050565b620014b6816200175a565b82525050565b620014c781620017a4565b82525050565b620014d881620017cc565b82525050565b6000620014eb826200172a565b620014f7818562001735565b935062001509818560208601620017f4565b620015148162001940565b840191505092915050565b60006200152e60188362001735565b91506200153b8262001951565b602082019050919050565b60006200155560348362001735565b915062001562826200197a565b604082019050919050565b60006200157c60248362001735565b91506200158982620019c9565b604082019050919050565b6200159f816200179a565b82525050565b6000602082019050620015bc60008301846200149a565b92915050565b6000606082019050620015d960008301866200149a565b620015e8602083018562001594565b620015f76040830184620014ab565b949350505050565b6000602082019050620016166000830184620014ab565b92915050565b6000602082019050620016336000830184620014bc565b92915050565b6000604082019050620016506000830185620014bc565b6200165f60208301846200149a565b9392505050565b60006020820190506200167d6000830184620014cd565b92915050565b600060208201905081810360008301526200169f8184620014de565b905092915050565b60006020820190508181036000830152620016c2816200151f565b9050919050565b60006020820190508181036000830152620016e48162001546565b9050919050565b6000602082019050818103600083015262001706816200156d565b9050919050565b600060208201905062001724600083018462001594565b92915050565b600081519050919050565b600082825260208201905092915050565b600062001753826200177a565b9050919050565b60008115159050919050565b6000620017738262001746565b9050919050565b600073ffffffffffffffffffffffffffffffffffffffff82169050919050565b6000819050919050565b6000620017b182620017b8565b9050919050565b6000620017c5826200177a565b9050919050565b6000620017d982620017e0565b9050919050565b6000620017ed826200177a565b9050919050565b60005b8381101562001814578082015181840152602081019050620017f7565b8381111562001824576000848401525b50505050565b600060028204905060018216806200184357607f821691505b602082108114156200185a5762001859620018dd565b5b50919050565b60006200186d826200179a565b91507fffffffffffffffffffffffffffffffffffffffffffffffffffffffffffffffff821415620018a357620018a2620018ae565b5b600182019050919050565b7f4e487b7100000000000000000000000000000000000000000000000000000000600052601160045260246000fd5b7f4e487b7100000000000000000000000000000000000000000000000000000000600052602260045260246000fd5b7f4e487b7100000000000000000000000000000000000000000000000000000000600052603260045260246000fd5b600080fd5b6000601f19601f8301169050919050565b7f4e6f742061207375627369646961727920616464726573730000000000000000600082015250565b7f4f6e6c7920746865206f776e65722f61646d696e2f706172656e742063616e2060008201527f61636365737320746869732066756e6374696f6e000000000000000000000000602082015250565b7f57686974656c697374206e6f742063726561746564206279206b6e6f776e207060008201527f6172747900000000000000000000000000000000000000000000000000000000602082015250565b62001a238162001746565b811462001a2f57600080fd5b50565b62001a3d8162001766565b811462001a4957600080fd5b50565b62001a57816200179a565b811462001a6357600080fd5b5056fe60806040523480156200001157600080fd5b5060405162001468380380620014688339818101604052810190620000379190620001a9565b336000806101000a81548173ffffffffffffffffffffffffffffffffffffffff021916908373ffffffffffffffffffffffffffffffffffffffff16021790555081600160006101000a81548173ffffffffffffffffffffffffffffffffffffffff021916908373ffffffffffffffffffffffffffffffffffffffff16021790555080600260006101000a81548173ffffffffffffffffffffffffffffffffffffffff021916908373ffffffffffffffffffffffffffffffffffffffff1602179055506001600460008373ffffffffffffffffffffffffffffffffffffffff1673ffffffffffffffffffffffffffffffffffffffff16815260200190815260200160002060006101000a81548160ff021916908315150217905550476003819055506001600560006101000a81548160ff021916908315150217905550505062000271565b6000815190506200018c816200023d565b92915050565b600081519050620001a38162000257565b92915050565b60008060408385031215620001c357620001c262000238565b5b6000620001d38582860162000192565b9250506020620001e6858286016200017b565b9150509250929050565b6000620001fd8262000218565b9050919050565b60006200021182620001f0565b9050919050565b600073ffffffffffffffffffffffffffffffffffffffff82169050919050565b600080fd5b6200024881620001f0565b81146200025457600080fd5b50565b620002628162000204565b81146200026e57600080fd5b50565b6111e780620002816000396000f3fe60806040526004361061008a5760003560e01c8063aa8c217c11610059578063aa8c217c146101eb578063b119a9d614610216578063c199121914610241578063d83328001461026c578063f851a4401461029757610120565b80638b734233146101255780638da5cb5b146101435780639ace38c21461016e578063a4e0aaa6146101ae57610120565b366101205760011515600560009054906101000a900460ff161515146100e5576040517f08c379a00000000000000000000000000000000000000000000000000000000081526004016100dc90610cfd565b60405180910390fd5b7f7e71433ddf847725166244795048ecf3e3f9f35628254ecbf7360566642334933334604051610116929190610c5a565b60405180910390a1005b600080fd5b61012d6102c2565b60405161013a9190610c83565b60405180910390f35b34801561014f57600080fd5b506101586103dd565b6040516101659190610c3f565b60405180910390f35b34801561017a57600080fd5b5061019560048036038101906101909190610b39565b610403565b6040516101a59493929190610d58565b60405180910390f35b3480156101ba57600080fd5b506101d560048036038101906101d09190610aca565b6104db565b6040516101e29190610c83565b60405180910390f35b3480156101f757600080fd5b5061020061085e565b60405161020d9190610d3d565b60405180910390f35b34801561022257600080fd5b5061022b610864565b6040516102389190610cb9565b60405180910390f35b34801561024d57600080fd5b50610256610888565b6040516102639190610c83565b60405180910390f35b34801561027857600080fd5b5061028161089b565b60405161028e9190610d3d565b60405180910390f35b3480156102a357600080fd5b506102ac6108a1565b6040516102b99190610c9e565b60405180910390f35b60008060009054906101000a900473ffffffffffffffffffffffffffffffffffffffff1673ffffffffffffffffffffffffffffffffffffffff163373ffffffffffffffffffffffffffffffffffffffff161461031d57600080fd5b60011515600560009054906101000a900460ff16151514610373576040517f08c379a000000000000000000000000000000000000000000000000000000000815260040161036a90610cfd565b60405180910390fd5b60006003549050600060038190555060008054906101000a900473ffffffffffffffffffffffffffffffffffffffff1673ffffffffffffffffffffffffffffffffffffffff166108fc829081150290604051600060405180830381858888f1935050505091505090565b600260009054906101000a900473ffffffffffffffffffffffffffffffffffffffff1681565b60066020528060005260406000206000915090508060000154908060010160009054906101000a900473ffffffffffffffffffffffffffffffffffffffff169080600201549080600301805461045890610f42565b80601f016020809104026020016040519081016040528092919081815260200182805461048490610f42565b80156104d15780601f106104a6576101008083540402835291602001916104d1565b820191906000526020600020905b8154815290600101906020018083116104b457829003601f168201915b5050505050905084565b6000604051806080016040528060075481526020018573ffffffffffffffffffffffffffffffffffffffff168152602001848152602001838152506006600060075481526020019081526020016000206000820151816000015560208201518160010160006101000a81548173ffffffffffffffffffffffffffffffffffffffff021916908373ffffffffffffffffffffffffffffffffffffffff1602179055506040820151816002015560608201518160030190805190602001906105a29291906108c7565b50905050600760008154809291906105b990610fa5565b9190505550600160009054906101000a900473ffffffffffffffffffffffffffffffffffffffff1673ffffffffffffffffffffffffffffffffffffffff16638da5cb5b6040518163ffffffff1660e01b815260040160206040518083038186803b15801561062657600080fd5b505afa15801561063a573d6000803e3d6000fd5b505050506040513d601f19601f8201168201806040525081019061065e9190610a43565b73ffffffffffffffffffffffffffffffffffffffff168473ffffffffffffffffffffffffffffffffffffffff1663f851a4406040518163ffffffff1660e01b815260040160206040518083038186803b1580156106ba57600080fd5b505afa1580156106ce573d6000803e3d6000fd5b505050506040513d601f19601f820116820180604052508101906106f29190610a9d565b73ffffffffffffffffffffffffffffffffffffffff16638da5cb5b6040518163ffffffff1660e01b815260040160206040518083038186803b15801561073757600080fd5b505afa15801561074b573d6000803e3d6000fd5b505050506040513d601f19601f8201168201806040525081019061076f9190610a43565b73ffffffffffffffffffffffffffffffffffffffff16146107c5576040517f08c379a00000000000000000000000000000000000000000000000000000000081526004016107bc90610d1d565b60405180910390fd5b8373ffffffffffffffffffffffffffffffffffffffff166353c3d2f330856040518363ffffffff1660e01b8152600401610800929190610cd4565b602060405180830381600087803b15801561081a57600080fd5b505af115801561082e573d6000803e3d6000fd5b505050506040513d601f19601f820116820180604052508101906108529190610a70565b50600190509392505050565b60035481565b60008054906101000a900473ffffffffffffffffffffffffffffffffffffffff1681565b600560009054906101000a900460ff1681565b60075481565b600160009054906101000a900473ffffffffffffffffffffffffffffffffffffffff1681565b8280546108d390610f42565b90600052602060002090601f0160209004810192826108f5576000855561093c565b82601f1061090e57805160ff191683800117855561093c565b8280016001018555821561093c579182015b8281111561093b578251825591602001919060010190610920565b5b509050610949919061094d565b5090565b5b8082111561096657600081600090555060010161094e565b5090565b600061097d61097884610dc9565b610da4565b90508281526020810184848401111561099957610998611080565b5b6109a4848285610f00565b509392505050565b6000815190506109bb8161113e565b92915050565b6000815190506109d081611155565b92915050565b6000815190506109e58161116c565b92915050565b6000813590506109fa81611183565b92915050565b600082601f830112610a1557610a1461107b565b5b8135610a2584826020860161096a565b91505092915050565b600081359050610a3d8161119a565b92915050565b600060208284031215610a5957610a5861108a565b5b6000610a67848285016109ac565b91505092915050565b600060208284031215610a8657610a8561108a565b5b6000610a94848285016109c1565b91505092915050565b600060208284031215610ab357610ab261108a565b5b6000610ac1848285016109d6565b91505092915050565b600080600060608486031215610ae357610ae261108a565b5b6000610af1868287016109eb565b9350506020610b0286828701610a2e565b925050604084013567ffffffffffffffff811115610b2357610b22611085565b5b610b2f86828701610a00565b9150509250925092565b600060208284031215610b4f57610b4e61108a565b5b6000610b5d84828501610a2e565b91505092915050565b610b6f81610e16565b82525050565b610b7e81610e3a565b82525050565b610b8d81610e94565b82525050565b610b9c81610eb8565b82525050565b610bab81610edc565b82525050565b6000610bbc82610dfa565b610bc68185610e05565b9350610bd6818560208601610f0f565b610bdf8161108f565b840191505092915050565b6000610bf7602283610e05565b9150610c02826110a0565b604082019050919050565b6000610c1a602583610e05565b9150610c25826110ef565b604082019050919050565b610c3981610e8a565b82525050565b6000602082019050610c546000830184610b66565b92915050565b6000604082019050610c6f6000830185610b66565b610c7c6020830184610c30565b9392505050565b6000602082019050610c986000830184610b75565b92915050565b6000602082019050610cb36000830184610b84565b92915050565b6000602082019050610cce6000830184610b93565b92915050565b6000604082019050610ce96000830185610ba2565b610cf66020830184610c30565b9392505050565b60006020820190508181036000830152610d1681610bea565b9050919050565b60006020820190508181036000830152610d3681610c0d565b9050919050565b6000602082019050610d526000830184610c30565b92915050565b6000608082019050610d6d6000830187610c30565b610d7a6020830186610b66565b610d876040830185610c30565b8181036060830152610d998184610bb1565b905095945050505050565b6000610dae610dbf565b9050610dba8282610f74565b919050565b6000604051905090565b600067ffffffffffffffff821115610de457610de361104c565b5b610ded8261108f565b9050602081019050919050565b600081519050919050565b600082825260208201905092915050565b6000610e2182610e6a565b9050919050565b6000610e3382610e6a565b9050919050565b60008115159050919050565b6000610e5182610e16565b9050919050565b6000610e6382610e28565b9050919050565b600073ffffffffffffffffffffffffffffffffffffffff82169050919050565b6000819050919050565b6000610e9f82610ea6565b9050919050565b6000610eb182610e6a565b9050919050565b6000610ec382610eca565b9050919050565b6000610ed582610e6a565b9050919050565b6000610ee782610eee565b9050919050565b6000610ef982610e6a565b9050919050565b82818337600083830152505050565b60005b83811015610f2d578082015181840152602081019050610f12565b83811115610f3c576000848401525b50505050565b60006002820490506001821680610f5a57607f821691505b60208210811415610f6e57610f6d61101d565b5b50919050565b610f7d8261108f565b810181811067ffffffffffffffff82111715610f9c57610f9b61104c565b5b80604052505050565b6000610fb082610e8a565b91507fffffffffffffffffffffffffffffffffffffffffffffffffffffffffffffffff821415610fe357610fe2610fee565b5b600182019050919050565b7f4e487b7100000000000000000000000000000000000000000000000000000000600052601160045260246000fd5b7f4e487b7100000000000000000000000000000000000000000000000000000000600052602260045260246000fd5b7f4e487b7100000000000000000000000000000000000000000000000000000000600052604160045260246000fd5b600080fd5b600080fd5b600080fd5b600080fd5b6000601f19601f8301169050919050565b7f546869732053756273696469617279206973206e6f206c6f6e6765722076616c60008201527f6964000000000000000000000000000000000000000000000000000000000000602082015250565b7f54686973207265636569766572206973206e6f7420637265617465642062792060008201527f61646d696e000000000000000000000000000000000000000000000000000000602082015250565b61114781610e16565b811461115257600080fd5b50565b61115e81610e3a565b811461116957600080fd5b50565b61117581610e46565b811461118057600080fd5b50565b61118c81610e58565b811461119757600080fd5b50565b6111a381610e8a565b81146111ae57600080fd5b5056fea2646970667358221220d75f3b33821cf1ac9331f714191fb33758847e9b446084dd0a4a34f73b5b77a464736f6c63430008060033a2646970667358221220d0a1894eeb1f2e728921e3cb8ceb288e09ae51fb12636831e43e4d931e56f35b64736f6c63430008060033a2646970667358221220c1fa4d1d17b2ec6b4bebd27d22c6d87f64668aad8a50a434ce750543ccf4b39a64736f6c63430008060033",
  "immutableReferences": {},
  "source": "//SPDX-License-Identifier: UNLICENSED\npragma solidity >=0.7.0 <0.9.0;\n\nimport \"./Whitelist.sol\";\nimport \"./Admin.sol\";\nimport \"./ReceiverFactory.sol\";\n\n/*\n    This class is a factory class used to produce instances of Corporates, Corporates will act as a parent class to Subsidiary \n*/\ncontract CorporateFactory { \n    address public owner; // owner address \n    Admin public admin; // admin contract\n    mapping(uint => corporate) public corporates; //list of corporates \n    uint public numCorps; // number of corporates\n    bool active = true; //whether this contract is active \n\n    // Struct used to store corporates in the mapping\n    struct corporate {\n        address corpAddress;\n        uint id;\n        bool valid;\n    }\n\n    // The constructor links an associated Admin contract \n    constructor(Admin admin_) {\n        owner = msg.sender;\n        admin = admin_;\n    }\n\n    //function to create a new Corporate with name <corpName> \n    function createCorp(string memory corpName, address owner_) public  permissioned activeContract returns(address corpAddr){\n        Corporate newCorp = new Corporate(admin,corpName, owner_, numCorps); // passes parent's admin, address of owner and corp name\n        corporates[numCorps] = corporate(address(newCorp), numCorps, true); // add the corporate to the last spot in the list \n        numCorps += 1;\n        return address(newCorp);\n    }\n\n    // get corporate address given id \n    function getCorporate(uint id) public view activeContract returns(address)  {\n        return corporates[id].corpAddress;\n    }\n\n    // This function is used by the Admin to activate/disable the Corporate Factory contracts \n    function toggleContractActivation() public adminOnly returns (bool){\n        active = !active;\n        return(active);\n    }\n\n    // This function is used to mark a corporate as invalid\n    function disableCorporate(uint id) public permissioned activeContract{\n        require(checkIfCorporateValid(id) == true); // check that it is still valid\n        Corporate(corporates[id].corpAddress).disableCorporate(); // disable the Corporate\n    }\n\n    function checkIfCorporateValid(uint id) public view activeContract returns (bool){\n        require(corporates[id].corpAddress != address(0), 'Not a listed corporate'); //check if corporate in factory list\n        return Corporate(corporates[id].corpAddress).valid(); // return if the contract is valid \n\n    }\n    \n    modifier adminOnly {\n        require(msg.sender == admin.owner(), \"Only the admin can access this function\");\n        _;\n    }\n    modifier permissioned {\n        require(msg.sender == owner || msg.sender == admin.owner(), \"Only the owner/admin can access this function\");\n        _;\n    }\n\n    modifier activeContract{\n        require(active == true, \"Contract no longer active\");\n        _;\n    }\n}\n\ncontract Corporate {\n    address public owner; // owner of the contract e.g. a Corporates own address\n    Admin public admin; // admin of the system\n    CorporateFactory parent; // Corporate Factory this was created from \n    \n    uint public corporate_id; // Corporate ID assigned to \n    string public corporate_name_; // name of the Corporate\n    mapping(address => sub) public subsidiaries; // a mapping of addresses to the sub struct.\n    address[] public subs; // could make this into a struct so the id can be found easily.\n    Whitelist public whitelist; //whitelist associated with the corporate\n    bool public valid; //checks if the contract is valid \n    uint public numOfSubs; \n    \n    struct sub {\n        address subAddress;\n        uint id;\n        bool valid;\n    }\n\n    // allows for an owner i.e. corporate to be passed into the constructor \n    constructor(Admin admin_,string memory name, address owner_, uint corp_id_){\n        admin = admin_;\n        owner = owner_;\n        corporate_name_ = name; \n        corporate_id = corp_id_;\n        parent = CorporateFactory(msg.sender);\n        valid = true;    \n    }\n\n    // This function is used to create a Subsidiary branch of the Corporate representing a store\n    function createSub() public  permissioned validContract returns(address){\n        Subsidiary newSub = new Subsidiary(admin, owner);\n        subs.push(address(newSub)); // add new sub to subsidiary array \n        subsidiaries[address(newSub)] = sub(address(newSub), numOfSubs, true); // add new sub to mapping\n        numOfSubs++;\n        return address(newSub);\n    }\n\n    // Returns the subsidiary struct\n    function getSubContract(uint id) public view validContract returns(address)  {\n        return subs[id];\n    }\n\n    function checkIfSubsidiaryValid(address toCheck) public view validContract returns(bool){\n        require(subsidiaries[toCheck].subAddress != address(0), \"Not a subsidiary address\");\n        return subsidiaries[toCheck].valid;\n    }\n    \n    function disableContract() public permissioned validContract{\n        valid = false;\n    }\n\n    // Updates the whiteList \n    function updateWhitelist(Whitelist whitelist_) public permissioned validContract {\n        require(whitelist_.owner() == owner || whitelist.owner() == admin.owner(), \"Whitelist not created by known party\");\n        whitelist = whitelist_;\n    }\n\n    // Disable the Corporate\n    function disableCorporate() public permissioned validContract returns(bool){\n        valid = false;\n        return valid;\n    }\n\n    modifier adminOnly {\n        require(msg.sender == admin.owner(), \"Only the admin can access this function\");\n        _;\n    }\n    modifier permissioned {\n        require(msg.sender == owner || msg.sender == admin.owner() || msg.sender == address(parent), \"Only the owner/admin/parent can access this function\");\n        _;\n    }\n    \n\n    modifier validContract {\n        require(valid == true);\n        _;\n    }\n}\n\n// This contract represents a Subsidiary branch of a Corporate partner\ncontract Subsidiary {\n    Corporate public parent_; // Corporate Contract\n    Admin public admin; //Admin\n    address public owner; //Corporate owner address\n    \n    uint public amount; //Balance\n    mapping(address => bool) private permissionedAddress; //provides an array of addresses the Sub can withdraw funds to\n    event ValueReceived(address user, uint amount);\n    bool public valid;\n\n    // Transaction struct to be sent to the off-chain oracle \n    struct Transaction {\n        uint txId; \n        address receiverId;\n        uint txAmount;\n        string txLink;\n    }\n\n    // Event that logs the off-chain oracle call\n    event TransactionRequest (\n        uint txId,\n        address receiverId,\n        uint txAmount\n    );\n\n    // transaction id to person id\n    mapping(uint => Transaction) public transactions; // List of transactions @DEV: need to provide rec address and amount (maybe through struct)\n    uint public numOfTransactions;\n\n    constructor(Admin admin_, address owner_) {\n        parent_ = Corporate(msg.sender);\n        admin = admin_;\n        owner = owner_;\n        permissionedAddress[owner_] = true;\n        amount = address(this).balance;\n        valid = true;\n    }\n\n\n    // need to make sure no possibility for double spend\n    // Will reset to zero and prevent withdrawl whilst the send transaction is processed.\n    function getTake() public payable accountsAccess accountValid returns(bool)  {\n        uint prevAmount = amount;\n        amount = 0;\n        return payable(address(parent_)).send(prevAmount);   \n    }\n\n    // Oracle end point for inserting transaction details into blockchain and recording the mapping\n    // function insertTransaction(uint txId, address receiverId, uint txAmount) restricted accountValid public returns(bool) {\n\n    function insertTransaction(Receiver receiverId, uint txAmount, string memory link) public returns(bool) {\n        // require(receiverId.balance >= amount, \"The Receiver contract does not have sufficient balance for this transaction\"); \n        transactions[numOfTransactions] = Transaction(numOfTransactions, address(receiverId), txAmount, link);\n        numOfTransactions++;\n        require(receiverId.admin().owner() == admin.owner(), \"This receiver is not created by admin\");\n        receiverId.sendSubFunds(this, txAmount);\n        // emit TransactionRequest(numOfTransactions, receiverId, txAmount);\n        return true;\n    }\n\n    // Provides functionality to receive funds for the subsidiary\n    receive() external accountValid payable{\n        emit ValueReceived(msg.sender, msg.value);\n    }\n    \n\n    modifier restricted {\n        require(msg.sender == address(parent_) || permissionedAddress[msg.sender] == true);\n        _;\n    }\n\n    // Restrict account access\n    modifier accountsAccess {\n        require(msg.sender == address(parent_));\n        _;\n    }\n    \n    \n    modifier accountValid {\n        require(valid == true, \"This Subsidiary is no longer valid\");\n        _;\n    }\n}",
  "sourcePath": "/Users/dylan/Library/Mobile Documents/com~apple~CloudDocs/Developer/UNSW/COMP6452_Blockchain_Architecture/COMP6452-HelpChain/contracts/CorporateFactory.sol",
  "compiler": {
    "name": "solc",
    "version": "0.8.6+commit.11564f7e.Emscripten.clang"
  },
  "schemaVersion": "3.4.2",
  "updatedAt": "2021-08-08T12:15:07.057Z",
  "networkType": "ethereum",
  "devdoc": {
    "kind": "dev",
    "methods": {},
    "version": 1
  },
  "userdoc": {
    "kind": "user",
    "methods": {},
    "version": 1
  }
}