{
  "contractName": "Corporate",
  "abi": [
    {
      "inputs": [
        {
          "internalType": "contract Admin",
          "name": "admin_",
          "type": "address"
        },
        {
          "internalType": "string",
          "name": "name",
          "type": "string"
        },
        {
          "internalType": "address",
          "name": "owner_",
          "type": "address"
        },
        {
          "internalType": "uint256",
          "name": "corp_id_",
          "type": "uint256"
        }
      ],
      "stateMutability": "nonpayable",
      "type": "constructor"
    },
    {
      "inputs": [],
      "name": "admin",
      "outputs": [
        {
          "internalType": "contract Admin",
          "name": "",
          "type": "address"
        }
      ],
      "stateMutability": "view",
      "type": "function"
    },
    {
      "inputs": [],
      "name": "corporate_id",
      "outputs": [
        {
          "internalType": "uint256",
          "name": "",
          "type": "uint256"
        }
      ],
      "stateMutability": "view",
      "type": "function"
    },
    {
      "inputs": [],
      "name": "corporate_name_",
      "outputs": [
        {
          "internalType": "string",
          "name": "",
          "type": "string"
        }
      ],
      "stateMutability": "view",
      "type": "function"
    },
    {
      "inputs": [],
      "name": "numOfSubs",
      "outputs": [
        {
          "internalType": "uint256",
          "name": "",
          "type": "uint256"
        }
      ],
      "stateMutability": "view",
      "type": "function"
    },
    {
      "inputs": [],
      "name": "owner",
      "outputs": [
        {
          "internalType": "address",
          "name": "",
          "type": "address"
        }
      ],
      "stateMutability": "view",
      "type": "function"
    },
    {
      "inputs": [
        {
          "internalType": "uint256",
          "name": "",
          "type": "uint256"
        }
      ],
      "name": "subs",
      "outputs": [
        {
          "internalType": "address",
          "name": "",
          "type": "address"
        }
      ],
      "stateMutability": "view",
      "type": "function"
    },
    {
      "inputs": [
        {
          "internalType": "address",
          "name": "",
          "type": "address"
        }
      ],
      "name": "subsidiaries",
      "outputs": [
        {
          "internalType": "address",
          "name": "subAddress",
          "type": "address"
        },
        {
          "internalType": "uint256",
          "name": "id",
          "type": "uint256"
        },
        {
          "internalType": "bool",
          "name": "valid",
          "type": "bool"
        }
      ],
      "stateMutability": "view",
      "type": "function"
    },
    {
      "inputs": [],
      "name": "valid",
      "outputs": [
        {
          "internalType": "bool",
          "name": "",
          "type": "bool"
        }
      ],
      "stateMutability": "view",
      "type": "function"
    },
    {
      "inputs": [],
      "name": "whitelist",
      "outputs": [
        {
          "internalType": "contract Whitelist",
          "name": "",
          "type": "address"
        }
      ],
      "stateMutability": "view",
      "type": "function"
    },
    {
      "inputs": [],
      "name": "createSub",
      "outputs": [
        {
          "internalType": "address",
          "name": "",
          "type": "address"
        }
      ],
      "stateMutability": "nonpayable",
      "type": "function"
    },
    {
      "inputs": [
        {
          "internalType": "uint256",
          "name": "id",
          "type": "uint256"
        }
      ],
      "name": "getSubContract",
      "outputs": [
        {
          "internalType": "address",
          "name": "",
          "type": "address"
        }
      ],
      "stateMutability": "view",
      "type": "function"
    },
    {
      "inputs": [
        {
          "internalType": "address",
          "name": "toCheck",
          "type": "address"
        }
      ],
      "name": "checkIfSubsidiaryValid",
      "outputs": [
        {
          "internalType": "bool",
          "name": "",
          "type": "bool"
        }
      ],
      "stateMutability": "view",
      "type": "function"
    },
    {
      "inputs": [],
      "name": "disableContract",
      "outputs": [],
      "stateMutability": "nonpayable",
      "type": "function"
    },
    {
      "inputs": [
        {
          "internalType": "contract Whitelist",
          "name": "whitelist_",
          "type": "address"
        }
      ],
      "name": "updateWhitelist",
      "outputs": [],
      "stateMutability": "nonpayable",
      "type": "function"
    },
    {
      "inputs": [],
      "name": "disableCorporate",
      "outputs": [
        {
          "internalType": "bool",
          "name": "",
          "type": "bool"
        }
      ],
      "stateMutability": "nonpayable",
      "type": "function"
    }
  ],
  "bytecode": "0x60806040523480156200001157600080fd5b5060405162002e1b38038062002e1b8339818101604052810190620000379190620002b1565b83600160006101000a81548173ffffffffffffffffffffffffffffffffffffffff021916908373ffffffffffffffffffffffffffffffffffffffff160217905550816000806101000a81548173ffffffffffffffffffffffffffffffffffffffff021916908373ffffffffffffffffffffffffffffffffffffffff1602179055508260049080519060200190620000d09291906200013e565b508060038190555033600260006101000a81548173ffffffffffffffffffffffffffffffffffffffff021916908373ffffffffffffffffffffffffffffffffffffffff1602179055506001600760146101000a81548160ff0219169083151502179055505050505062000566565b8280546200014c9062000429565b90600052602060002090601f016020900481019282620001705760008555620001bc565b82601f106200018b57805160ff1916838001178555620001bc565b82800160010185558215620001bc579182015b82811115620001bb5782518255916020019190600101906200019e565b5b509050620001cb9190620001cf565b5090565b5b80821115620001ea576000816000905550600101620001d0565b5090565b600062000205620001ff846200036b565b62000342565b905082815260208101848484011115620002245762000223620004f8565b5b62000231848285620003f3565b509392505050565b6000815190506200024a8162000518565b92915050565b600081519050620002618162000532565b92915050565b600082601f8301126200027f576200027e620004f3565b5b815162000291848260208601620001ee565b91505092915050565b600081519050620002ab816200054c565b92915050565b60008060008060808587031215620002ce57620002cd62000502565b5b6000620002de8782880162000250565b945050602085015167ffffffffffffffff811115620003025762000301620004fd565b5b620003108782880162000267565b9350506040620003238782880162000239565b925050606062000336878288016200029a565b91505092959194509250565b60006200034e62000361565b90506200035c82826200045f565b919050565b6000604051905090565b600067ffffffffffffffff821115620003895762000388620004c4565b5b620003948262000507565b9050602081019050919050565b6000620003ae82620003c9565b9050919050565b6000620003c282620003a1565b9050919050565b600073ffffffffffffffffffffffffffffffffffffffff82169050919050565b6000819050919050565b60005b8381101562000413578082015181840152602081019050620003f6565b8381111562000423576000848401525b50505050565b600060028204905060018216806200044257607f821691505b6020821081141562000459576200045862000495565b5b50919050565b6200046a8262000507565b810181811067ffffffffffffffff821117156200048c576200048b620004c4565b5b80604052505050565b7f4e487b7100000000000000000000000000000000000000000000000000000000600052602260045260246000fd5b7f4e487b7100000000000000000000000000000000000000000000000000000000600052604160045260246000fd5b600080fd5b600080fd5b600080fd5b600080fd5b6000601f19601f8301169050919050565b6200052381620003a1565b81146200052f57600080fd5b50565b6200053d81620003b5565b81146200054957600080fd5b50565b6200055781620003e9565b81146200056357600080fd5b50565b6128a580620005766000396000f3fe60806040523480156200001157600080fd5b50600436106200010c5760003560e01c80638ba4d86411620000a5578063c1991219116200006f578063c19912191462000299578063f411149614620002bb578063f851a44014620002f1578063f8a64f9a1462000313576200010c565b80638ba4d86414620002115780638da5cb5b146200023357806393e59dc1146200025557806398f4448a1462000277576200010c565b80636fdbaf4311620000e75780636fdbaf4314620001755780637687f68514620001ab578063869080bf14620001cd578063894ba8331462000205576200010c565b806334929e9a14620001115780633d0f963e14620001335780634aaf1ed81462000153575b600080fd5b6200011b62000349565b6040516200012a91906200170d565b60405180910390f35b6200015160048036038101906200014b919062001436565b6200034f565b005b6200015d62000807565b6040516200016c9190620015a5565b60405180910390f35b6200019360048036038101906200018d9190620013d2565b62000bdd565b604051620001a29190620015ff565b60405180910390f35b620001b562000d2c565b604051620001c491906200170d565b60405180910390f35b620001eb6004803603810190620001e59190620013d2565b62000d32565b604051620001fc93929190620015c2565b60405180910390f35b6200020f62000d89565b005b6200021b62000f8b565b6040516200022a919062001683565b60405180910390f35b6200023d62001021565b6040516200024c9190620015a5565b60405180910390f35b6200025f62001045565b6040516200026e919062001666565b60405180910390f35b620002816200106b565b604051620002909190620015ff565b60405180910390f35b620002a362001283565b604051620002b29190620015ff565b60405180910390f35b620002d96004803603810190620002d3919062001468565b62001296565b604051620002e89190620015a5565b60405180910390f35b620002fb62001302565b6040516200030a91906200161c565b60405180910390f35b6200033160048036038101906200032b919062001468565b62001328565b604051620003409190620015a5565b60405180910390f35b60035481565b60008054906101000a900473ffffffffffffffffffffffffffffffffffffffff1673ffffffffffffffffffffffffffffffffffffffff163373ffffffffffffffffffffffffffffffffffffffff161480620004785750600160009054906101000a900473ffffffffffffffffffffffffffffffffffffffff1673ffffffffffffffffffffffffffffffffffffffff16638da5cb5b6040518163ffffffff1660e01b815260040160206040518083038186803b1580156200040e57600080fd5b505afa15801562000423573d6000803e3d6000fd5b505050506040513d601f19601f8201168201806040525081019062000449919062001404565b73ffffffffffffffffffffffffffffffffffffffff163373ffffffffffffffffffffffffffffffffffffffff16145b80620004d15750600260009054906101000a900473ffffffffffffffffffffffffffffffffffffffff1673ffffffffffffffffffffffffffffffffffffffff163373ffffffffffffffffffffffffffffffffffffffff16145b62000513576040517f08c379a00000000000000000000000000000000000000000000000000000000081526004016200050a90620016c9565b60405180910390fd5b60011515600760149054906101000a900460ff161515146200053457600080fd5b60008054906101000a900473ffffffffffffffffffffffffffffffffffffffff1673ffffffffffffffffffffffffffffffffffffffff168173ffffffffffffffffffffffffffffffffffffffff16638da5cb5b6040518163ffffffff1660e01b815260040160206040518083038186803b158015620005b257600080fd5b505afa158015620005c7573d6000803e3d6000fd5b505050506040513d601f19601f82011682018060405250810190620005ed919062001404565b73ffffffffffffffffffffffffffffffffffffffff161480620007815750600160009054906101000a900473ffffffffffffffffffffffffffffffffffffffff1673ffffffffffffffffffffffffffffffffffffffff16638da5cb5b6040518163ffffffff1660e01b815260040160206040518083038186803b1580156200067457600080fd5b505afa15801562000689573d6000803e3d6000fd5b505050506040513d601f19601f82011682018060405250810190620006af919062001404565b73ffffffffffffffffffffffffffffffffffffffff16600760009054906101000a900473ffffffffffffffffffffffffffffffffffffffff1673ffffffffffffffffffffffffffffffffffffffff16638da5cb5b6040518163ffffffff1660e01b815260040160206040518083038186803b1580156200072e57600080fd5b505afa15801562000743573d6000803e3d6000fd5b505050506040513d601f19601f8201168201806040525081019062000769919062001404565b73ffffffffffffffffffffffffffffffffffffffff16145b620007c3576040517f08c379a0000000000000000000000000000000000000000000000000000000008152600401620007ba90620016eb565b60405180910390fd5b80600760006101000a81548173ffffffffffffffffffffffffffffffffffffffff021916908373ffffffffffffffffffffffffffffffffffffffff16021790555050565b60008060009054906101000a900473ffffffffffffffffffffffffffffffffffffffff1673ffffffffffffffffffffffffffffffffffffffff163373ffffffffffffffffffffffffffffffffffffffff161480620009335750600160009054906101000a900473ffffffffffffffffffffffffffffffffffffffff1673ffffffffffffffffffffffffffffffffffffffff16638da5cb5b6040518163ffffffff1660e01b815260040160206040518083038186803b158015620008c957600080fd5b505afa158015620008de573d6000803e3d6000fd5b505050506040513d601f19601f8201168201806040525081019062000904919062001404565b73ffffffffffffffffffffffffffffffffffffffff163373ffffffffffffffffffffffffffffffffffffffff16145b806200098c5750600260009054906101000a900473ffffffffffffffffffffffffffffffffffffffff1673ffffffffffffffffffffffffffffffffffffffff163373ffffffffffffffffffffffffffffffffffffffff16145b620009ce576040517f08c379a0000000000000000000000000000000000000000000000000000000008152600401620009c590620016c9565b60405180910390fd5b60011515600760149054906101000a900460ff16151514620009ef57600080fd5b6000600160009054906101000a900473ffffffffffffffffffffffffffffffffffffffff1660008054906101000a900473ffffffffffffffffffffffffffffffffffffffff1660405162000a439062001368565b62000a5092919062001639565b604051809103906000f08015801562000a6d573d6000803e3d6000fd5b5090506006819080600181540180825580915050600190039060005260206000200160009091909190916101000a81548173ffffffffffffffffffffffffffffffffffffffff021916908373ffffffffffffffffffffffffffffffffffffffff16021790555060405180606001604052808273ffffffffffffffffffffffffffffffffffffffff168152602001600854815260200160011515815250600560008373ffffffffffffffffffffffffffffffffffffffff1673ffffffffffffffffffffffffffffffffffffffff16815260200190815260200160002060008201518160000160006101000a81548173ffffffffffffffffffffffffffffffffffffffff021916908373ffffffffffffffffffffffffffffffffffffffff1602179055506020820151816001015560408201518160020160006101000a81548160ff0219169083151502179055509050506008600081548092919062000bd19062001860565b91905055508091505090565b600060011515600760149054906101000a900460ff1615151462000c0057600080fd5b600073ffffffffffffffffffffffffffffffffffffffff16600560008473ffffffffffffffffffffffffffffffffffffffff1673ffffffffffffffffffffffffffffffffffffffff16815260200190815260200160002060000160009054906101000a900473ffffffffffffffffffffffffffffffffffffffff1673ffffffffffffffffffffffffffffffffffffffff16141562000cd5576040517f08c379a000000000000000000000000000000000000000000000000000000000815260040162000ccc90620016a7565b60405180910390fd5b600560008373ffffffffffffffffffffffffffffffffffffffff1673ffffffffffffffffffffffffffffffffffffffff16815260200190815260200160002060020160009054906101000a900460ff169050919050565b60085481565b60056020528060005260406000206000915090508060000160009054906101000a900473ffffffffffffffffffffffffffffffffffffffff16908060010154908060020160009054906101000a900460ff16905083565b60008054906101000a900473ffffffffffffffffffffffffffffffffffffffff1673ffffffffffffffffffffffffffffffffffffffff163373ffffffffffffffffffffffffffffffffffffffff16148062000eb25750600160009054906101000a900473ffffffffffffffffffffffffffffffffffffffff1673ffffffffffffffffffffffffffffffffffffffff16638da5cb5b6040518163ffffffff1660e01b815260040160206040518083038186803b15801562000e4857600080fd5b505afa15801562000e5d573d6000803e3d6000fd5b505050506040513d601f19601f8201168201806040525081019062000e83919062001404565b73ffffffffffffffffffffffffffffffffffffffff163373ffffffffffffffffffffffffffffffffffffffff16145b8062000f0b5750600260009054906101000a900473ffffffffffffffffffffffffffffffffffffffff1673ffffffffffffffffffffffffffffffffffffffff163373ffffffffffffffffffffffffffffffffffffffff16145b62000f4d576040517f08c379a000000000000000000000000000000000000000000000000000000000815260040162000f4490620016c9565b60405180910390fd5b60011515600760149054906101000a900460ff1615151462000f6e57600080fd5b6000600760146101000a81548160ff021916908315150217905550565b6004805462000f9a906200182a565b80601f016020809104026020016040519081016040528092919081815260200182805462000fc8906200182a565b8015620010195780601f1062000fed5761010080835404028352916020019162001019565b820191906000526020600020905b81548152906001019060200180831162000ffb57829003601f168201915b505050505081565b60008054906101000a900473ffffffffffffffffffffffffffffffffffffffff1681565b600760009054906101000a900473ffffffffffffffffffffffffffffffffffffffff1681565b60008060009054906101000a900473ffffffffffffffffffffffffffffffffffffffff1673ffffffffffffffffffffffffffffffffffffffff163373ffffffffffffffffffffffffffffffffffffffff161480620011975750600160009054906101000a900473ffffffffffffffffffffffffffffffffffffffff1673ffffffffffffffffffffffffffffffffffffffff16638da5cb5b6040518163ffffffff1660e01b815260040160206040518083038186803b1580156200112d57600080fd5b505afa15801562001142573d6000803e3d6000fd5b505050506040513d601f19601f8201168201806040525081019062001168919062001404565b73ffffffffffffffffffffffffffffffffffffffff163373ffffffffffffffffffffffffffffffffffffffff16145b80620011f05750600260009054906101000a900473ffffffffffffffffffffffffffffffffffffffff1673ffffffffffffffffffffffffffffffffffffffff163373ffffffffffffffffffffffffffffffffffffffff16145b62001232576040517f08c379a00000000000000000000000000000000000000000000000000000000081526004016200122990620016c9565b60405180910390fd5b60011515600760149054906101000a900460ff161515146200125357600080fd5b6000600760146101000a81548160ff021916908315150217905550600760149054906101000a900460ff16905090565b600760149054906101000a900460ff1681565b600060011515600760149054906101000a900460ff16151514620012b957600080fd5b60068281548110620012d057620012cf6200190c565b5b9060005260206000200160009054906101000a900473ffffffffffffffffffffffffffffffffffffffff169050919050565b600160009054906101000a900473ffffffffffffffffffffffffffffffffffffffff1681565b600681815481106200133957600080fd5b906000526020600020016000915054906101000a900473ffffffffffffffffffffffffffffffffffffffff1681565b610e098062001a6783390190565b600081359050620013878162001a18565b92915050565b6000815190506200139e8162001a18565b92915050565b600081359050620013b58162001a32565b92915050565b600081359050620013cc8162001a4c565b92915050565b600060208284031215620013eb57620013ea6200193b565b5b6000620013fb8482850162001376565b91505092915050565b6000602082840312156200141d576200141c6200193b565b5b60006200142d848285016200138d565b91505092915050565b6000602082840312156200144f576200144e6200193b565b5b60006200145f84828501620013a4565b91505092915050565b6000602082840312156200148157620014806200193b565b5b60006200149184828501620013bb565b91505092915050565b620014a58162001746565b82525050565b620014b6816200175a565b82525050565b620014c781620017a4565b82525050565b620014d881620017cc565b82525050565b6000620014eb826200172a565b620014f7818562001735565b935062001509818560208601620017f4565b620015148162001940565b840191505092915050565b60006200152e60188362001735565b91506200153b8262001951565b602082019050919050565b60006200155560348362001735565b915062001562826200197a565b604082019050919050565b60006200157c60248362001735565b91506200158982620019c9565b604082019050919050565b6200159f816200179a565b82525050565b6000602082019050620015bc60008301846200149a565b92915050565b6000606082019050620015d960008301866200149a565b620015e8602083018562001594565b620015f76040830184620014ab565b949350505050565b6000602082019050620016166000830184620014ab565b92915050565b6000602082019050620016336000830184620014bc565b92915050565b6000604082019050620016506000830185620014bc565b6200165f60208301846200149a565b9392505050565b60006020820190506200167d6000830184620014cd565b92915050565b600060208201905081810360008301526200169f8184620014de565b905092915050565b60006020820190508181036000830152620016c2816200151f565b9050919050565b60006020820190508181036000830152620016e48162001546565b9050919050565b6000602082019050818103600083015262001706816200156d565b9050919050565b600060208201905062001724600083018462001594565b92915050565b600081519050919050565b600082825260208201905092915050565b600062001753826200177a565b9050919050565b60008115159050919050565b6000620017738262001746565b9050919050565b600073ffffffffffffffffffffffffffffffffffffffff82169050919050565b6000819050919050565b6000620017b182620017b8565b9050919050565b6000620017c5826200177a565b9050919050565b6000620017d982620017e0565b9050919050565b6000620017ed826200177a565b9050919050565b60005b8381101562001814578082015181840152602081019050620017f7565b8381111562001824576000848401525b50505050565b600060028204905060018216806200184357607f821691505b602082108114156200185a5762001859620018dd565b5b50919050565b60006200186d826200179a565b91507fffffffffffffffffffffffffffffffffffffffffffffffffffffffffffffffff821415620018a357620018a2620018ae565b5b600182019050919050565b7f4e487b7100000000000000000000000000000000000000000000000000000000600052601160045260246000fd5b7f4e487b7100000000000000000000000000000000000000000000000000000000600052602260045260246000fd5b7f4e487b7100000000000000000000000000000000000000000000000000000000600052603260045260246000fd5b600080fd5b6000601f19601f8301169050919050565b7f4e6f742061207375627369646961727920616464726573730000000000000000600082015250565b7f4f6e6c7920746865206f776e65722f61646d696e2f706172656e742063616e2060008201527f61636365737320746869732066756e6374696f6e000000000000000000000000602082015250565b7f57686974656c697374206e6f742063726561746564206279206b6e6f776e207060008201527f6172747900000000000000000000000000000000000000000000000000000000602082015250565b62001a238162001746565b811462001a2f57600080fd5b50565b62001a3d8162001766565b811462001a4957600080fd5b50565b62001a57816200179a565b811462001a6357600080fd5b5056fe60806040523480156200001157600080fd5b5060405162000e0938038062000e098339818101604052810190620000379190620001a9565b336000806101000a81548173ffffffffffffffffffffffffffffffffffffffff021916908373ffffffffffffffffffffffffffffffffffffffff16021790555081600160006101000a81548173ffffffffffffffffffffffffffffffffffffffff021916908373ffffffffffffffffffffffffffffffffffffffff16021790555080600260006101000a81548173ffffffffffffffffffffffffffffffffffffffff021916908373ffffffffffffffffffffffffffffffffffffffff1602179055506001600460008373ffffffffffffffffffffffffffffffffffffffff1673ffffffffffffffffffffffffffffffffffffffff16815260200190815260200160002060006101000a81548160ff021916908315150217905550476003819055506001600560006101000a81548160ff021916908315150217905550505062000271565b6000815190506200018c816200023d565b92915050565b600081519050620001a38162000257565b92915050565b60008060408385031215620001c357620001c262000238565b5b6000620001d38582860162000192565b9250506020620001e6858286016200017b565b9150509250929050565b6000620001fd8262000218565b9050919050565b60006200021182620001f0565b9050919050565b600073ffffffffffffffffffffffffffffffffffffffff82169050919050565b600080fd5b6200024881620001f0565b81146200025457600080fd5b50565b620002628162000204565b81146200026e57600080fd5b50565b610b8880620002816000396000f3fe60806040526004361061008a5760003560e01c8063aa8c217c11610059578063aa8c217c146101eb578063b119a9d614610216578063c199121914610241578063ef5ea07c1461026c578063f851a440146102a957610120565b8063725a1ef5146101255780638b734233146101625780638da5cb5b146101805780639ace38c2146101ab57610120565b366101205760011515600560009054906101000a900460ff161515146100e5576040517f08c379a00000000000000000000000000000000000000000000000000000000081526004016100dc906108f8565b60405180910390fd5b7f7e71433ddf847725166244795048ecf3e3f9f35628254ecbf736056664233493333460405161011692919061087e565b60405180910390a1005b600080fd5b34801561013157600080fd5b5061014c6004803603810190610147919061073c565b6102d4565b6040516101599190610918565b60405180910390f35b61016a6102e5565b60405161017791906108a7565b60405180910390f35b34801561018c57600080fd5b50610195610400565b6040516101a29190610863565b60405180910390f35b3480156101b757600080fd5b506101d260048036038101906101cd919061073c565b610426565b6040516101e29493929190610933565b60405180910390f35b3480156101f757600080fd5b506102006104fe565b60405161020d9190610918565b60405180910390f35b34801561022257600080fd5b5061022b610504565b60405161023891906108dd565b60405180910390f35b34801561024d57600080fd5b50610256610528565b60405161026391906108a7565b60405180910390f35b34801561027857600080fd5b50610293600480360381019061028e9190610769565b61053b565b6040516102a091906108a7565b60405180910390f35b3480156102b557600080fd5b506102be610649565b6040516102cb91906108c2565b60405180910390f35b600081600381905550819050919050565b60008060009054906101000a900473ffffffffffffffffffffffffffffffffffffffff1673ffffffffffffffffffffffffffffffffffffffff163373ffffffffffffffffffffffffffffffffffffffff161461034057600080fd5b60011515600560009054906101000a900460ff16151514610396576040517f08c379a000000000000000000000000000000000000000000000000000000000815260040161038d906108f8565b60405180910390fd5b60006003549050600060038190555060008054906101000a900473ffffffffffffffffffffffffffffffffffffffff1673ffffffffffffffffffffffffffffffffffffffff166108fc829081150290604051600060405180830381858888f1935050505091505090565b600260009054906101000a900473ffffffffffffffffffffffffffffffffffffffff1681565b60066020528060005260406000206000915090508060000154908060010160009054906101000a900473ffffffffffffffffffffffffffffffffffffffff169080600201549080600301805461047b90610a5e565b80601f01602080910402602001604051908101604052809291908181526020018280546104a790610a5e565b80156104f45780601f106104c9576101008083540402835291602001916104f4565b820191906000526020600020905b8154815290600101906020018083116104d757829003601f168201915b5050505050905084565b60035481565b60008054906101000a900473ffffffffffffffffffffffffffffffffffffffff1681565b600560009054906101000a900460ff1681565b60008160038190555060405180608001604052808581526020018473ffffffffffffffffffffffffffffffffffffffff1681526020018381526020016040518060400160405280601581526020017f687474703a2f2f6d756d626f4a756d626f2e6a70670000000000000000000000815250815250600660008681526020019081526020016000206000820151816000015560208201518160010160006101000a81548173ffffffffffffffffffffffffffffffffffffffff021916908373ffffffffffffffffffffffffffffffffffffffff16021790555060408201518160020155606082015181600301908051906020019061063a92919061066f565b50905050600190509392505050565b600160009054906101000a900473ffffffffffffffffffffffffffffffffffffffff1681565b82805461067b90610a5e565b90600052602060002090601f01602090048101928261069d57600085556106e4565b82601f106106b657805160ff19168380011785556106e4565b828001600101855582156106e4579182015b828111156106e35782518255916020019190600101906106c8565b5b5090506106f191906106f5565b5090565b5b8082111561070e5760008160009055506001016106f6565b5090565b60008135905061072181610b24565b92915050565b60008135905061073681610b3b565b92915050565b60006020828403121561075257610751610abf565b5b600061076084828501610727565b91505092915050565b60008060006060848603121561078257610781610abf565b5b600061079086828701610727565b93505060206107a186828701610712565b92505060406107b286828701610727565b9150509250925092565b6107c58161099b565b82525050565b6107d4816109ad565b82525050565b6107e3816109e3565b82525050565b6107f281610a07565b82525050565b60006108038261097f565b61080d818561098a565b935061081d818560208601610a2b565b61082681610ac4565b840191505092915050565b600061083e60228361098a565b915061084982610ad5565b604082019050919050565b61085d816109d9565b82525050565b600060208201905061087860008301846107bc565b92915050565b600060408201905061089360008301856107bc565b6108a06020830184610854565b9392505050565b60006020820190506108bc60008301846107cb565b92915050565b60006020820190506108d760008301846107da565b92915050565b60006020820190506108f260008301846107e9565b92915050565b6000602082019050818103600083015261091181610831565b9050919050565b600060208201905061092d6000830184610854565b92915050565b60006080820190506109486000830187610854565b61095560208301866107bc565b6109626040830185610854565b818103606083015261097481846107f8565b905095945050505050565b600081519050919050565b600082825260208201905092915050565b60006109a6826109b9565b9050919050565b60008115159050919050565b600073ffffffffffffffffffffffffffffffffffffffff82169050919050565b6000819050919050565b60006109ee826109f5565b9050919050565b6000610a00826109b9565b9050919050565b6000610a1282610a19565b9050919050565b6000610a24826109b9565b9050919050565b60005b83811015610a49578082015181840152602081019050610a2e565b83811115610a58576000848401525b50505050565b60006002820490506001821680610a7657607f821691505b60208210811415610a8a57610a89610a90565b5b50919050565b7f4e487b7100000000000000000000000000000000000000000000000000000000600052602260045260246000fd5b600080fd5b6000601f19601f8301169050919050565b7f546869732053756273696469617279206973206e6f206c6f6e6765722076616c60008201527f6964000000000000000000000000000000000000000000000000000000000000602082015250565b610b2d8161099b565b8114610b3857600080fd5b50565b610b44816109d9565b8114610b4f57600080fd5b5056fea26469706673582212208e08cfd9cf36a8fc06462e0a5b86cfd9ad720a5f2bb27610e65321f696e92ab264736f6c63430008060033a2646970667358221220a370e11e1c5dc1dd27d65f59e4ab3e112e5e654bd586f73a8fc894306b0d603064736f6c63430008060033",
  "immutableReferences": {},
  "source": "//SPDX-License-Identifier: UNLICENSED\npragma solidity >=0.7.0 <0.9.0;\n\nimport \"./Whitelist.sol\";\nimport \"./Admin.sol\";\n\n/*\n    This class is a factory class used to produce instances of Corporates, Corporates will act as a parent class to Subsidiary \n*/\ncontract CorporateFactory { \n    address public owner; // owner address \n    Admin public admin; // admin contract\n    mapping(uint => corporate) public corporates; //list of corporates \n    uint public numCorps; // number of corporates\n    bool active = true; //whether this contract is active \n\n    // Struct used to store corporates in the mapping\n    struct corporate {\n        address corpAddress;\n        uint id;\n        bool valid;\n    }\n\n    // The constructor links an associated Admin contract \n    constructor(Admin admin_) {\n        owner = msg.sender;\n        admin = admin_;\n    }\n\n    //function to create a new Corporate with name <corpName> \n    function createCorp(string memory corpName, address owner_) public  permissioned activeContract returns(address corpAddr){\n        Corporate newCorp = new Corporate(admin,corpName, owner_, numCorps); // passes parent's admin, address of owner and corp name\n        corporates[numCorps] = corporate(address(newCorp), numCorps, true); // add the corporate to the last spot in the list \n        numCorps += 1;\n        return address(newCorp);\n    }\n\n    // get corporate address given id \n    function getCorporate(uint id) public view activeContract returns(address)  {\n        return corporates[id].corpAddress;\n    }\n\n    // This function is used by the Admin to activate/disable the Corporate Factory contracts \n    function toggleContractActivation() public adminOnly returns (bool){\n        active = !active;\n        return(active);\n    }\n\n    // This function is used to mark a corporate as invalid\n    function disableCorporate(uint id) public permissioned activeContract{\n        require(checkIfCorporateValid(id) == true); // check that it is still valid\n        Corporate(corporates[id].corpAddress).disableCorporate(); // disable the Corporate\n    }\n\n    function checkIfCorporateValid(uint id) public view activeContract returns (bool){\n        require(corporates[id].corpAddress != address(0), 'Not a listed corporate'); //check if corporate in factory list\n        return Corporate(corporates[id].corpAddress).valid(); // return if the contract is valid \n\n    }\n    \n    modifier adminOnly {\n        require(msg.sender == admin.owner(), \"Only the admin can access this function\");\n        _;\n    }\n    modifier permissioned {\n        require(msg.sender == owner || msg.sender == admin.owner(), \"Only the owner/admin can access this function\");\n        _;\n    }\n\n    modifier activeContract{\n        require(active == true, \"Contract no longer active\");\n        _;\n    }\n}\n\ncontract Corporate {\n    address public owner; // owner of the contract e.g. a Corporates own address\n    Admin public admin; // admin of the system\n    CorporateFactory parent; // Corporate Factory this was created from \n    \n    uint public corporate_id; // Corporate ID assigned to \n    string public corporate_name_; // name of the Corporate\n    mapping(address => sub) public subsidiaries; // a mapping of addresses to the sub struct.\n    address[] public subs; // could make this into a struct so the id can be found easily.\n    Whitelist public whitelist; //whitelist associated with the corporate\n    bool public valid; //checks if the contract is valid \n    uint public numOfSubs; \n    \n    struct sub {\n        address subAddress;\n        uint id;\n        bool valid;\n    }\n\n    // allows for an owner i.e. corporate to be passed into the constructor \n    constructor(Admin admin_,string memory name, address owner_, uint corp_id_){\n        admin = admin_;\n        owner = owner_;\n        corporate_name_ = name; \n        corporate_id = corp_id_;\n        parent = CorporateFactory(msg.sender);\n        valid = true;    \n    }\n\n    // This function is used to create a Subsidiary branch of the Corporate representing a store\n    function createSub() public  permissioned validContract returns(address){\n        Subsidiary newSub = new Subsidiary(admin, owner);\n        subs.push(address(newSub)); // add new sub to subsidiary array \n        subsidiaries[address(newSub)] = sub(address(newSub), numOfSubs, true); // add new sub to mapping\n        numOfSubs++;\n        return address(newSub);\n    }\n\n    // Returns the subsidiary struct\n    function getSubContract(uint id) public view validContract returns(address)  {\n        return subs[id];\n    }\n\n    function checkIfSubsidiaryValid(address toCheck) public view validContract returns(bool){\n        require(subsidiaries[toCheck].subAddress != address(0), \"Not a subsidiary address\");\n        return subsidiaries[toCheck].valid;\n    }\n    \n    function disableContract() public permissioned validContract{\n        valid = false;\n    }\n\n    // Updates the whiteList \n    function updateWhitelist(Whitelist whitelist_) public permissioned validContract {\n        require(whitelist_.owner() == owner || whitelist.owner() == admin.owner(), \"Whitelist not created by known party\");\n        whitelist = whitelist_;\n    }\n\n    // Disable the Corporate\n    function disableCorporate() public permissioned validContract returns(bool){\n        valid = false;\n        return valid;\n    }\n\n    modifier adminOnly {\n        require(msg.sender == admin.owner(), \"Only the admin can access this function\");\n        _;\n    }\n    modifier permissioned {\n        require(msg.sender == owner || msg.sender == admin.owner() || msg.sender == address(parent), \"Only the owner/admin/parent can access this function\");\n        _;\n    }\n    \n\n    modifier validContract {\n        require(valid == true);\n        _;\n    }\n}\n\n// This contract represents a Subsidiary branch of a Corporate partner\ncontract Subsidiary {\n    Corporate public parent_; // Corporate Contract\n    Admin public admin; //Admin\n    address public owner; //Corporate owner address\n    \n    uint public amount; //Balanace\n    mapping(address => bool) private permissionedAddress; //provides an array of addresses the Sub can withdraw funds to\n    event ValueReceived(address user, uint amount);\n    bool public valid;\n\n    // Transaction struct to be sent to the off-chain oracle \n    struct Transaction {\n        uint txId; \n        address receiverId;\n        uint txAmount;\n        string txLink;\n    }\n\n    // Event that triggers the off-chain oracle\n    event TransactionRequest (\n        uint txId,\n        address receiverId,\n        uint txAmount\n    );\n\n    // transaction id to person id\n    mapping(uint => Transaction) public transactions; // List of transactions @DEV: need to provide rec address and amount (maybe through struct)\n    uint numOfTransactions;\n\n    constructor(Admin admin_, address owner_) {\n        parent_ = Corporate(msg.sender);\n        admin = admin_;\n        owner = owner_;\n        permissionedAddress[owner_] = true;\n        amount = address(this).balance;\n        valid = true;\n    }\n    //testing oracle\n    event CallbackInsertTX();\n\n    function setInsertTX(uint value) public returns (uint){\n        // require(ownership);\n        amount = value;\n        return value;\n    }\n\n\n    // need to make sure no possibility for double spend\n    // Will reset to zero and prevent withdrawl whilst the send transaction is processed.\n    function getTake() public payable accountsAccess accountValid returns(bool)  {\n        uint prevAmount = amount;\n        amount = 0;\n        return payable(address(parent_)).send(prevAmount);   \n    }\n\n    // Oracle end point for inserting transaction details into blockchain and recording the mapping\n    // function insertTransaction(uint txId, address receiverId, uint txAmount) restricted accountValid public returns(bool) {\n\n    function insertTransaction(uint txId, address receiverId, uint txAmount) public returns(bool) {\n        // require(receiverId.balance >= amount, \"The Receiver contract does not have sufficient balance for this transaction\"); \n        amount = txAmount;\n        transactions[txId] = Transaction(txId, receiverId, txAmount, \"http://mumboJumbo.jpg\");\n        // emit TransactionRequest(txId, receiverId, txAmount);\n        return true;\n    }\n\n    // Provides functionality to receive funds for the subsidiary\n    receive() external accountValid payable{\n        emit ValueReceived(msg.sender, msg.value);\n    }\n    \n\n    modifier restricted {\n        require(msg.sender == address(parent_) || permissionedAddress[msg.sender] == true);\n        _;\n    }\n\n    // Restrict account access\n    modifier accountsAccess {\n        require(msg.sender == address(parent_));\n        _;\n    }\n    \n    \n    modifier accountValid {\n        require(valid == true, \"This Subsidiary is no longer valid\");\n        _;\n    }\n}",
  "sourcePath": "/Users/dylan/Library/Mobile Documents/com~apple~CloudDocs/Developer/UNSW/COMP6452_Blockchain_Architecture/COMP6452-HelpChain/contracts/CorporateFactory.sol",
  "compiler": {
    "name": "solc",
    "version": "0.8.6+commit.11564f7e.Emscripten.clang"
  },
  "schemaVersion": "3.4.2",
  "updatedAt": "2021-08-08T06:41:39.176Z",
  "networkType": "ethereum",
  "devdoc": {
    "kind": "dev",
    "methods": {},
    "version": 1
  },
  "userdoc": {
    "kind": "user",
    "methods": {},
    "version": 1
  }
}