{
  "contractName": "CorporateFactory",
  "abi": [
    {
      "inputs": [
        {
          "internalType": "address",
          "name": "owner_",
          "type": "address"
        }
      ],
      "stateMutability": "nonpayable",
      "type": "constructor"
    },
    {
      "inputs": [
        {
          "internalType": "uint256",
          "name": "",
          "type": "uint256"
        }
      ],
      "name": "corporates",
      "outputs": [
        {
          "internalType": "address",
          "name": "corpAddress",
          "type": "address"
        },
        {
          "internalType": "uint256",
          "name": "id",
          "type": "uint256"
        },
        {
          "internalType": "bool",
          "name": "valid",
          "type": "bool"
        }
      ],
      "stateMutability": "view",
      "type": "function"
    },
    {
      "inputs": [],
      "name": "owner",
      "outputs": [
        {
          "internalType": "address",
          "name": "",
          "type": "address"
        }
      ],
      "stateMutability": "view",
      "type": "function"
    },
    {
      "inputs": [
        {
          "internalType": "uint256",
          "name": "id",
          "type": "uint256"
        }
      ],
      "name": "getCorporate",
      "outputs": [
        {
          "internalType": "address",
          "name": "",
          "type": "address"
        }
      ],
      "stateMutability": "nonpayable",
      "type": "function"
    }
  ],
  "bytecode": "0x608060405234801561001057600080fd5b5060405161044c38038061044c8339818101604052810190610032919061008d565b806000806101000a81548173ffffffffffffffffffffffffffffffffffffffff021916908373ffffffffffffffffffffffffffffffffffffffff16021790555050610108565b600081519050610087816100f1565b92915050565b6000602082840312156100a3576100a26100ec565b5b60006100b184828501610078565b91505092915050565b60006100c5826100cc565b9050919050565b600073ffffffffffffffffffffffffffffffffffffffff82169050919050565b600080fd5b6100fa816100ba565b811461010557600080fd5b50565b610335806101176000396000f3fe608060405234801561001057600080fd5b50600436106100415760003560e01c8063010d66631461004657806368a0b4e7146100765780638da5cb5b146100a8575b600080fd5b610060600480360381019061005b91906101ef565b6100c6565b60405161006d9190610249565b60405180910390f35b610090600480360381019061008b91906101ef565b61015f565b60405161009f93929190610264565b60405180910390f35b6100b06101b6565b6040516100bd9190610249565b60405180910390f35b60008060009054906101000a900473ffffffffffffffffffffffffffffffffffffffff1673ffffffffffffffffffffffffffffffffffffffff163373ffffffffffffffffffffffffffffffffffffffff161461012157600080fd5b6001600083815260200190815260200160002060000160009054906101000a900473ffffffffffffffffffffffffffffffffffffffff169050919050565b60016020528060005260406000206000915090508060000160009054906101000a900473ffffffffffffffffffffffffffffffffffffffff16908060010154908060020160009054906101000a900460ff16905083565b60008054906101000a900473ffffffffffffffffffffffffffffffffffffffff1681565b6000813590506101e9816102e8565b92915050565b600060208284031215610205576102046102e3565b5b6000610213848285016101da565b91505092915050565b6102258161029b565b82525050565b610234816102ad565b82525050565b610243816102d9565b82525050565b600060208201905061025e600083018461021c565b92915050565b6000606082019050610279600083018661021c565b610286602083018561023a565b610293604083018461022b565b949350505050565b60006102a6826102b9565b9050919050565b60008115159050919050565b600073ffffffffffffffffffffffffffffffffffffffff82169050919050565b6000819050919050565b600080fd5b6102f1816102d9565b81146102fc57600080fd5b5056fea2646970667358221220d82fe617f3c4e979679a94eba4d075e057214d81af20e229927017e1af938f1264736f6c63430008060033",
  "immutableReferences": {},
  "source": "pragma solidity >=0.7.0 <0.9.0;\n\nimport \"./whitelist.sol\";\n\n\ncontract CorporateFactory { \n    address public owner; // owner address \n    mapping(uint => corporate) public corporates;\n    uint numCorps; // a mapping of contract ids to the corporate struct.\n\n    struct corporate {\n        address corpAddress;\n        uint id;\n        bool valid;\n    }\n\n    constructor(address owner_) public {\n        owner = owner_;\n    }\n\n    // function createCorp(string memory corpName) public  permissioned returns(bool){\n    //     Corporate newCorp = new Corporate(owner,corpName);\n    //     corporate[numCorps] = corporate(address(newCorp), numCorps, true);\n    //     numCorps += 1;\n    // }\n\n    function getCorporate(uint id) public permissioned returns(address)  {\n        return corporates[id].corpAddress;\n    }\n\n    modifier permissioned {\n        require(msg.sender == owner);\n        _;\n    }\n}\n\ncontract Corporate {\n    address public creator_; // creator of the contract\n    string public corporate_name_; // name of the contract\n    mapping(uint => sub) public subsidiaries; // a mapping of contract ids to the sub struct.\n    address[] public subs; // could make this into a struct so the id can be found easily.\n    whitelist public whitelist_;\n    address public owner;\n    \n    struct sub {\n        address subAddress;\n        uint id;\n        bool init;\n    }\n\n\n    constructor(address owner_, string memory name) public {\n        owner = owner_;\n        creator_ = msg.sender;\n        corporate_name_ = name;     \n    }\n\n    function createSub(uint id) public  permissioned returns(bool){\n        // if set to default address the contract does not yet exist \n        require(getSubContract(id) != address(0));\n        Subsidiary newSub = new Subsidiary(address(this));\n        subs.push(address(newSub));\n        subsidiaries[id] = sub(address(newSub), id, true);\n    }\n\n    function getSubContract(uint id) public permissioned returns(address)  {\n        return subsidiaries[id].subAddress;\n    }\n\n    function updateWhitelist(uint id) public permissioned returns(address)  {\n        return subsidiaries[id].subAddress;\n    }\n\n    modifier permissioned {\n        require(msg.sender == owner || msg.sender == creator_);\n        _;\n    }\n}\n\n\ncontract Subsidiary {\n    address payable parent_;\n    uint amount;\n    mapping(address => bool) permissionedAddress;\n\n    // transaction id to person id\n    mapping(uint => uint) transactions;\n\n    constructor(address parent) {\n        parent_ = payable(parent);\n        amount = 0;\n    }\n\n    // need to make sure no possibility for double spend\n    // Will reset to zero and prevent withdrawl whilst the send transaction is processed.\n    function getTake() accountsAccess() public payable returns(bool)  {\n        uint prevAmount = amount;\n        amount = 0;\n        return parent_.send(prevAmount); // need to write a fallback function if this fails.\n    }\n\n    // Oracle end point.\n    // reassess this function as it always returns true.\n    function insertTransaction(uint transID, uint person_id) restricted() public returns(bool) {\n        transactions[transID] = person_id;\n        return true;\n    }\n    \n    modifier restricted {\n        require(msg.sender == parent_ || permissionedAddress[msg.sender] == true);\n        _;\n    }\n\n    modifier accountsAccess {\n        require(msg.sender == parent_);\n        _;\n    }\n}",
  "sourcePath": "/Users/cameronbaker/Documents/Third_Year_Uni/comp6452/Ass2-Group/COMP6452-HelpChain/contracts/CorporateFactory.sol",
  "compiler": {
    "name": "solc",
    "version": "0.8.6+commit.11564f7e.Emscripten.clang"
  },
  "schemaVersion": "3.3.4",
  "updatedAt": "2021-07-26T05:15:12.471Z",
  "networkType": "ethereum",
  "devdoc": {
    "kind": "dev",
    "methods": {},
    "version": 1
  },
  "userdoc": {
    "kind": "user",
    "methods": {},
    "version": 1
  }
}