{
  "contractName": "CorporateFactory",
  "abi": [
    {
      "inputs": [
        {
          "internalType": "address",
          "name": "owner",
          "type": "address"
        },
        {
          "internalType": "string",
          "name": "name",
          "type": "string"
        },
        {
          "internalType": "address",
          "name": "whitelistPointer",
          "type": "address"
        }
      ],
      "stateMutability": "nonpayable",
      "type": "constructor"
    },
    {
      "inputs": [],
      "name": "corporate_name_",
      "outputs": [
        {
          "internalType": "string",
          "name": "",
          "type": "string"
        }
      ],
      "stateMutability": "view",
      "type": "function"
    },
    {
      "inputs": [],
      "name": "creator_",
      "outputs": [
        {
          "internalType": "address",
          "name": "",
          "type": "address"
        }
      ],
      "stateMutability": "view",
      "type": "function"
    },
    {
      "inputs": [],
      "name": "owner_",
      "outputs": [
        {
          "internalType": "address",
          "name": "",
          "type": "address"
        }
      ],
      "stateMutability": "view",
      "type": "function"
    },
    {
      "inputs": [
        {
          "internalType": "uint256",
          "name": "",
          "type": "uint256"
        }
      ],
      "name": "subs",
      "outputs": [
        {
          "internalType": "address",
          "name": "",
          "type": "address"
        }
      ],
      "stateMutability": "view",
      "type": "function"
    },
    {
      "inputs": [
        {
          "internalType": "uint256",
          "name": "",
          "type": "uint256"
        }
      ],
      "name": "subsidiaries",
      "outputs": [
        {
          "internalType": "address",
          "name": "subAddress",
          "type": "address"
        },
        {
          "internalType": "uint256",
          "name": "id",
          "type": "uint256"
        },
        {
          "internalType": "bool",
          "name": "init",
          "type": "bool"
        }
      ],
      "stateMutability": "view",
      "type": "function"
    },
    {
      "inputs": [],
      "name": "whitelist",
      "outputs": [
        {
          "internalType": "address",
          "name": "",
          "type": "address"
        }
      ],
      "stateMutability": "view",
      "type": "function"
    },
    {
      "inputs": [
        {
          "internalType": "uint256",
          "name": "id",
          "type": "uint256"
        }
      ],
      "name": "createSub",
      "outputs": [
        {
          "internalType": "bool",
          "name": "",
          "type": "bool"
        }
      ],
      "stateMutability": "nonpayable",
      "type": "function"
    },
    {
      "inputs": [
        {
          "internalType": "uint256",
          "name": "id",
          "type": "uint256"
        }
      ],
      "name": "getSubContract",
      "outputs": [
        {
          "internalType": "address",
          "name": "",
          "type": "address"
        }
      ],
      "stateMutability": "nonpayable",
      "type": "function"
    }
  ],
  "bytecode": "0x60806040523480156200001157600080fd5b506040516200122538038062001225833981810160405281019062000037919062000260565b33600160006101000a81548173ffffffffffffffffffffffffffffffffffffffff021916908373ffffffffffffffffffffffffffffffffffffffff1602179055508160029080519060200190620000909291906200011b565b50826000806101000a81548173ffffffffffffffffffffffffffffffffffffffff021916908373ffffffffffffffffffffffffffffffffffffffff16021790555080600560006101000a81548173ffffffffffffffffffffffffffffffffffffffff021916908373ffffffffffffffffffffffffffffffffffffffff160217905550505050620004ad565b8280546200012990620003a4565b90600052602060002090601f0160209004810192826200014d576000855562000199565b82601f106200016857805160ff191683800117855562000199565b8280016001018555821562000199579182015b82811115620001985782518255916020019190600101906200017b565b5b509050620001a89190620001ac565b5090565b5b80821115620001c7576000816000905550600101620001ad565b5090565b6000620001e2620001dc8462000304565b620002db565b90508281526020810184848401111562000201576200020062000473565b5b6200020e8482856200036e565b509392505050565b600081519050620002278162000493565b92915050565b600082601f8301126200024557620002446200046e565b5b815162000257848260208601620001cb565b91505092915050565b6000806000606084860312156200027c576200027b6200047d565b5b60006200028c8682870162000216565b935050602084015167ffffffffffffffff811115620002b057620002af62000478565b5b620002be868287016200022d565b9250506040620002d18682870162000216565b9150509250925092565b6000620002e7620002fa565b9050620002f58282620003da565b919050565b6000604051905090565b600067ffffffffffffffff8211156200032257620003216200043f565b5b6200032d8262000482565b9050602081019050919050565b600062000347826200034e565b9050919050565b600073ffffffffffffffffffffffffffffffffffffffff82169050919050565b60005b838110156200038e57808201518184015260208101905062000371565b838111156200039e576000848401525b50505050565b60006002820490506001821680620003bd57607f821691505b60208210811415620003d457620003d362000410565b5b50919050565b620003e58262000482565b810181811067ffffffffffffffff821117156200040757620004066200043f565b5b80604052505050565b7f4e487b7100000000000000000000000000000000000000000000000000000000600052602260045260246000fd5b7f4e487b7100000000000000000000000000000000000000000000000000000000600052604160045260246000fd5b600080fd5b600080fd5b600080fd5b600080fd5b6000601f19601f8301169050919050565b6200049e816200033a565b8114620004aa57600080fd5b50565b610d6880620004bd6000396000f3fe608060405234801561001057600080fd5b50600436106100885760003560e01c806393e59dc11161005b57806393e59dc11461012b578063e766307914610149578063f411149614610167578063f8a64f9a1461019757610088565b80630e0a42db1461008d578063805f4202146100bf57806389165e40146100ef5780638ba4d8641461010d575b600080fd5b6100a760048036038101906100a291906106bf565b6101c7565b6040516100b69392919061076d565b60405180910390f35b6100d960048036038101906100d491906106bf565b61021e565b6040516100e691906107a4565b60405180910390f35b6100f761046f565b6040516101049190610752565b60405180910390f35b610115610495565b60405161012291906107bf565b60405180910390f35b610133610523565b6040516101409190610752565b60405180910390f35b610151610549565b60405161015e9190610752565b60405180910390f35b610181600480360381019061017c91906106bf565b61056d565b60405161018e9190610752565b60405180910390f35b6101b160048036038101906101ac91906106bf565b61065e565b6040516101be9190610752565b60405180910390f35b60036020528060005260406000206000915090508060000160009054906101000a900473ffffffffffffffffffffffffffffffffffffffff16908060010154908060020160009054906101000a900460ff16905083565b60008060009054906101000a900473ffffffffffffffffffffffffffffffffffffffff1673ffffffffffffffffffffffffffffffffffffffff163373ffffffffffffffffffffffffffffffffffffffff1614806102c85750600160009054906101000a900473ffffffffffffffffffffffffffffffffffffffff1673ffffffffffffffffffffffffffffffffffffffff163373ffffffffffffffffffffffffffffffffffffffff16145b6102d157600080fd5b600073ffffffffffffffffffffffffffffffffffffffff166102f28361056d565b73ffffffffffffffffffffffffffffffffffffffff16141561031357600080fd5b6000306040516103229061069d565b61032c9190610752565b604051809103906000f080158015610348573d6000803e3d6000fd5b5090506004819080600181540180825580915050600190039060005260206000200160009091909190916101000a81548173ffffffffffffffffffffffffffffffffffffffff021916908373ffffffffffffffffffffffffffffffffffffffff16021790555060405180606001604052808273ffffffffffffffffffffffffffffffffffffffff168152602001848152602001600115158152506003600085815260200190815260200160002060008201518160000160006101000a81548173ffffffffffffffffffffffffffffffffffffffff021916908373ffffffffffffffffffffffffffffffffffffffff1602179055506020820151816001015560408201518160020160006101000a81548160ff02191690831515021790555090505050919050565b600160009054906101000a900473ffffffffffffffffffffffffffffffffffffffff1681565b600280546104a290610878565b80601f01602080910402602001604051908101604052809291908181526020018280546104ce90610878565b801561051b5780601f106104f05761010080835404028352916020019161051b565b820191906000526020600020905b8154815290600101906020018083116104fe57829003601f168201915b505050505081565b600560009054906101000a900473ffffffffffffffffffffffffffffffffffffffff1681565b60008054906101000a900473ffffffffffffffffffffffffffffffffffffffff1681565b60008060009054906101000a900473ffffffffffffffffffffffffffffffffffffffff1673ffffffffffffffffffffffffffffffffffffffff163373ffffffffffffffffffffffffffffffffffffffff1614806106175750600160009054906101000a900473ffffffffffffffffffffffffffffffffffffffff1673ffffffffffffffffffffffffffffffffffffffff163373ffffffffffffffffffffffffffffffffffffffff16145b61062057600080fd5b6003600083815260200190815260200160002060000160009054906101000a900473ffffffffffffffffffffffffffffffffffffffff169050919050565b6004818154811061066e57600080fd5b906000526020600020016000915054906101000a900473ffffffffffffffffffffffffffffffffffffffff1681565b61042c8061090783390190565b6000813590506106b9816108ef565b92915050565b6000602082840312156106d5576106d46108d9565b5b60006106e3848285016106aa565b91505092915050565b6106f5816107fd565b82525050565b6107048161080f565b82525050565b6000610715826107e1565b61071f81856107ec565b935061072f818560208601610845565b610738816108de565b840191505092915050565b61074c8161083b565b82525050565b600060208201905061076760008301846106ec565b92915050565b600060608201905061078260008301866106ec565b61078f6020830185610743565b61079c60408301846106fb565b949350505050565b60006020820190506107b960008301846106fb565b92915050565b600060208201905081810360008301526107d9818461070a565b905092915050565b600081519050919050565b600082825260208201905092915050565b60006108088261081b565b9050919050565b60008115159050919050565b600073ffffffffffffffffffffffffffffffffffffffff82169050919050565b6000819050919050565b60005b83811015610863578082015181840152602081019050610848565b83811115610872576000848401525b50505050565b6000600282049050600182168061089057607f821691505b602082108114156108a4576108a36108aa565b5b50919050565b7f4e487b7100000000000000000000000000000000000000000000000000000000600052602260045260246000fd5b600080fd5b6000601f19601f8301169050919050565b6108f88161083b565b811461090357600080fd5b5056fe608060405234801561001057600080fd5b5060405161042c38038061042c83398181016040528101906100329190610095565b806000806101000a81548173ffffffffffffffffffffffffffffffffffffffff021916908373ffffffffffffffffffffffffffffffffffffffff160217905550600060018190555050610110565b60008151905061008f816100f9565b92915050565b6000602082840312156100ab576100aa6100f4565b5b60006100b984828501610080565b91505092915050565b60006100cd826100d4565b9050919050565b600073ffffffffffffffffffffffffffffffffffffffff82169050919050565b600080fd5b610102816100c2565b811461010d57600080fd5b50565b61030d8061011f6000396000f3fe6080604052600436106100295760003560e01c80634daa6a981461002e5780638b7342331461006b575b600080fd5b34801561003a57600080fd5b506100556004803603810190610050919061023b565b610089565b604051610062919061028a565b60405180910390f35b610073610161565b604051610080919061028a565b60405180910390f35b60008060009054906101000a900473ffffffffffffffffffffffffffffffffffffffff1673ffffffffffffffffffffffffffffffffffffffff163373ffffffffffffffffffffffffffffffffffffffff161480610136575060011515600260003373ffffffffffffffffffffffffffffffffffffffff1673ffffffffffffffffffffffffffffffffffffffff16815260200190815260200160002060009054906101000a900460ff161515145b61013f57600080fd5b8160036000858152602001908152602001600020819055506001905092915050565b60008060009054906101000a900473ffffffffffffffffffffffffffffffffffffffff1673ffffffffffffffffffffffffffffffffffffffff163373ffffffffffffffffffffffffffffffffffffffff16146101bc57600080fd5b60006001549050600060018190555060008054906101000a900473ffffffffffffffffffffffffffffffffffffffff1673ffffffffffffffffffffffffffffffffffffffff166108fc829081150290604051600060405180830381858888f1935050505091505090565b600081359050610235816102c0565b92915050565b60008060408385031215610252576102516102bb565b5b600061026085828601610226565b925050602061027185828601610226565b9150509250929050565b610284816102a5565b82525050565b600060208201905061029f600083018461027b565b92915050565b60008115159050919050565b6000819050919050565b600080fd5b6102c9816102b1565b81146102d457600080fd5b5056fea2646970667358221220432c30a9d08eb33be1d1ab59af441bf53aa793fd2e9dfd5963ff32cee93323b564736f6c63430008060033a26469706673582212200a990ee2cf81b10547fed0dda4bf5c1107809565eccdf472194d5fee36c76b8e64736f6c63430008060033",
  "immutableReferences": {},
  "source": "pragma solidity >=0.7.0 <0.9.0;\n\n\n\ncontract CorporateFactory {\n    \n    address public owner_; // owner address \n    address public creator_; // creator of the contract\n    string public corporate_name_; // name of the contract\n    mapping(uint => sub) public subsidiaries; // a mapping of contract ids to the sub struct.\n    address[] public subs; // could make this into a struct so the id can be found easily.\n    address public whitelist;\n\n    struct sub {\n        address subAddress;\n        uint id;\n        bool init;\n    }\n\n\n    constructor(address owner, string memory name, address whitelistPointer) public {\n        creator_ = msg.sender;\n        corporate_name_ = name;\n        owner_ = owner;\n        whitelist = whitelistPointer;\n    }\n\n    function createSub(uint id) public  permissioned returns(bool){\n        // if set to default address the contract does not yet exist \n        require(getSubContract(id) != address(0));\n        Subsidiary newSub = new Subsidiary(address(this));\n        subs.push(address(newSub));\n        subsidiaries[id] = sub(address(newSub), id, true);\n    }\n\n    function getSubContract(uint id) public permissioned returns(address)  {\n        return subsidiaries[id].subAddress;\n    }\n\n    modifier permissioned {\n        require(msg.sender == owner_ || msg.sender == creator_);\n        _;\n    }\n}\n\n\ncontract Subsidiary {\n    address payable parent_;\n    uint amount;\n    mapping(address => bool) permissionedAddress;\n\n    // transaction id to person id\n    mapping(uint => uint) transactions;\n\n    constructor(address parent) {\n        parent_ = payable(parent);\n        amount = 0;\n    }\n\n    // need to make sure no possibility for double spend\n    // Will reset to zero and prevent withdrawl whilst the send transaction is processed.\n    function getTake() accountsAccess() public payable returns(bool)  {\n        uint prevAmount = amount;\n        amount = 0;\n        return parent_.send(prevAmount); // need to write a fallback function if this fails.\n    }\n\n    // Oracle end point.\n    // reassess this function as it always returns true.\n    function insertTransaction(uint transID, uint person_id) restricted() public returns(bool) {\n        transactions[transID] = person_id;\n        return true;\n    }\n    \n    modifier restricted {\n        require(msg.sender == parent_ || permissionedAddress[msg.sender] == true);\n        _;\n    }\n\n    modifier accountsAccess {\n        require(msg.sender == parent_);\n        _;\n    }\n}",
  "sourcePath": "/Users/cameronbaker/Documents/Third_Year_Uni/comp6452/Ass2-Group/COMP6452-HelpChain/contracts/CorporateFactory.sol",
  "compiler": {
    "name": "solc",
    "version": "0.8.6+commit.11564f7e.Emscripten.clang"
  },
  "schemaVersion": "3.3.4",
  "updatedAt": "2021-07-24T07:44:42.060Z",
  "devdoc": {
    "kind": "dev",
    "methods": {},
    "version": 1
  },
  "userdoc": {
    "kind": "user",
    "methods": {},
    "version": 1
  }
}