{
  "contractName": "CorporateFactory",
  "abi": [
    {
      "inputs": [],
      "stateMutability": "nonpayable",
      "type": "constructor"
    },
    {
      "inputs": [
        {
          "internalType": "uint256",
          "name": "",
          "type": "uint256"
        }
      ],
      "name": "corporates",
      "outputs": [
        {
          "internalType": "address",
          "name": "corpAddress",
          "type": "address"
        },
        {
          "internalType": "uint256",
          "name": "id",
          "type": "uint256"
        },
        {
          "internalType": "bool",
          "name": "valid",
          "type": "bool"
        }
      ],
      "stateMutability": "view",
      "type": "function",
      "constant": true
    },
    {
      "inputs": [],
      "name": "owner",
      "outputs": [
        {
          "internalType": "address",
          "name": "",
          "type": "address"
        }
      ],
      "stateMutability": "view",
      "type": "function",
      "constant": true
    },
    {
      "inputs": [
        {
          "internalType": "string",
          "name": "corpName",
          "type": "string"
        }
      ],
      "name": "createCorp",
      "outputs": [
        {
          "internalType": "bool",
          "name": "",
          "type": "bool"
        }
      ],
      "stateMutability": "nonpayable",
      "type": "function"
    },
    {
      "inputs": [
        {
          "internalType": "uint256",
          "name": "id",
          "type": "uint256"
        }
      ],
      "name": "getCorporate",
      "outputs": [
        {
          "internalType": "address",
          "name": "",
          "type": "address"
        }
      ],
      "stateMutability": "view",
      "type": "function",
      "constant": true
    },
    {
      "inputs": [],
      "name": "toggleContractActivation",
      "outputs": [
        {
          "internalType": "bool",
          "name": "",
          "type": "bool"
        }
      ],
      "stateMutability": "nonpayable",
      "type": "function"
    },
    {
      "inputs": [
        {
          "internalType": "uint256",
          "name": "id",
          "type": "uint256"
        }
      ],
      "name": "disableCorporate",
      "outputs": [
        {
          "internalType": "bool",
          "name": "",
          "type": "bool"
        }
      ],
      "stateMutability": "nonpayable",
      "type": "function"
    },
    {
      "inputs": [
        {
          "internalType": "uint256",
          "name": "id",
          "type": "uint256"
        }
      ],
      "name": "checkIfCorporateValid",
      "outputs": [
        {
          "internalType": "bool",
          "name": "",
          "type": "bool"
        }
      ],
      "stateMutability": "view",
      "type": "function",
      "constant": true
    }
  ],
  "bytecode": "0x60806040526001600360006101000a81548160ff02191690831515021790555034801561002b57600080fd5b50336000806101000a81548173ffffffffffffffffffffffffffffffffffffffff021916908373ffffffffffffffffffffffffffffffffffffffff160217905550612d568061007b6000396000f3fe60806040523480156200001157600080fd5b5060043610620000885760003560e01c806368a0b4e7116200006357806368a0b4e7146200011b5780638da5cb5b1462000153578063a5102b371462000175578063dad1540214620001ab5762000088565b8063010d6663146200008d5780631f2e4f0614620000c35780634aa2f24014620000f9575b600080fd5b620000ab6004803603810190620000a59190620009d0565b620001e1565b604051620000ba919062000aeb565b60405180910390f35b620000e16004803603810190620000db9190620009d0565b6200030c565b604051620000f0919062000b79565b60405180910390f35b620001036200042d565b60405162000112919062000b79565b60405180910390f35b620001396004803603810190620001339190620009d0565b62000500565b6040516200014a9392919062000b3c565b60405180910390f35b6200015d62000557565b6040516200016c919062000aeb565b60405180910390f35b6200019360048036038101906200018d91906200097f565b6200057b565b604051620001a2919062000b79565b60405180910390f35b620001c96004803603810190620001c39190620009d0565b620007ad565b604051620001d8919062000b79565b60405180910390f35b60008060009054906101000a900473ffffffffffffffffffffffffffffffffffffffff1673ffffffffffffffffffffffffffffffffffffffff163373ffffffffffffffffffffffffffffffffffffffff161462000275576040517f08c379a00000000000000000000000000000000000000000000000000000000081526004016200026c9062000bb8565b60405180910390fd5b60011515600360009054906101000a900460ff16151514620002ce576040517f08c379a0000000000000000000000000000000000000000000000000000000008152600401620002c59062000b96565b60405180910390fd5b6001600083815260200190815260200160002060000160009054906101000a900473ffffffffffffffffffffffffffffffffffffffff169050919050565b60008060009054906101000a900473ffffffffffffffffffffffffffffffffffffffff1673ffffffffffffffffffffffffffffffffffffffff163373ffffffffffffffffffffffffffffffffffffffff1614620003a0576040517f08c379a0000000000000000000000000000000000000000000000000000000008152600401620003979062000bb8565b60405180910390fd5b60011515600360009054906101000a900460ff16151514620003f9576040517f08c379a0000000000000000000000000000000000000000000000000000000008152600401620003f09062000b96565b60405180910390fd5b60006001600084815260200190815260200160002060020160006101000a81548160ff021916908315150217905550919050565b60008060009054906101000a900473ffffffffffffffffffffffffffffffffffffffff1673ffffffffffffffffffffffffffffffffffffffff163373ffffffffffffffffffffffffffffffffffffffff1614620004c1576040517f08c379a0000000000000000000000000000000000000000000000000000000008152600401620004b89062000bb8565b60405180910390fd5b600360009054906101000a900460ff1615600360006101000a81548160ff021916908315150217905550600360009054906101000a900460ff16905090565b60016020528060005260406000206000915090508060000160009054906101000a900473ffffffffffffffffffffffffffffffffffffffff16908060010154908060020160009054906101000a900460ff16905083565b60008054906101000a900473ffffffffffffffffffffffffffffffffffffffff1681565b60008060009054906101000a900473ffffffffffffffffffffffffffffffffffffffff1673ffffffffffffffffffffffffffffffffffffffff163373ffffffffffffffffffffffffffffffffffffffff16146200060f576040517f08c379a0000000000000000000000000000000000000000000000000000000008152600401620006069062000bb8565b60405180910390fd5b60011515600360009054906101000a900460ff1615151462000668576040517f08c379a00000000000000000000000000000000000000000000000000000000081526004016200065f9062000b96565b60405180910390fd5b60008060009054906101000a900473ffffffffffffffffffffffffffffffffffffffff16836040516200069b90620008dc565b620006a892919062000b08565b604051809103906000f080158015620006c5573d6000803e3d6000fd5b50905060405180606001604052808273ffffffffffffffffffffffffffffffffffffffff16815260200160025481526020016001151581525060016000600254815260200190815260200160002060008201518160000160006101000a81548173ffffffffffffffffffffffffffffffffffffffff021916908373ffffffffffffffffffffffffffffffffffffffff1602179055506020820151816001015560408201518160020160006101000a81548160ff0219169083151502179055509050506001600260008282546200079c919062000c77565b925050819055506001915050919050565b600060011515600360009054906101000a900460ff1615151462000808576040517f08c379a0000000000000000000000000000000000000000000000000000000008152600401620007ff9062000b96565b60405180910390fd5b600073ffffffffffffffffffffffffffffffffffffffff166001600084815260200190815260200160002060000160009054906101000a900473ffffffffffffffffffffffffffffffffffffffff1673ffffffffffffffffffffffffffffffffffffffff161415620008b1576040517f08c379a0000000000000000000000000000000000000000000000000000000008152600401620008a89062000bda565b60405180910390fd5b6001600083815260200190815260200160002060020160009054906101000a900460ff169050919050565b611e498062000ed883390190565b600062000901620008fb8462000c25565b62000bfc565b90508281526020810184848401111562000920576200091f62000dfc565b5b6200092d84828562000d1e565b509392505050565b600082601f8301126200094d576200094c62000df7565b5b81356200095f848260208601620008ea565b91505092915050565b600081359050620009798162000ebd565b92915050565b60006020828403121562000998576200099762000e06565b5b600082013567ffffffffffffffff811115620009b957620009b862000e01565b5b620009c78482850162000935565b91505092915050565b600060208284031215620009e957620009e862000e06565b5b6000620009f98482850162000968565b91505092915050565b62000a0d8162000cd4565b82525050565b62000a1e8162000ce8565b82525050565b600062000a318262000c5b565b62000a3d818562000c66565b935062000a4f81856020860162000d2d565b62000a5a8162000e0b565b840191505092915050565b600062000a7460198362000c66565b915062000a818262000e1c565b602082019050919050565b600062000a9b60278362000c66565b915062000aa88262000e45565b604082019050919050565b600062000ac260158362000c66565b915062000acf8262000e94565b602082019050919050565b62000ae58162000d14565b82525050565b600060208201905062000b02600083018462000a02565b92915050565b600060408201905062000b1f600083018562000a02565b818103602083015262000b33818462000a24565b90509392505050565b600060608201905062000b53600083018662000a02565b62000b62602083018562000ada565b62000b71604083018462000a13565b949350505050565b600060208201905062000b90600083018462000a13565b92915050565b6000602082019050818103600083015262000bb18162000a65565b9050919050565b6000602082019050818103600083015262000bd38162000a8c565b9050919050565b6000602082019050818103600083015262000bf58162000ab3565b9050919050565b600062000c0862000c1b565b905062000c16828262000d63565b919050565b6000604051905090565b600067ffffffffffffffff82111562000c435762000c4262000dc8565b5b62000c4e8262000e0b565b9050602081019050919050565b600081519050919050565b600082825260208201905092915050565b600062000c848262000d14565b915062000c918362000d14565b9250827fffffffffffffffffffffffffffffffffffffffffffffffffffffffffffffffff0382111562000cc95762000cc862000d99565b5b828201905092915050565b600062000ce18262000cf4565b9050919050565b60008115159050919050565b600073ffffffffffffffffffffffffffffffffffffffff82169050919050565b6000819050919050565b82818337600083830152505050565b60005b8381101562000d4d57808201518184015260208101905062000d30565b8381111562000d5d576000848401525b50505050565b62000d6e8262000e0b565b810181811067ffffffffffffffff8211171562000d905762000d8f62000dc8565b5b80604052505050565b7f4e487b7100000000000000000000000000000000000000000000000000000000600052601160045260246000fd5b7f4e487b7100000000000000000000000000000000000000000000000000000000600052604160045260246000fd5b600080fd5b600080fd5b600080fd5b600080fd5b6000601f19601f8301169050919050565b7f436f6e7472616374206e6f206c6f6e6765722061637469766500000000000000600082015250565b7f4f6e6c7920746865206f776e65722063616e206163636573732074686973206660008201527f756e6374696f6e00000000000000000000000000000000000000000000000000602082015250565b7f4e6f7420612076616c696420636f72706f726174650000000000000000000000600082015250565b62000ec88162000d14565b811462000ed457600080fd5b5056fe60806040523480156200001157600080fd5b5060405162001e4938038062001e49833981810160405281019062000037919062000239565b81600160006101000a81548173ffffffffffffffffffffffffffffffffffffffff021916908373ffffffffffffffffffffffffffffffffffffffff160217905550336000806101000a81548173ffffffffffffffffffffffffffffffffffffffff021916908373ffffffffffffffffffffffffffffffffffffffff1602179055508060039080519060200190620000d0929190620000f4565b506001600660146101000a81548160ff021916908315150217905550505062000471565b828054620001029062000368565b90600052602060002090601f01602090048101928262000126576000855562000172565b82601f106200014157805160ff191683800117855562000172565b8280016001018555821562000172579182015b828111156200017157825182559160200191906001019062000154565b5b50905062000181919062000185565b5090565b5b80821115620001a057600081600090555060010162000186565b5090565b6000620001bb620001b584620002c8565b6200029f565b905082815260208101848484011115620001da57620001d962000437565b5b620001e784828562000332565b509392505050565b600081519050620002008162000457565b92915050565b600082601f8301126200021e576200021d62000432565b5b815162000230848260208601620001a4565b91505092915050565b6000806040838503121562000253576200025262000441565b5b60006200026385828601620001ef565b925050602083015167ffffffffffffffff8111156200028757620002866200043c565b5b620002958582860162000206565b9150509250929050565b6000620002ab620002be565b9050620002b982826200039e565b919050565b6000604051905090565b600067ffffffffffffffff821115620002e657620002e562000403565b5b620002f18262000446565b9050602081019050919050565b60006200030b8262000312565b9050919050565b600073ffffffffffffffffffffffffffffffffffffffff82169050919050565b60005b838110156200035257808201518184015260208101905062000335565b8381111562000362576000848401525b50505050565b600060028204905060018216806200038157607f821691505b60208210811415620003985762000397620003d4565b5b50919050565b620003a98262000446565b810181811067ffffffffffffffff82111715620003cb57620003ca62000403565b5b80604052505050565b7f4e487b7100000000000000000000000000000000000000000000000000000000600052602260045260246000fd5b7f4e487b7100000000000000000000000000000000000000000000000000000000600052604160045260246000fd5b600080fd5b600080fd5b600080fd5b600080fd5b6000601f19601f8301169050919050565b6200046281620002fe565b81146200046e57600080fd5b50565b6119c880620004816000396000f3fe608060405234801561001057600080fd5b50600436106100b45760003560e01c80638ba4d864116100715780638ba4d864146101a35780638da5cb5b146101c157806393e59dc1146101df57806398f4448a146101fd578063f41114961461021b578063f8a64f9a1461024b576100b4565b806334929e9a146100b95780633d0f963e146100d75780636fdbaf43146100f3578063805f420214610123578063869080bf1461015357806389165e4014610185575b600080fd5b6100c161027b565b6040516100ce9190610fd9565b60405180910390f35b6100f160048036038101906100ec9190610dda565b610281565b005b61010d60048036038101906101089190610d80565b610597565b60405161011a9190610f41565b60405180910390f35b61013d60048036038101906101389190610e07565b6106e2565b60405161014a9190610f41565b60405180910390f35b61016d60048036038101906101689190610d80565b610982565b60405161017c93929190610f0a565b60405180910390f35b61018d6109d9565b60405161019a9190610eef565b60405180910390f35b6101ab6109fd565b6040516101b89190610f77565b60405180910390f35b6101c9610a8b565b6040516101d69190610eef565b60405180910390f35b6101e7610ab1565b6040516101f49190610f5c565b60405180910390f35b610205610ad7565b6040516102129190610f41565b60405180910390f35b61023560048036038101906102309190610e07565b610bc7565b6040516102429190610eef565b60405180910390f35b61026560048036038101906102609190610e07565b610cdf565b6040516102729190610eef565b60405180910390f35b60025481565b600160009054906101000a900473ffffffffffffffffffffffffffffffffffffffff1673ffffffffffffffffffffffffffffffffffffffff163373ffffffffffffffffffffffffffffffffffffffff161480610328575060008054906101000a900473ffffffffffffffffffffffffffffffffffffffff1673ffffffffffffffffffffffffffffffffffffffff163373ffffffffffffffffffffffffffffffffffffffff16145b61033157600080fd5b60011515600660149054906101000a900460ff1615151461035157600080fd5b600160009054906101000a900473ffffffffffffffffffffffffffffffffffffffff1673ffffffffffffffffffffffffffffffffffffffff168173ffffffffffffffffffffffffffffffffffffffff16638da5cb5b6040518163ffffffff1660e01b815260040160206040518083038186803b1580156103d057600080fd5b505afa1580156103e4573d6000803e3d6000fd5b505050506040513d601f19601f820116820180604052508101906104089190610dad565b73ffffffffffffffffffffffffffffffffffffffff161480610514575060008054906101000a900473ffffffffffffffffffffffffffffffffffffffff1673ffffffffffffffffffffffffffffffffffffffff16600660009054906101000a900473ffffffffffffffffffffffffffffffffffffffff1673ffffffffffffffffffffffffffffffffffffffff16638da5cb5b6040518163ffffffff1660e01b815260040160206040518083038186803b1580156104c457600080fd5b505afa1580156104d8573d6000803e3d6000fd5b505050506040513d601f19601f820116820180604052508101906104fc9190610dad565b73ffffffffffffffffffffffffffffffffffffffff16145b610553576040517f08c379a000000000000000000000000000000000000000000000000000000000815260040161054a90610fb9565b60405180910390fd5b80600660006101000a81548173ffffffffffffffffffffffffffffffffffffffff021916908373ffffffffffffffffffffffffffffffffffffffff16021790555050565b600060011515600660149054906101000a900460ff161515146105b957600080fd5b600073ffffffffffffffffffffffffffffffffffffffff16600460008473ffffffffffffffffffffffffffffffffffffffff1673ffffffffffffffffffffffffffffffffffffffff16815260200190815260200160002060000160009054906101000a900473ffffffffffffffffffffffffffffffffffffffff1673ffffffffffffffffffffffffffffffffffffffff16141561068b576040517f08c379a000000000000000000000000000000000000000000000000000000000815260040161068290610f99565b60405180910390fd5b600460008373ffffffffffffffffffffffffffffffffffffffff1673ffffffffffffffffffffffffffffffffffffffff16815260200190815260200160002060020160009054906101000a900460ff169050919050565b6000600160009054906101000a900473ffffffffffffffffffffffffffffffffffffffff1673ffffffffffffffffffffffffffffffffffffffff163373ffffffffffffffffffffffffffffffffffffffff16148061078b575060008054906101000a900473ffffffffffffffffffffffffffffffffffffffff1673ffffffffffffffffffffffffffffffffffffffff163373ffffffffffffffffffffffffffffffffffffffff16145b61079457600080fd5b60011515600660149054906101000a900460ff161515146107b457600080fd5b600073ffffffffffffffffffffffffffffffffffffffff166107d583610bc7565b73ffffffffffffffffffffffffffffffffffffffff1614156107f657600080fd5b60003060405161080590610d1e565b61080f9190610eef565b604051809103906000f08015801561082b573d6000803e3d6000fd5b5090506005819080600181540180825580915050600190039060005260206000200160009091909190916101000a81548173ffffffffffffffffffffffffffffffffffffffff021916908373ffffffffffffffffffffffffffffffffffffffff16021790555060405180606001604052808273ffffffffffffffffffffffffffffffffffffffff16815260200184815260200160011515815250600460008373ffffffffffffffffffffffffffffffffffffffff1673ffffffffffffffffffffffffffffffffffffffff16815260200190815260200160002060008201518160000160006101000a81548173ffffffffffffffffffffffffffffffffffffffff021916908373ffffffffffffffffffffffffffffffffffffffff1602179055506020820151816001015560408201518160020160006101000a81548160ff0219169083151502179055509050506001915050919050565b60046020528060005260406000206000915090508060000160009054906101000a900473ffffffffffffffffffffffffffffffffffffffff16908060010154908060020160009054906101000a900460ff16905083565b60008054906101000a900473ffffffffffffffffffffffffffffffffffffffff1681565b60038054610a0a906110c1565b80601f0160208091040260200160405190810160405280929190818152602001828054610a36906110c1565b8015610a835780601f10610a5857610100808354040283529160200191610a83565b820191906000526020600020905b815481529060010190602001808311610a6657829003601f168201915b505050505081565b600160009054906101000a900473ffffffffffffffffffffffffffffffffffffffff1681565b600660009054906101000a900473ffffffffffffffffffffffffffffffffffffffff1681565b6000600160009054906101000a900473ffffffffffffffffffffffffffffffffffffffff1673ffffffffffffffffffffffffffffffffffffffff163373ffffffffffffffffffffffffffffffffffffffff161480610b80575060008054906101000a900473ffffffffffffffffffffffffffffffffffffffff1673ffffffffffffffffffffffffffffffffffffffff163373ffffffffffffffffffffffffffffffffffffffff16145b610b8957600080fd5b60011515600660149054906101000a900460ff16151514610ba957600080fd5b6000600660146101000a81548160ff02191690831515021790555090565b6000600160009054906101000a900473ffffffffffffffffffffffffffffffffffffffff1673ffffffffffffffffffffffffffffffffffffffff163373ffffffffffffffffffffffffffffffffffffffff161480610c70575060008054906101000a900473ffffffffffffffffffffffffffffffffffffffff1673ffffffffffffffffffffffffffffffffffffffff163373ffffffffffffffffffffffffffffffffffffffff16145b610c7957600080fd5b60011515600660149054906101000a900460ff16151514610c9957600080fd5b60058281548110610cad57610cac611122565b5b9060005260206000200160009054906101000a900473ffffffffffffffffffffffffffffffffffffffff169050919050565b60058181548110610cef57600080fd5b906000526020600020016000915054906101000a900473ffffffffffffffffffffffffffffffffffffffff1681565b61076e806200122583390190565b600081359050610d3b816111df565b92915050565b600081519050610d50816111df565b92915050565b600081359050610d65816111f6565b92915050565b600081359050610d7a8161120d565b92915050565b600060208284031215610d9657610d95611151565b5b6000610da484828501610d2c565b91505092915050565b600060208284031215610dc357610dc2611151565b5b6000610dd184828501610d41565b91505092915050565b600060208284031215610df057610def611151565b5b6000610dfe84828501610d56565b91505092915050565b600060208284031215610e1d57610e1c611151565b5b6000610e2b84828501610d6b565b91505092915050565b610e3d81611010565b82525050565b610e4c81611022565b82525050565b610e5b8161106a565b82525050565b6000610e6c82610ff4565b610e768185610fff565b9350610e8681856020860161108e565b610e8f81611156565b840191505092915050565b6000610ea7601883610fff565b9150610eb282611167565b602082019050919050565b6000610eca602483610fff565b9150610ed582611190565b604082019050919050565b610ee981611060565b82525050565b6000602082019050610f046000830184610e34565b92915050565b6000606082019050610f1f6000830186610e34565b610f2c6020830185610ee0565b610f396040830184610e43565b949350505050565b6000602082019050610f566000830184610e43565b92915050565b6000602082019050610f716000830184610e52565b92915050565b60006020820190508181036000830152610f918184610e61565b905092915050565b60006020820190508181036000830152610fb281610e9a565b9050919050565b60006020820190508181036000830152610fd281610ebd565b9050919050565b6000602082019050610fee6000830184610ee0565b92915050565b600081519050919050565b600082825260208201905092915050565b600061101b82611040565b9050919050565b60008115159050919050565b600061103982611010565b9050919050565b600073ffffffffffffffffffffffffffffffffffffffff82169050919050565b6000819050919050565b60006110758261107c565b9050919050565b600061108782611040565b9050919050565b60005b838110156110ac578082015181840152602081019050611091565b838111156110bb576000848401525b50505050565b600060028204905060018216806110d957607f821691505b602082108114156110ed576110ec6110f3565b5b50919050565b7f4e487b7100000000000000000000000000000000000000000000000000000000600052602260045260246000fd5b7f4e487b7100000000000000000000000000000000000000000000000000000000600052603260045260246000fd5b600080fd5b6000601f19601f8301169050919050565b7f4e6f742061207375627369646961727920616464726573730000000000000000600082015250565b7f57686974656c697374206e6f742063726561746564206279206b6e6f776e207060008201527f6172747900000000000000000000000000000000000000000000000000000000602082015250565b6111e881611010565b81146111f357600080fd5b50565b6111ff8161102e565b811461120a57600080fd5b50565b61121681611060565b811461122157600080fd5b5056fe608060405234801561001057600080fd5b5060405161076e38038061076e83398181016040528101906100329190610095565b806000806101000a81548173ffffffffffffffffffffffffffffffffffffffff021916908373ffffffffffffffffffffffffffffffffffffffff160217905550600060018190555050610110565b60008151905061008f816100f9565b92915050565b6000602082840312156100ab576100aa6100f4565b5b60006100b984828501610080565b91505092915050565b60006100cd826100d4565b9050919050565b600073ffffffffffffffffffffffffffffffffffffffff82169050919050565b600080fd5b610102816100c2565b811461010d57600080fd5b50565b61064f8061011f6000396000f3fe6080604052600436106100385760003560e01c80638b7342331461007d578063b119a9d61461009b578063ef5ea07c146100c657610078565b36610078577f7e71433ddf847725166244795048ecf3e3f9f35628254ecbf736056664233493333460405161006e9291906104a2565b60405180910390a1005b600080fd5b610085610103565b60405161009291906104cb565b60405180910390f35b3480156100a757600080fd5b506100b06101c8565b6040516100bd9190610487565b60405180910390f35b3480156100d257600080fd5b506100ed60048036038101906100e891906103d5565b6101ec565b6040516100fa91906104cb565b60405180910390f35b60008060009054906101000a900473ffffffffffffffffffffffffffffffffffffffff1673ffffffffffffffffffffffffffffffffffffffff163373ffffffffffffffffffffffffffffffffffffffff161461015e57600080fd5b60006001549050600060018190555060008054906101000a900473ffffffffffffffffffffffffffffffffffffffff1673ffffffffffffffffffffffffffffffffffffffff166108fc829081150290604051600060405180830381858888f1935050505091505090565b60008054906101000a900473ffffffffffffffffffffffffffffffffffffffff1681565b60008060009054906101000a900473ffffffffffffffffffffffffffffffffffffffff1673ffffffffffffffffffffffffffffffffffffffff163373ffffffffffffffffffffffffffffffffffffffff161480610299575060011515600260003373ffffffffffffffffffffffffffffffffffffffff1673ffffffffffffffffffffffffffffffffffffffff16815260200190815260200160002060009054906101000a900460ff161515145b6102a257600080fd5b6001548373ffffffffffffffffffffffffffffffffffffffff163110156102fe576040517f08c379a00000000000000000000000000000000000000000000000000000000081526004016102f5906104e6565b60405180910390fd5b60405180606001604052808581526020018473ffffffffffffffffffffffffffffffffffffffff16815260200183815250600360008681526020019081526020016000206000820151816000015560208201518160010160006101000a81548173ffffffffffffffffffffffffffffffffffffffff021916908373ffffffffffffffffffffffffffffffffffffffff16021790555060408201518160020155905050600190509392505050565b6000813590506103ba816105eb565b92915050565b6000813590506103cf81610602565b92915050565b6000806000606084860312156103ee576103ed610571565b5b60006103fc868287016103c0565b935050602061040d868287016103ab565b925050604061041e868287016103c0565b9150509250925092565b61043181610529565b82525050565b61044081610517565b82525050565b61044f8161053b565b82525050565b6000610462604b83610506565b915061046d82610576565b606082019050919050565b61048181610567565b82525050565b600060208201905061049c6000830184610428565b92915050565b60006040820190506104b76000830185610437565b6104c46020830184610478565b9392505050565b60006020820190506104e06000830184610446565b92915050565b600060208201905081810360008301526104ff81610455565b9050919050565b600082825260208201905092915050565b600061052282610547565b9050919050565b600061053482610547565b9050919050565b60008115159050919050565b600073ffffffffffffffffffffffffffffffffffffffff82169050919050565b6000819050919050565b600080fd5b7f54686520526563656976657220636f6e747261637420646f6573206e6f74206860008201527f6176652073756666696369656e742062616c616e636520666f7220746869732060208201527f7472616e73616374696f6e000000000000000000000000000000000000000000604082015250565b6105f481610517565b81146105ff57600080fd5b50565b61060b81610567565b811461061657600080fd5b5056fea26469706673582212206a7da6a8945d2457f0dff77d1f1a26e1b4efd6fc825d7588597faf3033e4b90764736f6c63430008060033a264697066735822122019739bbfd04c9248bea45cb86a2014de7cbb755e1c2908bedd6fee1f6060492764736f6c63430008060033a2646970667358221220af245843f2b93e38bffc68179620919a12ccfea25c9a8b5410ab79a0b2bb3d5b64736f6c63430008060033",
  "immutableReferences": {},
  "source": "pragma solidity >=0.7.0 <0.9.0;\n\nimport \"./Whitelist.sol\";\n\n\ncontract CorporateFactory { \n    address public owner; // owner address \n    mapping(uint => corporate) public corporates;\n    uint numCorps; // a mapping of contract ids to the corporate struct.\n    bool active = true;\n\n    struct corporate {\n        address corpAddress;\n        uint id;\n        bool valid;\n    }\n\n    constructor() {\n        owner = msg.sender;\n    }\n\n    function createCorp(string memory corpName) public  permissioned activeContract returns(bool){\n        Corporate newCorp = new Corporate(owner,corpName);\n        corporates[numCorps] = corporate(address(newCorp), numCorps, true);\n        numCorps += 1;\n        return true;\n    }\n\n    function getCorporate(uint id) public view permissioned activeContract returns(address)  {\n        return corporates[id].corpAddress;\n    }\n\n    function toggleContractActivation() public permissioned returns (bool){\n        active = !active;\n        return(active);\n    }\n\n    function disableCorporate(uint id) public permissioned activeContract returns (bool){\n        corporates[id].valid = false;\n    }\n\n    function checkIfCorporateValid(uint id) public view activeContract returns (bool){\n        require(corporates[id].corpAddress != address(0), 'Not a valid corporate');\n        return corporates[id].valid;\n\n    }\n    \n    modifier permissioned {\n        require(msg.sender == owner, \"Only the owner can access this function\");\n        _;\n    }\n\n    modifier activeContract{\n        require(active == true, \"Contract no longer active\");\n        _;\n    }\n}\n\ncontract Corporate {\n    address public creator_; // creator of the contract\n    address public owner; // owner of the contract i.e the corporate\n    uint public corporate_id;\n    string public corporate_name_; // name of the contract\n    mapping(address => sub) public subsidiaries; // a mapping of addresses to the sub struct.\n    address[] public subs; // could make this into a struct so the id can be found easily.\n    Whitelist public whitelist; //whitelist associated with the corporate\n    bool valid; //checks if the contract is valid \n    \n    struct sub {\n        address subAddress;\n        uint id;\n        bool valid;\n    }\n\n\n    // allows for an owner i.e. corporate to be passed into the constructor \n    constructor(address owner_, string memory name){\n        owner = owner_;\n        creator_ = msg.sender;\n        corporate_name_ = name; \n        valid = true;    \n    }\n\n    // This function is used to create a Subsidiary branch of the Corporate representing a store\n    function createSub(uint id) public  permissioned validContract returns(bool){\n        // if set to default address the contract does not yet exist \n        require(getSubContract(id) != address(0));\n        Subsidiary newSub = new Subsidiary(address(this));\n        subs.push(address(newSub)); // add new sub to subsidiary array \n        subsidiaries[address(newSub)] = sub(address(newSub), id, true); // add new sub to mapping\n        return true;\n    }\n\n    // returns the subsidiary struct\n    function getSubContract(uint id) public view permissioned validContract returns(address)  {\n        return subs[id];\n    }\n\n    function checkIfSubsidiaryValid(address toCheck) public view validContract returns(bool){\n        require(subsidiaries[toCheck].subAddress != address(0), \"Not a subsidiary address\");\n        return subsidiaries[toCheck].valid;\n    }\n\n    // updates the whiteList \n    function updateWhitelist(Whitelist whitelist_) public permissioned validContract {\n        require(whitelist_.owner() == owner || whitelist.owner() == creator_, \"Whitelist not created by known party\");\n        whitelist = whitelist_;\n    }\n\n    //disable the Corporate\n    function disableCorporate() public permissioned validContract returns(bool){\n        valid = false;\n    }\n\n    modifier permissioned {\n        require(msg.sender == owner || msg.sender == creator_);\n        _;\n    }\n\n    modifier validContract {\n        require(valid == true);\n        _;\n    }\n}\n\n\n\n// This contract represent a Subsidiary branch of a corporate \ncontract Subsidiary {\n    address payable public parent_; // Corporate Contract\n    uint amount; //Balanace\n    mapping(address => bool) private permissionedAddress; //provides an array of addresses the Sub can withdraw funds to\n    event ValueReceived(address user, uint amount);\n\n\n    struct transaction{\n        uint id; \n        address receiver_id;\n        uint amount;\n    }\n\n    // transaction id to person id\n    mapping(uint => transaction) transactions; // List of transactions @DEV: need to provide rec address and amount (maybe through struct)\n    uint numOfTransactions;\n    constructor(address parent) {\n        parent_ = payable(parent);\n        amount = 0;\n    }\n\n    // need to make sure no possibility for double spend\n    // Will reset to zero and prevent withdrawl whilst the send transaction is processed.\n    function getTake() public payable accountsAccess returns(bool)  {\n        uint prevAmount = amount;\n        amount = 0;\n        return parent_.send(prevAmount); // need to write a fallback function if this fails.\n    }\n\n    // Oracle end point.\n    // reassess this function as it always returns true.\n    function insertTransaction(uint transID, address person_id, uint tx_amount) restricted public returns(bool) {\n        require(person_id.balance >= amount, \"The Receiver contract does not have sufficient balance for this transaction\"); \n        transactions[transID] = transaction(transID, person_id, tx_amount);\n        return true;\n    }\n\n    // provides functionality to receive funds\n    receive() external payable{\n        emit ValueReceived(msg.sender, msg.value);\n    }\n    \n    modifier restricted {\n        require(msg.sender == parent_ || permissionedAddress[msg.sender] == true);\n        _;\n    }\n\n    modifier accountsAccess {\n        require(msg.sender == parent_);\n        _;\n    }\n}",
  "sourcePath": "/Users/Will/Documents/University /Final Year/T2/P2/COMP6452-HelpChain/contracts/CorporateFactory.sol",
  "compiler": {
    "name": "solc",
    "version": "0.8.6+commit.11564f7e.Emscripten.clang"
  },
  "schemaVersion": "3.4.2",
  "updatedAt": "2021-07-29T03:31:43.232Z",
  "networkType": "ethereum",
  "devdoc": {
    "kind": "dev",
    "methods": {},
    "version": 1
  },
  "userdoc": {
    "kind": "user",
    "methods": {},
    "version": 1
  }
}