{
  "contractName": "FundsPool",
  "abi": [
    {
      "inputs": [],
      "stateMutability": "nonpayable",
      "type": "constructor"
    },
    {
      "anonymous": false,
      "inputs": [
        {
          "indexed": false,
          "internalType": "address",
          "name": "user",
          "type": "address"
        },
        {
          "indexed": false,
          "internalType": "uint256",
          "name": "amount",
          "type": "uint256"
        }
      ],
      "name": "ValueReceived",
      "type": "event"
    },
    {
      "inputs": [],
      "name": "admin",
      "outputs": [
        {
          "internalType": "address",
          "name": "",
          "type": "address"
        }
      ],
      "stateMutability": "view",
      "type": "function",
      "constant": true
    },
    {
      "inputs": [],
      "name": "funds",
      "outputs": [
        {
          "internalType": "uint256",
          "name": "",
          "type": "uint256"
        }
      ],
      "stateMutability": "view",
      "type": "function",
      "constant": true
    },
    {
      "stateMutability": "payable",
      "type": "receive",
      "payable": true
    },
    {
      "inputs": [
        {
          "internalType": "uint256",
          "name": "amount",
          "type": "uint256"
        }
      ],
      "name": "distributeFunds",
      "outputs": [],
      "stateMutability": "nonpayable",
      "type": "function"
    },
    {
      "inputs": [
        {
          "internalType": "uint256",
          "name": "amount",
          "type": "uint256"
        },
        {
          "internalType": "address",
          "name": "receiver",
          "type": "address"
        }
      ],
      "name": "sendFunds",
      "outputs": [],
      "stateMutability": "payable",
      "type": "function",
      "payable": true
    },
    {
      "inputs": [
        {
          "internalType": "contract ReceiverFactory",
          "name": "rec",
          "type": "address"
        }
      ],
      "name": "updateReceiverFactory",
      "outputs": [],
      "stateMutability": "nonpayable",
      "type": "function"
    }
  ],
  "bytecode": "0x608060405234801561001057600080fd5b50336000806101000a81548173ffffffffffffffffffffffffffffffffffffffff021916908373ffffffffffffffffffffffffffffffffffffffff160217905550610bca806100606000396000f3fe60806040526004361061004e5760003560e01c8063b26867741461009a578063c89f2ce4146100b6578063cfb17d61146100e1578063f726f7151461010a578063f851a4401461013357610095565b36610095577f7e71433ddf847725166244795048ecf3e3f9f35628254ecbf736056664233493333460405161008492919061089a565b60405180910390a147600181905550005b600080fd5b6100b460048036038101906100af91906107b8565b61015e565b005b3480156100c257600080fd5b506100cb61025d565b6040516100d89190610923565b60405180910390f35b3480156100ed57600080fd5b5061010860048036038101906101039190610731565b610263565b005b34801561011657600080fd5b50610131600480360381019061012c919061075e565b61040a565b005b34801561013f57600080fd5b50610148610677565b604051610155919061087f565b60405180910390f35b60008054906101000a900473ffffffffffffffffffffffffffffffffffffffff1673ffffffffffffffffffffffffffffffffffffffff163373ffffffffffffffffffffffffffffffffffffffff16146101b657600080fd5b478211156101f9576040517f08c379a00000000000000000000000000000000000000000000000000000000081526004016101f090610903565b60405180910390fd5b8073ffffffffffffffffffffffffffffffffffffffff166108fc839081150290604051600060405180830381858888f1935050505015801561023f573d6000803e3d6000fd5b5081600160008282546102529190610980565b925050819055505050565b60015481565b60008054906101000a900473ffffffffffffffffffffffffffffffffffffffff1673ffffffffffffffffffffffffffffffffffffffff163373ffffffffffffffffffffffffffffffffffffffff16146102bb57600080fd5b60008054906101000a900473ffffffffffffffffffffffffffffffffffffffff1673ffffffffffffffffffffffffffffffffffffffff168173ffffffffffffffffffffffffffffffffffffffff16638da5cb5b6040518163ffffffff1660e01b815260040160206040518083038186803b15801561033857600080fd5b505afa15801561034c573d6000803e3d6000fd5b505050506040513d601f19601f820116820180604052508101906103709190610704565b73ffffffffffffffffffffffffffffffffffffffff16146103c6576040517f08c379a00000000000000000000000000000000000000000000000000000000081526004016103bd906108c3565b60405180910390fd5b80600260006101000a81548173ffffffffffffffffffffffffffffffffffffffff021916908373ffffffffffffffffffffffffffffffffffffffff16021790555050565b60008054906101000a900473ffffffffffffffffffffffffffffffffffffffff1673ffffffffffffffffffffffffffffffffffffffff163373ffffffffffffffffffffffffffffffffffffffff161461046257600080fd5b478111156104a5576040517f08c379a000000000000000000000000000000000000000000000000000000000815260040161049c90610903565b60405180910390fd5b6000600260009054906101000a900473ffffffffffffffffffffffffffffffffffffffff1673ffffffffffffffffffffffffffffffffffffffff16630f285b2a6040518163ffffffff1660e01b815260040160206040518083038186803b15801561050f57600080fd5b505afa158015610523573d6000803e3d6000fd5b505050506040513d601f19601f82011682018060405250810190610547919061078b565b90506000811161058c576040517f08c379a0000000000000000000000000000000000000000000000000000000008152600401610583906108e3565b60405180910390fd5b6000818361059a919061094f565b90506000600190505b8281116106715761065e82600260009054906101000a900473ffffffffffffffffffffffffffffffffffffffff1673ffffffffffffffffffffffffffffffffffffffff1663f4d76499846040518263ffffffff1660e01b81526004016106099190610923565b60206040518083038186803b15801561062157600080fd5b505afa158015610635573d6000803e3d6000fd5b505050506040513d601f19601f820116820180604052508101906106599190610704565b61015e565b808061066990610a02565b9150506105a3565b50505050565b60008054906101000a900473ffffffffffffffffffffffffffffffffffffffff1681565b6000813590506106aa81610b4f565b92915050565b6000815190506106bf81610b4f565b92915050565b6000813590506106d481610b66565b92915050565b6000813590506106e981610b7d565b92915050565b6000815190506106fe81610b7d565b92915050565b60006020828403121561071a57610719610aa9565b5b6000610728848285016106b0565b91505092915050565b60006020828403121561074757610746610aa9565b5b6000610755848285016106c5565b91505092915050565b60006020828403121561077457610773610aa9565b5b6000610782848285016106da565b91505092915050565b6000602082840312156107a1576107a0610aa9565b5b60006107af848285016106ef565b91505092915050565b600080604083850312156107cf576107ce610aa9565b5b60006107dd858286016106da565b92505060206107ee8582860161069b565b9150509250929050565b610801816109b4565b82525050565b600061081460258361093e565b915061081f82610aae565b604082019050919050565b6000610837601d8361093e565b915061084282610afd565b602082019050919050565b600061085a60108361093e565b915061086582610b26565b602082019050919050565b610879816109f8565b82525050565b600060208201905061089460008301846107f8565b92915050565b60006040820190506108af60008301856107f8565b6108bc6020830184610870565b9392505050565b600060208201905081810360008301526108dc81610807565b9050919050565b600060208201905081810360008301526108fc8161082a565b9050919050565b6000602082019050818103600083015261091c8161084d565b9050919050565b60006020820190506109386000830184610870565b92915050565b600082825260208201905092915050565b600061095a826109f8565b9150610965836109f8565b92508261097557610974610a7a565b5b828204905092915050565b600061098b826109f8565b9150610996836109f8565b9250828210156109a9576109a8610a4b565b5b828203905092915050565b60006109bf826109d8565b9050919050565b60006109d1826109b4565b9050919050565b600073ffffffffffffffffffffffffffffffffffffffff82169050919050565b6000819050919050565b6000610a0d826109f8565b91507fffffffffffffffffffffffffffffffffffffffffffffffffffffffffffffffff821415610a4057610a3f610a4b565b5b600182019050919050565b7f4e487b7100000000000000000000000000000000000000000000000000000000600052601160045260246000fd5b7f4e487b7100000000000000000000000000000000000000000000000000000000600052601260045260246000fd5b600080fd5b7f526563656976657220466163746f727920646f6573206e6f74206d617463682060008201527f41646d696e000000000000000000000000000000000000000000000000000000602082015250565b7f4e6f2072656365697665727320746f20726563656976652066756e6473000000600082015250565b7f6e6f7420656e6f7567682066756e647300000000000000000000000000000000600082015250565b610b58816109b4565b8114610b6357600080fd5b50565b610b6f816109c6565b8114610b7a57600080fd5b50565b610b86816109f8565b8114610b9157600080fd5b5056fea264697066735822122041e3741de73a2a9d463903034048cd42fb6982f23fa292f0846ceacad1600fd164736f6c63430008060033",
  "immutableReferences": {},
  "source": "pragma solidity >=0.7.0 <0.9.0;\nimport \"./ReceiverFactory.sol\";\n\n\ncontract FundsPool{\n    address public admin;\n    uint public funds;\n    ReceiverFactory receiverFactory;\n    event ValueReceived(address user, uint amount);\n\n    constructor(){\n        admin = msg.sender;\n    }\n\n    function distributeFunds(uint amount) public onlyOwner{\n        require(amount <= address(this).balance, \"not enough funds\");\n        uint numOfReceivers = receiverFactory.getNumOfReceivers();\n        require(numOfReceivers > 0, \"No receivers to receive funds\");\n        uint fundsToSend;\n        fundsToSend = amount / numOfReceivers; \n\n        for (uint i = 1; i <= numOfReceivers; i++){\n            sendFunds(fundsToSend, receiverFactory.getReceiver(i));\n        }\n        \n    }\n\n    function sendFunds(uint amount, address receiver) public payable onlyOwner{\n        require(amount <= address(this).balance, \"not enough funds\");\n        payable(receiver).transfer(amount); \n        funds -= amount;  \n    }\n\n    function updateReceiverFactory(ReceiverFactory rec) public onlyOwner{\n        require(rec.owner() == admin, \"Receiver Factory does not match Admin\");\n        receiverFactory = rec;  \n    }\n\n    receive() external payable{\n        emit ValueReceived(msg.sender, msg.value);\n        funds = address(this).balance;\n    }\n\n\n    modifier onlyOwner() {\n        require(msg.sender == admin);\n        _;\n    }\n\n}",
  "sourcePath": "/Users/Will/Documents/University /Final Year/T2/P2/COMP6452-HelpChain/contracts/FundsPool.sol",
  "compiler": {
    "name": "solc",
    "version": "0.8.6+commit.11564f7e.Emscripten.clang"
  },
  "schemaVersion": "3.4.2",
  "updatedAt": "2021-07-29T03:31:43.270Z",
  "networkType": "ethereum",
  "devdoc": {
    "kind": "dev",
    "methods": {},
    "version": 1
  },
  "userdoc": {
    "kind": "user",
    "methods": {},
    "version": 1
  }
}