{
  "contractName": "FundsPool",
  "abi": [
    {
      "inputs": [],
      "stateMutability": "nonpayable",
      "type": "constructor"
    },
    {
      "anonymous": false,
      "inputs": [
        {
          "indexed": false,
          "internalType": "address",
          "name": "user",
          "type": "address"
        },
        {
          "indexed": false,
          "internalType": "uint256",
          "name": "amount",
          "type": "uint256"
        }
      ],
      "name": "ValueReceived",
      "type": "event"
    },
    {
      "inputs": [],
      "name": "admin",
      "outputs": [
        {
          "internalType": "address",
          "name": "",
          "type": "address"
        }
      ],
      "stateMutability": "view",
      "type": "function"
    },
    {
      "inputs": [],
      "name": "funds",
      "outputs": [
        {
          "internalType": "uint256",
          "name": "",
          "type": "uint256"
        }
      ],
      "stateMutability": "view",
      "type": "function"
    },
    {
      "stateMutability": "payable",
      "type": "receive"
    },
    {
      "inputs": [
        {
          "internalType": "uint256",
          "name": "amount",
          "type": "uint256"
        }
      ],
      "name": "distributeFunds",
      "outputs": [],
      "stateMutability": "nonpayable",
      "type": "function"
    },
    {
      "inputs": [
        {
          "internalType": "uint256",
          "name": "amount",
          "type": "uint256"
        },
        {
          "internalType": "address",
          "name": "receiver",
          "type": "address"
        }
      ],
      "name": "sendFunds",
      "outputs": [],
      "stateMutability": "payable",
      "type": "function"
    },
    {
      "inputs": [
        {
          "internalType": "contract ReceiverFactory",
          "name": "rec",
          "type": "address"
        }
      ],
      "name": "updateReceiverFactory",
      "outputs": [],
      "stateMutability": "nonpayable",
      "type": "function"
    },
    {
      "inputs": [],
      "name": "getFundsBalance",
      "outputs": [
        {
          "internalType": "uint256",
          "name": "",
          "type": "uint256"
        }
      ],
      "stateMutability": "view",
      "type": "function"
    }
  ],
  "bytecode": "0x608060405234801561001057600080fd5b50336000806101000a81548173ffffffffffffffffffffffffffffffffffffffff021916908373ffffffffffffffffffffffffffffffffffffffff160217905550610c70806100606000396000f3fe6080604052600436106100595760003560e01c80631b07d35b146100a5578063b2686774146100d0578063c89f2ce4146100ec578063cfb17d6114610117578063f726f71514610140578063f851a44014610169576100a0565b366100a0577f7e71433ddf847725166244795048ecf3e3f9f35628254ecbf736056664233493333460405161008f929190610932565b60405180910390a147600181905550005b600080fd5b3480156100b157600080fd5b506100ba610194565b6040516100c791906109bb565b60405180910390f35b6100ea60048036038101906100e59190610818565b61019c565b005b3480156100f857600080fd5b506101016102bd565b60405161010e91906109bb565b60405180910390f35b34801561012357600080fd5b5061013e60048036038101906101399190610791565b6102c3565b005b34801561014c57600080fd5b50610167600480360381019061016291906107be565b61046a565b005b34801561017557600080fd5b5061017e6106d7565b60405161018b9190610917565b60405180910390f35b600047905090565b60008054906101000a900473ffffffffffffffffffffffffffffffffffffffff1673ffffffffffffffffffffffffffffffffffffffff163373ffffffffffffffffffffffffffffffffffffffff16146101f457600080fd5b47821115610237576040517f08c379a000000000000000000000000000000000000000000000000000000000815260040161022e9061099b565b60405180910390fd5b8073ffffffffffffffffffffffffffffffffffffffff168260405161025b90610902565b60006040518083038185875af1925050503d8060008114610298576040519150601f19603f3d011682016040523d82523d6000602084013e61029d565b606091505b50505081600160008282546102b29190610a23565b925050819055505050565b60015481565b60008054906101000a900473ffffffffffffffffffffffffffffffffffffffff1673ffffffffffffffffffffffffffffffffffffffff163373ffffffffffffffffffffffffffffffffffffffff161461031b57600080fd5b60008054906101000a900473ffffffffffffffffffffffffffffffffffffffff1673ffffffffffffffffffffffffffffffffffffffff168173ffffffffffffffffffffffffffffffffffffffff16638da5cb5b6040518163ffffffff1660e01b815260040160206040518083038186803b15801561039857600080fd5b505afa1580156103ac573d6000803e3d6000fd5b505050506040513d601f19601f820116820180604052508101906103d09190610764565b73ffffffffffffffffffffffffffffffffffffffff1614610426576040517f08c379a000000000000000000000000000000000000000000000000000000000815260040161041d9061095b565b60405180910390fd5b80600260006101000a81548173ffffffffffffffffffffffffffffffffffffffff021916908373ffffffffffffffffffffffffffffffffffffffff16021790555050565b60008054906101000a900473ffffffffffffffffffffffffffffffffffffffff1673ffffffffffffffffffffffffffffffffffffffff163373ffffffffffffffffffffffffffffffffffffffff16146104c257600080fd5b47811115610505576040517f08c379a00000000000000000000000000000000000000000000000000000000081526004016104fc9061099b565b60405180910390fd5b6000600260009054906101000a900473ffffffffffffffffffffffffffffffffffffffff1673ffffffffffffffffffffffffffffffffffffffff16630f285b2a6040518163ffffffff1660e01b815260040160206040518083038186803b15801561056f57600080fd5b505afa158015610583573d6000803e3d6000fd5b505050506040513d601f19601f820116820180604052508101906105a791906107eb565b9050600081116105ec576040517f08c379a00000000000000000000000000000000000000000000000000000000081526004016105e39061097b565b60405180910390fd5b600081836105fa91906109f2565b90506000600190505b8281116106d1576106be82600260009054906101000a900473ffffffffffffffffffffffffffffffffffffffff1673ffffffffffffffffffffffffffffffffffffffff1663f4d76499846040518263ffffffff1660e01b815260040161066991906109bb565b60206040518083038186803b15801561068157600080fd5b505afa158015610695573d6000803e3d6000fd5b505050506040513d601f19601f820116820180604052508101906106b99190610764565b61019c565b80806106c990610aa5565b915050610603565b50505050565b60008054906101000a900473ffffffffffffffffffffffffffffffffffffffff1681565b60008135905061070a81610bf5565b92915050565b60008151905061071f81610bf5565b92915050565b60008135905061073481610c0c565b92915050565b60008135905061074981610c23565b92915050565b60008151905061075e81610c23565b92915050565b60006020828403121561077a57610779610b4c565b5b600061078884828501610710565b91505092915050565b6000602082840312156107a7576107a6610b4c565b5b60006107b584828501610725565b91505092915050565b6000602082840312156107d4576107d3610b4c565b5b60006107e28482850161073a565b91505092915050565b60006020828403121561080157610800610b4c565b5b600061080f8482850161074f565b91505092915050565b6000806040838503121561082f5761082e610b4c565b5b600061083d8582860161073a565b925050602061084e858286016106fb565b9150509250929050565b61086181610a57565b82525050565b60006108746025836109e1565b915061087f82610b51565b604082019050919050565b6000610897601d836109e1565b91506108a282610ba0565b602082019050919050565b60006108ba6000836109d6565b91506108c582610bc9565b600082019050919050565b60006108dd6010836109e1565b91506108e882610bcc565b602082019050919050565b6108fc81610a9b565b82525050565b600061090d826108ad565b9150819050919050565b600060208201905061092c6000830184610858565b92915050565b60006040820190506109476000830185610858565b61095460208301846108f3565b9392505050565b6000602082019050818103600083015261097481610867565b9050919050565b600060208201905081810360008301526109948161088a565b9050919050565b600060208201905081810360008301526109b4816108d0565b9050919050565b60006020820190506109d060008301846108f3565b92915050565b600081905092915050565b600082825260208201905092915050565b60006109fd82610a9b565b9150610a0883610a9b565b925082610a1857610a17610b1d565b5b828204905092915050565b6000610a2e82610a9b565b9150610a3983610a9b565b925082821015610a4c57610a4b610aee565b5b828203905092915050565b6000610a6282610a7b565b9050919050565b6000610a7482610a57565b9050919050565b600073ffffffffffffffffffffffffffffffffffffffff82169050919050565b6000819050919050565b6000610ab082610a9b565b91507fffffffffffffffffffffffffffffffffffffffffffffffffffffffffffffffff821415610ae357610ae2610aee565b5b600182019050919050565b7f4e487b7100000000000000000000000000000000000000000000000000000000600052601160045260246000fd5b7f4e487b7100000000000000000000000000000000000000000000000000000000600052601260045260246000fd5b600080fd5b7f526563656976657220466163746f727920646f6573206e6f74206d617463682060008201527f41646d696e000000000000000000000000000000000000000000000000000000602082015250565b7f4e6f2072656365697665727320746f20726563656976652066756e6473000000600082015250565b50565b7f6e6f7420656e6f7567682066756e647300000000000000000000000000000000600082015250565b610bfe81610a57565b8114610c0957600080fd5b50565b610c1581610a69565b8114610c2057600080fd5b50565b610c2c81610a9b565b8114610c3757600080fd5b5056fea2646970667358221220783bb047c6f4d927230dacc32439aea901642ebbf94269d460044d5ee8c8a85f64736f6c63430008060033",
  "immutableReferences": {},
  "source": "//SPDX-License-Identifier: UNLICENSED\npragma solidity >=0.7.0 <0.9.0;\nimport \"./ReceiverFactory.sol\";\n\n\ncontract FundsPool{\n    address public admin;\n    uint public funds;\n    ReceiverFactory receiverFactory;\n    event ValueReceived(address user, uint amount);\n\n    constructor(){\n        admin = msg.sender;\n    }\n\n    function distributeFunds(uint amount) public onlyOwner{\n        require(amount <= address(this).balance, \"not enough funds\");\n        uint numOfReceivers = receiverFactory.getNumOfReceivers();\n        require(numOfReceivers > 0, \"No receivers to receive funds\");\n        uint fundsToSend;\n        fundsToSend = amount / numOfReceivers; \n\n        for (uint i = 1; i <= numOfReceivers; i++){\n            sendFunds(fundsToSend, receiverFactory.getReceiver(i));\n        }\n        \n    }\n\n    function sendFunds(uint amount, address receiver) public payable onlyOwner{\n        require(amount <= address(this).balance, \"not enough funds\");\n        payable(receiver).call{value:amount}(\"\");\n        funds -= amount;  \n    }\n\n    function updateReceiverFactory(ReceiverFactory rec) public onlyOwner{\n        require(rec.owner() == admin, \"Receiver Factory does not match Admin\");\n        receiverFactory = rec;  \n    }\n\n    function getFundsBalance() public view returns(uint256){\n        return address(this).balance;\n    }\n\n    receive() external payable{\n        emit ValueReceived(msg.sender, msg.value);\n        funds = address(this).balance;\n    }\n\n\n    modifier onlyOwner() {\n        require(msg.sender == admin);\n        _;\n    }\n\n}",
  "sourcePath": "/Users/dylan/Library/Mobile Documents/com~apple~CloudDocs/Developer/UNSW/COMP6452_Blockchain_Architecture/COMP6452-HelpChain/contracts/FundsPool.sol",
  "compiler": {
    "name": "solc",
    "version": "0.8.6+commit.11564f7e.Emscripten.clang"
  },
  "schemaVersion": "3.4.2",
  "updatedAt": "2021-08-08T13:30:49.837Z",
  "devdoc": {
    "kind": "dev",
    "methods": {},
    "version": 1
  },
  "userdoc": {
    "kind": "user",
    "methods": {},
    "version": 1
  }
}