{
  "contractName": "FundsPool",
  "abi": [
    {
      "inputs": [],
      "stateMutability": "nonpayable",
      "type": "constructor"
    },
    {
      "anonymous": false,
      "inputs": [
        {
          "indexed": false,
          "internalType": "address",
          "name": "user",
          "type": "address"
        },
        {
          "indexed": false,
          "internalType": "uint256",
          "name": "amount",
          "type": "uint256"
        }
      ],
      "name": "ValueReceived",
      "type": "event"
    },
    {
      "inputs": [],
      "name": "admin",
      "outputs": [
        {
          "internalType": "address",
          "name": "",
          "type": "address"
        }
      ],
      "stateMutability": "view",
      "type": "function",
      "constant": true
    },
    {
      "inputs": [],
      "name": "funds",
      "outputs": [
        {
          "internalType": "uint256",
          "name": "",
          "type": "uint256"
        }
      ],
      "stateMutability": "view",
      "type": "function",
      "constant": true
    },
    {
      "stateMutability": "payable",
      "type": "receive",
      "payable": true
    },
    {
      "inputs": [
        {
          "internalType": "uint256",
          "name": "amount",
          "type": "uint256"
        }
      ],
      "name": "distributeFunds",
      "outputs": [],
      "stateMutability": "nonpayable",
      "type": "function"
    },
    {
      "inputs": [
        {
          "internalType": "uint256",
          "name": "amount",
          "type": "uint256"
        },
        {
          "internalType": "address",
          "name": "receiver",
          "type": "address"
        }
      ],
      "name": "sendFunds",
      "outputs": [],
      "stateMutability": "payable",
      "type": "function",
      "payable": true
    },
    {
      "inputs": [
        {
          "internalType": "contract ReceiverFactory",
          "name": "rec",
          "type": "address"
        }
      ],
      "name": "updateReceiverFactory",
      "outputs": [],
      "stateMutability": "nonpayable",
      "type": "function"
    },
    {
      "inputs": [],
      "name": "getFundsBalance",
      "outputs": [
        {
          "internalType": "uint256",
          "name": "",
          "type": "uint256"
        }
      ],
      "stateMutability": "view",
      "type": "function",
      "constant": true
    }
  ],
  "bytecode": "0x608060405234801561001057600080fd5b50336000806101000a81548173ffffffffffffffffffffffffffffffffffffffff021916908373ffffffffffffffffffffffffffffffffffffffff160217905550610c08806100606000396000f3fe6080604052600436106100595760003560e01c80631b07d35b146100a5578063b2686774146100d0578063c89f2ce4146100ec578063cfb17d6114610117578063f726f71514610140578063f851a44014610169576100a0565b366100a0577f7e71433ddf847725166244795048ecf3e3f9f35628254ecbf736056664233493333460405161008f9291906108d8565b60405180910390a147600181905550005b600080fd5b3480156100b157600080fd5b506100ba610194565b6040516100c79190610961565b60405180910390f35b6100ea60048036038101906100e591906107f6565b61019c565b005b3480156100f857600080fd5b5061010161029b565b60405161010e9190610961565b60405180910390f35b34801561012357600080fd5b5061013e6004803603810190610139919061076f565b6102a1565b005b34801561014c57600080fd5b506101676004803603810190610162919061079c565b610448565b005b34801561017557600080fd5b5061017e6106b5565b60405161018b91906108bd565b60405180910390f35b600047905090565b60008054906101000a900473ffffffffffffffffffffffffffffffffffffffff1673ffffffffffffffffffffffffffffffffffffffff163373ffffffffffffffffffffffffffffffffffffffff16146101f457600080fd5b47821115610237576040517f08c379a000000000000000000000000000000000000000000000000000000000815260040161022e90610941565b60405180910390fd5b8073ffffffffffffffffffffffffffffffffffffffff166108fc839081150290604051600060405180830381858888f1935050505015801561027d573d6000803e3d6000fd5b50816001600082825461029091906109be565b925050819055505050565b60015481565b60008054906101000a900473ffffffffffffffffffffffffffffffffffffffff1673ffffffffffffffffffffffffffffffffffffffff163373ffffffffffffffffffffffffffffffffffffffff16146102f957600080fd5b60008054906101000a900473ffffffffffffffffffffffffffffffffffffffff1673ffffffffffffffffffffffffffffffffffffffff168173ffffffffffffffffffffffffffffffffffffffff16638da5cb5b6040518163ffffffff1660e01b815260040160206040518083038186803b15801561037657600080fd5b505afa15801561038a573d6000803e3d6000fd5b505050506040513d601f19601f820116820180604052508101906103ae9190610742565b73ffffffffffffffffffffffffffffffffffffffff1614610404576040517f08c379a00000000000000000000000000000000000000000000000000000000081526004016103fb90610901565b60405180910390fd5b80600260006101000a81548173ffffffffffffffffffffffffffffffffffffffff021916908373ffffffffffffffffffffffffffffffffffffffff16021790555050565b60008054906101000a900473ffffffffffffffffffffffffffffffffffffffff1673ffffffffffffffffffffffffffffffffffffffff163373ffffffffffffffffffffffffffffffffffffffff16146104a057600080fd5b478111156104e3576040517f08c379a00000000000000000000000000000000000000000000000000000000081526004016104da90610941565b60405180910390fd5b6000600260009054906101000a900473ffffffffffffffffffffffffffffffffffffffff1673ffffffffffffffffffffffffffffffffffffffff16630f285b2a6040518163ffffffff1660e01b815260040160206040518083038186803b15801561054d57600080fd5b505afa158015610561573d6000803e3d6000fd5b505050506040513d601f19601f8201168201806040525081019061058591906107c9565b9050600081116105ca576040517f08c379a00000000000000000000000000000000000000000000000000000000081526004016105c190610921565b60405180910390fd5b600081836105d8919061098d565b90506000600190505b8281116106af5761069c82600260009054906101000a900473ffffffffffffffffffffffffffffffffffffffff1673ffffffffffffffffffffffffffffffffffffffff1663f4d76499846040518263ffffffff1660e01b81526004016106479190610961565b60206040518083038186803b15801561065f57600080fd5b505afa158015610673573d6000803e3d6000fd5b505050506040513d601f19601f820116820180604052508101906106979190610742565b61019c565b80806106a790610a40565b9150506105e1565b50505050565b60008054906101000a900473ffffffffffffffffffffffffffffffffffffffff1681565b6000813590506106e881610b8d565b92915050565b6000815190506106fd81610b8d565b92915050565b60008135905061071281610ba4565b92915050565b60008135905061072781610bbb565b92915050565b60008151905061073c81610bbb565b92915050565b60006020828403121561075857610757610ae7565b5b6000610766848285016106ee565b91505092915050565b60006020828403121561078557610784610ae7565b5b600061079384828501610703565b91505092915050565b6000602082840312156107b2576107b1610ae7565b5b60006107c084828501610718565b91505092915050565b6000602082840312156107df576107de610ae7565b5b60006107ed8482850161072d565b91505092915050565b6000806040838503121561080d5761080c610ae7565b5b600061081b85828601610718565b925050602061082c858286016106d9565b9150509250929050565b61083f816109f2565b82525050565b600061085260258361097c565b915061085d82610aec565b604082019050919050565b6000610875601d8361097c565b915061088082610b3b565b602082019050919050565b600061089860108361097c565b91506108a382610b64565b602082019050919050565b6108b781610a36565b82525050565b60006020820190506108d26000830184610836565b92915050565b60006040820190506108ed6000830185610836565b6108fa60208301846108ae565b9392505050565b6000602082019050818103600083015261091a81610845565b9050919050565b6000602082019050818103600083015261093a81610868565b9050919050565b6000602082019050818103600083015261095a8161088b565b9050919050565b600060208201905061097660008301846108ae565b92915050565b600082825260208201905092915050565b600061099882610a36565b91506109a383610a36565b9250826109b3576109b2610ab8565b5b828204905092915050565b60006109c982610a36565b91506109d483610a36565b9250828210156109e7576109e6610a89565b5b828203905092915050565b60006109fd82610a16565b9050919050565b6000610a0f826109f2565b9050919050565b600073ffffffffffffffffffffffffffffffffffffffff82169050919050565b6000819050919050565b6000610a4b82610a36565b91507fffffffffffffffffffffffffffffffffffffffffffffffffffffffffffffffff821415610a7e57610a7d610a89565b5b600182019050919050565b7f4e487b7100000000000000000000000000000000000000000000000000000000600052601160045260246000fd5b7f4e487b7100000000000000000000000000000000000000000000000000000000600052601260045260246000fd5b600080fd5b7f526563656976657220466163746f727920646f6573206e6f74206d617463682060008201527f41646d696e000000000000000000000000000000000000000000000000000000602082015250565b7f4e6f2072656365697665727320746f20726563656976652066756e6473000000600082015250565b7f6e6f7420656e6f7567682066756e647300000000000000000000000000000000600082015250565b610b96816109f2565b8114610ba157600080fd5b50565b610bad81610a04565b8114610bb857600080fd5b50565b610bc481610a36565b8114610bcf57600080fd5b5056fea26469706673582212205f76d57756c625483f3594f265686e8c7521dfe81b542f320265db91e07014c164736f6c63430008060033",
  "immutableReferences": {},
  "source": "//SPDX-License-Identifier: UNLICENSED\npragma solidity >=0.7.0 <0.9.0;\nimport \"./ReceiverFactory.sol\";\n\n\ncontract FundsPool{\n    address public admin;\n    uint public funds;\n    ReceiverFactory receiverFactory;\n    event ValueReceived(address user, uint amount);\n\n    constructor(){\n        admin = msg.sender;\n    }\n\n    function distributeFunds(uint amount) public onlyOwner{\n        require(amount <= address(this).balance, \"not enough funds\");\n        uint numOfReceivers = receiverFactory.getNumOfReceivers();\n        require(numOfReceivers > 0, \"No receivers to receive funds\");\n        uint fundsToSend;\n        fundsToSend = amount / numOfReceivers; \n\n        for (uint i = 1; i <= numOfReceivers; i++){\n            sendFunds(fundsToSend, receiverFactory.getReceiver(i));\n        }\n        \n    }\n\n    function sendFunds(uint amount, address receiver) public payable onlyOwner{\n        require(amount <= address(this).balance, \"not enough funds\");\n        payable(receiver).transfer(amount); \n        funds -= amount;  \n    }\n\n    function updateReceiverFactory(ReceiverFactory rec) public onlyOwner{\n        require(rec.owner() == admin, \"Receiver Factory does not match Admin\");\n        receiverFactory = rec;  \n    }\n\n    function getFundsBalance() public view returns(uint256){\n        return address(this).balance;\n    }\n\n    receive() external payable{\n        emit ValueReceived(msg.sender, msg.value);\n        funds = address(this).balance;\n    }\n\n\n    modifier onlyOwner() {\n        require(msg.sender == admin);\n        _;\n    }\n\n}",
  "sourcePath": "/Users/dylan/Library/Mobile Documents/com~apple~CloudDocs/Developer/UNSW/COMP6452_Blockchain_Architecture/COMP6452-HelpChain/contracts/FundsPool.sol",
  "compiler": {
    "name": "solc",
    "version": "0.8.6+commit.11564f7e.Emscripten.clang"
  },
  "schemaVersion": "3.4.2",
  "updatedAt": "2021-08-08T11:16:53.999Z",
  "networkType": "ethereum",
  "devdoc": {
    "kind": "dev",
    "methods": {},
    "version": 1
  },
  "userdoc": {
    "kind": "user",
    "methods": {},
    "version": 1
  }
}