{
  "contractName": "FundsPool",
  "abi": [
    {
      "inputs": [
        {
          "internalType": "address",
          "name": "admin_",
          "type": "address"
        }
      ],
      "stateMutability": "nonpayable",
      "type": "constructor"
    },
    {
      "anonymous": false,
      "inputs": [
        {
          "indexed": false,
          "internalType": "address",
          "name": "user",
          "type": "address"
        },
        {
          "indexed": false,
          "internalType": "uint256",
          "name": "amount",
          "type": "uint256"
        }
      ],
      "name": "ValueReceived",
      "type": "event"
    },
    {
      "inputs": [],
      "name": "admin",
      "outputs": [
        {
          "internalType": "address",
          "name": "",
          "type": "address"
        }
      ],
      "stateMutability": "view",
      "type": "function"
    },
    {
      "inputs": [],
      "name": "funds",
      "outputs": [
        {
          "internalType": "uint256",
          "name": "",
          "type": "uint256"
        }
      ],
      "stateMutability": "view",
      "type": "function"
    },
    {
      "stateMutability": "payable",
      "type": "receive"
    },
    {
      "inputs": [
        {
          "internalType": "uint256",
          "name": "amount",
          "type": "uint256"
        },
        {
          "internalType": "address[]",
          "name": "receivers",
          "type": "address[]"
        }
      ],
      "name": "distributeFunds",
      "outputs": [],
      "stateMutability": "nonpayable",
      "type": "function"
    },
    {
      "inputs": [
        {
          "internalType": "uint256",
          "name": "amount",
          "type": "uint256"
        },
        {
          "internalType": "address",
          "name": "receiver",
          "type": "address"
        }
      ],
      "name": "sendFunds",
      "outputs": [],
      "stateMutability": "payable",
      "type": "function"
    }
  ],
  "bytecode": "0x608060405234801561001057600080fd5b506040516109713803806109718339818101604052810190610032919061008d565b806000806101000a81548173ffffffffffffffffffffffffffffffffffffffff021916908373ffffffffffffffffffffffffffffffffffffffff16021790555050610108565b600081519050610087816100f1565b92915050565b6000602082840312156100a3576100a26100ec565b5b60006100b184828501610078565b91505092915050565b60006100c5826100cc565b9050919050565b600073ffffffffffffffffffffffffffffffffffffffff82169050919050565b600080fd5b6100fa816100ba565b811461010557600080fd5b50565b61085a806101176000396000f3fe6080604052600436106100435760003560e01c80632fe936fc1461008f578063b2686774146100b8578063c89f2ce4146100d4578063f851a440146100ff5761008a565b3661008a577f7e71433ddf847725166244795048ecf3e3f9f35628254ecbf736056664233493333460405161007992919061050b565b60405180910390a147600181905550005b600080fd5b34801561009b57600080fd5b506100b660048036038101906100b19190610453565b61012a565b005b6100d260048036038101906100cd9190610413565b610222565b005b3480156100e057600080fd5b506100e9610321565b6040516100f69190610554565b60405180910390f35b34801561010b57600080fd5b50610114610327565b60405161012191906104f0565b60405180910390f35b60008054906101000a900473ffffffffffffffffffffffffffffffffffffffff1673ffffffffffffffffffffffffffffffffffffffff163373ffffffffffffffffffffffffffffffffffffffff161461018257600080fd5b478211156101c5576040517f08c379a00000000000000000000000000000000000000000000000000000000081526004016101bc90610534565b60405180910390fd5b60008151836101d491906105d1565b90506000600190505b8251811161021c57610209828483815181106101fc576101fb61074a565b5b6020026020010151610222565b8080610214906106a3565b9150506101dd565b50505050565b60008054906101000a900473ffffffffffffffffffffffffffffffffffffffff1673ffffffffffffffffffffffffffffffffffffffff163373ffffffffffffffffffffffffffffffffffffffff161461027a57600080fd5b478211156102bd576040517f08c379a00000000000000000000000000000000000000000000000000000000081526004016102b490610534565b60405180910390fd5b8073ffffffffffffffffffffffffffffffffffffffff166108fc839081150290604051600060405180830381858888f19350505050158015610303573d6000803e3d6000fd5b5081600160008282546103169190610602565b925050819055505050565b60015481565b60008054906101000a900473ffffffffffffffffffffffffffffffffffffffff1681565b600061035e61035984610594565b61056f565b90508083825260208201905082856020860282011115610381576103806107ad565b5b60005b858110156103b1578161039788826103bb565b845260208401935060208301925050600181019050610384565b5050509392505050565b6000813590506103ca816107f6565b92915050565b600082601f8301126103e5576103e46107a8565b5b81356103f584826020860161034b565b91505092915050565b60008135905061040d8161080d565b92915050565b6000806040838503121561042a576104296107b7565b5b6000610438858286016103fe565b9250506020610449858286016103bb565b9150509250929050565b6000806040838503121561046a576104696107b7565b5b6000610478858286016103fe565b925050602083013567ffffffffffffffff811115610499576104986107b2565b5b6104a5858286016103d0565b9150509250929050565b6104b881610636565b82525050565b60006104cb6010836105c0565b91506104d6826107cd565b602082019050919050565b6104ea81610668565b82525050565b600060208201905061050560008301846104af565b92915050565b600060408201905061052060008301856104af565b61052d60208301846104e1565b9392505050565b6000602082019050818103600083015261054d816104be565b9050919050565b600060208201905061056960008301846104e1565b92915050565b600061057961058a565b90506105858282610672565b919050565b6000604051905090565b600067ffffffffffffffff8211156105af576105ae610779565b5b602082029050602081019050919050565b600082825260208201905092915050565b60006105dc82610668565b91506105e783610668565b9250826105f7576105f661071b565b5b828204905092915050565b600061060d82610668565b915061061883610668565b92508282101561062b5761062a6106ec565b5b828203905092915050565b600061064182610648565b9050919050565b600073ffffffffffffffffffffffffffffffffffffffff82169050919050565b6000819050919050565b61067b826107bc565b810181811067ffffffffffffffff8211171561069a57610699610779565b5b80604052505050565b60006106ae82610668565b91507fffffffffffffffffffffffffffffffffffffffffffffffffffffffffffffffff8214156106e1576106e06106ec565b5b600182019050919050565b7f4e487b7100000000000000000000000000000000000000000000000000000000600052601160045260246000fd5b7f4e487b7100000000000000000000000000000000000000000000000000000000600052601260045260246000fd5b7f4e487b7100000000000000000000000000000000000000000000000000000000600052603260045260246000fd5b7f4e487b7100000000000000000000000000000000000000000000000000000000600052604160045260246000fd5b600080fd5b600080fd5b600080fd5b600080fd5b6000601f19601f8301169050919050565b7f6e6f7420656e6f7567682066756e647300000000000000000000000000000000600082015250565b6107ff81610636565b811461080a57600080fd5b50565b61081681610668565b811461082157600080fd5b5056fea2646970667358221220b53b1daf679d790125f6ceb64e3f2d3bf43f5efde49618b9f1da8aa036b82f4964736f6c63430008060033",
  "immutableReferences": {},
  "source": "pragma solidity >=0.7.0 <0.9.0;\nimport \"./ReceiverFactory.sol\";\nimport \"./CorporateFactory.sol\";\n\n\n// Contract that funds are received at\n// needs to contain an idenitifier\ncontract Admin {\n\n    ReceiverFactory public receiverFactory;\n    FundsPool public fundsPool; \n    CorporateFactory public corporateFactory;\n    address public owner;\n\n\n    constructor(FundsPool funds_, ReceiverFactory receiver_, CorporateFactory corp_) {\n        fundsPool = funds_;\n        receiverFactory = receiver_;\n        corporateFactory = corp_;\n        owner = msg.sender;\n    }\n\n\n    modifier onlyFundsPool() {\n        require(msg.sender == address(fundsPool));\n        _;\n    }\n\n    modifier onlyOwner() {\n        require(msg.sender == owner);\n        _;\n    }\n\n\n}\n\ncontract FundsPool{\n    address public admin;\n    uint public funds;\n    event ValueReceived(address user, uint amount);\n\n    constructor(address admin_){\n        admin = admin_;\n    }\n\n    function distributeFunds(uint amount, address[] memory receivers) public onlyOwner{\n        require(amount <= address(this).balance, \"not enough funds\");\n        uint fundsToSend;\n        fundsToSend = amount / receivers.length; \n\n        for (uint i = 1; i <= receivers.length; i++){\n            sendFunds(fundsToSend, receivers[i]);\n        }\n        \n    }\n\n    function sendFunds(uint amount, address receiver) public payable onlyOwner{\n        require(amount <= address(this).balance, \"not enough funds\");\n        payable(receiver).transfer(amount); \n        funds -= amount;  \n    }\n\n    receive() external payable{\n        emit ValueReceived(msg.sender, msg.value);\n        funds = address(this).balance;\n    }\n\n\n    modifier onlyOwner() {\n        require(msg.sender == admin);\n        _;\n    }\n\n}\n\n",
  "sourcePath": "/Users/dylan/Library/Mobile Documents/com~apple~CloudDocs/Developer/UNSW/COMP6452_Blockchain_Architecture/COMP6452-HelpChain/contracts/Admin.sol",
  "compiler": {
    "name": "solc",
    "version": "0.8.6+commit.11564f7e.Emscripten.clang"
  },
  "schemaVersion": "3.4.2",
  "updatedAt": "2021-07-27T22:25:46.802Z",
  "devdoc": {
    "kind": "dev",
    "methods": {},
    "version": 1
  },
  "userdoc": {
    "kind": "user",
    "methods": {},
    "version": 1
  }
}