{
  "contractName": "GiverFactory",
  "abi": [
    {
      "inputs": [
        {
          "internalType": "contract Admin",
          "name": "admin_",
          "type": "address"
        },
        {
          "internalType": "address",
          "name": "fundsPool_",
          "type": "address"
        }
      ],
      "stateMutability": "payable",
      "type": "constructor",
      "payable": true
    },
    {
      "inputs": [],
      "name": "admin",
      "outputs": [
        {
          "internalType": "contract Admin",
          "name": "",
          "type": "address"
        }
      ],
      "stateMutability": "view",
      "type": "function",
      "constant": true
    },
    {
      "inputs": [],
      "name": "fundsPool",
      "outputs": [
        {
          "internalType": "address",
          "name": "",
          "type": "address"
        }
      ],
      "stateMutability": "view",
      "type": "function",
      "constant": true
    },
    {
      "inputs": [
        {
          "internalType": "uint256",
          "name": "",
          "type": "uint256"
        }
      ],
      "name": "giver_array",
      "outputs": [
        {
          "internalType": "contract Giver",
          "name": "",
          "type": "address"
        }
      ],
      "stateMutability": "view",
      "type": "function",
      "constant": true
    },
    {
      "inputs": [],
      "name": "numberOfGivers",
      "outputs": [
        {
          "internalType": "uint256",
          "name": "",
          "type": "uint256"
        }
      ],
      "stateMutability": "view",
      "type": "function",
      "constant": true
    },
    {
      "inputs": [],
      "name": "owner",
      "outputs": [
        {
          "internalType": "address",
          "name": "",
          "type": "address"
        }
      ],
      "stateMutability": "view",
      "type": "function",
      "constant": true
    },
    {
      "inputs": [],
      "name": "creategiver",
      "outputs": [
        {
          "internalType": "address",
          "name": "",
          "type": "address"
        }
      ],
      "stateMutability": "nonpayable",
      "type": "function"
    },
    {
      "inputs": [
        {
          "internalType": "uint256",
          "name": "index",
          "type": "uint256"
        }
      ],
      "name": "getGiver",
      "outputs": [
        {
          "internalType": "address",
          "name": "",
          "type": "address"
        }
      ],
      "stateMutability": "view",
      "type": "function",
      "constant": true
    },
    {
      "inputs": [],
      "name": "getNumOfGivers",
      "outputs": [
        {
          "internalType": "uint256",
          "name": "",
          "type": "uint256"
        }
      ],
      "stateMutability": "view",
      "type": "function",
      "constant": true
    }
  ],
  "bytecode": "0x6080604052604051610f8f380380610f8f83398181016040528101906100259190610118565b336000806101000a81548173ffffffffffffffffffffffffffffffffffffffff021916908373ffffffffffffffffffffffffffffffffffffffff16021790555081600160006101000a81548173ffffffffffffffffffffffffffffffffffffffff021916908373ffffffffffffffffffffffffffffffffffffffff16021790555080600260006101000a81548173ffffffffffffffffffffffffffffffffffffffff021916908373ffffffffffffffffffffffffffffffffffffffff16021790555050506101cf565b6000815190506100fd816101a1565b92915050565b600081519050610112816101b8565b92915050565b6000806040838503121561012f5761012e61019c565b5b600061013d85828601610103565b925050602061014e858286016100ee565b9150509250929050565b60006101638261017c565b9050919050565b600061017582610158565b9050919050565b600073ffffffffffffffffffffffffffffffffffffffff82169050919050565b600080fd5b6101aa81610158565b81146101b557600080fd5b50565b6101c18161016a565b81146101cc57600080fd5b50565b610db1806101de6000396000f3fe608060405234801561001057600080fd5b50600436106100885760003560e01c80638da5cb5b1161005b5780638da5cb5b14610117578063e8cb70a114610135578063f52b29b714610153578063f851a4401461018357610088565b8063382869471461008d57806344258d90146100ab57806355f3c61b146100c95780638a90d601146100f9575b600080fd5b6100956101a1565b6040516100a29190610585565b60405180910390f35b6100b36101ae565b6040516100c091906104fd565b60405180910390f35b6100e360048036038101906100de9190610485565b610365565b6040516100f0919061056a565b60405180910390f35b6101016103a4565b60405161010e91906104fd565b60405180910390f35b61011f6103ca565b60405161012c91906104fd565b60405180910390f35b61013d6103ee565b60405161014a9190610585565b60405180910390f35b61016d60048036038101906101689190610485565b6103f4565b60405161017a91906104fd565b60405180910390f35b61018b61043c565b6040516101989190610518565b60405180910390f35b6000600480549050905090565b60008060009054906101000a900473ffffffffffffffffffffffffffffffffffffffff1673ffffffffffffffffffffffffffffffffffffffff163373ffffffffffffffffffffffffffffffffffffffff161461020957600080fd5b600030600260009054906101000a900473ffffffffffffffffffffffffffffffffffffffff16600160009054906101000a900473ffffffffffffffffffffffffffffffffffffffff1660405161025e90610462565b61026a93929190610533565b604051809103906000f080158015610286573d6000803e3d6000fd5b5090506001600360008373ffffffffffffffffffffffffffffffffffffffff1673ffffffffffffffffffffffffffffffffffffffff16815260200190815260200160002060006101000a81548160ff0219169083151502179055506001600560008282546102f491906105a0565b925050819055506004819080600181540180825580915050600190039060005260206000200160009091909190916101000a81548173ffffffffffffffffffffffffffffffffffffffff021916908373ffffffffffffffffffffffffffffffffffffffff1602179055508091505090565b6004818154811061037557600080fd5b906000526020600020016000915054906101000a900473ffffffffffffffffffffffffffffffffffffffff1681565b600260009054906101000a900473ffffffffffffffffffffffffffffffffffffffff1681565b60008054906101000a900473ffffffffffffffffffffffffffffffffffffffff1681565b60055481565b60006004828154811061040a576104096106cd565b5b9060005260206000200160009054906101000a900473ffffffffffffffffffffffffffffffffffffffff169050919050565b600160009054906101000a900473ffffffffffffffffffffffffffffffffffffffff1681565b610663806200071983390190565b60008135905061047f81610701565b92915050565b60006020828403121561049b5761049a6106fc565b5b60006104a984828501610470565b91505092915050565b6104bb816105f6565b82525050565b6104ca81610632565b82525050565b6104d981610656565b82525050565b6104e88161067a565b82525050565b6104f781610628565b82525050565b600060208201905061051260008301846104b2565b92915050565b600060208201905061052d60008301846104c1565b92915050565b600060608201905061054860008301866104d0565b61055560208301856104b2565b61056260408301846104c1565b949350505050565b600060208201905061057f60008301846104df565b92915050565b600060208201905061059a60008301846104ee565b92915050565b60006105ab82610628565b91506105b683610628565b9250827fffffffffffffffffffffffffffffffffffffffffffffffffffffffffffffffff038211156105eb576105ea61069e565b5b828201905092915050565b600061060182610608565b9050919050565b600073ffffffffffffffffffffffffffffffffffffffff82169050919050565b6000819050919050565b600061063d82610644565b9050919050565b600061064f82610608565b9050919050565b600061066182610668565b9050919050565b600061067382610608565b9050919050565b60006106858261068c565b9050919050565b600061069782610608565b9050919050565b7f4e487b7100000000000000000000000000000000000000000000000000000000600052601160045260246000fd5b7f4e487b7100000000000000000000000000000000000000000000000000000000600052603260045260246000fd5b600080fd5b61070a81610628565b811461071557600080fd5b5056fe60806040526040516106633803806106638339818101604052810190610025919061012e565b826000806101000a81548173ffffffffffffffffffffffffffffffffffffffff021916908373ffffffffffffffffffffffffffffffffffffffff16021790555081600260006101000a81548173ffffffffffffffffffffffffffffffffffffffff021916908373ffffffffffffffffffffffffffffffffffffffff16021790555080600160006101000a81548173ffffffffffffffffffffffffffffffffffffffff021916908373ffffffffffffffffffffffffffffffffffffffff160217905550505050610221565b6000815190506100fe816101dc565b92915050565b600081519050610113816101f3565b92915050565b6000815190506101288161020a565b92915050565b600080600060608486031215610147576101466101d7565b5b600061015586828701610119565b9350506020610166868287016100ef565b925050604061017786828701610104565b9150509250925092565b600061018c826101b7565b9050919050565b600061019e82610181565b9050919050565b60006101b082610181565b9050919050565b600073ffffffffffffffffffffffffffffffffffffffff82169050919050565b600080fd5b6101e581610181565b81146101f057600080fd5b50565b6101fc81610193565b811461020757600080fd5b50565b610213816101a5565b811461021e57600080fd5b50565b610433806102306000396000f3fe60806040526004361061004e5760003560e01c80631de02daa146100615780632907cb8d1461008c578063aa8c217c146100a8578063f5e944d5146100d3578063f851a440146100fe5761005c565b3661005c5747600381905550005b600080fd5b34801561006d57600080fd5b50610076610129565b6040516100839190610319565b60405180910390f35b6100a660048036038101906100a19190610242565b61014d565b005b3480156100b457600080fd5b506100bd6101db565b6040516100ca9190610334565b60405180910390f35b3480156100df57600080fd5b506100e86101e1565b6040516100f591906102e3565b60405180910390f35b34801561010a57600080fd5b50610113610207565b60405161012091906102fe565b60405180910390f35b60008054906101000a900473ffffffffffffffffffffffffffffffffffffffff1681565b600260009054906101000a900473ffffffffffffffffffffffffffffffffffffffff1673ffffffffffffffffffffffffffffffffffffffff1681604051610193906102ce565b60006040518083038185875af1925050503d80600081146101d0576040519150601f19603f3d011682016040523d82523d6000602084013e6101d5565b606091505b50505050565b60035481565b600260009054906101000a900473ffffffffffffffffffffffffffffffffffffffff1681565b600160009054906101000a900473ffffffffffffffffffffffffffffffffffffffff1681565b60008135905061023c816103e6565b92915050565b600060208284031215610258576102576103de565b5b60006102668482850161022d565b91505092915050565b6102788161035a565b82525050565b61028781610396565b82525050565b610296816103ba565b82525050565b60006102a960008361034f565b91506102b4826103e3565b600082019050919050565b6102c88161038c565b82525050565b60006102d98261029c565b9150819050919050565b60006020820190506102f8600083018461026f565b92915050565b6000602082019050610313600083018461027e565b92915050565b600060208201905061032e600083018461028d565b92915050565b600060208201905061034960008301846102bf565b92915050565b600081905092915050565b60006103658261036c565b9050919050565b600073ffffffffffffffffffffffffffffffffffffffff82169050919050565b6000819050919050565b60006103a1826103a8565b9050919050565b60006103b38261036c565b9050919050565b60006103c5826103cc565b9050919050565b60006103d78261036c565b9050919050565b600080fd5b50565b6103ef8161038c565b81146103fa57600080fd5b5056fea2646970667358221220ac81cf975d69ee8c86257bd28f02ac74443f055fd82588ff181998d26be1f68c64736f6c63430008060033a2646970667358221220e6fe4a9eddd6f8f1e8c3903ef4dbe0674defef50d9c6cc879d207a085a01c5e764736f6c63430008060033",
  "immutableReferences": {},
  "source": "//SPDX-License-Identifier: UNLICENSED\npragma solidity >=0.7.0 <0.9.0;\nimport \"./ReceiverFactory.sol\";\nimport \"./Admin.sol\";\n// Contract that creates givers\n// needs to contain an idenitifier\ncontract Giver {\n\n    GiverFactory public ownerGiver;\n    Admin public admin;\n    address public fundsPoolAddress;\n    uint public amount;\n    event ValueReceived(address user, uint amount);\n\n    constructor(GiverFactory ownerGiver_, address fundsPoolAddress_, Admin admin_) payable {\n        ownerGiver = ownerGiver_;\n        fundsPoolAddress = fundsPoolAddress_;\n        admin = admin_;\n    }\n\n    // Gives the giver the funds\n    receive() external payable {\n        amount = address(this).balance;\n    }\n\n    function giveFunds(uint tx_amount) public payable {\n        payable(fundsPoolAddress).call{value:tx_amount}(\"\");\n    }\n\n}\n\ncontract GiverFactory {\n\n    address public owner;\n    Admin public admin;\n    address public fundsPool;\n    mapping(address => bool) givers;\n    Giver[] public giver_array; // Array of receivers\n    uint public numberOfGivers;\n\n    constructor(Admin admin_, address fundsPool_) payable {\n        owner = msg.sender;\n        admin  = admin_;\n        fundsPool = fundsPool_;\n    }\n\n    function creategiver() public onlyOwner returns (address) {\n        Giver child = new Giver(this, address(fundsPool), admin);\n        givers[address(child)]  = true;\n        numberOfGivers += 1;\n        giver_array.push(child);\n        return address(child);\n    }\n\n    // gets a Giver at index\n    function getGiver(uint index) public view returns(address){\n        return address(giver_array[index]);\n    }\n    \n    // Returns total number of givers\n    function getNumOfGivers() public view returns(uint){\n        return giver_array.length;\n    }\n\n    modifier onlyOwner() {\n        require(msg.sender == owner);\n        _;\n    }\n\n}\n",
  "sourcePath": "/Users/Will/Documents/University /Final Year/T2/P2/COMP6452-HelpChain/contracts/GiverFactory.sol",
  "compiler": {
    "name": "solc",
    "version": "0.8.6+commit.11564f7e.Emscripten.clang"
  },
  "schemaVersion": "3.4.2",
  "updatedAt": "2021-08-08T13:55:50.838Z",
  "networkType": "ethereum",
  "devdoc": {
    "kind": "dev",
    "methods": {},
    "version": 1
  },
  "userdoc": {
    "kind": "user",
    "methods": {},
    "version": 1
  }
}