{
  "contractName": "GiverFactory",
  "abi": [
    {
      "inputs": [
        {
          "internalType": "contract Admin",
          "name": "admin_",
          "type": "address"
        }
      ],
      "stateMutability": "payable",
      "type": "constructor"
    },
    {
      "inputs": [],
      "name": "admin",
      "outputs": [
        {
          "internalType": "contract Admin",
          "name": "",
          "type": "address"
        }
      ],
      "stateMutability": "view",
      "type": "function"
    },
    {
      "inputs": [],
      "name": "fundsPool",
      "outputs": [
        {
          "internalType": "address",
          "name": "",
          "type": "address"
        }
      ],
      "stateMutability": "view",
      "type": "function"
    },
    {
      "inputs": [
        {
          "internalType": "uint256",
          "name": "",
          "type": "uint256"
        }
      ],
      "name": "giver_array",
      "outputs": [
        {
          "internalType": "contract Giver",
          "name": "",
          "type": "address"
        }
      ],
      "stateMutability": "view",
      "type": "function"
    },
    {
      "inputs": [],
      "name": "numberOfGivers",
      "outputs": [
        {
          "internalType": "uint256",
          "name": "",
          "type": "uint256"
        }
      ],
      "stateMutability": "view",
      "type": "function"
    },
    {
      "inputs": [],
      "name": "owner",
      "outputs": [
        {
          "internalType": "address",
          "name": "",
          "type": "address"
        }
      ],
      "stateMutability": "view",
      "type": "function"
    },
    {
      "inputs": [],
      "name": "creategiver",
      "outputs": [
        {
          "internalType": "address",
          "name": "",
          "type": "address"
        }
      ],
      "stateMutability": "nonpayable",
      "type": "function"
    },
    {
      "inputs": [
        {
          "internalType": "uint256",
          "name": "index",
          "type": "uint256"
        }
      ],
      "name": "getGiver",
      "outputs": [
        {
          "internalType": "address",
          "name": "",
          "type": "address"
        }
      ],
      "stateMutability": "view",
      "type": "function"
    },
    {
      "inputs": [],
      "name": "getNumOfGivers",
      "outputs": [
        {
          "internalType": "uint256",
          "name": "",
          "type": "uint256"
        }
      ],
      "stateMutability": "view",
      "type": "function"
    }
  ],
  "bytecode": "0x6080604052604051610eaa380380610eaa833981810160405281019061002591906100c1565b336000806101000a81548173ffffffffffffffffffffffffffffffffffffffff021916908373ffffffffffffffffffffffffffffffffffffffff16021790555080600160006101000a81548173ffffffffffffffffffffffffffffffffffffffff021916908373ffffffffffffffffffffffffffffffffffffffff1602179055505061014e565b6000815190506100bb81610137565b92915050565b6000602082840312156100d7576100d6610132565b5b60006100e5848285016100ac565b91505092915050565b60006100f982610112565b9050919050565b600061010b826100ee565b9050919050565b600073ffffffffffffffffffffffffffffffffffffffff82169050919050565b600080fd5b61014081610100565b811461014b57600080fd5b50565b610d4d8061015d6000396000f3fe608060405234801561001057600080fd5b50600436106100885760003560e01c80638da5cb5b1161005b5780638da5cb5b14610117578063e8cb70a114610135578063f52b29b714610153578063f851a4401461018357610088565b8063382869471461008d57806344258d90146100ab57806355f3c61b146100c95780638a90d601146100f9575b600080fd5b6100956101a1565b6040516100a29190610585565b60405180910390f35b6100b36101ae565b6040516100c091906104fd565b60405180910390f35b6100e360048036038101906100de9190610485565b610365565b6040516100f0919061056a565b60405180910390f35b6101016103a4565b60405161010e91906104fd565b60405180910390f35b61011f6103ca565b60405161012c91906104fd565b60405180910390f35b61013d6103ee565b60405161014a9190610585565b60405180910390f35b61016d60048036038101906101689190610485565b6103f4565b60405161017a91906104fd565b60405180910390f35b61018b61043c565b6040516101989190610518565b60405180910390f35b6000600480549050905090565b60008060009054906101000a900473ffffffffffffffffffffffffffffffffffffffff1673ffffffffffffffffffffffffffffffffffffffff163373ffffffffffffffffffffffffffffffffffffffff161461020957600080fd5b600030600260009054906101000a900473ffffffffffffffffffffffffffffffffffffffff16600160009054906101000a900473ffffffffffffffffffffffffffffffffffffffff1660405161025e90610462565b61026a93929190610533565b604051809103906000f080158015610286573d6000803e3d6000fd5b5090506001600360008373ffffffffffffffffffffffffffffffffffffffff1673ffffffffffffffffffffffffffffffffffffffff16815260200190815260200160002060006101000a81548160ff0219169083151502179055506001600560008282546102f491906105a0565b925050819055506004819080600181540180825580915050600190039060005260206000200160009091909190916101000a81548173ffffffffffffffffffffffffffffffffffffffff021916908373ffffffffffffffffffffffffffffffffffffffff1602179055508091505090565b6004818154811061037557600080fd5b906000526020600020016000915054906101000a900473ffffffffffffffffffffffffffffffffffffffff1681565b600260009054906101000a900473ffffffffffffffffffffffffffffffffffffffff1681565b60008054906101000a900473ffffffffffffffffffffffffffffffffffffffff1681565b60055481565b60006004828154811061040a576104096106cd565b5b9060005260206000200160009054906101000a900473ffffffffffffffffffffffffffffffffffffffff169050919050565b600160009054906101000a900473ffffffffffffffffffffffffffffffffffffffff1681565b6105ff806200071983390190565b60008135905061047f81610701565b92915050565b60006020828403121561049b5761049a6106fc565b5b60006104a984828501610470565b91505092915050565b6104bb816105f6565b82525050565b6104ca81610632565b82525050565b6104d981610656565b82525050565b6104e88161067a565b82525050565b6104f781610628565b82525050565b600060208201905061051260008301846104b2565b92915050565b600060208201905061052d60008301846104c1565b92915050565b600060608201905061054860008301866104d0565b61055560208301856104b2565b61056260408301846104c1565b949350505050565b600060208201905061057f60008301846104df565b92915050565b600060208201905061059a60008301846104ee565b92915050565b60006105ab82610628565b91506105b683610628565b9250827fffffffffffffffffffffffffffffffffffffffffffffffffffffffffffffffff038211156105eb576105ea61069e565b5b828201905092915050565b600061060182610608565b9050919050565b600073ffffffffffffffffffffffffffffffffffffffff82169050919050565b6000819050919050565b600061063d82610644565b9050919050565b600061064f82610608565b9050919050565b600061066182610668565b9050919050565b600061067382610608565b9050919050565b60006106858261068c565b9050919050565b600061069782610608565b9050919050565b7f4e487b7100000000000000000000000000000000000000000000000000000000600052601160045260246000fd5b7f4e487b7100000000000000000000000000000000000000000000000000000000600052603260045260246000fd5b600080fd5b61070a81610628565b811461071557600080fd5b5056fe60806040526040516105ff3803806105ff8339818101604052810190610025919061012e565b826000806101000a81548173ffffffffffffffffffffffffffffffffffffffff021916908373ffffffffffffffffffffffffffffffffffffffff16021790555081600260006101000a81548173ffffffffffffffffffffffffffffffffffffffff021916908373ffffffffffffffffffffffffffffffffffffffff16021790555080600160006101000a81548173ffffffffffffffffffffffffffffffffffffffff021916908373ffffffffffffffffffffffffffffffffffffffff160217905550505050610221565b6000815190506100fe816101dc565b92915050565b600081519050610113816101f3565b92915050565b6000815190506101288161020a565b92915050565b600080600060608486031215610147576101466101d7565b5b600061015586828701610119565b9350506020610166868287016100ef565b925050604061017786828701610104565b9150509250925092565b600061018c826101b7565b9050919050565b600061019e82610181565b9050919050565b60006101b082610181565b9050919050565b600073ffffffffffffffffffffffffffffffffffffffff82169050919050565b600080fd5b6101e581610181565b81146101f057600080fd5b50565b6101fc81610193565b811461020757600080fd5b50565b610213816101a5565b811461021e57600080fd5b50565b6103cf806102306000396000f3fe6080604052600436106100435760003560e01c80631de02daa146100885780632907cb8d146100b3578063f5e944d5146100cf578063f851a440146100fa57610083565b36610083577f7e71433ddf847725166244795048ecf3e3f9f35628254ecbf736056664233493333460405161007992919061029a565b60405180910390a1005b600080fd5b34801561009457600080fd5b5061009d610125565b6040516100aa91906102de565b60405180910390f35b6100cd60048036038101906100c89190610216565b610149565b005b3480156100db57600080fd5b506100e46101b5565b6040516100f1919061027f565b60405180910390f35b34801561010657600080fd5b5061010f6101db565b60405161011c91906102c3565b60405180910390f35b60008054906101000a900473ffffffffffffffffffffffffffffffffffffffff1681565b600260009054906101000a900473ffffffffffffffffffffffffffffffffffffffff1673ffffffffffffffffffffffffffffffffffffffff166108fc829081150290604051600060405180830381858888f193505050501580156101b1573d6000803e3d6000fd5b5050565b600260009054906101000a900473ffffffffffffffffffffffffffffffffffffffff1681565b600160009054906101000a900473ffffffffffffffffffffffffffffffffffffffff1681565b60008135905061021081610382565b92915050565b60006020828403121561022c5761022b61037d565b5b600061023a84828501610201565b91505092915050565b61024c816102f9565b82525050565b61025b81610335565b82525050565b61026a81610359565b82525050565b6102798161032b565b82525050565b60006020820190506102946000830184610243565b92915050565b60006040820190506102af6000830185610243565b6102bc6020830184610270565b9392505050565b60006020820190506102d86000830184610252565b92915050565b60006020820190506102f36000830184610261565b92915050565b60006103048261030b565b9050919050565b600073ffffffffffffffffffffffffffffffffffffffff82169050919050565b6000819050919050565b600061034082610347565b9050919050565b60006103528261030b565b9050919050565b60006103648261036b565b9050919050565b60006103768261030b565b9050919050565b600080fd5b61038b8161032b565b811461039657600080fd5b5056fea264697066735822122019f7ec650c06f1e0eb1dfdc19bf796b5ceb50ae51abd9023b706f31b306b4f9064736f6c63430008060033a26469706673582212206d0c44df6ff0140fe7573dddc5b5c734032d93a5b5a7373ac7916dfcf759afa064736f6c63430008060033",
  "immutableReferences": {},
  "source": "//SPDX-License-Identifier: UNLICENSED\npragma solidity >=0.7.0 <0.9.0;\nimport \"./ReceiverFactory.sol\";\nimport \"./Admin.sol\";\n// Contract that creates givers\n// needs to contain an idenitifier\ncontract Giver {\n\n    GiverFactory public ownerGiver;\n    Admin public admin;\n    address public fundsPoolAddress;\n    event ValueReceived(address user, uint amount);\n\n    constructor(GiverFactory ownerGiver_, address fundsPoolAddress_, Admin admin_) payable {\n        ownerGiver = ownerGiver_;\n        fundsPoolAddress = fundsPoolAddress_;\n        admin = admin_;\n    }\n\n    // Gives the giver the funds\n    receive() external payable {\n        emit ValueReceived(msg.sender, msg.value);\n    }\n\n    function giveFunds(uint amount) public payable {\n        payable(fundsPoolAddress).transfer(amount);\n    }\n\n}\n\ncontract GiverFactory {\n\n    address public owner;\n    Admin public admin;\n    address public fundsPool;\n    mapping(address => bool) givers;\n    Giver[] public giver_array; // Array of receivers\n    uint public numberOfGivers;\n\n    constructor(Admin admin_) payable {\n        owner = msg.sender;\n        admin  = admin_;\n    }\n\n    function creategiver() public onlyOwner returns (address) {\n        Giver child = new Giver(this, address(fundsPool), admin);\n        givers[address(child)]  = true;\n        numberOfGivers += 1;\n        giver_array.push(child);\n        return address(child);\n    }\n\n    // gets a Giver at index\n    function getGiver(uint index) public view returns(address){\n        return address(giver_array[index]);\n    }\n    \n    // Returns total number of givers\n    function getNumOfGivers() public view returns(uint){\n        return giver_array.length;\n    }\n\n    modifier onlyOwner() {\n        require(msg.sender == owner);\n        _;\n    }\n\n}\n",
  "sourcePath": "/Users/dylan/Library/Mobile Documents/com~apple~CloudDocs/Developer/UNSW/COMP6452_Blockchain_Architecture/COMP6452-HelpChain/contracts/GiverFactory.sol",
  "compiler": {
    "name": "solc",
    "version": "0.8.6+commit.11564f7e.Emscripten.clang"
  },
  "schemaVersion": "3.4.2",
  "updatedAt": "2021-08-08T12:15:03.940Z",
  "devdoc": {
    "kind": "dev",
    "methods": {},
    "version": 1
  },
  "userdoc": {
    "kind": "user",
    "methods": {},
    "version": 1
  }
}