{
  "contractName": "Giver",
  "abi": [
    {
      "inputs": [
        {
          "internalType": "contract GiverFactory",
          "name": "ownerGiver_",
          "type": "address"
        },
        {
          "internalType": "address",
          "name": "fundsPoolAddress_",
          "type": "address"
        },
        {
          "internalType": "contract Admin",
          "name": "admin_",
          "type": "address"
        }
      ],
      "stateMutability": "payable",
      "type": "constructor"
    },
    {
      "anonymous": false,
      "inputs": [
        {
          "indexed": false,
          "internalType": "address",
          "name": "user",
          "type": "address"
        },
        {
          "indexed": false,
          "internalType": "uint256",
          "name": "amount",
          "type": "uint256"
        }
      ],
      "name": "ValueReceived",
      "type": "event"
    },
    {
      "inputs": [],
      "name": "admin",
      "outputs": [
        {
          "internalType": "contract Admin",
          "name": "",
          "type": "address"
        }
      ],
      "stateMutability": "view",
      "type": "function"
    },
    {
      "inputs": [],
      "name": "amount",
      "outputs": [
        {
          "internalType": "uint256",
          "name": "",
          "type": "uint256"
        }
      ],
      "stateMutability": "view",
      "type": "function"
    },
    {
      "inputs": [],
      "name": "fundsPoolAddress",
      "outputs": [
        {
          "internalType": "address",
          "name": "",
          "type": "address"
        }
      ],
      "stateMutability": "view",
      "type": "function"
    },
    {
      "inputs": [],
      "name": "ownerGiver",
      "outputs": [
        {
          "internalType": "contract GiverFactory",
          "name": "",
          "type": "address"
        }
      ],
      "stateMutability": "view",
      "type": "function"
    },
    {
      "stateMutability": "payable",
      "type": "receive"
    },
    {
      "inputs": [
        {
          "internalType": "uint256",
          "name": "amount",
          "type": "uint256"
        }
      ],
      "name": "giveFunds",
      "outputs": [],
      "stateMutability": "payable",
      "type": "function"
    }
  ],
  "bytecode": "0x60806040526040516106633803806106638339818101604052810190610025919061012e565b826000806101000a81548173ffffffffffffffffffffffffffffffffffffffff021916908373ffffffffffffffffffffffffffffffffffffffff16021790555081600260006101000a81548173ffffffffffffffffffffffffffffffffffffffff021916908373ffffffffffffffffffffffffffffffffffffffff16021790555080600160006101000a81548173ffffffffffffffffffffffffffffffffffffffff021916908373ffffffffffffffffffffffffffffffffffffffff160217905550505050610221565b6000815190506100fe816101dc565b92915050565b600081519050610113816101f3565b92915050565b6000815190506101288161020a565b92915050565b600080600060608486031215610147576101466101d7565b5b600061015586828701610119565b9350506020610166868287016100ef565b925050604061017786828701610104565b9150509250925092565b600061018c826101b7565b9050919050565b600061019e82610181565b9050919050565b60006101b082610181565b9050919050565b600073ffffffffffffffffffffffffffffffffffffffff82169050919050565b600080fd5b6101e581610181565b81146101f057600080fd5b50565b6101fc81610193565b811461020757600080fd5b50565b610213816101a5565b811461021e57600080fd5b50565b610433806102306000396000f3fe60806040526004361061004e5760003560e01c80631de02daa146100615780632907cb8d1461008c578063aa8c217c146100a8578063f5e944d5146100d3578063f851a440146100fe5761005c565b3661005c5747600381905550005b600080fd5b34801561006d57600080fd5b50610076610129565b6040516100839190610319565b60405180910390f35b6100a660048036038101906100a19190610242565b61014d565b005b3480156100b457600080fd5b506100bd6101db565b6040516100ca9190610334565b60405180910390f35b3480156100df57600080fd5b506100e86101e1565b6040516100f591906102e3565b60405180910390f35b34801561010a57600080fd5b50610113610207565b60405161012091906102fe565b60405180910390f35b60008054906101000a900473ffffffffffffffffffffffffffffffffffffffff1681565b600260009054906101000a900473ffffffffffffffffffffffffffffffffffffffff1673ffffffffffffffffffffffffffffffffffffffff1681604051610193906102ce565b60006040518083038185875af1925050503d80600081146101d0576040519150601f19603f3d011682016040523d82523d6000602084013e6101d5565b606091505b50505050565b60035481565b600260009054906101000a900473ffffffffffffffffffffffffffffffffffffffff1681565b600160009054906101000a900473ffffffffffffffffffffffffffffffffffffffff1681565b60008135905061023c816103e6565b92915050565b600060208284031215610258576102576103de565b5b60006102668482850161022d565b91505092915050565b6102788161035a565b82525050565b61028781610396565b82525050565b610296816103ba565b82525050565b60006102a960008361034f565b91506102b4826103e3565b600082019050919050565b6102c88161038c565b82525050565b60006102d98261029c565b9150819050919050565b60006020820190506102f8600083018461026f565b92915050565b6000602082019050610313600083018461027e565b92915050565b600060208201905061032e600083018461028d565b92915050565b600060208201905061034960008301846102bf565b92915050565b600081905092915050565b60006103658261036c565b9050919050565b600073ffffffffffffffffffffffffffffffffffffffff82169050919050565b6000819050919050565b60006103a1826103a8565b9050919050565b60006103b38261036c565b9050919050565b60006103c5826103cc565b9050919050565b60006103d78261036c565b9050919050565b600080fd5b50565b6103ef8161038c565b81146103fa57600080fd5b5056fea2646970667358221220b0e4f51b9d33b003f05f4ed2f99a0925abe36b809552883fb6f6dbdf8904787a64736f6c63430008060033",
  "immutableReferences": {},
  "source": "//SPDX-License-Identifier: UNLICENSED\npragma solidity >=0.7.0 <0.9.0;\nimport \"./ReceiverFactory.sol\";\nimport \"./Admin.sol\";\n// Contract that creates givers\n// needs to contain an idenitifier\ncontract Giver {\n\n    GiverFactory public ownerGiver;\n    Admin public admin;\n    address public fundsPoolAddress;\n    uint public amount;\n    event ValueReceived(address user, uint amount);\n\n    constructor(GiverFactory ownerGiver_, address fundsPoolAddress_, Admin admin_) payable {\n        ownerGiver = ownerGiver_;\n        fundsPoolAddress = fundsPoolAddress_;\n        admin = admin_;\n    }\n\n    // Gives the giver the funds\n    receive() external payable {\n        amount = address(this).balance;\n    }\n\n    function giveFunds(uint amount) public payable {\n        payable(fundsPoolAddress).call{value:amount}(\"\");\n    }\n\n}\n\ncontract GiverFactory {\n\n    address public owner;\n    Admin public admin;\n    address public fundsPool;\n    mapping(address => bool) givers;\n    Giver[] public giver_array; // Array of receivers\n    uint public numberOfGivers;\n\n    constructor(Admin admin_, address fundsPool_) payable {\n        owner = msg.sender;\n        admin  = admin_;\n        fundsPool = fundsPool_;\n    }\n\n    function creategiver() public onlyOwner returns (address) {\n        Giver child = new Giver(this, address(fundsPool), admin);\n        givers[address(child)]  = true;\n        numberOfGivers += 1;\n        giver_array.push(child);\n        return address(child);\n    }\n\n    // gets a Giver at index\n    function getGiver(uint index) public view returns(address){\n        return address(giver_array[index]);\n    }\n    \n    // Returns total number of givers\n    function getNumOfGivers() public view returns(uint){\n        return giver_array.length;\n    }\n\n    modifier onlyOwner() {\n        require(msg.sender == owner);\n        _;\n    }\n\n}\n",
  "sourcePath": "/Users/dylan/Library/Mobile Documents/com~apple~CloudDocs/Developer/UNSW/COMP6452_Blockchain_Architecture/COMP6452-HelpChain/contracts/GiverFactory.sol",
  "compiler": {
    "name": "solc",
    "version": "0.8.6+commit.11564f7e.Emscripten.clang"
  },
  "schemaVersion": "3.4.2",
  "updatedAt": "2021-08-08T13:30:49.848Z",
  "devdoc": {
    "kind": "dev",
    "methods": {},
    "version": 1
  },
  "userdoc": {
    "kind": "user",
    "methods": {},
    "version": 1
  }
}