{
  "contractName": "Giver",
  "abi": [
    {
      "inputs": [
        {
          "internalType": "contract GiverFactory",
          "name": "ownerGiver_",
          "type": "address"
        },
        {
          "internalType": "address",
          "name": "fundsPoolAddress_",
          "type": "address"
        },
        {
          "internalType": "contract Admin",
          "name": "admin_",
          "type": "address"
        }
      ],
      "stateMutability": "nonpayable",
      "type": "constructor"
    },
    {
      "anonymous": false,
      "inputs": [
        {
          "indexed": false,
          "internalType": "address",
          "name": "user",
          "type": "address"
        },
        {
          "indexed": false,
          "internalType": "uint256",
          "name": "amount",
          "type": "uint256"
        }
      ],
      "name": "ValueGiven",
      "type": "event"
    },
    {
      "inputs": [],
      "name": "admin",
      "outputs": [
        {
          "internalType": "contract Admin",
          "name": "",
          "type": "address"
        }
      ],
      "stateMutability": "view",
      "type": "function"
    },
    {
      "inputs": [],
      "name": "fundsPoolAddress",
      "outputs": [
        {
          "internalType": "address",
          "name": "",
          "type": "address"
        }
      ],
      "stateMutability": "view",
      "type": "function"
    },
    {
      "inputs": [],
      "name": "ownerGiver",
      "outputs": [
        {
          "internalType": "contract GiverFactory",
          "name": "",
          "type": "address"
        }
      ],
      "stateMutability": "view",
      "type": "function"
    },
    {
      "inputs": [
        {
          "internalType": "address",
          "name": "ownerGiver_",
          "type": "address"
        },
        {
          "internalType": "uint256",
          "name": "amount",
          "type": "uint256"
        }
      ],
      "name": "addFunds",
      "outputs": [],
      "stateMutability": "nonpayable",
      "type": "function"
    },
    {
      "inputs": [
        {
          "internalType": "uint256",
          "name": "amount",
          "type": "uint256"
        },
        {
          "internalType": "address",
          "name": "to_",
          "type": "address"
        }
      ],
      "name": "giveFunds",
      "outputs": [],
      "stateMutability": "payable",
      "type": "function"
    }
  ],
  "bytecode": "0x608060405234801561001057600080fd5b506040516106cd3803806106cd8339818101604052810190610032919061013b565b826000806101000a81548173ffffffffffffffffffffffffffffffffffffffff021916908373ffffffffffffffffffffffffffffffffffffffff16021790555081600260006101000a81548173ffffffffffffffffffffffffffffffffffffffff021916908373ffffffffffffffffffffffffffffffffffffffff16021790555080600160006101000a81548173ffffffffffffffffffffffffffffffffffffffff021916908373ffffffffffffffffffffffffffffffffffffffff16021790555050505061022e565b60008151905061010b816101e9565b92915050565b60008151905061012081610200565b92915050565b60008151905061013581610217565b92915050565b600080600060608486031215610154576101536101e4565b5b600061016286828701610126565b9350506020610173868287016100fc565b925050604061018486828701610111565b9150509250925092565b6000610199826101c4565b9050919050565b60006101ab8261018e565b9050919050565b60006101bd8261018e565b9050919050565b600073ffffffffffffffffffffffffffffffffffffffff82169050919050565b600080fd5b6101f28161018e565b81146101fd57600080fd5b50565b610209816101a0565b811461021457600080fd5b50565b610220816101b2565b811461022b57600080fd5b50565b6104908061023d6000396000f3fe60806040526004361061004a5760003560e01c80631de02daa1461004f5780637e8becdd1461007a578063bc4b336514610096578063f5e944d5146100bf578063f851a440146100ea575b600080fd5b34801561005b57600080fd5b50610064610115565b6040516100719190610388565b60405180910390f35b610094600480360381019061008f91906102e5565b610139565b005b3480156100a257600080fd5b506100bd60048036038101906100b891906102a5565b6101e4565b005b3480156100cb57600080fd5b506100d461022f565b6040516100e19190610352565b60405180910390f35b3480156100f657600080fd5b506100ff610255565b60405161010c919061036d565b60405180910390f35b60008054906101000a900473ffffffffffffffffffffffffffffffffffffffff1681565b60008054906101000a900473ffffffffffffffffffffffffffffffffffffffff1673ffffffffffffffffffffffffffffffffffffffff163373ffffffffffffffffffffffffffffffffffffffff161461019157600080fd5b8147106101e0578073ffffffffffffffffffffffffffffffffffffffff166108fc839081150290604051600060405180830381858888f193505050501580156101de573d6000803e3d6000fd5b505b5050565b8173ffffffffffffffffffffffffffffffffffffffff166108fc829081150290604051600060405180830381858888f1935050505015801561022a573d6000803e3d6000fd5b505050565b600260009054906101000a900473ffffffffffffffffffffffffffffffffffffffff1681565b600160009054906101000a900473ffffffffffffffffffffffffffffffffffffffff1681565b60008135905061028a8161042c565b92915050565b60008135905061029f81610443565b92915050565b600080604083850312156102bc576102bb610427565b5b60006102ca8582860161027b565b92505060206102db85828601610290565b9150509250929050565b600080604083850312156102fc576102fb610427565b5b600061030a85828601610290565b925050602061031b8582860161027b565b9150509250929050565b61032e816103a3565b82525050565b61033d816103df565b82525050565b61034c81610403565b82525050565b60006020820190506103676000830184610325565b92915050565b60006020820190506103826000830184610334565b92915050565b600060208201905061039d6000830184610343565b92915050565b60006103ae826103b5565b9050919050565b600073ffffffffffffffffffffffffffffffffffffffff82169050919050565b6000819050919050565b60006103ea826103f1565b9050919050565b60006103fc826103b5565b9050919050565b600061040e82610415565b9050919050565b6000610420826103b5565b9050919050565b600080fd5b610435816103a3565b811461044057600080fd5b50565b61044c816103d5565b811461045757600080fd5b5056fea2646970667358221220895670521393b8f4efdfe319d5fdd1df2fbc3140574311aab7e240be9d70242664736f6c63430008060033",
  "immutableReferences": {},
  "source": "pragma solidity >=0.7.0 <0.9.0;\nimport \"./ReceiverFactory.sol\";\nimport \"./Admin.sol\";\n// Contract that creates givers\n// needs to contain an idenitifier\ncontract Giver {\n\n    GiverFactory public ownerGiver;\n    Admin public admin;\n    address public fundsPoolAddress;\n    event ValueGiven(address user, uint amount);\n\n    constructor(GiverFactory ownerGiver_, address fundsPoolAddress_, Admin admin_) {\n        ownerGiver = ownerGiver_;\n        fundsPoolAddress = fundsPoolAddress_;\n        admin = admin_;\n    }\n\n    function addFunds(address ownerGiver_, uint amount) public {\n        payable(ownerGiver_).transfer(amount);\n    }\n\n    function giveFunds(uint amount, address to_) public payable onlyOwner {\n\n        if (address(this).balance >= amount) {\n            payable(to_).transfer(amount);\n\n        }\n    }\n\n    modifier onlyFundsPool() {\n        require(address(this) == fundsPoolAddress);\n        _;\n    }\n\n    modifier onlyOwner() {\n        require(msg.sender == address(ownerGiver));\n        _;\n    }\n}\n\ncontract GiverFactory {\n\n    address public owner;\n    Admin public admin;\n    address public fundsPool;\n    mapping(address => bool) givers;\n    uint public numberOfGivers;\n\n    constructor(Admin admin_) {\n        owner = msg.sender;\n        admin  = admin_;\n    }\n\n    function creategiver() public onlyOwner returns (address) {\n        Giver child = new Giver(this, address(fundsPool), admin);\n        givers[address(child)]  = true;\n        numberOfGivers += 1;\n        return address(child);\n    }\n\n    modifier onlyOwner() {\n        require(msg.sender == owner);\n        _;\n    }\n\n}\n",
  "sourcePath": "/Users/dylan/Library/Mobile Documents/com~apple~CloudDocs/Developer/UNSW/COMP6452_Blockchain_Architecture/COMP6452-HelpChain/contracts/GiverFactory.sol",
  "compiler": {
    "name": "solc",
    "version": "0.8.6+commit.11564f7e.Emscripten.clang"
  },
  "schemaVersion": "3.4.2",
  "updatedAt": "2021-08-07T02:50:40.438Z",
  "devdoc": {
    "kind": "dev",
    "methods": {},
    "version": 1
  },
  "userdoc": {
    "kind": "user",
    "methods": {},
    "version": 1
  }
}