{
  "contractName": "GiverFactory",
  "abi": [
    {
      "inputs": [],
      "stateMutability": "nonpayable",
      "type": "constructor"
    },
    {
      "inputs": [],
      "name": "fundsPool",
      "outputs": [
        {
          "internalType": "address",
          "name": "",
          "type": "address"
        }
      ],
      "stateMutability": "view",
      "type": "function"
    },
    {
      "inputs": [],
      "name": "numberOfGivers",
      "outputs": [
        {
          "internalType": "uint256",
          "name": "",
          "type": "uint256"
        }
      ],
      "stateMutability": "view",
      "type": "function"
    },
    {
      "inputs": [],
      "name": "owner",
      "outputs": [
        {
          "internalType": "address",
          "name": "",
          "type": "address"
        }
      ],
      "stateMutability": "view",
      "type": "function"
    },
    {
      "inputs": [],
      "name": "creategiver",
      "outputs": [
        {
          "internalType": "address",
          "name": "",
          "type": "address"
        }
      ],
      "stateMutability": "nonpayable",
      "type": "function"
    }
  ],
  "bytecode": "0x608060405234801561001057600080fd5b50336000806101000a81548173ffffffffffffffffffffffffffffffffffffffff021916908373ffffffffffffffffffffffffffffffffffffffff16021790555061098d806100606000396000f3fe608060405234801561001057600080fd5b506004361061004c5760003560e01c806344258d90146100515780638a90d6011461006f5780638da5cb5b1461008d578063e8cb70a1146100ab575b600080fd5b6100596100c9565b6040516100669190610283565b60405180910390f35b6100776101f9565b6040516100849190610283565b60405180910390f35b61009561021f565b6040516100a29190610283565b60405180910390f35b6100b3610243565b6040516100c091906102c7565b60405180910390f35b60008060009054906101000a900473ffffffffffffffffffffffffffffffffffffffff1673ffffffffffffffffffffffffffffffffffffffff163373ffffffffffffffffffffffffffffffffffffffff161461012457600080fd5b600030600160009054906101000a900473ffffffffffffffffffffffffffffffffffffffff1660405161015690610249565b61016192919061029e565b604051809103906000f08015801561017d573d6000803e3d6000fd5b5090506001600260008373ffffffffffffffffffffffffffffffffffffffff1673ffffffffffffffffffffffffffffffffffffffff16815260200190815260200160002060006101000a81548160ff0219169083151502179055506001600360008282546101eb91906102e2565b925050819055508091505090565b600160009054906101000a900473ffffffffffffffffffffffffffffffffffffffff1681565b60008054906101000a900473ffffffffffffffffffffffffffffffffffffffff1681565b60035481565b610590806103c883390190565b61025f81610338565b82525050565b61026e81610374565b82525050565b61027d8161036a565b82525050565b60006020820190506102986000830184610256565b92915050565b60006040820190506102b36000830185610265565b6102c06020830184610256565b9392505050565b60006020820190506102dc6000830184610274565b92915050565b60006102ed8261036a565b91506102f88361036a565b9250827fffffffffffffffffffffffffffffffffffffffffffffffffffffffffffffffff0382111561032d5761032c610398565b5b828201905092915050565b60006103438261034a565b9050919050565b600073ffffffffffffffffffffffffffffffffffffffff82169050919050565b6000819050919050565b600061037f82610386565b9050919050565b60006103918261034a565b9050919050565b7f4e487b7100000000000000000000000000000000000000000000000000000000600052601160045260246000fdfe608060405234801561001057600080fd5b50604051610590380380610590833981810160405281019061003291906100e4565b816000806101000a81548173ffffffffffffffffffffffffffffffffffffffff021916908373ffffffffffffffffffffffffffffffffffffffff16021790555080600160006101000a81548173ffffffffffffffffffffffffffffffffffffffff021916908373ffffffffffffffffffffffffffffffffffffffff160217905550505061019b565b6000815190506100c98161016d565b92915050565b6000815190506100de81610184565b92915050565b600080604083850312156100fb576100fa610168565b5b6000610109858286016100cf565b925050602061011a858286016100ba565b9150509250929050565b600061012f82610148565b9050919050565b600061014182610124565b9050919050565b600073ffffffffffffffffffffffffffffffffffffffff82169050919050565b600080fd5b61017681610124565b811461018157600080fd5b50565b61018d81610136565b811461019857600080fd5b50565b6103e6806101aa6000396000f3fe60806040526004361061003f5760003560e01c80631de02daa146100445780637e8becdd1461006f578063bc4b33651461008b578063f5e944d5146100b4575b600080fd5b34801561005057600080fd5b506100596100df565b6040516100669190610302565b60405180910390f35b61008960048036038101906100849190610289565b610103565b005b34801561009757600080fd5b506100b260048036038101906100ad9190610249565b6101ae565b005b3480156100c057600080fd5b506100c96101f9565b6040516100d691906102e7565b60405180910390f35b60008054906101000a900473ffffffffffffffffffffffffffffffffffffffff1681565b60008054906101000a900473ffffffffffffffffffffffffffffffffffffffff1673ffffffffffffffffffffffffffffffffffffffff163373ffffffffffffffffffffffffffffffffffffffff161461015b57600080fd5b8147106101aa578073ffffffffffffffffffffffffffffffffffffffff166108fc839081150290604051600060405180830381858888f193505050501580156101a8573d6000803e3d6000fd5b505b5050565b8173ffffffffffffffffffffffffffffffffffffffff166108fc829081150290604051600060405180830381858888f193505050501580156101f4573d6000803e3d6000fd5b505050565b600160009054906101000a900473ffffffffffffffffffffffffffffffffffffffff1681565b60008135905061022e81610382565b92915050565b60008135905061024381610399565b92915050565b600080604083850312156102605761025f61037d565b5b600061026e8582860161021f565b925050602061027f85828601610234565b9150509250929050565b600080604083850312156102a05761029f61037d565b5b60006102ae85828601610234565b92505060206102bf8582860161021f565b9150509250929050565b6102d28161031d565b82525050565b6102e181610359565b82525050565b60006020820190506102fc60008301846102c9565b92915050565b600060208201905061031760008301846102d8565b92915050565b60006103288261032f565b9050919050565b600073ffffffffffffffffffffffffffffffffffffffff82169050919050565b6000819050919050565b60006103648261036b565b9050919050565b60006103768261032f565b9050919050565b600080fd5b61038b8161031d565b811461039657600080fd5b50565b6103a28161034f565b81146103ad57600080fd5b5056fea26469706673582212204582eda39f2006ab36004bd90a014e19a186f87f0753de4c18d53717aa1b14a164736f6c63430008060033a264697066735822122085ac7353ba8fedc0763e1b9e3017c14859b7e958f025b59b6a658df5c17700ee64736f6c63430008060033",
  "immutableReferences": {},
  "source": "pragma solidity >=0.7.0 <0.9.0;\nimport \"./ReceiverFactory.sol\";\n// Contract that creates givers\n// needs to contain an idenitifier\ncontract Giver {\n\n    GiverFactory public ownerGiver;\n    address public fundsPoolAddress;\n    event ValueGiven(address user, uint amount);\n\n    constructor(GiverFactory ownerGiver_, address fundsPoolAddress_) {\n        ownerGiver = ownerGiver_;\n        fundsPoolAddress = fundsPoolAddress_;\n    }\n\n    function addFunds(address ownerGiver_, uint amount) public {\n        payable(ownerGiver_).transfer(amount);\n    }\n\n    function giveFunds(uint amount, address to_) public payable onlyOwner {\n\n        if (address(this).balance >= amount) {\n            payable(to_).transfer(amount);\n\n        }\n    }\n\n    modifier onlyFundsPool() {\n        require(address(this) == fundsPoolAddress);\n        _;\n    }\n\n    modifier onlyOwner() {\n        require(msg.sender == address(ownerGiver));\n        _;\n    }\n}\n\ncontract GiverFactory {\n\n    address public owner;\n    address public fundsPool;\n    mapping(address => bool) givers;\n    uint public numberOfGivers;\n\n    constructor() {\n        owner = msg.sender;\n    }\n\n    function creategiver() public onlyOwner returns (address) {\n        Giver child = new Giver(this, address(fundsPool));\n        givers[address(child)]  = true;\n        numberOfGivers += 1;\n        return address(child);\n    }\n\n    modifier onlyOwner() {\n        require(msg.sender == owner);\n        _;\n    }\n\n}\n",
  "sourcePath": "/Users/Will/Documents/University /Final Year/T2/P2/COMP6452-HelpChain/contracts/GiverFactory.sol",
  "compiler": {
    "name": "solc",
    "version": "0.8.6+commit.11564f7e.Emscripten.clang"
  },
  "schemaVersion": "3.4.2",
  "updatedAt": "2021-07-29T03:31:40.844Z",
  "devdoc": {
    "kind": "dev",
    "methods": {},
    "version": 1
  },
  "userdoc": {
    "kind": "user",
    "methods": {},
    "version": 1
  }
}