{
  "contractName": "Giver",
  "abi": [
    {
      "inputs": [
        {
          "internalType": "contract GiverFactory",
          "name": "ownerGiver_",
          "type": "address"
        },
        {
          "internalType": "address",
          "name": "fundsPoolAddress_",
          "type": "address"
        },
        {
          "internalType": "contract Admin",
          "name": "admin_",
          "type": "address"
        }
      ],
      "stateMutability": "payable",
      "type": "constructor"
    },
    {
      "anonymous": false,
      "inputs": [
        {
          "indexed": false,
          "internalType": "address",
          "name": "user",
          "type": "address"
        },
        {
          "indexed": false,
          "internalType": "uint256",
          "name": "amount",
          "type": "uint256"
        }
      ],
      "name": "ValueGiven",
      "type": "event"
    },
    {
      "inputs": [],
      "name": "admin",
      "outputs": [
        {
          "internalType": "contract Admin",
          "name": "",
          "type": "address"
        }
      ],
      "stateMutability": "view",
      "type": "function"
    },
    {
      "inputs": [],
      "name": "fundsPoolAddress",
      "outputs": [
        {
          "internalType": "address",
          "name": "",
          "type": "address"
        }
      ],
      "stateMutability": "view",
      "type": "function"
    },
    {
      "inputs": [],
      "name": "ownerGiver",
      "outputs": [
        {
          "internalType": "contract GiverFactory",
          "name": "",
          "type": "address"
        }
      ],
      "stateMutability": "view",
      "type": "function"
    },
    {
      "inputs": [
        {
          "internalType": "address",
          "name": "ownerGiver_",
          "type": "address"
        },
        {
          "internalType": "uint256",
          "name": "amount",
          "type": "uint256"
        }
      ],
      "name": "addFunds",
      "outputs": [],
      "stateMutability": "payable",
      "type": "function"
    },
    {
      "inputs": [
        {
          "internalType": "uint256",
          "name": "amount",
          "type": "uint256"
        },
        {
          "internalType": "address",
          "name": "to_",
          "type": "address"
        }
      ],
      "name": "giveFunds",
      "outputs": [],
      "stateMutability": "payable",
      "type": "function"
    }
  ],
  "bytecode": "0x60806040526040516106b33803806106b38339818101604052810190610025919061012e565b826000806101000a81548173ffffffffffffffffffffffffffffffffffffffff021916908373ffffffffffffffffffffffffffffffffffffffff16021790555081600260006101000a81548173ffffffffffffffffffffffffffffffffffffffff021916908373ffffffffffffffffffffffffffffffffffffffff16021790555080600160006101000a81548173ffffffffffffffffffffffffffffffffffffffff021916908373ffffffffffffffffffffffffffffffffffffffff160217905550505050610221565b6000815190506100fe816101dc565b92915050565b600081519050610113816101f3565b92915050565b6000815190506101288161020a565b92915050565b600080600060608486031215610147576101466101d7565b5b600061015586828701610119565b9350506020610166868287016100ef565b925050604061017786828701610104565b9150509250925092565b600061018c826101b7565b9050919050565b600061019e82610181565b9050919050565b60006101b082610181565b9050919050565b600073ffffffffffffffffffffffffffffffffffffffff82169050919050565b600080fd5b6101e581610181565b81146101f057600080fd5b50565b6101fc81610193565b811461020757600080fd5b50565b610213816101a5565b811461021e57600080fd5b50565b610483806102306000396000f3fe60806040526004361061004a5760003560e01c80631de02daa1461004f5780637e8becdd1461007a578063bc4b336514610096578063f5e944d5146100b2578063f851a440146100dd575b600080fd5b34801561005b57600080fd5b50610064610108565b604051610071919061037b565b60405180910390f35b610094600480360381019061008f91906102d8565b61012c565b005b6100b060048036038101906100ab9190610298565b6101d7565b005b3480156100be57600080fd5b506100c7610222565b6040516100d49190610345565b60405180910390f35b3480156100e957600080fd5b506100f2610248565b6040516100ff9190610360565b60405180910390f35b60008054906101000a900473ffffffffffffffffffffffffffffffffffffffff1681565b60008054906101000a900473ffffffffffffffffffffffffffffffffffffffff1673ffffffffffffffffffffffffffffffffffffffff163373ffffffffffffffffffffffffffffffffffffffff161461018457600080fd5b8147106101d3578073ffffffffffffffffffffffffffffffffffffffff166108fc839081150290604051600060405180830381858888f193505050501580156101d1573d6000803e3d6000fd5b505b5050565b8173ffffffffffffffffffffffffffffffffffffffff166108fc829081150290604051600060405180830381858888f1935050505015801561021d573d6000803e3d6000fd5b505050565b600260009054906101000a900473ffffffffffffffffffffffffffffffffffffffff1681565b600160009054906101000a900473ffffffffffffffffffffffffffffffffffffffff1681565b60008135905061027d8161041f565b92915050565b60008135905061029281610436565b92915050565b600080604083850312156102af576102ae61041a565b5b60006102bd8582860161026e565b92505060206102ce85828601610283565b9150509250929050565b600080604083850312156102ef576102ee61041a565b5b60006102fd85828601610283565b925050602061030e8582860161026e565b9150509250929050565b61032181610396565b82525050565b610330816103d2565b82525050565b61033f816103f6565b82525050565b600060208201905061035a6000830184610318565b92915050565b60006020820190506103756000830184610327565b92915050565b60006020820190506103906000830184610336565b92915050565b60006103a1826103a8565b9050919050565b600073ffffffffffffffffffffffffffffffffffffffff82169050919050565b6000819050919050565b60006103dd826103e4565b9050919050565b60006103ef826103a8565b9050919050565b600061040182610408565b9050919050565b6000610413826103a8565b9050919050565b600080fd5b61042881610396565b811461043357600080fd5b50565b61043f816103c8565b811461044a57600080fd5b5056fea26469706673582212200da375b59a2f3be909a890f1667d03277d635c3806e4c911d535d389a9d56ba764736f6c63430008060033",
  "immutableReferences": {},
  "source": "//SPDX-License-Identifier: UNLICENSED\npragma solidity >=0.7.0 <0.9.0;\nimport \"./ReceiverFactory.sol\";\nimport \"./Admin.sol\";\n// Contract that creates givers\n// needs to contain an idenitifier\ncontract Giver {\n\n    GiverFactory public ownerGiver;\n    Admin public admin;\n    address public fundsPoolAddress;\n    event ValueGiven(address user, uint amount);\n\n    constructor(GiverFactory ownerGiver_, address fundsPoolAddress_, Admin admin_) payable {\n        ownerGiver = ownerGiver_;\n        fundsPoolAddress = fundsPoolAddress_;\n        admin = admin_;\n    }\n\n    function addFunds(address ownerGiver_, uint amount) public payable {\n        payable(ownerGiver_).transfer(amount);\n    }\n\n    function giveFunds(uint amount, address to_) public payable onlyOwner {\n\n        if (address(this).balance >= amount) {\n            payable(to_).transfer(amount);\n\n        }\n    }\n\n    modifier onlyFundsPool() {\n        require(address(this) == fundsPoolAddress);\n        _;\n    }\n\n    modifier onlyOwner() {\n        require(msg.sender == address(ownerGiver));\n        _;\n    }\n}\n\ncontract GiverFactory {\n\n    address public owner;\n    Admin public admin;\n    address public fundsPool;\n    mapping(address => bool) givers;\n    uint public numberOfGivers;\n\n    constructor(Admin admin_) payable {\n        owner = msg.sender;\n        admin  = admin_;\n    }\n\n    function creategiver() public onlyOwner returns (address) {\n        Giver child = new Giver(this, address(fundsPool), admin);\n        givers[address(child)]  = true;\n        numberOfGivers += 1;\n        return address(child);\n    }\n\n    modifier onlyOwner() {\n        require(msg.sender == owner);\n        _;\n    }\n\n}\n",
  "sourcePath": "/Users/dylan/Library/Mobile Documents/com~apple~CloudDocs/Developer/UNSW/COMP6452_Blockchain_Architecture/COMP6452-HelpChain/contracts/GiverFactory.sol",
  "compiler": {
    "name": "solc",
    "version": "0.8.6+commit.11564f7e.Emscripten.clang"
  },
  "schemaVersion": "3.4.2",
  "updatedAt": "2021-08-08T07:05:04.727Z",
  "devdoc": {
    "kind": "dev",
    "methods": {},
    "version": 1
  },
  "userdoc": {
    "kind": "user",
    "methods": {},
    "version": 1
  }
}