{
  "contractName": "GiverFactory",
  "abi": [
    {
      "inputs": [
        {
          "internalType": "contract Admin",
          "name": "admin_",
          "type": "address"
        }
      ],
      "stateMutability": "payable",
      "type": "constructor",
      "payable": true
    },
    {
      "inputs": [],
      "name": "admin",
      "outputs": [
        {
          "internalType": "contract Admin",
          "name": "",
          "type": "address"
        }
      ],
      "stateMutability": "view",
      "type": "function",
      "constant": true
    },
    {
      "inputs": [],
      "name": "fundsPool",
      "outputs": [
        {
          "internalType": "address",
          "name": "",
          "type": "address"
        }
      ],
      "stateMutability": "view",
      "type": "function",
      "constant": true
    },
    {
      "inputs": [],
      "name": "numberOfGivers",
      "outputs": [
        {
          "internalType": "uint256",
          "name": "",
          "type": "uint256"
        }
      ],
      "stateMutability": "view",
      "type": "function",
      "constant": true
    },
    {
      "inputs": [],
      "name": "owner",
      "outputs": [
        {
          "internalType": "address",
          "name": "",
          "type": "address"
        }
      ],
      "stateMutability": "view",
      "type": "function",
      "constant": true
    },
    {
      "inputs": [],
      "name": "creategiver",
      "outputs": [
        {
          "internalType": "address",
          "name": "",
          "type": "address"
        }
      ],
      "stateMutability": "nonpayable",
      "type": "function"
    }
  ],
  "bytecode": "0x6080604052604051610cd8380380610cd8833981810160405281019061002591906100c1565b336000806101000a81548173ffffffffffffffffffffffffffffffffffffffff021916908373ffffffffffffffffffffffffffffffffffffffff16021790555080600160006101000a81548173ffffffffffffffffffffffffffffffffffffffff021916908373ffffffffffffffffffffffffffffffffffffffff1602179055505061014e565b6000815190506100bb81610137565b92915050565b6000602082840312156100d7576100d6610132565b5b60006100e5848285016100ac565b91505092915050565b60006100f982610112565b9050919050565b600061010b826100ee565b9050919050565b600073ffffffffffffffffffffffffffffffffffffffff82169050919050565b600080fd5b61014081610100565b811461014b57600080fd5b50565b610b7b8061015d6000396000f3fe608060405234801561001057600080fd5b50600436106100575760003560e01c806344258d901461005c5780638a90d6011461007a5780638da5cb5b14610098578063e8cb70a1146100b6578063f851a440146100d4575b600080fd5b6100646100f2565b6040516100719190610305565b60405180910390f35b610082610246565b60405161008f9190610305565b60405180910390f35b6100a061026c565b6040516100ad9190610305565b60405180910390f35b6100be610290565b6040516100cb9190610372565b60405180910390f35b6100dc610296565b6040516100e99190610320565b60405180910390f35b60008060009054906101000a900473ffffffffffffffffffffffffffffffffffffffff1673ffffffffffffffffffffffffffffffffffffffff163373ffffffffffffffffffffffffffffffffffffffff161461014d57600080fd5b600030600260009054906101000a900473ffffffffffffffffffffffffffffffffffffffff16600160009054906101000a900473ffffffffffffffffffffffffffffffffffffffff166040516101a2906102bc565b6101ae9392919061033b565b604051809103906000f0801580156101ca573d6000803e3d6000fd5b5090506001600360008373ffffffffffffffffffffffffffffffffffffffff1673ffffffffffffffffffffffffffffffffffffffff16815260200190815260200160002060006101000a81548160ff021916908315150217905550600160046000828254610238919061038d565b925050819055508091505090565b600260009054906101000a900473ffffffffffffffffffffffffffffffffffffffff1681565b60008054906101000a900473ffffffffffffffffffffffffffffffffffffffff1681565b60045481565b600160009054906101000a900473ffffffffffffffffffffffffffffffffffffffff1681565b6106af8061049783390190565b6102d2816103e3565b82525050565b6102e18161041f565b82525050565b6102f081610443565b82525050565b6102ff81610415565b82525050565b600060208201905061031a60008301846102c9565b92915050565b600060208201905061033560008301846102d8565b92915050565b600060608201905061035060008301866102e7565b61035d60208301856102c9565b61036a60408301846102d8565b949350505050565b600060208201905061038760008301846102f6565b92915050565b600061039882610415565b91506103a383610415565b9250827fffffffffffffffffffffffffffffffffffffffffffffffffffffffffffffffff038211156103d8576103d7610467565b5b828201905092915050565b60006103ee826103f5565b9050919050565b600073ffffffffffffffffffffffffffffffffffffffff82169050919050565b6000819050919050565b600061042a82610431565b9050919050565b600061043c826103f5565b9050919050565b600061044e82610455565b9050919050565b6000610460826103f5565b9050919050565b7f4e487b7100000000000000000000000000000000000000000000000000000000600052601160045260246000fdfe60806040526040516106af3803806106af8339818101604052810190610025919061012e565b826000806101000a81548173ffffffffffffffffffffffffffffffffffffffff021916908373ffffffffffffffffffffffffffffffffffffffff16021790555081600260006101000a81548173ffffffffffffffffffffffffffffffffffffffff021916908373ffffffffffffffffffffffffffffffffffffffff16021790555080600160006101000a81548173ffffffffffffffffffffffffffffffffffffffff021916908373ffffffffffffffffffffffffffffffffffffffff160217905550505050610221565b6000815190506100fe816101dc565b92915050565b600081519050610113816101f3565b92915050565b6000815190506101288161020a565b92915050565b600080600060608486031215610147576101466101d7565b5b600061015586828701610119565b9350506020610166868287016100ef565b925050604061017786828701610104565b9150509250925092565b600061018c826101b7565b9050919050565b600061019e82610181565b9050919050565b60006101b082610181565b9050919050565b600073ffffffffffffffffffffffffffffffffffffffff82169050919050565b600080fd5b6101e581610181565b81146101f057600080fd5b50565b6101fc81610193565b811461020757600080fd5b50565b610213816101a5565b811461021e57600080fd5b50565b61047f806102306000396000f3fe6080604052600436106100435760003560e01c80631de02daa146100885780632907cb8d146100b3578063f5e944d5146100cf578063f851a440146100fa57610083565b36610083577f7e71433ddf847725166244795048ecf3e3f9f35628254ecbf736056664233493333460405161007992919061034a565b60405180910390a1005b600080fd5b34801561009457600080fd5b5061009d610125565b6040516100aa919061038e565b60405180910390f35b6100cd60048036038101906100c891906102c6565b610149565b005b3480156100db57600080fd5b506100e4610265565b6040516100f1919061032f565b60405180910390f35b34801561010657600080fd5b5061010f61028b565b60405161011c9190610373565b60405180910390f35b60008054906101000a900473ffffffffffffffffffffffffffffffffffffffff1681565b60008054906101000a900473ffffffffffffffffffffffffffffffffffffffff1673ffffffffffffffffffffffffffffffffffffffff163373ffffffffffffffffffffffffffffffffffffffff1614806101f05750600160009054906101000a900473ffffffffffffffffffffffffffffffffffffffff1673ffffffffffffffffffffffffffffffffffffffff163373ffffffffffffffffffffffffffffffffffffffff16145b6101f957600080fd5b600260009054906101000a900473ffffffffffffffffffffffffffffffffffffffff1673ffffffffffffffffffffffffffffffffffffffff166108fc829081150290604051600060405180830381858888f19350505050158015610261573d6000803e3d6000fd5b5050565b600260009054906101000a900473ffffffffffffffffffffffffffffffffffffffff1681565b600160009054906101000a900473ffffffffffffffffffffffffffffffffffffffff1681565b6000813590506102c081610432565b92915050565b6000602082840312156102dc576102db61042d565b5b60006102ea848285016102b1565b91505092915050565b6102fc816103a9565b82525050565b61030b816103e5565b82525050565b61031a81610409565b82525050565b610329816103db565b82525050565b600060208201905061034460008301846102f3565b92915050565b600060408201905061035f60008301856102f3565b61036c6020830184610320565b9392505050565b60006020820190506103886000830184610302565b92915050565b60006020820190506103a36000830184610311565b92915050565b60006103b4826103bb565b9050919050565b600073ffffffffffffffffffffffffffffffffffffffff82169050919050565b6000819050919050565b60006103f0826103f7565b9050919050565b6000610402826103bb565b9050919050565b60006104148261041b565b9050919050565b6000610426826103bb565b9050919050565b600080fd5b61043b816103db565b811461044657600080fd5b5056fea26469706673582212200d17c4446702b24ef974cecd5c7188292980bab0c61c207fd41808f61503d23364736f6c63430008060033a26469706673582212205c7cde68eb37ad71f239f76eb5a2283624639518a708a2ea41d30c8bff200f3c64736f6c63430008060033",
  "immutableReferences": {},
  "source": "//SPDX-License-Identifier: UNLICENSED\npragma solidity >=0.7.0 <0.9.0;\nimport \"./ReceiverFactory.sol\";\nimport \"./Admin.sol\";\n// Contract that creates givers\n// needs to contain an idenitifier\ncontract Giver {\n\n    GiverFactory public ownerGiver;\n    Admin public admin;\n    address public fundsPoolAddress;\n    event ValueReceived(address user, uint amount);\n\n    constructor(GiverFactory ownerGiver_, address fundsPoolAddress_, Admin admin_) payable {\n        ownerGiver = ownerGiver_;\n        fundsPoolAddress = fundsPoolAddress_;\n        admin = admin_;\n    }\n\n    // Gives the giver the funds\n    receive() external payable {\n        emit ValueReceived(msg.sender, msg.value);\n    }\n\n    function giveFunds(uint amount) public payable onlyOwner {\n        payable(fundsPoolAddress).transfer(amount);\n    }\n    \n    \n    // checks if valid sender\n    modifier onlyOwner() {\n        require(msg.sender == address(ownerGiver) || msg.sender == address(admin));\n        _;\n    }\n}\n\ncontract GiverFactory {\n\n    address public owner;\n    Admin public admin;\n    address public fundsPool;\n    mapping(address => bool) givers;\n    uint public numberOfGivers;\n\n    constructor(Admin admin_) payable {\n        owner = msg.sender;\n        admin  = admin_;\n    }\n\n    function creategiver() public onlyOwner returns (address) {\n        Giver child = new Giver(this, address(fundsPool), admin);\n        givers[address(child)]  = true;\n        numberOfGivers += 1;\n        return address(child);\n    }\n\n    modifier onlyOwner() {\n        require(msg.sender == owner);\n        _;\n    }\n\n}\n",
  "sourcePath": "/Users/Will/Documents/University /Final Year/T2/P2/COMP6452-HelpChain/contracts/GiverFactory.sol",
  "compiler": {
    "name": "solc",
    "version": "0.8.6+commit.11564f7e.Emscripten.clang"
  },
  "schemaVersion": "3.4.2",
  "updatedAt": "2021-08-08T10:30:46.815Z",
  "networkType": "ethereum",
  "devdoc": {
    "kind": "dev",
    "methods": {},
    "version": 1
  },
  "userdoc": {
    "kind": "user",
    "methods": {},
    "version": 1
  }
}