{
  "contractName": "GiverFactory",
  "abi": [
    {
      "inputs": [
        {
          "internalType": "contract Admin",
          "name": "admin_",
          "type": "address"
        },
        {
          "internalType": "address",
          "name": "fundsPool_",
          "type": "address"
        }
      ],
      "stateMutability": "payable",
      "type": "constructor",
      "payable": true
    },
    {
      "inputs": [],
      "name": "admin",
      "outputs": [
        {
          "internalType": "contract Admin",
          "name": "",
          "type": "address"
        }
      ],
      "stateMutability": "view",
      "type": "function",
      "constant": true
    },
    {
      "inputs": [],
      "name": "fundsPool",
      "outputs": [
        {
          "internalType": "address",
          "name": "",
          "type": "address"
        }
      ],
      "stateMutability": "view",
      "type": "function",
      "constant": true
    },
    {
      "inputs": [],
      "name": "numberOfGivers",
      "outputs": [
        {
          "internalType": "uint256",
          "name": "",
          "type": "uint256"
        }
      ],
      "stateMutability": "view",
      "type": "function",
      "constant": true
    },
    {
      "inputs": [],
      "name": "owner",
      "outputs": [
        {
          "internalType": "address",
          "name": "",
          "type": "address"
        }
      ],
      "stateMutability": "view",
      "type": "function",
      "constant": true
    },
    {
      "inputs": [],
      "name": "creategiver",
      "outputs": [
        {
          "internalType": "address",
          "name": "",
          "type": "address"
        }
      ],
      "stateMutability": "nonpayable",
      "type": "function"
    }
  ],
  "bytecode": "0x6080604052604051610ca9380380610ca983398181016040528101906100259190610118565b336000806101000a81548173ffffffffffffffffffffffffffffffffffffffff021916908373ffffffffffffffffffffffffffffffffffffffff16021790555081600160006101000a81548173ffffffffffffffffffffffffffffffffffffffff021916908373ffffffffffffffffffffffffffffffffffffffff16021790555080600260006101000a81548173ffffffffffffffffffffffffffffffffffffffff021916908373ffffffffffffffffffffffffffffffffffffffff16021790555050506101cf565b6000815190506100fd816101a1565b92915050565b600081519050610112816101b8565b92915050565b6000806040838503121561012f5761012e61019c565b5b600061013d85828601610103565b925050602061014e858286016100ee565b9150509250929050565b60006101638261017c565b9050919050565b600061017582610158565b9050919050565b600073ffffffffffffffffffffffffffffffffffffffff82169050919050565b600080fd5b6101aa81610158565b81146101b557600080fd5b50565b6101c18161016a565b81146101cc57600080fd5b50565b610acb806101de6000396000f3fe608060405234801561001057600080fd5b50600436106100575760003560e01c806344258d901461005c5780638a90d6011461007a5780638da5cb5b14610098578063e8cb70a1146100b6578063f851a440146100d4575b600080fd5b6100646100f2565b6040516100719190610305565b60405180910390f35b610082610246565b60405161008f9190610305565b60405180910390f35b6100a061026c565b6040516100ad9190610305565b60405180910390f35b6100be610290565b6040516100cb9190610372565b60405180910390f35b6100dc610296565b6040516100e99190610320565b60405180910390f35b60008060009054906101000a900473ffffffffffffffffffffffffffffffffffffffff1673ffffffffffffffffffffffffffffffffffffffff163373ffffffffffffffffffffffffffffffffffffffff161461014d57600080fd5b600030600260009054906101000a900473ffffffffffffffffffffffffffffffffffffffff16600160009054906101000a900473ffffffffffffffffffffffffffffffffffffffff166040516101a2906102bc565b6101ae9392919061033b565b604051809103906000f0801580156101ca573d6000803e3d6000fd5b5090506001600360008373ffffffffffffffffffffffffffffffffffffffff1673ffffffffffffffffffffffffffffffffffffffff16815260200190815260200160002060006101000a81548160ff021916908315150217905550600160046000828254610238919061038d565b925050819055508091505090565b600260009054906101000a900473ffffffffffffffffffffffffffffffffffffffff1681565b60008054906101000a900473ffffffffffffffffffffffffffffffffffffffff1681565b60045481565b600160009054906101000a900473ffffffffffffffffffffffffffffffffffffffff1681565b6105ff8061049783390190565b6102d2816103e3565b82525050565b6102e18161041f565b82525050565b6102f081610443565b82525050565b6102ff81610415565b82525050565b600060208201905061031a60008301846102c9565b92915050565b600060208201905061033560008301846102d8565b92915050565b600060608201905061035060008301866102e7565b61035d60208301856102c9565b61036a60408301846102d8565b949350505050565b600060208201905061038760008301846102f6565b92915050565b600061039882610415565b91506103a383610415565b9250827fffffffffffffffffffffffffffffffffffffffffffffffffffffffffffffffff038211156103d8576103d7610467565b5b828201905092915050565b60006103ee826103f5565b9050919050565b600073ffffffffffffffffffffffffffffffffffffffff82169050919050565b6000819050919050565b600061042a82610431565b9050919050565b600061043c826103f5565b9050919050565b600061044e82610455565b9050919050565b6000610460826103f5565b9050919050565b7f4e487b7100000000000000000000000000000000000000000000000000000000600052601160045260246000fdfe60806040526040516105ff3803806105ff8339818101604052810190610025919061012e565b826000806101000a81548173ffffffffffffffffffffffffffffffffffffffff021916908373ffffffffffffffffffffffffffffffffffffffff16021790555081600260006101000a81548173ffffffffffffffffffffffffffffffffffffffff021916908373ffffffffffffffffffffffffffffffffffffffff16021790555080600160006101000a81548173ffffffffffffffffffffffffffffffffffffffff021916908373ffffffffffffffffffffffffffffffffffffffff160217905550505050610221565b6000815190506100fe816101dc565b92915050565b600081519050610113816101f3565b92915050565b6000815190506101288161020a565b92915050565b600080600060608486031215610147576101466101d7565b5b600061015586828701610119565b9350506020610166868287016100ef565b925050604061017786828701610104565b9150509250925092565b600061018c826101b7565b9050919050565b600061019e82610181565b9050919050565b60006101b082610181565b9050919050565b600073ffffffffffffffffffffffffffffffffffffffff82169050919050565b600080fd5b6101e581610181565b81146101f057600080fd5b50565b6101fc81610193565b811461020757600080fd5b50565b610213816101a5565b811461021e57600080fd5b50565b6103cf806102306000396000f3fe6080604052600436106100435760003560e01c80631de02daa146100885780632907cb8d146100b3578063f5e944d5146100cf578063f851a440146100fa57610083565b36610083577f7e71433ddf847725166244795048ecf3e3f9f35628254ecbf736056664233493333460405161007992919061029a565b60405180910390a1005b600080fd5b34801561009457600080fd5b5061009d610125565b6040516100aa91906102de565b60405180910390f35b6100cd60048036038101906100c89190610216565b610149565b005b3480156100db57600080fd5b506100e46101b5565b6040516100f1919061027f565b60405180910390f35b34801561010657600080fd5b5061010f6101db565b60405161011c91906102c3565b60405180910390f35b60008054906101000a900473ffffffffffffffffffffffffffffffffffffffff1681565b600260009054906101000a900473ffffffffffffffffffffffffffffffffffffffff1673ffffffffffffffffffffffffffffffffffffffff166108fc829081150290604051600060405180830381858888f193505050501580156101b1573d6000803e3d6000fd5b5050565b600260009054906101000a900473ffffffffffffffffffffffffffffffffffffffff1681565b600160009054906101000a900473ffffffffffffffffffffffffffffffffffffffff1681565b60008135905061021081610382565b92915050565b60006020828403121561022c5761022b61037d565b5b600061023a84828501610201565b91505092915050565b61024c816102f9565b82525050565b61025b81610335565b82525050565b61026a81610359565b82525050565b6102798161032b565b82525050565b60006020820190506102946000830184610243565b92915050565b60006040820190506102af6000830185610243565b6102bc6020830184610270565b9392505050565b60006020820190506102d86000830184610252565b92915050565b60006020820190506102f36000830184610261565b92915050565b60006103048261030b565b9050919050565b600073ffffffffffffffffffffffffffffffffffffffff82169050919050565b6000819050919050565b600061034082610347565b9050919050565b60006103528261030b565b9050919050565b60006103648261036b565b9050919050565b60006103768261030b565b9050919050565b600080fd5b61038b8161032b565b811461039657600080fd5b5056fea2646970667358221220485aa7c56d4a433107c515381696200852e534e033b0e6d14981f1cd3d97731c64736f6c63430008060033a2646970667358221220f4bde86206e152090be7b87ee9f286e902f9562d93669e6d472aabf878a11dc064736f6c63430008060033",
  "immutableReferences": {},
  "source": "//SPDX-License-Identifier: UNLICENSED\npragma solidity >=0.7.0 <0.9.0;\nimport \"./ReceiverFactory.sol\";\nimport \"./Admin.sol\";\n// Contract that creates givers\n// needs to contain an idenitifier\ncontract Giver {\n\n    GiverFactory public ownerGiver;\n    Admin public admin;\n    address public fundsPoolAddress;\n    event ValueReceived(address user, uint amount);\n\n    constructor(GiverFactory ownerGiver_, address fundsPoolAddress_, Admin admin_) payable {\n        ownerGiver = ownerGiver_;\n        fundsPoolAddress = fundsPoolAddress_;\n        admin = admin_;\n    }\n\n    // Gives the giver the funds\n    receive() external payable {\n        emit ValueReceived(msg.sender, msg.value);\n    }\n\n    function giveFunds(uint amount) public payable {\n        payable(fundsPoolAddress).transfer(amount);\n    }\n\n}\n\ncontract GiverFactory {\n\n    address public owner;\n    Admin public admin;\n    address public fundsPool;\n    mapping(address => bool) givers;\n    uint public numberOfGivers;\n\n    constructor(Admin admin_, address fundsPool_) payable {\n        owner = msg.sender;\n        admin  = admin_;\n        fundsPool = fundsPool_;\n    }\n\n    function creategiver() public onlyOwner returns (address) {\n        Giver child = new Giver(this, address(fundsPool), admin);\n        givers[address(child)]  = true;\n        numberOfGivers += 1;\n        return address(child);\n    }\n\n    modifier onlyOwner() {\n        require(msg.sender == owner);\n        _;\n    }\n\n}\n",
  "sourcePath": "/Users/dylan/Library/Mobile Documents/com~apple~CloudDocs/Developer/UNSW/COMP6452_Blockchain_Architecture/COMP6452-HelpChain/contracts/GiverFactory.sol",
  "compiler": {
    "name": "solc",
    "version": "0.8.6+commit.11564f7e.Emscripten.clang"
  },
  "schemaVersion": "3.4.2",
  "updatedAt": "2021-08-08T11:16:54.189Z",
  "networkType": "ethereum",
  "devdoc": {
    "kind": "dev",
    "methods": {},
    "version": 1
  },
  "userdoc": {
    "kind": "user",
    "methods": {},
    "version": 1
  }
}