{
  "contractName": "Receiver",
  "abi": [
    {
      "inputs": [
        {
          "internalType": "address",
          "name": "owner_",
          "type": "address"
        },
        {
          "internalType": "address",
          "name": "fundsPoolAddress_",
          "type": "address"
        }
      ],
      "stateMutability": "nonpayable",
      "type": "constructor"
    },
    {
      "anonymous": false,
      "inputs": [
        {
          "indexed": false,
          "internalType": "address",
          "name": "user",
          "type": "address"
        },
        {
          "indexed": false,
          "internalType": "uint256",
          "name": "amount",
          "type": "uint256"
        }
      ],
      "name": "ValueReceived",
      "type": "event"
    },
    {
      "inputs": [],
      "name": "funds",
      "outputs": [
        {
          "internalType": "uint256",
          "name": "",
          "type": "uint256"
        }
      ],
      "stateMutability": "view",
      "type": "function"
    },
    {
      "inputs": [],
      "name": "fundsPoolAddress",
      "outputs": [
        {
          "internalType": "address",
          "name": "",
          "type": "address"
        }
      ],
      "stateMutability": "view",
      "type": "function"
    },
    {
      "inputs": [],
      "name": "owner",
      "outputs": [
        {
          "internalType": "address",
          "name": "",
          "type": "address"
        }
      ],
      "stateMutability": "view",
      "type": "function"
    },
    {
      "inputs": [],
      "name": "ownerReceiver",
      "outputs": [
        {
          "internalType": "address",
          "name": "",
          "type": "address"
        }
      ],
      "stateMutability": "view",
      "type": "function"
    },
    {
      "stateMutability": "payable",
      "type": "receive"
    },
    {
      "inputs": [
        {
          "internalType": "uint256",
          "name": "cost",
          "type": "uint256"
        },
        {
          "internalType": "address",
          "name": "to_",
          "type": "address"
        }
      ],
      "name": "spendFunds",
      "outputs": [],
      "stateMutability": "payable",
      "type": "function"
    },
    {
      "inputs": [
        {
          "internalType": "contract Subsidiary",
          "name": "toSend",
          "type": "address"
        },
        {
          "internalType": "uint256",
          "name": "tx_amount",
          "type": "uint256"
        }
      ],
      "name": "sendSubFunds",
      "outputs": [
        {
          "internalType": "bool",
          "name": "",
          "type": "bool"
        }
      ],
      "stateMutability": "payable",
      "type": "function"
    }
  ],
  "bytecode": "0x608060405234801561001057600080fd5b506040516109bb3803806109bb83398181016040528101906100329190610110565b81600160006101000a81548173ffffffffffffffffffffffffffffffffffffffff021916908373ffffffffffffffffffffffffffffffffffffffff160217905550336000806101000a81548173ffffffffffffffffffffffffffffffffffffffff021916908373ffffffffffffffffffffffffffffffffffffffff16021790555080600260006101000a81548173ffffffffffffffffffffffffffffffffffffffff021916908373ffffffffffffffffffffffffffffffffffffffff160217905550505061019e565b60008151905061010a81610187565b92915050565b6000806040838503121561012757610126610182565b5b6000610135858286016100fb565b9250506020610146858286016100fb565b9150509250929050565b600061015b82610162565b9050919050565b600073ffffffffffffffffffffffffffffffffffffffff82169050919050565b600080fd5b61019081610150565b811461019b57600080fd5b50565b61080e806101ad6000396000f3fe6080604052600436106100595760003560e01c8063025ee943146100b757806353c3d2f3146100d35780638da5cb5b14610103578063a039fb7f1461012e578063c89f2ce414610159578063f5e944d514610184576100b2565b366100b25734600360008282546100709190610603565b925050819055507f7e71433ddf847725166244795048ecf3e3f9f35628254ecbf73605666423349333346040516100a8929190610573565b60405180910390a1005b600080fd5b6100d160048036038101906100cc91906104c8565b6101af565b005b6100ed60048036038101906100e89190610488565b6102c3565b6040516100fa919061059c565b60405180910390f35b34801561010f57600080fd5b50610118610391565b6040516101259190610558565b60405180910390f35b34801561013a57600080fd5b506101436103b7565b6040516101509190610558565b60405180910390f35b34801561016557600080fd5b5061016e6103db565b60405161017b91906105d7565b60405180910390f35b34801561019057600080fd5b506101996103e1565b6040516101a69190610558565b60405180910390f35b60008054906101000a900473ffffffffffffffffffffffffffffffffffffffff1673ffffffffffffffffffffffffffffffffffffffff163373ffffffffffffffffffffffffffffffffffffffff1614806102565750600160009054906101000a900473ffffffffffffffffffffffffffffffffffffffff1673ffffffffffffffffffffffffffffffffffffffff163373ffffffffffffffffffffffffffffffffffffffff16145b61025f57600080fd5b81600360008282546102719190610659565b925050819055508073ffffffffffffffffffffffffffffffffffffffff166108fc839081150290604051600060405180830381858888f193505050501580156102be573d6000803e3d6000fd5b505050565b600081471015610308576040517f08c379a00000000000000000000000000000000000000000000000000000000081526004016102ff906105b7565b60405180910390fd5b60008373ffffffffffffffffffffffffffffffffffffffff1663b119a9d66040518163ffffffff1660e01b815260040160206040518083038186803b15801561035057600080fd5b505afa158015610364573d6000803e3d6000fd5b505050506040513d601f19601f82011682018060405250810190610388919061045b565b90505092915050565b600160009054906101000a900473ffffffffffffffffffffffffffffffffffffffff1681565b60008054906101000a900473ffffffffffffffffffffffffffffffffffffffff1681565b60035481565b600260009054906101000a900473ffffffffffffffffffffffffffffffffffffffff1681565b6000813590506104168161077c565b92915050565b60008151905061042b81610793565b92915050565b600081359050610440816107aa565b92915050565b600081359050610455816107c1565b92915050565b60006020828403121561047157610470610728565b5b600061047f8482850161041c565b91505092915050565b6000806040838503121561049f5761049e610728565b5b60006104ad85828601610431565b92505060206104be85828601610446565b9150509250929050565b600080604083850312156104df576104de610728565b5b60006104ed85828601610446565b92505060206104fe85828601610407565b9150509250929050565b6105118161068d565b82525050565b610520816106b1565b82525050565b6000610533602c836105f2565b915061053e8261072d565b604082019050919050565b610552816106ef565b82525050565b600060208201905061056d6000830184610508565b92915050565b60006040820190506105886000830185610508565b6105956020830184610549565b9392505050565b60006020820190506105b16000830184610517565b92915050565b600060208201905081810360008301526105d081610526565b9050919050565b60006020820190506105ec6000830184610549565b92915050565b600082825260208201905092915050565b600061060e826106ef565b9150610619836106ef565b9250827fffffffffffffffffffffffffffffffffffffffffffffffffffffffffffffffff0382111561064e5761064d6106f9565b5b828201905092915050565b6000610664826106ef565b915061066f836106ef565b925082821015610682576106816106f9565b5b828203905092915050565b6000610698826106cf565b9050919050565b60006106aa826106cf565b9050919050565b60008115159050919050565b60006106c88261069f565b9050919050565b600073ffffffffffffffffffffffffffffffffffffffff82169050919050565b6000819050919050565b7f4e487b7100000000000000000000000000000000000000000000000000000000600052601160045260246000fd5b600080fd5b7f526563656976657220636f6e747261637420646f6573206e6f7420686176652060008201527f656e6f7567682066756e64730000000000000000000000000000000000000000602082015250565b6107858161068d565b811461079057600080fd5b50565b61079c8161069f565b81146107a757600080fd5b50565b6107b3816106bd565b81146107be57600080fd5b50565b6107ca816106ef565b81146107d557600080fd5b5056fea264697066735822122060bc56e81cfd0c8726abb08dc46f716d8dc34016350a48a4090c826e6bdfe31064736f6c63430008060033",
  "immutableReferences": {},
  "source": "pragma solidity >=0.7.0 <0.9.0;\nimport \"./CorporateFactory.sol\";\n// Contract that funds are received at\n// needs to contain an idenitifier\ncontract Receiver {\n\n    address public ownerReceiver;\n    address public owner;\n    address public fundsPoolAddress;\n    uint public funds;\n    event ValueReceived(address user, uint amount);\n\n\n\n    constructor(address owner_, address fundsPoolAddress_) {\n        owner = owner_;\n        ownerReceiver = msg.sender;\n        fundsPoolAddress = fundsPoolAddress_;\n    }\n\n    // Gives the receiver the funds\n    receive() external payable {\n        funds += msg.value;\n        emit ValueReceived(msg.sender, msg.value);\n    }\n\n    function spendFunds(uint cost, address to_) public payable onlyOwner {\n        funds -= cost;\n        payable(to_).transfer(cost);\n    }\n\n\n    // this function is used to send Subsidiaries funds when a transaction is made\n    function sendSubFunds(Subsidiary toSend, uint tx_amount) public payable returns(bool){\n        require(address(this).balance >= tx_amount, \"Receiver contract does not have enough funds\");\n\n        //get the Corporate parent of the subsidiary \n        address corp = address(toSend.parent_());\n\n        //check if the corporate is valid through the corporate factory\n\n    }\n\n    modifier onlyFundsPool() {\n        require(msg.sender == fundsPoolAddress);\n        _;\n    }\n\n    modifier onlyOwner() {\n        require(msg.sender == ownerReceiver || msg.sender == owner);\n        _;\n    }\n}\n\ncontract ReceiverFactory {\n\n    address public fundsPool;\n    address public owner;\n    Receiver[] public receiver_array;\n    mapping(address=> bool) public receivers;\n    address public corporateFactory;\n\n    constructor(address fundsPool_) {\n        fundsPool = fundsPool_;\n        owner = msg.sender;\n    }\n\n    function createreceiver() public onlyOwner returns (address) {\n        Receiver child = new Receiver(address(this), address(fundsPool));\n        receivers[address(child)] = true;\n        receiver_array.push(child);\n        return address(child);\n    }\n\n    function checkReceiver(address toCheck) external view returns (bool){\n        if (receivers[toCheck] == true ){\n            return true;\n        }\n            return false;\n    }\n\n    function updateCorporateFactory(address corp) public onlyOwner {\n        corporateFactory = corp;\n    }\n\n    function getReceiver(uint index) public view returns(address){\n        return address(receiver_array[index]);\n    }\n\n    function getNumOfReceivers() public view returns(uint){\n        return receiver_array.length;\n    }\n\n    modifier onlyOwner() {\n        require(msg.sender ==  owner);\n        _;\n    }\n\n}\n",
  "sourcePath": "/Users/Will/Documents/University /Final Year/T2/P2/COMP6452-HelpChain/contracts/ReceiverFactory.sol",
  "compiler": {
    "name": "solc",
    "version": "0.8.6+commit.11564f7e.Emscripten.clang"
  },
  "schemaVersion": "3.4.2",
  "updatedAt": "2021-07-29T03:31:43.257Z",
  "networkType": "ethereum",
  "devdoc": {
    "kind": "dev",
    "methods": {},
    "version": 1
  },
  "userdoc": {
    "kind": "user",
    "methods": {},
    "version": 1
  }
}