{
  "contractName": "ReceiverFactory",
  "abi": [
    {
      "inputs": [
        {
          "internalType": "contract Admin",
          "name": "admin_",
          "type": "address"
        }
      ],
      "stateMutability": "nonpayable",
      "type": "constructor"
    },
    {
      "inputs": [],
      "name": "admin",
      "outputs": [
        {
          "internalType": "contract Admin",
          "name": "",
          "type": "address"
        }
      ],
      "stateMutability": "view",
      "type": "function",
      "constant": true
    },
    {
      "inputs": [],
      "name": "corporateFactory",
      "outputs": [
        {
          "internalType": "address",
          "name": "",
          "type": "address"
        }
      ],
      "stateMutability": "view",
      "type": "function",
      "constant": true
    },
    {
      "inputs": [],
      "name": "owner",
      "outputs": [
        {
          "internalType": "address",
          "name": "",
          "type": "address"
        }
      ],
      "stateMutability": "view",
      "type": "function",
      "constant": true
    },
    {
      "inputs": [
        {
          "internalType": "uint256",
          "name": "",
          "type": "uint256"
        }
      ],
      "name": "receiver_array",
      "outputs": [
        {
          "internalType": "contract Receiver",
          "name": "",
          "type": "address"
        }
      ],
      "stateMutability": "view",
      "type": "function",
      "constant": true
    },
    {
      "inputs": [
        {
          "internalType": "address",
          "name": "",
          "type": "address"
        }
      ],
      "name": "receivers",
      "outputs": [
        {
          "internalType": "bool",
          "name": "",
          "type": "bool"
        }
      ],
      "stateMutability": "view",
      "type": "function",
      "constant": true
    },
    {
      "inputs": [],
      "name": "createreceiver",
      "outputs": [
        {
          "internalType": "address",
          "name": "",
          "type": "address"
        }
      ],
      "stateMutability": "nonpayable",
      "type": "function"
    },
    {
      "inputs": [
        {
          "internalType": "address",
          "name": "toCheck",
          "type": "address"
        }
      ],
      "name": "checkReceiver",
      "outputs": [
        {
          "internalType": "bool",
          "name": "",
          "type": "bool"
        }
      ],
      "stateMutability": "view",
      "type": "function",
      "constant": true
    },
    {
      "inputs": [
        {
          "internalType": "address",
          "name": "corp",
          "type": "address"
        }
      ],
      "name": "updateCorporateFactory",
      "outputs": [],
      "stateMutability": "nonpayable",
      "type": "function"
    },
    {
      "inputs": [
        {
          "internalType": "uint256",
          "name": "index",
          "type": "uint256"
        }
      ],
      "name": "getReceiver",
      "outputs": [
        {
          "internalType": "address",
          "name": "",
          "type": "address"
        }
      ],
      "stateMutability": "view",
      "type": "function",
      "constant": true
    },
    {
      "inputs": [],
      "name": "getNumOfReceivers",
      "outputs": [
        {
          "internalType": "uint256",
          "name": "",
          "type": "uint256"
        }
      ],
      "stateMutability": "view",
      "type": "function",
      "constant": true
    }
  ],
  "bytecode": "0x608060405234801561001057600080fd5b50604051611a20380380611a20833981810160405281019061003291906100ce565b80600160006101000a81548173ffffffffffffffffffffffffffffffffffffffff021916908373ffffffffffffffffffffffffffffffffffffffff160217905550336000806101000a81548173ffffffffffffffffffffffffffffffffffffffff021916908373ffffffffffffffffffffffffffffffffffffffff1602179055505061015b565b6000815190506100c881610144565b92915050565b6000602082840312156100e4576100e361013f565b5b60006100f2848285016100b9565b91505092915050565b60006101068261011f565b9050919050565b6000610118826100fb565b9050919050565b600073ffffffffffffffffffffffffffffffffffffffff82169050919050565b600080fd5b61014d8161010d565b811461015857600080fd5b50565b6118b68061016a6000396000f3fe608060405234801561001057600080fd5b506004361061009e5760003560e01c8063a4a7e8ef11610066578063a4a7e8ef1461015d578063b34485ce1461017b578063d78cc07714610197578063f4d76499146101c7578063f851a440146101f75761009e565b80630cb8150f146100a35780630f285b2a146100d35780633dd00861146100f15780634979716d146101215780638da5cb5b1461013f575b600080fd5b6100bd60048036038101906100b891906106a1565b610215565b6040516100ca9190610761565b60405180910390f35b6100db610235565b6040516100e891906107b2565b60405180910390f35b61010b600480360381019061010691906106a1565b610242565b6040516101189190610761565b60405180910390f35b6101296102b0565b6040516101369190610746565b60405180910390f35b6101476102d6565b6040516101549190610746565b60405180910390f35b6101656102fa565b6040516101729190610746565b60405180910390f35b610195600480360381019061019091906106a1565b6104c9565b005b6101b160048036038101906101ac91906106ce565b6105bd565b6040516101be9190610797565b60405180910390f35b6101e160048036038101906101dc91906106ce565b6105fc565b6040516101ee9190610746565b60405180910390f35b6101ff610644565b60405161020c919061077c565b60405180910390f35b60036020528060005260406000206000915054906101000a900460ff1681565b6000600280549050905090565b600060011515600360008473ffffffffffffffffffffffffffffffffffffffff1673ffffffffffffffffffffffffffffffffffffffff16815260200190815260200160002060009054906101000a900460ff16151514156102a657600190506102ab565b600090505b919050565b600460009054906101000a900473ffffffffffffffffffffffffffffffffffffffff1681565b60008054906101000a900473ffffffffffffffffffffffffffffffffffffffff1681565b60008060009054906101000a900473ffffffffffffffffffffffffffffffffffffffff1673ffffffffffffffffffffffffffffffffffffffff163373ffffffffffffffffffffffffffffffffffffffff1614806103a45750600160009054906101000a900473ffffffffffffffffffffffffffffffffffffffff1673ffffffffffffffffffffffffffffffffffffffff163373ffffffffffffffffffffffffffffffffffffffff16145b6103ad57600080fd5b6000600160009054906101000a900473ffffffffffffffffffffffffffffffffffffffff166040516103de9061066a565b6103e8919061077c565b604051809103906000f080158015610404573d6000803e3d6000fd5b5090506001600360008373ffffffffffffffffffffffffffffffffffffffff1673ffffffffffffffffffffffffffffffffffffffff16815260200190815260200160002060006101000a81548160ff0219169083151502179055506002819080600181540180825580915050600190039060005260206000200160009091909190916101000a81548173ffffffffffffffffffffffffffffffffffffffff021916908373ffffffffffffffffffffffffffffffffffffffff1602179055508091505090565b60008054906101000a900473ffffffffffffffffffffffffffffffffffffffff1673ffffffffffffffffffffffffffffffffffffffff163373ffffffffffffffffffffffffffffffffffffffff1614806105705750600160009054906101000a900473ffffffffffffffffffffffffffffffffffffffff1673ffffffffffffffffffffffffffffffffffffffff163373ffffffffffffffffffffffffffffffffffffffff16145b61057957600080fd5b80600460006101000a81548173ffffffffffffffffffffffffffffffffffffffff021916908373ffffffffffffffffffffffffffffffffffffffff16021790555050565b600281815481106105cd57600080fd5b906000526020600020016000915054906101000a900473ffffffffffffffffffffffffffffffffffffffff1681565b6000600282815481106106125761061161085d565b5b9060005260206000200160009054906101000a900473ffffffffffffffffffffffffffffffffffffffff169050919050565b600160009054906101000a900473ffffffffffffffffffffffffffffffffffffffff1681565b610fc1806108c083390190565b60008135905061068681610891565b92915050565b60008135905061069b816108a8565b92915050565b6000602082840312156106b7576106b661088c565b5b60006106c584828501610677565b91505092915050565b6000602082840312156106e4576106e361088c565b5b60006106f28482850161068c565b91505092915050565b610704816107cd565b82525050565b610713816107df565b82525050565b61072281610815565b82525050565b61073181610839565b82525050565b6107408161080b565b82525050565b600060208201905061075b60008301846106fb565b92915050565b6000602082019050610776600083018461070a565b92915050565b60006020820190506107916000830184610719565b92915050565b60006020820190506107ac6000830184610728565b92915050565b60006020820190506107c76000830184610737565b92915050565b60006107d8826107eb565b9050919050565b60008115159050919050565b600073ffffffffffffffffffffffffffffffffffffffff82169050919050565b6000819050919050565b600061082082610827565b9050919050565b6000610832826107eb565b9050919050565b60006108448261084b565b9050919050565b6000610856826107eb565b9050919050565b7f4e487b7100000000000000000000000000000000000000000000000000000000600052603260045260246000fd5b600080fd5b61089a816107cd565b81146108a557600080fd5b50565b6108b18161080b565b81146108bc57600080fd5b5056fe60806040523480156200001157600080fd5b5060405162000fc138038062000fc18339818101604052810190620000379190620000d6565b80600160006101000a81548173ffffffffffffffffffffffffffffffffffffffff021916908373ffffffffffffffffffffffffffffffffffffffff160217905550336000806101000a81548173ffffffffffffffffffffffffffffffffffffffff021916908373ffffffffffffffffffffffffffffffffffffffff160217905550506200016f565b600081519050620000d08162000155565b92915050565b600060208284031215620000ef57620000ee62000150565b5b6000620000ff84828501620000bf565b91505092915050565b6000620001158262000130565b9050919050565b6000620001298262000108565b9050919050565b600073ffffffffffffffffffffffffffffffffffffffff82169050919050565b600080fd5b62000160816200011c565b81146200016c57600080fd5b50565b610e42806200017f6000396000f3fe60806040526004361061004e5760003560e01c8063025ee943146100ac57806353c3d2f3146100c8578063a039fb7f146100f8578063c89f2ce414610123578063f851a4401461014e576100a7565b366100a75734600260008282546100659190610b6f565b925050819055507f7e71433ddf847725166244795048ecf3e3f9f35628254ecbf736056664233493333460405161009d929190610a84565b60405180910390a1005b600080fd5b6100c660048036038101906100c19190610984565b610179565b005b6100e260048036038101906100dd9190610917565b61028d565b6040516100ef9190610aad565b60405180910390f35b34801561010457600080fd5b5061010d61076b565b60405161011a9190610a69565b60405180910390f35b34801561012f57600080fd5b5061013861078f565b6040516101459190610b43565b60405180910390f35b34801561015a57600080fd5b50610163610795565b6040516101709190610ac8565b60405180910390f35b60008054906101000a900473ffffffffffffffffffffffffffffffffffffffff1673ffffffffffffffffffffffffffffffffffffffff163373ffffffffffffffffffffffffffffffffffffffff1614806102205750600160009054906101000a900473ffffffffffffffffffffffffffffffffffffffff1673ffffffffffffffffffffffffffffffffffffffff163373ffffffffffffffffffffffffffffffffffffffff16145b61022957600080fd5b816002600082825461023b9190610bc5565b925050819055508073ffffffffffffffffffffffffffffffffffffffff166108fc839081150290604051600060405180830381858888f19350505050158015610288573d6000803e3d6000fd5b505050565b6000814710156102d2576040517f08c379a00000000000000000000000000000000000000000000000000000000081526004016102c990610ae3565b60405180910390fd5b60008373ffffffffffffffffffffffffffffffffffffffff1663b119a9d66040518163ffffffff1660e01b815260040160206040518083038186803b15801561031a57600080fd5b505afa15801561032e573d6000803e3d6000fd5b505050506040513d601f19601f8201168201806040525081019061035291906108ea565b90506000600160009054906101000a900473ffffffffffffffffffffffffffffffffffffffff1673ffffffffffffffffffffffffffffffffffffffff16634979716d6040518163ffffffff1660e01b815260040160206040518083038186803b1580156103be57600080fd5b505afa1580156103d2573d6000803e3d6000fd5b505050506040513d601f19601f820116820180604052508101906103f691906108bd565b9050600115158173ffffffffffffffffffffffffffffffffffffffff1663dad154028473ffffffffffffffffffffffffffffffffffffffff166334929e9a6040518163ffffffff1660e01b815260040160206040518083038186803b15801561045e57600080fd5b505afa158015610472573d6000803e3d6000fd5b505050506040513d601f19601f820116820180604052508101906104969190610957565b6040518263ffffffff1660e01b81526004016104b29190610b43565b60206040518083038186803b1580156104ca57600080fd5b505afa1580156104de573d6000803e3d6000fd5b505050506040513d601f19601f820116820180604052508101906105029190610890565b151514610544576040517f08c379a000000000000000000000000000000000000000000000000000000000815260040161053b90610b03565b60405180910390fd5b600115158173ffffffffffffffffffffffffffffffffffffffff1663010d66638473ffffffffffffffffffffffffffffffffffffffff166334929e9a6040518163ffffffff1660e01b815260040160206040518083038186803b1580156105aa57600080fd5b505afa1580156105be573d6000803e3d6000fd5b505050506040513d601f19601f820116820180604052508101906105e29190610957565b6040518263ffffffff1660e01b81526004016105fe9190610b43565b60206040518083038186803b15801561061657600080fd5b505afa15801561062a573d6000803e3d6000fd5b505050506040513d601f19601f8201168201806040525081019061064e9190610863565b73ffffffffffffffffffffffffffffffffffffffff16636fdbaf43876040518263ffffffff1660e01b81526004016106869190610a69565b60206040518083038186803b15801561069e57600080fd5b505afa1580156106b2573d6000803e3d6000fd5b505050506040513d601f19601f820116820180604052508101906106d69190610890565b151514610718576040517f08c379a000000000000000000000000000000000000000000000000000000000815260040161070f90610b23565b60405180910390fd5b8473ffffffffffffffffffffffffffffffffffffffff166108fc859081150290604051600060405180830381858888f1935050505015801561075e573d6000803e3d6000fd5b5060019250505092915050565b60008054906101000a900473ffffffffffffffffffffffffffffffffffffffff1681565b60025481565b600160009054906101000a900473ffffffffffffffffffffffffffffffffffffffff1681565b6000813590506107ca81610d82565b92915050565b6000815190506107df81610d82565b92915050565b6000815190506107f481610d99565b92915050565b60008151905061080981610db0565b92915050565b60008151905061081e81610dc7565b92915050565b60008135905061083381610dde565b92915050565b60008135905061084881610df5565b92915050565b60008151905061085d81610df5565b92915050565b60006020828403121561087957610878610cdc565b5b6000610887848285016107d0565b91505092915050565b6000602082840312156108a6576108a5610cdc565b5b60006108b4848285016107e5565b91505092915050565b6000602082840312156108d3576108d2610cdc565b5b60006108e1848285016107fa565b91505092915050565b600060208284031215610900576108ff610cdc565b5b600061090e8482850161080f565b91505092915050565b6000806040838503121561092e5761092d610cdc565b5b600061093c85828601610824565b925050602061094d85828601610839565b9150509250929050565b60006020828403121561096d5761096c610cdc565b5b600061097b8482850161084e565b91505092915050565b6000806040838503121561099b5761099a610cdc565b5b60006109a985828601610839565b92505060206109ba858286016107bb565b9150509250929050565b6109cd81610bf9565b82525050565b6109dc81610c1d565b82525050565b6109eb81610c89565b82525050565b60006109fe602c83610b5e565b9150610a0982610ce1565b604082019050919050565b6000610a21601683610b5e565b9150610a2c82610d30565b602082019050919050565b6000610a44601683610b5e565b9150610a4f82610d59565b602082019050919050565b610a6381610c7f565b82525050565b6000602082019050610a7e60008301846109c4565b92915050565b6000604082019050610a9960008301856109c4565b610aa66020830184610a5a565b9392505050565b6000602082019050610ac260008301846109d3565b92915050565b6000602082019050610add60008301846109e2565b92915050565b60006020820190508181036000830152610afc816109f1565b9050919050565b60006020820190508181036000830152610b1c81610a14565b9050919050565b60006020820190508181036000830152610b3c81610a37565b9050919050565b6000602082019050610b586000830184610a5a565b92915050565b600082825260208201905092915050565b6000610b7a82610c7f565b9150610b8583610c7f565b9250827fffffffffffffffffffffffffffffffffffffffffffffffffffffffffffffffff03821115610bba57610bb9610cad565b5b828201905092915050565b6000610bd082610c7f565b9150610bdb83610c7f565b925082821015610bee57610bed610cad565b5b828203905092915050565b6000610c0482610c5f565b9050919050565b6000610c1682610c5f565b9050919050565b60008115159050919050565b6000610c3482610bf9565b9050919050565b6000610c4682610bf9565b9050919050565b6000610c5882610c0b565b9050919050565b600073ffffffffffffffffffffffffffffffffffffffff82169050919050565b6000819050919050565b6000610c9482610c9b565b9050919050565b6000610ca682610c5f565b9050919050565b7f4e487b7100000000000000000000000000000000000000000000000000000000600052601160045260246000fd5b600080fd5b7f526563656976657220636f6e747261637420646f6573206e6f7420686176652060008201527f656e6f7567682066756e64730000000000000000000000000000000000000000602082015250565b7f4e6f742076616c696420636f72706f7261746520494400000000000000000000600082015250565b7f4e6f7420612076616c6964207375627369646961727900000000000000000000600082015250565b610d8b81610bf9565b8114610d9657600080fd5b50565b610da281610c1d565b8114610dad57600080fd5b50565b610db981610c29565b8114610dc457600080fd5b50565b610dd081610c3b565b8114610ddb57600080fd5b50565b610de781610c4d565b8114610df257600080fd5b50565b610dfe81610c7f565b8114610e0957600080fd5b5056fea2646970667358221220d03d05b54c87f8223dccbaf94593813b8337602fc63b9a3b5aa82f0d7ff963e664736f6c63430008060033a2646970667358221220c28a784fc3229f6992b9fa2d5d8c8ac09e4d8ee18e4fa323e244eb10483d0afe64736f6c63430008060033",
  "immutableReferences": {},
  "source": "pragma solidity >=0.7.0 <0.9.0;\nimport \"./CorporateFactory.sol\";\nimport \"./Admin.sol\";\n\n// Contract that funds are received at\n// needs to contain an idenitifier\ncontract Receiver {\n\n    address public ownerReceiver;\n    Admin public admin;\n    uint public funds;\n    event ValueReceived(address user, uint amount);\n\n\n\n    constructor(Admin admin_) {\n        admin = admin_;\n        ownerReceiver = msg.sender;\n    }\n\n    // Gives the receiver the funds\n    receive() external payable {\n        funds += msg.value;\n        emit ValueReceived(msg.sender, msg.value);\n    }\n\n    function spendFunds(uint cost, address to_) public payable onlyOwner {\n        funds -= cost;\n        payable(to_).transfer(cost);\n    }\n\n\n    // this function is used to send Subsidiaries funds when a transaction is made\n    function sendSubFunds(Subsidiary toSend, uint tx_amount) public payable returns(bool){\n        require(address(this).balance >= tx_amount, \"Receiver contract does not have enough funds\");\n\n        //get the Corporate parent of the subsidiary \n        Corporate corp = toSend.parent_();\n        //get the address of the corporate Factory \n        CorporateFactory corp_fac = admin.corporateFactory();\n        //check if the corporate is valid through the corporate factory\n        require(corp_fac.checkIfCorporateValid(corp.corporate_id()) == true, \"Not valid corporate ID\");\n        //check if the subsidiary is valid for the corporate \n        require(Corporate(corp_fac.getCorporate(corp.corporate_id())).checkIfSubsidiaryValid(address(toSend)) == true, \"Not a valid subsidiary\");\n\n        // send the requested funds \n        payable(toSend).transfer(tx_amount);\n        return true;\n    \n    }\n\n    modifier onlyOwner() {\n        require(msg.sender == ownerReceiver || msg.sender == address(admin));\n        _;\n    }\n}\n\ncontract ReceiverFactory {\n    address public owner;\n    Admin public admin;\n    Receiver[] public receiver_array;\n    mapping(address=> bool) public receivers;\n    address public corporateFactory;\n\n    constructor(Admin admin_) {\n        admin = admin_;\n        owner = msg.sender;\n    }\n\n    function createreceiver() public onlyOwner returns (address) {\n        Receiver child = new Receiver(admin);\n        receivers[address(child)] = true;\n        receiver_array.push(child);\n        return address(child);\n    }\n\n    function checkReceiver(address toCheck) external view returns (bool){\n        if (receivers[toCheck] == true ){\n            return true;\n        }\n            return false;\n    }\n\n    function updateCorporateFactory(address corp) public onlyOwner {\n        corporateFactory = corp;\n    }\n\n    function getReceiver(uint index) public view returns(address){\n        return address(receiver_array[index]);\n    }\n\n    function getNumOfReceivers() public view returns(uint){\n        return receiver_array.length;\n    }\n\n    modifier onlyOwner() {\n        require(msg.sender ==  owner || msg.sender == address(admin));\n        _;\n    }\n\n}\n",
  "sourcePath": "/Users/dylan/Library/Mobile Documents/com~apple~CloudDocs/Developer/UNSW/COMP6452_Blockchain_Architecture/COMP6452-HelpChain/contracts/ReceiverFactory.sol",
  "compiler": {
    "name": "solc",
    "version": "0.8.6+commit.11564f7e.Emscripten.clang"
  },
  "schemaVersion": "3.4.2",
  "updatedAt": "2021-07-29T06:45:03.770Z",
  "networkType": "ethereum",
  "devdoc": {
    "kind": "dev",
    "methods": {},
    "version": 1
  },
  "userdoc": {
    "kind": "user",
    "methods": {},
    "version": 1
  }
}