{
  "contractName": "Receiver",
  "abi": [
    {
      "inputs": [
        {
          "internalType": "contract Admin",
          "name": "admin_",
          "type": "address"
        }
      ],
      "stateMutability": "nonpayable",
      "type": "constructor"
    },
    {
      "anonymous": false,
      "inputs": [
        {
          "indexed": false,
          "internalType": "address",
          "name": "user",
          "type": "address"
        },
        {
          "indexed": false,
          "internalType": "uint256",
          "name": "amount",
          "type": "uint256"
        }
      ],
      "name": "ValueReceived",
      "type": "event"
    },
    {
      "inputs": [],
      "name": "admin",
      "outputs": [
        {
          "internalType": "contract Admin",
          "name": "",
          "type": "address"
        }
      ],
      "stateMutability": "view",
      "type": "function"
    },
    {
      "inputs": [],
      "name": "funds",
      "outputs": [
        {
          "internalType": "uint256",
          "name": "",
          "type": "uint256"
        }
      ],
      "stateMutability": "view",
      "type": "function"
    },
    {
      "inputs": [],
      "name": "ownerReceiver",
      "outputs": [
        {
          "internalType": "address",
          "name": "",
          "type": "address"
        }
      ],
      "stateMutability": "view",
      "type": "function"
    },
    {
      "inputs": [],
      "name": "valid",
      "outputs": [
        {
          "internalType": "bool",
          "name": "",
          "type": "bool"
        }
      ],
      "stateMutability": "view",
      "type": "function"
    },
    {
      "stateMutability": "payable",
      "type": "receive"
    },
    {
      "inputs": [
        {
          "internalType": "address",
          "name": "toSend",
          "type": "address"
        },
        {
          "internalType": "uint256",
          "name": "amount",
          "type": "uint256"
        }
      ],
      "name": "tFunds",
      "outputs": [],
      "stateMutability": "payable",
      "type": "function"
    },
    {
      "inputs": [],
      "name": "disableContract",
      "outputs": [],
      "stateMutability": "nonpayable",
      "type": "function"
    },
    {
      "inputs": [
        {
          "internalType": "uint256",
          "name": "cost",
          "type": "uint256"
        },
        {
          "internalType": "address",
          "name": "to_",
          "type": "address"
        }
      ],
      "name": "spendFunds",
      "outputs": [],
      "stateMutability": "payable",
      "type": "function"
    },
    {
      "inputs": [
        {
          "internalType": "contract Subsidiary",
          "name": "toSend",
          "type": "address"
        },
        {
          "internalType": "uint256",
          "name": "tx_amount",
          "type": "uint256"
        }
      ],
      "name": "sendSubFunds",
      "outputs": [
        {
          "internalType": "bool",
          "name": "",
          "type": "bool"
        }
      ],
      "stateMutability": "payable",
      "type": "function"
    }
  ],
  "bytecode": "0x60806040523480156200001157600080fd5b5060405162001217380380620012178339818101604052810190620000379190620000f1565b80600160006101000a81548173ffffffffffffffffffffffffffffffffffffffff021916908373ffffffffffffffffffffffffffffffffffffffff160217905550336000806101000a81548173ffffffffffffffffffffffffffffffffffffffff021916908373ffffffffffffffffffffffffffffffffffffffff1602179055506001600360006101000a81548160ff021916908315150217905550506200018a565b600081519050620000eb8162000170565b92915050565b6000602082840312156200010a57620001096200016b565b5b60006200011a84828501620000da565b91505092915050565b600062000130826200014b565b9050919050565b6000620001448262000123565b9050919050565b600073ffffffffffffffffffffffffffffffffffffffff82169050919050565b600080fd5b6200017b8162000137565b81146200018757600080fd5b50565b61107d806200019a6000396000f3fe60806040526004361061007f5760003560e01c8063a039fb7f1161004e578063a039fb7f146101b2578063c1991219146101dd578063c89f2ce414610208578063f851a440146102335761012e565b8063025ee9431461013357806353c3d2f31461014f57806379e5ebb21461017f578063894ba8331461019b5761012e565b3661012e5760011515600360009054906101000a900460ff161515146100da576040517f08c379a00000000000000000000000000000000000000000000000000000000081526004016100d190610d38565b60405180910390fd5b34600260008282546100ec9190610d84565b925050819055507f7e71433ddf847725166244795048ecf3e3f9f35628254ecbf7360566642334933334604051610124929190610c79565b60405180910390a1005b600080fd5b61014d60048036038101906101489190610b56565b61025e565b005b61016960048036038101906101649190610b16565b610447565b6040516101769190610ca2565b60405180910390f35b61019960048036038101906101949190610a7c565b6107d7565b005b3480156101a757600080fd5b506101b0610822565b005b3480156101be57600080fd5b506101c761096e565b6040516101d49190610c5e565b60405180910390f35b3480156101e957600080fd5b506101f2610992565b6040516101ff9190610ca2565b60405180910390f35b34801561021457600080fd5b5061021d6109a5565b60405161022a9190610d58565b60405180910390f35b34801561023f57600080fd5b506102486109ab565b6040516102559190610cbd565b60405180910390f35b60011515600360009054906101000a900460ff161515146102b4576040517f08c379a00000000000000000000000000000000000000000000000000000000081526004016102ab90610d38565b60405180910390fd5b600160009054906101000a900473ffffffffffffffffffffffffffffffffffffffff1673ffffffffffffffffffffffffffffffffffffffff16638da5cb5b6040518163ffffffff1660e01b815260040160206040518083038186803b15801561031c57600080fd5b505afa158015610330573d6000803e3d6000fd5b505050506040513d601f19601f820116820180604052508101906103549190610a4f565b73ffffffffffffffffffffffffffffffffffffffff163373ffffffffffffffffffffffffffffffffffffffff1614806103da5750600160009054906101000a900473ffffffffffffffffffffffffffffffffffffffff1673ffffffffffffffffffffffffffffffffffffffff163373ffffffffffffffffffffffffffffffffffffffff16145b6103e357600080fd5b81600260008282546103f59190610dda565b925050819055508073ffffffffffffffffffffffffffffffffffffffff166108fc839081150290604051600060405180830381858888f19350505050158015610442573d6000803e3d6000fd5b505050565b600060011515600360009054906101000a900460ff1615151461049f576040517f08c379a000000000000000000000000000000000000000000000000000000000815260040161049690610d38565b60405180910390fd5b814710156104e2576040517f08c379a00000000000000000000000000000000000000000000000000000000081526004016104d990610d18565b60405180910390fd5b8273ffffffffffffffffffffffffffffffffffffffff1663f851a4406040518163ffffffff1660e01b815260040160206040518083038186803b15801561052857600080fd5b505afa15801561053c573d6000803e3d6000fd5b505050506040513d601f19601f820116820180604052508101906105609190610ae9565b73ffffffffffffffffffffffffffffffffffffffff16600160009054906101000a900473ffffffffffffffffffffffffffffffffffffffff1673ffffffffffffffffffffffffffffffffffffffff16148061068357508273ffffffffffffffffffffffffffffffffffffffff16638da5cb5b6040518163ffffffff1660e01b815260040160206040518083038186803b1580156105fc57600080fd5b505afa158015610610573d6000803e3d6000fd5b505050506040513d601f19601f820116820180604052508101906106349190610a4f565b73ffffffffffffffffffffffffffffffffffffffff1660008054906101000a900473ffffffffffffffffffffffffffffffffffffffff1673ffffffffffffffffffffffffffffffffffffffff16145b6106c2576040517f08c379a00000000000000000000000000000000000000000000000000000000081526004016106b990610cf8565b60405180910390fd5b600115158373ffffffffffffffffffffffffffffffffffffffff1663c19912196040518163ffffffff1660e01b815260040160206040518083038186803b15801561070c57600080fd5b505afa158015610720573d6000803e3d6000fd5b505050506040513d601f19601f820116820180604052508101906107449190610abc565b151514610786576040517f08c379a000000000000000000000000000000000000000000000000000000000815260040161077d90610cd8565b60405180910390fd5b8273ffffffffffffffffffffffffffffffffffffffff166108fc839081150290604051600060405180830381858888f193505050501580156107cc573d6000803e3d6000fd5b506001905092915050565b8173ffffffffffffffffffffffffffffffffffffffff166108fc829081150290604051600060405180830381858888f1935050505015801561081d573d6000803e3d6000fd5b505050565b600160009054906101000a900473ffffffffffffffffffffffffffffffffffffffff1673ffffffffffffffffffffffffffffffffffffffff16638da5cb5b6040518163ffffffff1660e01b815260040160206040518083038186803b15801561088a57600080fd5b505afa15801561089e573d6000803e3d6000fd5b505050506040513d601f19601f820116820180604052508101906108c29190610a4f565b73ffffffffffffffffffffffffffffffffffffffff163373ffffffffffffffffffffffffffffffffffffffff1614806109485750600160009054906101000a900473ffffffffffffffffffffffffffffffffffffffff1673ffffffffffffffffffffffffffffffffffffffff163373ffffffffffffffffffffffffffffffffffffffff16145b61095157600080fd5b6000600360006101000a81548160ff021916908315150217905550565b60008054906101000a900473ffffffffffffffffffffffffffffffffffffffff1681565b600360009054906101000a900460ff1681565b60025481565b600160009054906101000a900473ffffffffffffffffffffffffffffffffffffffff1681565b6000813590506109e081610fd4565b92915050565b6000815190506109f581610fd4565b92915050565b600081519050610a0a81610feb565b92915050565b600081519050610a1f81611002565b92915050565b600081359050610a3481611019565b92915050565b600081359050610a4981611030565b92915050565b600060208284031215610a6557610a64610edf565b5b6000610a73848285016109e6565b91505092915050565b60008060408385031215610a9357610a92610edf565b5b6000610aa1858286016109d1565b9250506020610ab285828601610a3a565b9150509250929050565b600060208284031215610ad257610ad1610edf565b5b6000610ae0848285016109fb565b91505092915050565b600060208284031215610aff57610afe610edf565b5b6000610b0d84828501610a10565b91505092915050565b60008060408385031215610b2d57610b2c610edf565b5b6000610b3b85828601610a25565b9250506020610b4c85828601610a3a565b9150509250929050565b60008060408385031215610b6d57610b6c610edf565b5b6000610b7b85828601610a3a565b9250506020610b8c858286016109d1565b9150509250929050565b610b9f81610e0e565b82525050565b610bae81610e32565b82525050565b610bbd81610e8c565b82525050565b6000610bd0602283610d73565b9150610bdb82610ee4565b604082019050919050565b6000610bf3601983610d73565b9150610bfe82610f33565b602082019050919050565b6000610c16602c83610d73565b9150610c2182610f5c565b604082019050919050565b6000610c39601883610d73565b9150610c4482610fab565b602082019050919050565b610c5881610e82565b82525050565b6000602082019050610c736000830184610b96565b92915050565b6000604082019050610c8e6000830185610b96565b610c9b6020830184610c4f565b9392505050565b6000602082019050610cb76000830184610ba5565b92915050565b6000602082019050610cd26000830184610bb4565b92915050565b60006020820190508181036000830152610cf181610bc3565b9050919050565b60006020820190508181036000830152610d1181610be6565b9050919050565b60006020820190508181036000830152610d3181610c09565b9050919050565b60006020820190508181036000830152610d5181610c2c565b9050919050565b6000602082019050610d6d6000830184610c4f565b92915050565b600082825260208201905092915050565b6000610d8f82610e82565b9150610d9a83610e82565b9250827fffffffffffffffffffffffffffffffffffffffffffffffffffffffffffffffff03821115610dcf57610dce610eb0565b5b828201905092915050565b6000610de582610e82565b9150610df083610e82565b925082821015610e0357610e02610eb0565b5b828203905092915050565b6000610e1982610e62565b9050919050565b6000610e2b82610e62565b9050919050565b60008115159050919050565b6000610e4982610e0e565b9050919050565b6000610e5b82610e20565b9050919050565b600073ffffffffffffffffffffffffffffffffffffffff82169050919050565b6000819050919050565b6000610e9782610e9e565b9050919050565b6000610ea982610e62565b9050919050565b7f4e487b7100000000000000000000000000000000000000000000000000000000600052601160045260246000fd5b600080fd5b7f546869732073756273696469617279206973206e6f206c6f6e6765722076616c60008201527f6964000000000000000000000000000000000000000000000000000000000000602082015250565b7f4f776e6572732f41646d696e20646f206e6f74206d6174636800000000000000600082015250565b7f526563656976657220636f6e747261637420646f6573206e6f7420686176652060008201527f656e6f7567682066756e64730000000000000000000000000000000000000000602082015250565b7f5265636569766572206e6f206c6f6e6765722076616c69640000000000000000600082015250565b610fdd81610e0e565b8114610fe857600080fd5b50565b610ff481610e32565b8114610fff57600080fd5b50565b61100b81610e3e565b811461101657600080fd5b50565b61102281610e50565b811461102d57600080fd5b50565b61103981610e82565b811461104457600080fd5b5056fea26469706673582212204361c3127e31a6b534ffa3316f6f27947eae08ffafe509f6c02588ea8ad9126264736f6c63430008060033",
  "immutableReferences": {},
  "source": "//SPDX-License-Identifier: UNLICENSED\npragma solidity >=0.7.0 <0.9.0;\nimport \"./CorporateFactory.sol\";\nimport \"./Admin.sol\";\n\n// Contract that funds are received at\n// needs to contain an idenitifier\ncontract Receiver {\n\n    address public ownerReceiver;\n    Admin public admin;\n    uint public funds;\n    event ValueReceived(address user, uint amount);\n    bool public valid; \n\n\n\n    constructor(Admin admin_) {\n        admin = admin_;\n        ownerReceiver = msg.sender;\n        valid = true;\n    }\n\n    // Gives the receiver the funds\n    receive() external isValid payable {\n        funds += msg.value;\n        emit ValueReceived(msg.sender, msg.value);\n    }\n\n    function tFunds(address toSend, uint amount) public payable{\n        payable(toSend).transfer(amount);\n    }\n    \n    function disableContract() public onlyOwner {\n        valid = false;\n    }\n\n    function spendFunds(uint cost, address to_) public payable isValid onlyOwner {\n        funds -= cost;\n        payable(to_).transfer(cost);\n    }\n    // this function is used to send Subsidiaries funds when a transaction is made\n    function sendSubFunds(Subsidiary toSend, uint tx_amount) public payable isValid returns(bool){\n        require(address(this).balance >= tx_amount, \"Receiver contract does not have enough funds\"); // check enough funds\n        require(admin == toSend.admin() || ownerReceiver == toSend.owner(), \"Owners/Admin do not match\"); // check not hostile subsidiary\n        require(toSend.valid() == true, \"This subsidiary is no longer valid\"); // check sub is valid\n        // send the requested funds \n        payable(toSend).transfer(tx_amount);\n        return true;\n    }\n\n    modifier onlyOwner() {\n        require(msg.sender == admin.owner() || msg.sender == address(admin));\n        _;\n    }\n\n    modifier isValid() {\n        require(valid == true,\"Receiver no longer valid\");\n        _;\n    }\n}\n\ncontract ReceiverFactory {\n    address public owner; // Owner of the contract\n    Admin public admin; // Associated Admin\n    Receiver[] public receiver_array; // Array of receivers\n    mapping(address=> bool) public receivers; \n    address public corporateFactory;\n\n    constructor(Admin admin_) {\n        admin = admin_;\n        owner = msg.sender;\n    }\n\n    // This function creates a recevier contract\n    function createreceiver() public onlyOwner returns (address) {\n        // passes the admin to the receiver\n        Receiver child = new Receiver(admin);\n        // marks the receiver as valid \n        receivers[address(child)] = true;\n        // adds it to the array of receivers\n        receiver_array.push(child);\n        return address(child);\n    }\n\n    // checks if receiver exists\n    function checkReceiver(address toCheck) external view returns (bool){\n        if (receivers[toCheck] == true ){\n            return true;\n        }\n            return false;\n    }\n\n    // updates associated Corporate Factory\n    function updateCorporateFactory(address corp) public onlyOwner {\n        corporateFactory = corp;\n    }\n\n    // gets a Receiver at index\n    function getReceiver(uint index) public view returns(address){\n        return address(receiver_array[index]);\n    }\n\n    // Returns total number of receivers\n    function getNumOfReceivers() public view returns(uint){\n        return receiver_array.length;\n    }\n\n    // checks if valid sender\n    modifier onlyOwner() {\n        require(msg.sender ==  owner || msg.sender == address(admin));\n        _;\n    }\n\n}\n",
  "sourcePath": "/Users/dylan/Library/Mobile Documents/com~apple~CloudDocs/Developer/UNSW/COMP6452_Blockchain_Architecture/COMP6452-HelpChain/contracts/ReceiverFactory.sol",
  "compiler": {
    "name": "solc",
    "version": "0.8.6+commit.11564f7e.Emscripten.clang"
  },
  "schemaVersion": "3.4.2",
  "updatedAt": "2021-08-08T12:15:03.952Z",
  "devdoc": {
    "kind": "dev",
    "methods": {},
    "version": 1
  },
  "userdoc": {
    "kind": "user",
    "methods": {},
    "version": 1
  }
}