{
  "contractName": "Receiver",
  "abi": [
    {
      "inputs": [
        {
          "internalType": "contract Admin",
          "name": "admin_",
          "type": "address"
        }
      ],
      "stateMutability": "nonpayable",
      "type": "constructor"
    },
    {
      "anonymous": false,
      "inputs": [
        {
          "indexed": false,
          "internalType": "address",
          "name": "user",
          "type": "address"
        },
        {
          "indexed": false,
          "internalType": "uint256",
          "name": "amount",
          "type": "uint256"
        }
      ],
      "name": "ValueReceived",
      "type": "event"
    },
    {
      "inputs": [],
      "name": "admin",
      "outputs": [
        {
          "internalType": "contract Admin",
          "name": "",
          "type": "address"
        }
      ],
      "stateMutability": "view",
      "type": "function"
    },
    {
      "inputs": [],
      "name": "funds",
      "outputs": [
        {
          "internalType": "uint256",
          "name": "",
          "type": "uint256"
        }
      ],
      "stateMutability": "view",
      "type": "function"
    },
    {
      "inputs": [],
      "name": "ownerReceiver",
      "outputs": [
        {
          "internalType": "address",
          "name": "",
          "type": "address"
        }
      ],
      "stateMutability": "view",
      "type": "function"
    },
    {
      "stateMutability": "payable",
      "type": "receive"
    },
    {
      "inputs": [
        {
          "internalType": "uint256",
          "name": "cost",
          "type": "uint256"
        },
        {
          "internalType": "address",
          "name": "to_",
          "type": "address"
        }
      ],
      "name": "spendFunds",
      "outputs": [],
      "stateMutability": "payable",
      "type": "function"
    },
    {
      "inputs": [
        {
          "internalType": "contract Subsidiary",
          "name": "toSend",
          "type": "address"
        },
        {
          "internalType": "uint256",
          "name": "tx_amount",
          "type": "uint256"
        }
      ],
      "name": "sendSubFunds",
      "outputs": [
        {
          "internalType": "bool",
          "name": "",
          "type": "bool"
        }
      ],
      "stateMutability": "payable",
      "type": "function"
    }
  ],
  "bytecode": "0x608060405234801561001057600080fd5b50604051610d81380380610d81833981810160405281019061003291906100ce565b80600160006101000a81548173ffffffffffffffffffffffffffffffffffffffff021916908373ffffffffffffffffffffffffffffffffffffffff160217905550336000806101000a81548173ffffffffffffffffffffffffffffffffffffffff021916908373ffffffffffffffffffffffffffffffffffffffff1602179055505061015b565b6000815190506100c881610144565b92915050565b6000602082840312156100e4576100e361013f565b5b60006100f2848285016100b9565b91505092915050565b60006101068261011f565b9050919050565b6000610118826100fb565b9050919050565b600073ffffffffffffffffffffffffffffffffffffffff82169050919050565b600080fd5b61014d8161010d565b811461015857600080fd5b50565b610c178061016a6000396000f3fe60806040526004361061004e5760003560e01c8063025ee943146100ac57806353c3d2f3146100c8578063a039fb7f146100f8578063c89f2ce414610123578063f851a4401461014e576100a7565b366100a75734600260008282546100659190610947565b925050819055507f7e71433ddf847725166244795048ecf3e3f9f35628254ecbf736056664233493333460405161009d92919061085c565b60405180910390a1005b600080fd5b6100c660048036038101906100c1919061075c565b610179565b005b6100e260048036038101906100dd919061071c565b61028d565b6040516100ef9190610885565b60405180910390f35b34801561010457600080fd5b5061010d6105c7565b60405161011a9190610841565b60405180910390f35b34801561012f57600080fd5b506101386105eb565b604051610145919061091b565b60405180910390f35b34801561015a57600080fd5b506101636105f1565b60405161017091906108a0565b60405180910390f35b60008054906101000a900473ffffffffffffffffffffffffffffffffffffffff1673ffffffffffffffffffffffffffffffffffffffff163373ffffffffffffffffffffffffffffffffffffffff1614806102205750600160009054906101000a900473ffffffffffffffffffffffffffffffffffffffff1673ffffffffffffffffffffffffffffffffffffffff163373ffffffffffffffffffffffffffffffffffffffff16145b61022957600080fd5b816002600082825461023b919061099d565b925050819055508073ffffffffffffffffffffffffffffffffffffffff166108fc839081150290604051600060405180830381858888f19350505050158015610288573d6000803e3d6000fd5b505050565b6000814710156102d2576040517f08c379a00000000000000000000000000000000000000000000000000000000081526004016102c9906108fb565b60405180910390fd5b8273ffffffffffffffffffffffffffffffffffffffff1663f851a4406040518163ffffffff1660e01b815260040160206040518083038186803b15801561031857600080fd5b505afa15801561032c573d6000803e3d6000fd5b505050506040513d601f19601f8201168201806040525081019061035091906106ef565b73ffffffffffffffffffffffffffffffffffffffff16600160009054906101000a900473ffffffffffffffffffffffffffffffffffffffff1673ffffffffffffffffffffffffffffffffffffffff16148061047357508273ffffffffffffffffffffffffffffffffffffffff16638da5cb5b6040518163ffffffff1660e01b815260040160206040518083038186803b1580156103ec57600080fd5b505afa158015610400573d6000803e3d6000fd5b505050506040513d601f19601f820116820180604052508101906104249190610695565b73ffffffffffffffffffffffffffffffffffffffff1660008054906101000a900473ffffffffffffffffffffffffffffffffffffffff1673ffffffffffffffffffffffffffffffffffffffff16145b6104b2576040517f08c379a00000000000000000000000000000000000000000000000000000000081526004016104a9906108db565b60405180910390fd5b600115158373ffffffffffffffffffffffffffffffffffffffff1663c19912196040518163ffffffff1660e01b815260040160206040518083038186803b1580156104fc57600080fd5b505afa158015610510573d6000803e3d6000fd5b505050506040513d601f19601f8201168201806040525081019061053491906106c2565b151514610576576040517f08c379a000000000000000000000000000000000000000000000000000000000815260040161056d906108bb565b60405180910390fd5b8273ffffffffffffffffffffffffffffffffffffffff166108fc839081150290604051600060405180830381858888f193505050501580156105bc573d6000803e3d6000fd5b506001905092915050565b60008054906101000a900473ffffffffffffffffffffffffffffffffffffffff1681565b60025481565b600160009054906101000a900473ffffffffffffffffffffffffffffffffffffffff1681565b60008135905061062681610b6e565b92915050565b60008151905061063b81610b6e565b92915050565b60008151905061065081610b85565b92915050565b60008151905061066581610b9c565b92915050565b60008135905061067a81610bb3565b92915050565b60008135905061068f81610bca565b92915050565b6000602082840312156106ab576106aa610aa2565b5b60006106b98482850161062c565b91505092915050565b6000602082840312156106d8576106d7610aa2565b5b60006106e684828501610641565b91505092915050565b60006020828403121561070557610704610aa2565b5b600061071384828501610656565b91505092915050565b6000806040838503121561073357610732610aa2565b5b60006107418582860161066b565b925050602061075285828601610680565b9150509250929050565b6000806040838503121561077357610772610aa2565b5b600061078185828601610680565b925050602061079285828601610617565b9150509250929050565b6107a5816109d1565b82525050565b6107b4816109f5565b82525050565b6107c381610a4f565b82525050565b60006107d6602283610936565b91506107e182610aa7565b604082019050919050565b60006107f9601983610936565b915061080482610af6565b602082019050919050565b600061081c602c83610936565b915061082782610b1f565b604082019050919050565b61083b81610a45565b82525050565b6000602082019050610856600083018461079c565b92915050565b6000604082019050610871600083018561079c565b61087e6020830184610832565b9392505050565b600060208201905061089a60008301846107ab565b92915050565b60006020820190506108b560008301846107ba565b92915050565b600060208201905081810360008301526108d4816107c9565b9050919050565b600060208201905081810360008301526108f4816107ec565b9050919050565b600060208201905081810360008301526109148161080f565b9050919050565b60006020820190506109306000830184610832565b92915050565b600082825260208201905092915050565b600061095282610a45565b915061095d83610a45565b9250827fffffffffffffffffffffffffffffffffffffffffffffffffffffffffffffffff0382111561099257610991610a73565b5b828201905092915050565b60006109a882610a45565b91506109b383610a45565b9250828210156109c6576109c5610a73565b5b828203905092915050565b60006109dc82610a25565b9050919050565b60006109ee82610a25565b9050919050565b60008115159050919050565b6000610a0c826109d1565b9050919050565b6000610a1e826109e3565b9050919050565b600073ffffffffffffffffffffffffffffffffffffffff82169050919050565b6000819050919050565b6000610a5a82610a61565b9050919050565b6000610a6c82610a25565b9050919050565b7f4e487b7100000000000000000000000000000000000000000000000000000000600052601160045260246000fd5b600080fd5b7f546869732073756273696469617279206973206e6f206c6f6e6765722076616c60008201527f6964000000000000000000000000000000000000000000000000000000000000602082015250565b7f4f776e6572732f41646d696e20646f206e6f74206d6174636800000000000000600082015250565b7f526563656976657220636f6e747261637420646f6573206e6f7420686176652060008201527f656e6f7567682066756e64730000000000000000000000000000000000000000602082015250565b610b77816109d1565b8114610b8257600080fd5b50565b610b8e816109f5565b8114610b9957600080fd5b50565b610ba581610a01565b8114610bb057600080fd5b50565b610bbc81610a13565b8114610bc757600080fd5b50565b610bd381610a45565b8114610bde57600080fd5b5056fea2646970667358221220bb257699aa0b51c84f0a4198f859c6eda71bddc6c834028236b5df8f355ed04464736f6c63430008060033",
  "immutableReferences": {},
  "source": "//SPDX-License-Identifier: UNLICENSED\npragma solidity >=0.7.0 <0.9.0;\nimport \"./CorporateFactory.sol\";\nimport \"./Admin.sol\";\n\n// Contract that funds are received at\n// needs to contain an idenitifier\ncontract Receiver {\n\n    address public ownerReceiver;\n    Admin public admin;\n    uint public funds;\n    event ValueReceived(address user, uint amount);\n\n\n\n    constructor(Admin admin_) {\n        admin = admin_;\n        ownerReceiver = msg.sender;\n    }\n\n    // Gives the receiver the funds\n    receive() external payable {\n        funds += msg.value;\n        emit ValueReceived(msg.sender, msg.value);\n    }\n\n    function spendFunds(uint cost, address to_) public payable onlyOwner {\n        funds -= cost;\n        payable(to_).transfer(cost);\n    }\n\n\n    // this function is used to send Subsidiaries funds when a transaction is made\n    function sendSubFunds(Subsidiary toSend, uint tx_amount) public payable returns(bool){\n        require(address(this).balance >= tx_amount, \"Receiver contract does not have enough funds\"); // check enough funds\n        require(admin == toSend.admin() || ownerReceiver == toSend.owner(), \"Owners/Admin do not match\"); // check not hostile subsidiary\n        require(toSend.valid() == true, \"This subsidiary is no longer valid\"); // check sub is valid\n        // send the requested funds \n        payable(toSend).transfer(tx_amount);\n        return true;\n    }\n\n    modifier onlyOwner() {\n        require(msg.sender == ownerReceiver || msg.sender == address(admin));\n        _;\n    }\n}\n\ncontract ReceiverFactory {\n    address public owner; // Owner of the contract\n    Admin public admin; // Associated Admin\n    Receiver[] public receiver_array; // Array of receivers\n    mapping(address=> bool) public receivers; \n    address public corporateFactory;\n\n    constructor(Admin admin_) {\n        admin = admin_;\n        owner = msg.sender;\n    }\n\n    // This function creates a recevier contract\n    function createreceiver() public onlyOwner returns (address) {\n        // passes the admin to the receiver\n        Receiver child = new Receiver(admin);\n        // marks the receiver as valid \n        receivers[address(child)] = true;\n        // adds it to the array of receivers\n        receiver_array.push(child);\n        return address(child);\n    }\n\n    // checks if receiver exists\n    function checkReceiver(address toCheck) external view returns (bool){\n        if (receivers[toCheck] == true ){\n            return true;\n        }\n            return false;\n    }\n\n    // updates associated Corporate Factory\n    function updateCorporateFactory(address corp) public onlyOwner {\n        corporateFactory = corp;\n    }\n\n    // gets a Receiver at index\n    function getReceiver(uint index) public view returns(address){\n        return address(receiver_array[index]);\n    }\n\n    // Returns total number of receivers\n    function getNumOfReceivers() public view returns(uint){\n        return receiver_array.length;\n    }\n\n    // checks if valid sender\n    modifier onlyOwner() {\n        require(msg.sender ==  owner || msg.sender == address(admin));\n        _;\n    }\n\n}\n",
  "sourcePath": "/Users/dylan/Library/Mobile Documents/com~apple~CloudDocs/Developer/UNSW/COMP6452_Blockchain_Architecture/COMP6452-HelpChain/contracts/ReceiverFactory.sol",
  "compiler": {
    "name": "solc",
    "version": "0.8.6+commit.11564f7e.Emscripten.clang"
  },
  "schemaVersion": "3.4.2",
  "updatedAt": "2021-08-08T05:05:02.792Z",
  "networkType": "ethereum",
  "devdoc": {
    "kind": "dev",
    "methods": {},
    "version": 1
  },
  "userdoc": {
    "kind": "user",
    "methods": {},
    "version": 1
  }
}