{
  "contractName": "Receiver",
  "abi": [
    {
      "inputs": [
        {
          "internalType": "address",
          "name": "ownerReceiver_",
          "type": "address"
        },
        {
          "internalType": "address",
          "name": "fundsPoolAddress_",
          "type": "address"
        }
      ],
      "stateMutability": "nonpayable",
      "type": "constructor"
    },
    {
      "anonymous": false,
      "inputs": [
        {
          "indexed": false,
          "internalType": "address",
          "name": "user",
          "type": "address"
        },
        {
          "indexed": false,
          "internalType": "uint256",
          "name": "amount",
          "type": "uint256"
        }
      ],
      "name": "ValueReceived",
      "type": "event"
    },
    {
      "inputs": [],
      "name": "funds",
      "outputs": [
        {
          "internalType": "uint256",
          "name": "",
          "type": "uint256"
        }
      ],
      "stateMutability": "view",
      "type": "function"
    },
    {
      "inputs": [],
      "name": "fundsPoolAddress",
      "outputs": [
        {
          "internalType": "address",
          "name": "",
          "type": "address"
        }
      ],
      "stateMutability": "view",
      "type": "function"
    },
    {
      "inputs": [],
      "name": "ownerReceiver",
      "outputs": [
        {
          "internalType": "address",
          "name": "",
          "type": "address"
        }
      ],
      "stateMutability": "view",
      "type": "function"
    },
    {
      "stateMutability": "payable",
      "type": "receive"
    },
    {
      "inputs": [
        {
          "internalType": "uint256",
          "name": "cost",
          "type": "uint256"
        },
        {
          "internalType": "address",
          "name": "to_",
          "type": "address"
        }
      ],
      "name": "spendFunds",
      "outputs": [],
      "stateMutability": "payable",
      "type": "function"
    }
  ],
  "bytecode": "0x608060405234801561001057600080fd5b506040516105fb3803806105fb833981810160405281019061003291906100cf565b816000806101000a81548173ffffffffffffffffffffffffffffffffffffffff021916908373ffffffffffffffffffffffffffffffffffffffff16021790555080600160006101000a81548173ffffffffffffffffffffffffffffffffffffffff021916908373ffffffffffffffffffffffffffffffffffffffff160217905550505061015d565b6000815190506100c981610146565b92915050565b600080604083850312156100e6576100e5610141565b5b60006100f4858286016100ba565b9250506020610105858286016100ba565b9150509250929050565b600061011a82610121565b9050919050565b600073ffffffffffffffffffffffffffffffffffffffff82169050919050565b600080fd5b61014f8161010f565b811461015a57600080fd5b50565b61048f8061016c6000396000f3fe6080604052600436106100435760003560e01c8063025ee943146100a1578063a039fb7f146100bd578063c89f2ce4146100e8578063f5e944d5146101135761009c565b3661009c57346002600082825461005a9190610331565b925050819055507f7e71433ddf847725166244795048ecf3e3f9f35628254ecbf73605666423349333346040516100929291906102ed565b60405180910390a1005b600080fd5b6100bb60048036038101906100b69190610274565b61013e565b005b3480156100c957600080fd5b506100d26101fa565b6040516100df91906102d2565b60405180910390f35b3480156100f457600080fd5b506100fd61021e565b60405161010a9190610316565b60405180910390f35b34801561011f57600080fd5b50610128610224565b60405161013591906102d2565b60405180910390f35b60008054906101000a900473ffffffffffffffffffffffffffffffffffffffff1673ffffffffffffffffffffffffffffffffffffffff163373ffffffffffffffffffffffffffffffffffffffff161461019657600080fd5b81600260008282546101a89190610387565b925050819055508073ffffffffffffffffffffffffffffffffffffffff166108fc839081150290604051600060405180830381858888f193505050501580156101f5573d6000803e3d6000fd5b505050565b60008054906101000a900473ffffffffffffffffffffffffffffffffffffffff1681565b60025481565b600160009054906101000a900473ffffffffffffffffffffffffffffffffffffffff1681565b6000813590506102598161042b565b92915050565b60008135905061026e81610442565b92915050565b6000806040838503121561028b5761028a610426565b5b60006102998582860161025f565b92505060206102aa8582860161024a565b9150509250929050565b6102bd816103bb565b82525050565b6102cc816103ed565b82525050565b60006020820190506102e760008301846102b4565b92915050565b600060408201905061030260008301856102b4565b61030f60208301846102c3565b9392505050565b600060208201905061032b60008301846102c3565b92915050565b600061033c826103ed565b9150610347836103ed565b9250827fffffffffffffffffffffffffffffffffffffffffffffffffffffffffffffffff0382111561037c5761037b6103f7565b5b828201905092915050565b6000610392826103ed565b915061039d836103ed565b9250828210156103b0576103af6103f7565b5b828203905092915050565b60006103c6826103cd565b9050919050565b600073ffffffffffffffffffffffffffffffffffffffff82169050919050565b6000819050919050565b7f4e487b7100000000000000000000000000000000000000000000000000000000600052601160045260246000fd5b600080fd5b610434816103bb565b811461043f57600080fd5b50565b61044b816103ed565b811461045657600080fd5b5056fea2646970667358221220edf55933125ac3500fb5fecaa172d239414b341553ff7f0d55717af431a5a0ad64736f6c63430008060033",
  "immutableReferences": {},
  "source": "pragma solidity >=0.7.0 <0.9.0;\n\n// Contract that funds are received at\n// needs to contain an idenitifier\ncontract Receiver {\n\n    address public ownerReceiver;\n    address public fundsPoolAddress;\n    uint public funds;\n    event ValueReceived(address user, uint amount);\n\n\n    constructor(address ownerReceiver_, address fundsPoolAddress_) {\n        ownerReceiver = ownerReceiver_;\n        fundsPoolAddress = fundsPoolAddress_;\n    }\n\n    // Gives the receiver the funds\n    receive() external payable {\n        funds += msg.value;\n        emit ValueReceived(msg.sender, msg.value);\n    }\n\n    function spendFunds(uint cost, address to_) public payable onlyOwner {\n        funds -= cost;\n        payable(to_).transfer(cost);\n    }\n\n    modifier onlyFundsPool() {\n        require(msg.sender == fundsPoolAddress);\n        _;\n    }\n\n    modifier onlyOwner() {\n        require(msg.sender == ownerReceiver);\n        _;\n    }\n}\n\ncontract ReceiverFactory {\n\n    address public fundsPool;\n    address public owner;\n\n    constructor(address fundsPool_) {\n        fundsPool = fundsPool_;\n        owner = msg.sender;\n    }\n\n    Receiver[] receivers;\n    function createreceiver() public onlyOwner returns (address) {\n        Receiver child = new Receiver(address(this), address(fundsPool));\n        receivers.push(child);\n        return address(child);\n    }\n\n\n    modifier onlyOwner() {\n        require(msg.sender == owner);\n        _;\n    }\n\n}\n",
  "sourcePath": "/Users/dylan/Library/Mobile Documents/com~apple~CloudDocs/Developer/UNSW/COMP6452_Blockchain_Architecture/COMP6452-HelpChain/contracts/ReceiverFactory.sol",
  "compiler": {
    "name": "solc",
    "version": "0.8.6+commit.11564f7e.Emscripten.clang"
  },
  "schemaVersion": "3.4.2",
  "updatedAt": "2021-07-27T22:25:46.851Z",
  "devdoc": {
    "kind": "dev",
    "methods": {},
    "version": 1
  },
  "userdoc": {
    "kind": "user",
    "methods": {},
    "version": 1
  }
}