{
  "contractName": "ReceiverFactory",
  "abi": [
    {
      "inputs": [
        {
          "internalType": "contract Admin",
          "name": "admin_",
          "type": "address"
        }
      ],
      "stateMutability": "nonpayable",
      "type": "constructor"
    },
    {
      "inputs": [],
      "name": "admin",
      "outputs": [
        {
          "internalType": "contract Admin",
          "name": "",
          "type": "address"
        }
      ],
      "stateMutability": "view",
      "type": "function",
      "constant": true
    },
    {
      "inputs": [],
      "name": "corporateFactory",
      "outputs": [
        {
          "internalType": "address",
          "name": "",
          "type": "address"
        }
      ],
      "stateMutability": "view",
      "type": "function",
      "constant": true
    },
    {
      "inputs": [],
      "name": "owner",
      "outputs": [
        {
          "internalType": "address",
          "name": "",
          "type": "address"
        }
      ],
      "stateMutability": "view",
      "type": "function",
      "constant": true
    },
    {
      "inputs": [
        {
          "internalType": "uint256",
          "name": "",
          "type": "uint256"
        }
      ],
      "name": "receiver_array",
      "outputs": [
        {
          "internalType": "contract Receiver",
          "name": "",
          "type": "address"
        }
      ],
      "stateMutability": "view",
      "type": "function",
      "constant": true
    },
    {
      "inputs": [
        {
          "internalType": "address",
          "name": "",
          "type": "address"
        }
      ],
      "name": "receivers",
      "outputs": [
        {
          "internalType": "bool",
          "name": "",
          "type": "bool"
        }
      ],
      "stateMutability": "view",
      "type": "function",
      "constant": true
    },
    {
      "inputs": [],
      "name": "createreceiver",
      "outputs": [
        {
          "internalType": "address",
          "name": "",
          "type": "address"
        }
      ],
      "stateMutability": "nonpayable",
      "type": "function"
    },
    {
      "inputs": [
        {
          "internalType": "address",
          "name": "toCheck",
          "type": "address"
        }
      ],
      "name": "checkReceiver",
      "outputs": [
        {
          "internalType": "bool",
          "name": "",
          "type": "bool"
        }
      ],
      "stateMutability": "view",
      "type": "function",
      "constant": true
    },
    {
      "inputs": [
        {
          "internalType": "address",
          "name": "corp",
          "type": "address"
        }
      ],
      "name": "updateCorporateFactory",
      "outputs": [],
      "stateMutability": "nonpayable",
      "type": "function"
    },
    {
      "inputs": [
        {
          "internalType": "uint256",
          "name": "index",
          "type": "uint256"
        }
      ],
      "name": "getReceiver",
      "outputs": [
        {
          "internalType": "address",
          "name": "",
          "type": "address"
        }
      ],
      "stateMutability": "view",
      "type": "function",
      "constant": true
    },
    {
      "inputs": [],
      "name": "getNumOfReceivers",
      "outputs": [
        {
          "internalType": "uint256",
          "name": "",
          "type": "uint256"
        }
      ],
      "stateMutability": "view",
      "type": "function",
      "constant": true
    }
  ],
  "bytecode": "0x608060405234801561001057600080fd5b50604051611ce2380380611ce2833981810160405281019061003291906100ce565b80600160006101000a81548173ffffffffffffffffffffffffffffffffffffffff021916908373ffffffffffffffffffffffffffffffffffffffff160217905550336000806101000a81548173ffffffffffffffffffffffffffffffffffffffff021916908373ffffffffffffffffffffffffffffffffffffffff1602179055505061015b565b6000815190506100c881610144565b92915050565b6000602082840312156100e4576100e361013f565b5b60006100f2848285016100b9565b91505092915050565b60006101068261011f565b9050919050565b6000610118826100fb565b9050919050565b600073ffffffffffffffffffffffffffffffffffffffff82169050919050565b600080fd5b61014d8161010d565b811461015857600080fd5b50565b611b788061016a6000396000f3fe608060405234801561001057600080fd5b506004361061009e5760003560e01c8063a4a7e8ef11610066578063a4a7e8ef1461015d578063b34485ce1461017b578063d78cc07714610197578063f4d76499146101c7578063f851a440146101f75761009e565b80630cb8150f146100a35780630f285b2a146100d35780633dd00861146100f15780634979716d146101215780638da5cb5b1461013f575b600080fd5b6100bd60048036038101906100b891906106a1565b610215565b6040516100ca9190610761565b60405180910390f35b6100db610235565b6040516100e891906107b2565b60405180910390f35b61010b600480360381019061010691906106a1565b610242565b6040516101189190610761565b60405180910390f35b6101296102b0565b6040516101369190610746565b60405180910390f35b6101476102d6565b6040516101549190610746565b60405180910390f35b6101656102fa565b6040516101729190610746565b60405180910390f35b610195600480360381019061019091906106a1565b6104c9565b005b6101b160048036038101906101ac91906106ce565b6105bd565b6040516101be9190610797565b60405180910390f35b6101e160048036038101906101dc91906106ce565b6105fc565b6040516101ee9190610746565b60405180910390f35b6101ff610644565b60405161020c919061077c565b60405180910390f35b60036020528060005260406000206000915054906101000a900460ff1681565b6000600280549050905090565b600060011515600360008473ffffffffffffffffffffffffffffffffffffffff1673ffffffffffffffffffffffffffffffffffffffff16815260200190815260200160002060009054906101000a900460ff16151514156102a657600190506102ab565b600090505b919050565b600460009054906101000a900473ffffffffffffffffffffffffffffffffffffffff1681565b60008054906101000a900473ffffffffffffffffffffffffffffffffffffffff1681565b60008060009054906101000a900473ffffffffffffffffffffffffffffffffffffffff1673ffffffffffffffffffffffffffffffffffffffff163373ffffffffffffffffffffffffffffffffffffffff1614806103a45750600160009054906101000a900473ffffffffffffffffffffffffffffffffffffffff1673ffffffffffffffffffffffffffffffffffffffff163373ffffffffffffffffffffffffffffffffffffffff16145b6103ad57600080fd5b6000600160009054906101000a900473ffffffffffffffffffffffffffffffffffffffff166040516103de9061066a565b6103e8919061077c565b604051809103906000f080158015610404573d6000803e3d6000fd5b5090506001600360008373ffffffffffffffffffffffffffffffffffffffff1673ffffffffffffffffffffffffffffffffffffffff16815260200190815260200160002060006101000a81548160ff0219169083151502179055506002819080600181540180825580915050600190039060005260206000200160009091909190916101000a81548173ffffffffffffffffffffffffffffffffffffffff021916908373ffffffffffffffffffffffffffffffffffffffff1602179055508091505090565b60008054906101000a900473ffffffffffffffffffffffffffffffffffffffff1673ffffffffffffffffffffffffffffffffffffffff163373ffffffffffffffffffffffffffffffffffffffff1614806105705750600160009054906101000a900473ffffffffffffffffffffffffffffffffffffffff1673ffffffffffffffffffffffffffffffffffffffff163373ffffffffffffffffffffffffffffffffffffffff16145b61057957600080fd5b80600460006101000a81548173ffffffffffffffffffffffffffffffffffffffff021916908373ffffffffffffffffffffffffffffffffffffffff16021790555050565b600281815481106105cd57600080fd5b906000526020600020016000915054906101000a900473ffffffffffffffffffffffffffffffffffffffff1681565b6000600282815481106106125761061161085d565b5b9060005260206000200160009054906101000a900473ffffffffffffffffffffffffffffffffffffffff169050919050565b600160009054906101000a900473ffffffffffffffffffffffffffffffffffffffff1681565b611283806108c083390190565b60008135905061068681610891565b92915050565b60008135905061069b816108a8565b92915050565b6000602082840312156106b7576106b661088c565b5b60006106c584828501610677565b91505092915050565b6000602082840312156106e4576106e361088c565b5b60006106f28482850161068c565b91505092915050565b610704816107cd565b82525050565b610713816107df565b82525050565b61072281610815565b82525050565b61073181610839565b82525050565b6107408161080b565b82525050565b600060208201905061075b60008301846106fb565b92915050565b6000602082019050610776600083018461070a565b92915050565b60006020820190506107916000830184610719565b92915050565b60006020820190506107ac6000830184610728565b92915050565b60006020820190506107c76000830184610737565b92915050565b60006107d8826107eb565b9050919050565b60008115159050919050565b600073ffffffffffffffffffffffffffffffffffffffff82169050919050565b6000819050919050565b600061082082610827565b9050919050565b6000610832826107eb565b9050919050565b60006108448261084b565b9050919050565b6000610856826107eb565b9050919050565b7f4e487b7100000000000000000000000000000000000000000000000000000000600052603260045260246000fd5b600080fd5b61089a816107cd565b81146108a557600080fd5b50565b6108b18161080b565b81146108bc57600080fd5b5056fe60806040523480156200001157600080fd5b5060405162001283380380620012838339818101604052810190620000379190620000f1565b80600160006101000a81548173ffffffffffffffffffffffffffffffffffffffff021916908373ffffffffffffffffffffffffffffffffffffffff160217905550336000806101000a81548173ffffffffffffffffffffffffffffffffffffffff021916908373ffffffffffffffffffffffffffffffffffffffff1602179055506001600360006101000a81548160ff021916908315150217905550506200018a565b600081519050620000eb8162000170565b92915050565b6000602082840312156200010a57620001096200016b565b5b60006200011a84828501620000da565b91505092915050565b600062000130826200014b565b9050919050565b6000620001448262000123565b9050919050565b600073ffffffffffffffffffffffffffffffffffffffff82169050919050565b600080fd5b6200017b8162000137565b81146200018757600080fd5b50565b6110e9806200019a6000396000f3fe60806040526004361061007f5760003560e01c8063a039fb7f1161004e578063a039fb7f146101b2578063c1991219146101dd578063c89f2ce414610208578063f851a440146102335761012e565b8063025ee9431461013357806353c3d2f31461014f57806379e5ebb21461017f578063894ba8331461019b5761012e565b3661012e5760011515600360009054906101000a900460ff161515146100da576040517f08c379a00000000000000000000000000000000000000000000000000000000081526004016100d190610d96565b60405180910390fd5b34600260008282546100ec9190610ded565b925050819055507f7e71433ddf847725166244795048ecf3e3f9f35628254ecbf7360566642334933334604051610124929190610cd7565b60405180910390a1005b600080fd5b61014d60048036038101906101489190610b7c565b61025e565b005b61016960048036038101906101649190610b3c565b61046d565b6040516101769190610d00565b60405180910390f35b61019960048036038101906101949190610aa2565b6107fd565b005b3480156101a757600080fd5b506101b0610848565b005b3480156101be57600080fd5b506101c7610994565b6040516101d49190610cbc565b60405180910390f35b3480156101e957600080fd5b506101f26109b8565b6040516101ff9190610d00565b60405180910390f35b34801561021457600080fd5b5061021d6109cb565b60405161022a9190610db6565b60405180910390f35b34801561023f57600080fd5b506102486109d1565b6040516102559190610d1b565b60405180910390f35b60011515600360009054906101000a900460ff161515146102b4576040517f08c379a00000000000000000000000000000000000000000000000000000000081526004016102ab90610d96565b60405180910390fd5b600160009054906101000a900473ffffffffffffffffffffffffffffffffffffffff1673ffffffffffffffffffffffffffffffffffffffff16638da5cb5b6040518163ffffffff1660e01b815260040160206040518083038186803b15801561031c57600080fd5b505afa158015610330573d6000803e3d6000fd5b505050506040513d601f19601f820116820180604052508101906103549190610a75565b73ffffffffffffffffffffffffffffffffffffffff163373ffffffffffffffffffffffffffffffffffffffff1614806103da5750600160009054906101000a900473ffffffffffffffffffffffffffffffffffffffff1673ffffffffffffffffffffffffffffffffffffffff163373ffffffffffffffffffffffffffffffffffffffff16145b6103e357600080fd5b81600260008282546103f59190610e43565b9250508190555060008173ffffffffffffffffffffffffffffffffffffffff168360405161042290610ca7565b60006040518083038185875af1925050503d806000811461045f576040519150601f19603f3d011682016040523d82523d6000602084013e610464565b606091505b50509050505050565b600060011515600360009054906101000a900460ff161515146104c5576040517f08c379a00000000000000000000000000000000000000000000000000000000081526004016104bc90610d96565b60405180910390fd5b81471015610508576040517f08c379a00000000000000000000000000000000000000000000000000000000081526004016104ff90610d76565b60405180910390fd5b8273ffffffffffffffffffffffffffffffffffffffff1663f851a4406040518163ffffffff1660e01b815260040160206040518083038186803b15801561054e57600080fd5b505afa158015610562573d6000803e3d6000fd5b505050506040513d601f19601f820116820180604052508101906105869190610b0f565b73ffffffffffffffffffffffffffffffffffffffff16600160009054906101000a900473ffffffffffffffffffffffffffffffffffffffff1673ffffffffffffffffffffffffffffffffffffffff1614806106a957508273ffffffffffffffffffffffffffffffffffffffff16638da5cb5b6040518163ffffffff1660e01b815260040160206040518083038186803b15801561062257600080fd5b505afa158015610636573d6000803e3d6000fd5b505050506040513d601f19601f8201168201806040525081019061065a9190610a75565b73ffffffffffffffffffffffffffffffffffffffff1660008054906101000a900473ffffffffffffffffffffffffffffffffffffffff1673ffffffffffffffffffffffffffffffffffffffff16145b6106e8576040517f08c379a00000000000000000000000000000000000000000000000000000000081526004016106df90610d56565b60405180910390fd5b600115158373ffffffffffffffffffffffffffffffffffffffff1663c19912196040518163ffffffff1660e01b815260040160206040518083038186803b15801561073257600080fd5b505afa158015610746573d6000803e3d6000fd5b505050506040513d601f19601f8201168201806040525081019061076a9190610ae2565b1515146107ac576040517f08c379a00000000000000000000000000000000000000000000000000000000081526004016107a390610d36565b60405180910390fd5b8273ffffffffffffffffffffffffffffffffffffffff166108fc839081150290604051600060405180830381858888f193505050501580156107f2573d6000803e3d6000fd5b506001905092915050565b8173ffffffffffffffffffffffffffffffffffffffff166108fc829081150290604051600060405180830381858888f19350505050158015610843573d6000803e3d6000fd5b505050565b600160009054906101000a900473ffffffffffffffffffffffffffffffffffffffff1673ffffffffffffffffffffffffffffffffffffffff16638da5cb5b6040518163ffffffff1660e01b815260040160206040518083038186803b1580156108b057600080fd5b505afa1580156108c4573d6000803e3d6000fd5b505050506040513d601f19601f820116820180604052508101906108e89190610a75565b73ffffffffffffffffffffffffffffffffffffffff163373ffffffffffffffffffffffffffffffffffffffff16148061096e5750600160009054906101000a900473ffffffffffffffffffffffffffffffffffffffff1673ffffffffffffffffffffffffffffffffffffffff163373ffffffffffffffffffffffffffffffffffffffff16145b61097757600080fd5b6000600360006101000a81548160ff021916908315150217905550565b60008054906101000a900473ffffffffffffffffffffffffffffffffffffffff1681565b600360009054906101000a900460ff1681565b60025481565b600160009054906101000a900473ffffffffffffffffffffffffffffffffffffffff1681565b600081359050610a0681611040565b92915050565b600081519050610a1b81611040565b92915050565b600081519050610a3081611057565b92915050565b600081519050610a458161106e565b92915050565b600081359050610a5a81611085565b92915050565b600081359050610a6f8161109c565b92915050565b600060208284031215610a8b57610a8a610f48565b5b6000610a9984828501610a0c565b91505092915050565b60008060408385031215610ab957610ab8610f48565b5b6000610ac7858286016109f7565b9250506020610ad885828601610a60565b9150509250929050565b600060208284031215610af857610af7610f48565b5b6000610b0684828501610a21565b91505092915050565b600060208284031215610b2557610b24610f48565b5b6000610b3384828501610a36565b91505092915050565b60008060408385031215610b5357610b52610f48565b5b6000610b6185828601610a4b565b9250506020610b7285828601610a60565b9150509250929050565b60008060408385031215610b9357610b92610f48565b5b6000610ba185828601610a60565b9250506020610bb2858286016109f7565b9150509250929050565b610bc581610e77565b82525050565b610bd481610e9b565b82525050565b610be381610ef5565b82525050565b6000610bf6602283610ddc565b9150610c0182610f4d565b604082019050919050565b6000610c19601983610ddc565b9150610c2482610f9c565b602082019050919050565b6000610c3c602c83610ddc565b9150610c4782610fc5565b604082019050919050565b6000610c5f601883610ddc565b9150610c6a82611014565b602082019050919050565b6000610c82600083610dd1565b9150610c8d8261103d565b600082019050919050565b610ca181610eeb565b82525050565b6000610cb282610c75565b9150819050919050565b6000602082019050610cd16000830184610bbc565b92915050565b6000604082019050610cec6000830185610bbc565b610cf96020830184610c98565b9392505050565b6000602082019050610d156000830184610bcb565b92915050565b6000602082019050610d306000830184610bda565b92915050565b60006020820190508181036000830152610d4f81610be9565b9050919050565b60006020820190508181036000830152610d6f81610c0c565b9050919050565b60006020820190508181036000830152610d8f81610c2f565b9050919050565b60006020820190508181036000830152610daf81610c52565b9050919050565b6000602082019050610dcb6000830184610c98565b92915050565b600081905092915050565b600082825260208201905092915050565b6000610df882610eeb565b9150610e0383610eeb565b9250827fffffffffffffffffffffffffffffffffffffffffffffffffffffffffffffffff03821115610e3857610e37610f19565b5b828201905092915050565b6000610e4e82610eeb565b9150610e5983610eeb565b925082821015610e6c57610e6b610f19565b5b828203905092915050565b6000610e8282610ecb565b9050919050565b6000610e9482610ecb565b9050919050565b60008115159050919050565b6000610eb282610e77565b9050919050565b6000610ec482610e89565b9050919050565b600073ffffffffffffffffffffffffffffffffffffffff82169050919050565b6000819050919050565b6000610f0082610f07565b9050919050565b6000610f1282610ecb565b9050919050565b7f4e487b7100000000000000000000000000000000000000000000000000000000600052601160045260246000fd5b600080fd5b7f546869732073756273696469617279206973206e6f206c6f6e6765722076616c60008201527f6964000000000000000000000000000000000000000000000000000000000000602082015250565b7f4f776e6572732f41646d696e20646f206e6f74206d6174636800000000000000600082015250565b7f526563656976657220636f6e747261637420646f6573206e6f7420686176652060008201527f656e6f7567682066756e64730000000000000000000000000000000000000000602082015250565b7f5265636569766572206e6f206c6f6e6765722076616c69640000000000000000600082015250565b50565b61104981610e77565b811461105457600080fd5b50565b61106081610e9b565b811461106b57600080fd5b50565b61107781610ea7565b811461108257600080fd5b50565b61108e81610eb9565b811461109957600080fd5b50565b6110a581610eeb565b81146110b057600080fd5b5056fea2646970667358221220affbd8d0b1910172f93c4588666df80a0dd6709ba971e7dde8300ff8bdb47df664736f6c63430008060033a264697066735822122092b707c135a2976be02150102e426145fe475495c3b71d42816de1dd59e302d164736f6c63430008060033",
  "immutableReferences": {},
  "source": "//SPDX-License-Identifier: UNLICENSED\npragma solidity >=0.7.0 <0.9.0;\nimport \"./CorporateFactory.sol\";\nimport \"./Admin.sol\";\n\n// Contract that funds are received at\n// needs to contain an idenitifier\ncontract Receiver {\n\n    address public ownerReceiver;\n    Admin public admin;\n    uint public funds;\n    event ValueReceived(address user, uint amount);\n    bool public valid; \n\n\n\n    constructor(Admin admin_) {\n        admin = admin_;\n        ownerReceiver = msg.sender;\n        valid = true;\n    }\n\n    // Gives the receiver the funds\n    receive() external isValid payable {\n        funds += msg.value;\n        emit ValueReceived(msg.sender, msg.value);\n    }\n\n    function tFunds(address toSend, uint amount) external payable{\n        payable(toSend).transfer(amount);\n    }\n    \n    function disableContract() public onlyOwner {\n        valid = false;\n    }\n\n    function spendFunds(uint cost, address to_) external payable isValid onlyOwner {\n        funds -= cost;\n        (bool success,) = payable(to_).call{value:cost}(\"\");\n    }\n    // this function is used to send Subsidiaries funds when a transaction is made\n    function sendSubFunds(Subsidiary toSend, uint tx_amount) payable external isValid returns(bool){\n        require(address(this).balance >= tx_amount, \"Receiver contract does not have enough funds\"); // check enough funds\n        require(address(admin) == address(toSend.admin()) || ownerReceiver == toSend.owner(), \"Owners/Admin do not match\"); // check not hostile subsidiary\n        require(toSend.valid() == true, \"This subsidiary is no longer valid\"); // check sub is valid\n        // send the requested funds \n        payable(toSend).transfer(tx_amount);\n        return true;\n    }\n\n    modifier onlyOwner() {\n        require(msg.sender == admin.owner() || msg.sender == address(admin));\n        _;\n    }\n\n    modifier isValid() {\n        require(valid == true,\"Receiver no longer valid\");\n        _;\n    }\n}\n\ncontract ReceiverFactory {\n    address public owner; // Owner of the contract\n    Admin public admin; // Associated Admin\n    Receiver[] public receiver_array; // Array of receivers\n    mapping(address=> bool) public receivers; \n    address public corporateFactory;\n\n    constructor(Admin admin_) {\n        admin = admin_;\n        owner = msg.sender;\n    }\n\n    // This function creates a recevier contract\n    function createreceiver() public onlyOwner returns (address) {\n        // passes the admin to the receiver\n        Receiver child = new Receiver(admin);\n        // marks the receiver as valid \n        receivers[address(child)] = true;\n        // adds it to the array of receivers\n        receiver_array.push(child);\n        return address(child);\n    }\n\n    // checks if receiver exists\n    function checkReceiver(address toCheck) external view returns (bool){\n        if (receivers[toCheck] == true ){\n            return true;\n        }\n            return false;\n    }\n\n    // updates associated Corporate Factory\n    function updateCorporateFactory(address corp) public onlyOwner {\n        corporateFactory = corp;\n    }\n\n    // gets a Receiver at index\n    function getReceiver(uint index) public view returns(address){\n        return address(receiver_array[index]);\n    }\n\n    // Returns total number of receivers\n    function getNumOfReceivers() public view returns(uint){\n        return receiver_array.length;\n    }\n\n    // checks if valid sender\n    modifier onlyOwner() {\n        require(msg.sender ==  owner || msg.sender == address(admin));\n        _;\n    }\n\n}\n",
  "sourcePath": "/Users/dylan/Library/Mobile Documents/com~apple~CloudDocs/Developer/UNSW/COMP6452_Blockchain_Architecture/COMP6452-HelpChain/contracts/ReceiverFactory.sol",
  "compiler": {
    "name": "solc",
    "version": "0.8.6+commit.11564f7e.Emscripten.clang"
  },
  "schemaVersion": "3.4.2",
  "updatedAt": "2021-08-08T13:05:18.246Z",
  "networkType": "ethereum",
  "devdoc": {
    "kind": "dev",
    "methods": {},
    "version": 1
  },
  "userdoc": {
    "kind": "user",
    "methods": {},
    "version": 1
  }
}