{
  "contractName": "Receiver",
  "abi": [
    {
      "inputs": [
        {
          "internalType": "contract Admin",
          "name": "admin_",
          "type": "address"
        }
      ],
      "stateMutability": "nonpayable",
      "type": "constructor"
    },
    {
      "anonymous": false,
      "inputs": [
        {
          "indexed": false,
          "internalType": "address",
          "name": "user",
          "type": "address"
        },
        {
          "indexed": false,
          "internalType": "uint256",
          "name": "amount",
          "type": "uint256"
        }
      ],
      "name": "ValueReceived",
      "type": "event"
    },
    {
      "inputs": [],
      "name": "admin",
      "outputs": [
        {
          "internalType": "contract Admin",
          "name": "",
          "type": "address"
        }
      ],
      "stateMutability": "view",
      "type": "function"
    },
    {
      "inputs": [],
      "name": "funds",
      "outputs": [
        {
          "internalType": "uint256",
          "name": "",
          "type": "uint256"
        }
      ],
      "stateMutability": "view",
      "type": "function"
    },
    {
      "inputs": [],
      "name": "ownerReceiver",
      "outputs": [
        {
          "internalType": "address",
          "name": "",
          "type": "address"
        }
      ],
      "stateMutability": "view",
      "type": "function"
    },
    {
      "inputs": [],
      "name": "valid",
      "outputs": [
        {
          "internalType": "bool",
          "name": "",
          "type": "bool"
        }
      ],
      "stateMutability": "view",
      "type": "function"
    },
    {
      "stateMutability": "payable",
      "type": "receive"
    },
    {
      "inputs": [],
      "name": "disableContract",
      "outputs": [],
      "stateMutability": "nonpayable",
      "type": "function"
    },
    {
      "inputs": [
        {
          "internalType": "uint256",
          "name": "cost",
          "type": "uint256"
        },
        {
          "internalType": "address",
          "name": "to_",
          "type": "address"
        }
      ],
      "name": "spendFunds",
      "outputs": [],
      "stateMutability": "payable",
      "type": "function"
    },
    {
      "inputs": [
        {
          "internalType": "contract Subsidiary",
          "name": "toSend",
          "type": "address"
        },
        {
          "internalType": "uint256",
          "name": "tx_amount",
          "type": "uint256"
        }
      ],
      "name": "sendSubFunds",
      "outputs": [
        {
          "internalType": "bool",
          "name": "",
          "type": "bool"
        }
      ],
      "stateMutability": "payable",
      "type": "function"
    }
  ],
  "bytecode": "0x60806040523480156200001157600080fd5b5060405162001165380380620011658339818101604052810190620000379190620000f1565b80600160006101000a81548173ffffffffffffffffffffffffffffffffffffffff021916908373ffffffffffffffffffffffffffffffffffffffff160217905550336000806101000a81548173ffffffffffffffffffffffffffffffffffffffff021916908373ffffffffffffffffffffffffffffffffffffffff1602179055506001600360006101000a81548160ff021916908315150217905550506200018a565b600081519050620000eb8162000170565b92915050565b6000602082840312156200010a57620001096200016b565b5b60006200011a84828501620000da565b91505092915050565b600062000130826200014b565b9050919050565b6000620001448262000123565b9050919050565b600073ffffffffffffffffffffffffffffffffffffffff82169050919050565b600080fd5b6200017b8162000137565b81146200018757600080fd5b50565b610fcb806200019a6000396000f3fe6080604052600436106100745760003560e01c8063a039fb7f1161004e578063a039fb7f1461018b578063c1991219146101b6578063c89f2ce4146101e1578063f851a4401461020c57610123565b8063025ee9431461012857806353c3d2f314610144578063894ba8331461017457610123565b366101235760011515600360009054906101000a900460ff161515146100cf576040517f08c379a00000000000000000000000000000000000000000000000000000000081526004016100c690610c86565b60405180910390fd5b34600260008282546100e19190610cd2565b925050819055507f7e71433ddf847725166244795048ecf3e3f9f35628254ecbf7360566642334933334604051610119929190610bc7565b60405180910390a1005b600080fd5b610142600480360381019061013d9190610aa4565b610237565b005b61015e60048036038101906101599190610a64565b610420565b60405161016b9190610bf0565b60405180910390f35b34801561018057600080fd5b506101896107b0565b005b34801561019757600080fd5b506101a06108fc565b6040516101ad9190610bac565b60405180910390f35b3480156101c257600080fd5b506101cb610920565b6040516101d89190610bf0565b60405180910390f35b3480156101ed57600080fd5b506101f6610933565b6040516102039190610ca6565b60405180910390f35b34801561021857600080fd5b50610221610939565b60405161022e9190610c0b565b60405180910390f35b60011515600360009054906101000a900460ff1615151461028d576040517f08c379a000000000000000000000000000000000000000000000000000000000815260040161028490610c86565b60405180910390fd5b600160009054906101000a900473ffffffffffffffffffffffffffffffffffffffff1673ffffffffffffffffffffffffffffffffffffffff16638da5cb5b6040518163ffffffff1660e01b815260040160206040518083038186803b1580156102f557600080fd5b505afa158015610309573d6000803e3d6000fd5b505050506040513d601f19601f8201168201806040525081019061032d91906109dd565b73ffffffffffffffffffffffffffffffffffffffff163373ffffffffffffffffffffffffffffffffffffffff1614806103b35750600160009054906101000a900473ffffffffffffffffffffffffffffffffffffffff1673ffffffffffffffffffffffffffffffffffffffff163373ffffffffffffffffffffffffffffffffffffffff16145b6103bc57600080fd5b81600260008282546103ce9190610d28565b925050819055508073ffffffffffffffffffffffffffffffffffffffff166108fc839081150290604051600060405180830381858888f1935050505015801561041b573d6000803e3d6000fd5b505050565b600060011515600360009054906101000a900460ff16151514610478576040517f08c379a000000000000000000000000000000000000000000000000000000000815260040161046f90610c86565b60405180910390fd5b814710156104bb576040517f08c379a00000000000000000000000000000000000000000000000000000000081526004016104b290610c66565b60405180910390fd5b8273ffffffffffffffffffffffffffffffffffffffff1663f851a4406040518163ffffffff1660e01b815260040160206040518083038186803b15801561050157600080fd5b505afa158015610515573d6000803e3d6000fd5b505050506040513d601f19601f820116820180604052508101906105399190610a37565b73ffffffffffffffffffffffffffffffffffffffff16600160009054906101000a900473ffffffffffffffffffffffffffffffffffffffff1673ffffffffffffffffffffffffffffffffffffffff16148061065c57508273ffffffffffffffffffffffffffffffffffffffff16638da5cb5b6040518163ffffffff1660e01b815260040160206040518083038186803b1580156105d557600080fd5b505afa1580156105e9573d6000803e3d6000fd5b505050506040513d601f19601f8201168201806040525081019061060d91906109dd565b73ffffffffffffffffffffffffffffffffffffffff1660008054906101000a900473ffffffffffffffffffffffffffffffffffffffff1673ffffffffffffffffffffffffffffffffffffffff16145b61069b576040517f08c379a000000000000000000000000000000000000000000000000000000000815260040161069290610c46565b60405180910390fd5b600115158373ffffffffffffffffffffffffffffffffffffffff1663c19912196040518163ffffffff1660e01b815260040160206040518083038186803b1580156106e557600080fd5b505afa1580156106f9573d6000803e3d6000fd5b505050506040513d601f19601f8201168201806040525081019061071d9190610a0a565b15151461075f576040517f08c379a000000000000000000000000000000000000000000000000000000000815260040161075690610c26565b60405180910390fd5b8273ffffffffffffffffffffffffffffffffffffffff166108fc839081150290604051600060405180830381858888f193505050501580156107a5573d6000803e3d6000fd5b506001905092915050565b600160009054906101000a900473ffffffffffffffffffffffffffffffffffffffff1673ffffffffffffffffffffffffffffffffffffffff16638da5cb5b6040518163ffffffff1660e01b815260040160206040518083038186803b15801561081857600080fd5b505afa15801561082c573d6000803e3d6000fd5b505050506040513d601f19601f8201168201806040525081019061085091906109dd565b73ffffffffffffffffffffffffffffffffffffffff163373ffffffffffffffffffffffffffffffffffffffff1614806108d65750600160009054906101000a900473ffffffffffffffffffffffffffffffffffffffff1673ffffffffffffffffffffffffffffffffffffffff163373ffffffffffffffffffffffffffffffffffffffff16145b6108df57600080fd5b6000600360006101000a81548160ff021916908315150217905550565b60008054906101000a900473ffffffffffffffffffffffffffffffffffffffff1681565b600360009054906101000a900460ff1681565b60025481565b600160009054906101000a900473ffffffffffffffffffffffffffffffffffffffff1681565b60008135905061096e81610f22565b92915050565b60008151905061098381610f22565b92915050565b60008151905061099881610f39565b92915050565b6000815190506109ad81610f50565b92915050565b6000813590506109c281610f67565b92915050565b6000813590506109d781610f7e565b92915050565b6000602082840312156109f3576109f2610e2d565b5b6000610a0184828501610974565b91505092915050565b600060208284031215610a2057610a1f610e2d565b5b6000610a2e84828501610989565b91505092915050565b600060208284031215610a4d57610a4c610e2d565b5b6000610a5b8482850161099e565b91505092915050565b60008060408385031215610a7b57610a7a610e2d565b5b6000610a89858286016109b3565b9250506020610a9a858286016109c8565b9150509250929050565b60008060408385031215610abb57610aba610e2d565b5b6000610ac9858286016109c8565b9250506020610ada8582860161095f565b9150509250929050565b610aed81610d5c565b82525050565b610afc81610d80565b82525050565b610b0b81610dda565b82525050565b6000610b1e602283610cc1565b9150610b2982610e32565b604082019050919050565b6000610b41601983610cc1565b9150610b4c82610e81565b602082019050919050565b6000610b64602c83610cc1565b9150610b6f82610eaa565b604082019050919050565b6000610b87601883610cc1565b9150610b9282610ef9565b602082019050919050565b610ba681610dd0565b82525050565b6000602082019050610bc16000830184610ae4565b92915050565b6000604082019050610bdc6000830185610ae4565b610be96020830184610b9d565b9392505050565b6000602082019050610c056000830184610af3565b92915050565b6000602082019050610c206000830184610b02565b92915050565b60006020820190508181036000830152610c3f81610b11565b9050919050565b60006020820190508181036000830152610c5f81610b34565b9050919050565b60006020820190508181036000830152610c7f81610b57565b9050919050565b60006020820190508181036000830152610c9f81610b7a565b9050919050565b6000602082019050610cbb6000830184610b9d565b92915050565b600082825260208201905092915050565b6000610cdd82610dd0565b9150610ce883610dd0565b9250827fffffffffffffffffffffffffffffffffffffffffffffffffffffffffffffffff03821115610d1d57610d1c610dfe565b5b828201905092915050565b6000610d3382610dd0565b9150610d3e83610dd0565b925082821015610d5157610d50610dfe565b5b828203905092915050565b6000610d6782610db0565b9050919050565b6000610d7982610db0565b9050919050565b60008115159050919050565b6000610d9782610d5c565b9050919050565b6000610da982610d6e565b9050919050565b600073ffffffffffffffffffffffffffffffffffffffff82169050919050565b6000819050919050565b6000610de582610dec565b9050919050565b6000610df782610db0565b9050919050565b7f4e487b7100000000000000000000000000000000000000000000000000000000600052601160045260246000fd5b600080fd5b7f546869732073756273696469617279206973206e6f206c6f6e6765722076616c60008201527f6964000000000000000000000000000000000000000000000000000000000000602082015250565b7f4f776e6572732f41646d696e20646f206e6f74206d6174636800000000000000600082015250565b7f526563656976657220636f6e747261637420646f6573206e6f7420686176652060008201527f656e6f7567682066756e64730000000000000000000000000000000000000000602082015250565b7f5265636569766572206e6f206c6f6e6765722076616c69640000000000000000600082015250565b610f2b81610d5c565b8114610f3657600080fd5b50565b610f4281610d80565b8114610f4d57600080fd5b50565b610f5981610d8c565b8114610f6457600080fd5b50565b610f7081610d9e565b8114610f7b57600080fd5b50565b610f8781610dd0565b8114610f9257600080fd5b5056fea2646970667358221220977422028631b73cafbcac3a45572d73852ebd43e6a10d5adb47f538679cea2464736f6c63430008060033",
  "immutableReferences": {},
  "source": "//SPDX-License-Identifier: UNLICENSED\npragma solidity >=0.7.0 <0.9.0;\nimport \"./CorporateFactory.sol\";\nimport \"./Admin.sol\";\n\n// Contract that funds are received at\n// needs to contain an idenitifier\ncontract Receiver {\n\n    address public ownerReceiver;\n    Admin public admin;\n    uint public funds;\n    event ValueReceived(address user, uint amount);\n    bool public valid; \n\n\n\n    constructor(Admin admin_) {\n        admin = admin_;\n        ownerReceiver = msg.sender;\n        valid = true;\n    }\n\n    // Gives the receiver the funds\n    receive() external isValid payable {\n        funds += msg.value;\n        emit ValueReceived(msg.sender, msg.value);\n    }\n    \n    function disableContract() public onlyOwner {\n        valid = false;\n    }\n\n    function spendFunds(uint cost, address to_) public payable isValid onlyOwner {\n        funds -= cost;\n        payable(to_).transfer(cost);\n    }\n\n\n    // this function is used to send Subsidiaries funds when a transaction is made\n    function sendSubFunds(Subsidiary toSend, uint tx_amount) public payable isValid returns(bool){\n        require(address(this).balance >= tx_amount, \"Receiver contract does not have enough funds\"); // check enough funds\n        require(admin == toSend.admin() || ownerReceiver == toSend.owner(), \"Owners/Admin do not match\"); // check not hostile subsidiary\n        require(toSend.valid() == true, \"This subsidiary is no longer valid\"); // check sub is valid\n        // send the requested funds \n        payable(toSend).transfer(tx_amount);\n        return true;\n    }\n\n    modifier onlyOwner() {\n        require(msg.sender == admin.owner() || msg.sender == address(admin));\n        _;\n    }\n\n\n    modifier isValid() {\n        require(valid == true,\"Receiver no longer valid\");\n        _;\n    }\n}\n\ncontract ReceiverFactory {\n    address public owner; // Owner of the contract\n    Admin public admin; // Associated Admin\n    Receiver[] public receiver_array; // Array of receivers\n    mapping(address=> bool) public receivers; \n    address public corporateFactory;\n\n    constructor(Admin admin_) {\n        admin = admin_;\n        owner = msg.sender;\n    }\n\n    // This function creates a recevier contract\n    function createreceiver() public onlyOwner returns (address) {\n        // passes the admin to the receiver\n        Receiver child = new Receiver(admin);\n        // marks the receiver as valid \n        receivers[address(child)] = true;\n        // adds it to the array of receivers\n        receiver_array.push(child);\n        return address(child);\n    }\n\n    // checks if receiver exists\n    function checkReceiver(address toCheck) external view returns (bool){\n        if (receivers[toCheck] == true ){\n            return true;\n        }\n            return false;\n    }\n\n    // updates associated Corporate Factory\n    function updateCorporateFactory(address corp) public onlyOwner {\n        corporateFactory = corp;\n    }\n\n    // gets a Receiver at index\n    function getReceiver(uint index) public view returns(address){\n        return address(receiver_array[index]);\n    }\n\n    // Returns total number of receivers\n    function getNumOfReceivers() public view returns(uint){\n        return receiver_array.length;\n    }\n\n    // checks if valid sender\n    modifier onlyOwner() {\n        require(msg.sender ==  owner || msg.sender == address(admin));\n        _;\n    }\n\n}\n",
  "sourcePath": "/Users/dylan/Library/Mobile Documents/com~apple~CloudDocs/Developer/UNSW/COMP6452_Blockchain_Architecture/COMP6452-HelpChain/contracts/ReceiverFactory.sol",
  "compiler": {
    "name": "solc",
    "version": "0.8.6+commit.11564f7e.Emscripten.clang"
  },
  "schemaVersion": "3.4.2",
  "updatedAt": "2021-08-08T11:04:30.441Z",
  "networkType": "ethereum",
  "devdoc": {
    "kind": "dev",
    "methods": {},
    "version": 1
  },
  "userdoc": {
    "kind": "user",
    "methods": {},
    "version": 1
  }
}