{
  "contractName": "Receiver",
  "abi": [
    {
      "inputs": [
        {
          "internalType": "contract Admin",
          "name": "admin_",
          "type": "address"
        }
      ],
      "stateMutability": "nonpayable",
      "type": "constructor"
    },
    {
      "anonymous": false,
      "inputs": [
        {
          "indexed": false,
          "internalType": "address",
          "name": "user",
          "type": "address"
        },
        {
          "indexed": false,
          "internalType": "uint256",
          "name": "amount",
          "type": "uint256"
        }
      ],
      "name": "ValueReceived",
      "type": "event"
    },
    {
      "inputs": [],
      "name": "admin",
      "outputs": [
        {
          "internalType": "contract Admin",
          "name": "",
          "type": "address"
        }
      ],
      "stateMutability": "view",
      "type": "function"
    },
    {
      "inputs": [],
      "name": "funds",
      "outputs": [
        {
          "internalType": "uint256",
          "name": "",
          "type": "uint256"
        }
      ],
      "stateMutability": "view",
      "type": "function"
    },
    {
      "inputs": [],
      "name": "ownerReceiver",
      "outputs": [
        {
          "internalType": "address",
          "name": "",
          "type": "address"
        }
      ],
      "stateMutability": "view",
      "type": "function"
    },
    {
      "stateMutability": "payable",
      "type": "receive"
    },
    {
      "inputs": [
        {
          "internalType": "uint256",
          "name": "cost",
          "type": "uint256"
        },
        {
          "internalType": "address",
          "name": "to_",
          "type": "address"
        }
      ],
      "name": "spendFunds",
      "outputs": [],
      "stateMutability": "payable",
      "type": "function"
    },
    {
      "inputs": [
        {
          "internalType": "contract Subsidiary",
          "name": "toSend",
          "type": "address"
        },
        {
          "internalType": "uint256",
          "name": "tx_amount",
          "type": "uint256"
        }
      ],
      "name": "sendSubFunds",
      "outputs": [
        {
          "internalType": "bool",
          "name": "",
          "type": "bool"
        }
      ],
      "stateMutability": "payable",
      "type": "function"
    }
  ],
  "bytecode": "0x60806040523480156200001157600080fd5b5060405162000fc138038062000fc18339818101604052810190620000379190620000d6565b80600160006101000a81548173ffffffffffffffffffffffffffffffffffffffff021916908373ffffffffffffffffffffffffffffffffffffffff160217905550336000806101000a81548173ffffffffffffffffffffffffffffffffffffffff021916908373ffffffffffffffffffffffffffffffffffffffff160217905550506200016f565b600081519050620000d08162000155565b92915050565b600060208284031215620000ef57620000ee62000150565b5b6000620000ff84828501620000bf565b91505092915050565b6000620001158262000130565b9050919050565b6000620001298262000108565b9050919050565b600073ffffffffffffffffffffffffffffffffffffffff82169050919050565b600080fd5b62000160816200011c565b81146200016c57600080fd5b50565b610e42806200017f6000396000f3fe60806040526004361061004e5760003560e01c8063025ee943146100ac57806353c3d2f3146100c8578063a039fb7f146100f8578063c89f2ce414610123578063f851a4401461014e576100a7565b366100a75734600260008282546100659190610b6f565b925050819055507f7e71433ddf847725166244795048ecf3e3f9f35628254ecbf736056664233493333460405161009d929190610a84565b60405180910390a1005b600080fd5b6100c660048036038101906100c19190610984565b610179565b005b6100e260048036038101906100dd9190610917565b61028d565b6040516100ef9190610aad565b60405180910390f35b34801561010457600080fd5b5061010d61076b565b60405161011a9190610a69565b60405180910390f35b34801561012f57600080fd5b5061013861078f565b6040516101459190610b43565b60405180910390f35b34801561015a57600080fd5b50610163610795565b6040516101709190610ac8565b60405180910390f35b60008054906101000a900473ffffffffffffffffffffffffffffffffffffffff1673ffffffffffffffffffffffffffffffffffffffff163373ffffffffffffffffffffffffffffffffffffffff1614806102205750600160009054906101000a900473ffffffffffffffffffffffffffffffffffffffff1673ffffffffffffffffffffffffffffffffffffffff163373ffffffffffffffffffffffffffffffffffffffff16145b61022957600080fd5b816002600082825461023b9190610bc5565b925050819055508073ffffffffffffffffffffffffffffffffffffffff166108fc839081150290604051600060405180830381858888f19350505050158015610288573d6000803e3d6000fd5b505050565b6000814710156102d2576040517f08c379a00000000000000000000000000000000000000000000000000000000081526004016102c990610ae3565b60405180910390fd5b60008373ffffffffffffffffffffffffffffffffffffffff1663b119a9d66040518163ffffffff1660e01b815260040160206040518083038186803b15801561031a57600080fd5b505afa15801561032e573d6000803e3d6000fd5b505050506040513d601f19601f8201168201806040525081019061035291906108ea565b90506000600160009054906101000a900473ffffffffffffffffffffffffffffffffffffffff1673ffffffffffffffffffffffffffffffffffffffff16634979716d6040518163ffffffff1660e01b815260040160206040518083038186803b1580156103be57600080fd5b505afa1580156103d2573d6000803e3d6000fd5b505050506040513d601f19601f820116820180604052508101906103f691906108bd565b9050600115158173ffffffffffffffffffffffffffffffffffffffff1663dad154028473ffffffffffffffffffffffffffffffffffffffff166334929e9a6040518163ffffffff1660e01b815260040160206040518083038186803b15801561045e57600080fd5b505afa158015610472573d6000803e3d6000fd5b505050506040513d601f19601f820116820180604052508101906104969190610957565b6040518263ffffffff1660e01b81526004016104b29190610b43565b60206040518083038186803b1580156104ca57600080fd5b505afa1580156104de573d6000803e3d6000fd5b505050506040513d601f19601f820116820180604052508101906105029190610890565b151514610544576040517f08c379a000000000000000000000000000000000000000000000000000000000815260040161053b90610b03565b60405180910390fd5b600115158173ffffffffffffffffffffffffffffffffffffffff1663010d66638473ffffffffffffffffffffffffffffffffffffffff166334929e9a6040518163ffffffff1660e01b815260040160206040518083038186803b1580156105aa57600080fd5b505afa1580156105be573d6000803e3d6000fd5b505050506040513d601f19601f820116820180604052508101906105e29190610957565b6040518263ffffffff1660e01b81526004016105fe9190610b43565b60206040518083038186803b15801561061657600080fd5b505afa15801561062a573d6000803e3d6000fd5b505050506040513d601f19601f8201168201806040525081019061064e9190610863565b73ffffffffffffffffffffffffffffffffffffffff16636fdbaf43876040518263ffffffff1660e01b81526004016106869190610a69565b60206040518083038186803b15801561069e57600080fd5b505afa1580156106b2573d6000803e3d6000fd5b505050506040513d601f19601f820116820180604052508101906106d69190610890565b151514610718576040517f08c379a000000000000000000000000000000000000000000000000000000000815260040161070f90610b23565b60405180910390fd5b8473ffffffffffffffffffffffffffffffffffffffff166108fc859081150290604051600060405180830381858888f1935050505015801561075e573d6000803e3d6000fd5b5060019250505092915050565b60008054906101000a900473ffffffffffffffffffffffffffffffffffffffff1681565b60025481565b600160009054906101000a900473ffffffffffffffffffffffffffffffffffffffff1681565b6000813590506107ca81610d82565b92915050565b6000815190506107df81610d82565b92915050565b6000815190506107f481610d99565b92915050565b60008151905061080981610db0565b92915050565b60008151905061081e81610dc7565b92915050565b60008135905061083381610dde565b92915050565b60008135905061084881610df5565b92915050565b60008151905061085d81610df5565b92915050565b60006020828403121561087957610878610cdc565b5b6000610887848285016107d0565b91505092915050565b6000602082840312156108a6576108a5610cdc565b5b60006108b4848285016107e5565b91505092915050565b6000602082840312156108d3576108d2610cdc565b5b60006108e1848285016107fa565b91505092915050565b600060208284031215610900576108ff610cdc565b5b600061090e8482850161080f565b91505092915050565b6000806040838503121561092e5761092d610cdc565b5b600061093c85828601610824565b925050602061094d85828601610839565b9150509250929050565b60006020828403121561096d5761096c610cdc565b5b600061097b8482850161084e565b91505092915050565b6000806040838503121561099b5761099a610cdc565b5b60006109a985828601610839565b92505060206109ba858286016107bb565b9150509250929050565b6109cd81610bf9565b82525050565b6109dc81610c1d565b82525050565b6109eb81610c89565b82525050565b60006109fe602c83610b5e565b9150610a0982610ce1565b604082019050919050565b6000610a21601683610b5e565b9150610a2c82610d30565b602082019050919050565b6000610a44601683610b5e565b9150610a4f82610d59565b602082019050919050565b610a6381610c7f565b82525050565b6000602082019050610a7e60008301846109c4565b92915050565b6000604082019050610a9960008301856109c4565b610aa66020830184610a5a565b9392505050565b6000602082019050610ac260008301846109d3565b92915050565b6000602082019050610add60008301846109e2565b92915050565b60006020820190508181036000830152610afc816109f1565b9050919050565b60006020820190508181036000830152610b1c81610a14565b9050919050565b60006020820190508181036000830152610b3c81610a37565b9050919050565b6000602082019050610b586000830184610a5a565b92915050565b600082825260208201905092915050565b6000610b7a82610c7f565b9150610b8583610c7f565b9250827fffffffffffffffffffffffffffffffffffffffffffffffffffffffffffffffff03821115610bba57610bb9610cad565b5b828201905092915050565b6000610bd082610c7f565b9150610bdb83610c7f565b925082821015610bee57610bed610cad565b5b828203905092915050565b6000610c0482610c5f565b9050919050565b6000610c1682610c5f565b9050919050565b60008115159050919050565b6000610c3482610bf9565b9050919050565b6000610c4682610bf9565b9050919050565b6000610c5882610c0b565b9050919050565b600073ffffffffffffffffffffffffffffffffffffffff82169050919050565b6000819050919050565b6000610c9482610c9b565b9050919050565b6000610ca682610c5f565b9050919050565b7f4e487b7100000000000000000000000000000000000000000000000000000000600052601160045260246000fd5b600080fd5b7f526563656976657220636f6e747261637420646f6573206e6f7420686176652060008201527f656e6f7567682066756e64730000000000000000000000000000000000000000602082015250565b7f4e6f742076616c696420636f72706f7261746520494400000000000000000000600082015250565b7f4e6f7420612076616c6964207375627369646961727900000000000000000000600082015250565b610d8b81610bf9565b8114610d9657600080fd5b50565b610da281610c1d565b8114610dad57600080fd5b50565b610db981610c29565b8114610dc457600080fd5b50565b610dd081610c3b565b8114610ddb57600080fd5b50565b610de781610c4d565b8114610df257600080fd5b50565b610dfe81610c7f565b8114610e0957600080fd5b5056fea2646970667358221220432008cfe0cfc070c546569a2882bd6b693f463cabb518c4c0f1a1405e0d78ab64736f6c63430008060033",
  "immutableReferences": {},
  "source": "pragma solidity >=0.7.0 <0.9.0;\nimport \"./CorporateFactory.sol\";\nimport \"./Admin.sol\";\n\n// Contract that funds are received at\n// needs to contain an idenitifier\ncontract Receiver {\n\n    address public ownerReceiver;\n    Admin public admin;\n    uint public funds;\n    event ValueReceived(address user, uint amount);\n\n\n\n    constructor(Admin admin_) {\n        admin = admin_;\n        ownerReceiver = msg.sender;\n    }\n\n    // Gives the receiver the funds\n    receive() external payable {\n        funds += msg.value;\n        emit ValueReceived(msg.sender, msg.value);\n    }\n\n    function spendFunds(uint cost, address to_) public payable onlyOwner {\n        funds -= cost;\n        payable(to_).transfer(cost);\n    }\n\n\n    // this function is used to send Subsidiaries funds when a transaction is made\n    function sendSubFunds(Subsidiary toSend, uint tx_amount) public payable returns(bool){\n        require(address(this).balance >= tx_amount, \"Receiver contract does not have enough funds\");\n\n        //get the Corporate parent of the subsidiary \n        Corporate corp = toSend.parent_();\n        //get the address of the corporate Factory \n        CorporateFactory corp_fac = admin.corporateFactory();\n        //check if the corporate is valid through the corporate factory\n        require(corp_fac.checkIfCorporateValid(corp.corporate_id()) == true, \"Not valid corporate ID\");\n        //check if the subsidiary is valid for the corporate \n        require(Corporate(corp_fac.getCorporate(corp.corporate_id())).checkIfSubsidiaryValid(address(toSend)) == true, \"Not a valid subsidiary\");\n\n        // send the requested funds \n        payable(toSend).transfer(tx_amount);\n        return true;\n    \n    }\n\n    modifier onlyOwner() {\n        require(msg.sender == ownerReceiver || msg.sender == address(admin));\n        _;\n    }\n}\n\ncontract ReceiverFactory {\n    address public owner; // Owner of the contract\n    Admin public admin; // Associated Admin\n    Receiver[] public receiver_array; // Array of receivers\n    mapping(address=> bool) public receivers; \n    address public corporateFactory;\n\n    constructor(Admin admin_) {\n        admin = admin_;\n        owner = msg.sender;\n    }\n\n    // This function creates a recevier contract\n    function createreceiver() public onlyOwner returns (address) {\n        // passes the admin to the receiver\n        Receiver child = new Receiver(admin);\n        // marks the receiver as valid \n        receivers[address(child)] = true;\n        // adds it to the array of receivers\n        receiver_array.push(child);\n        return address(child);\n    }\n\n    // checks if receiver exists\n    function checkReceiver(address toCheck) external view returns (bool){\n        if (receivers[toCheck] == true ){\n            return true;\n        }\n            return false;\n    }\n\n    // updates associated Corporate Factory\n    function updateCorporateFactory(address corp) public onlyOwner {\n        corporateFactory = corp;\n    }\n\n    // gets a Receiver at index\n    function getReceiver(uint index) public view returns(address){\n        return address(receiver_array[index]);\n    }\n\n    // Returns total number of receivers\n    function getNumOfReceivers() public view returns(uint){\n        return receiver_array.length;\n    }\n\n    // checks if valid sender\n    modifier onlyOwner() {\n        require(msg.sender ==  owner || msg.sender == address(admin));\n        _;\n    }\n\n}\n",
  "sourcePath": "/Users/dylan/Library/Mobile Documents/com~apple~CloudDocs/Developer/UNSW/COMP6452_Blockchain_Architecture/COMP6452-HelpChain/contracts/ReceiverFactory.sol",
  "compiler": {
    "name": "solc",
    "version": "0.8.6+commit.11564f7e.Emscripten.clang"
  },
  "schemaVersion": "3.4.2",
  "updatedAt": "2021-08-07T02:50:40.679Z",
  "devdoc": {
    "kind": "dev",
    "methods": {},
    "version": 1
  },
  "userdoc": {
    "kind": "user",
    "methods": {},
    "version": 1
  }
}