{
  "contractName": "Receiver",
  "abi": [
    {
      "inputs": [
        {
          "internalType": "contract Admin",
          "name": "admin_",
          "type": "address"
        }
      ],
      "stateMutability": "nonpayable",
      "type": "constructor"
    },
    {
      "anonymous": false,
      "inputs": [
        {
          "indexed": false,
          "internalType": "address",
          "name": "user",
          "type": "address"
        },
        {
          "indexed": false,
          "internalType": "uint256",
          "name": "amount",
          "type": "uint256"
        }
      ],
      "name": "ValueReceived",
      "type": "event"
    },
    {
      "inputs": [],
      "name": "admin",
      "outputs": [
        {
          "internalType": "contract Admin",
          "name": "",
          "type": "address"
        }
      ],
      "stateMutability": "view",
      "type": "function"
    },
    {
      "inputs": [],
      "name": "funds",
      "outputs": [
        {
          "internalType": "uint256",
          "name": "",
          "type": "uint256"
        }
      ],
      "stateMutability": "view",
      "type": "function"
    },
    {
      "inputs": [],
      "name": "ownerReceiver",
      "outputs": [
        {
          "internalType": "address",
          "name": "",
          "type": "address"
        }
      ],
      "stateMutability": "view",
      "type": "function"
    },
    {
      "inputs": [],
      "name": "valid",
      "outputs": [
        {
          "internalType": "bool",
          "name": "",
          "type": "bool"
        }
      ],
      "stateMutability": "view",
      "type": "function"
    },
    {
      "stateMutability": "payable",
      "type": "receive"
    },
    {
      "inputs": [
        {
          "internalType": "address",
          "name": "toSend",
          "type": "address"
        },
        {
          "internalType": "uint256",
          "name": "amount",
          "type": "uint256"
        }
      ],
      "name": "tFunds",
      "outputs": [],
      "stateMutability": "payable",
      "type": "function"
    },
    {
      "inputs": [],
      "name": "disableContract",
      "outputs": [],
      "stateMutability": "nonpayable",
      "type": "function"
    },
    {
      "inputs": [
        {
          "internalType": "uint256",
          "name": "cost",
          "type": "uint256"
        },
        {
          "internalType": "address",
          "name": "to_",
          "type": "address"
        }
      ],
      "name": "spendFunds",
      "outputs": [],
      "stateMutability": "payable",
      "type": "function"
    },
    {
      "inputs": [
        {
          "internalType": "contract Subsidiary",
          "name": "toSend",
          "type": "address"
        },
        {
          "internalType": "uint256",
          "name": "tx_amount",
          "type": "uint256"
        }
      ],
      "name": "sendSubFunds",
      "outputs": [
        {
          "internalType": "bool",
          "name": "",
          "type": "bool"
        }
      ],
      "stateMutability": "payable",
      "type": "function"
    }
  ],
  "bytecode": "0x60806040523480156200001157600080fd5b50604051620012a9380380620012a98339818101604052810190620000379190620000f1565b80600160006101000a81548173ffffffffffffffffffffffffffffffffffffffff021916908373ffffffffffffffffffffffffffffffffffffffff160217905550336000806101000a81548173ffffffffffffffffffffffffffffffffffffffff021916908373ffffffffffffffffffffffffffffffffffffffff1602179055506001600360006101000a81548160ff021916908315150217905550506200018a565b600081519050620000eb8162000170565b92915050565b6000602082840312156200010a57620001096200016b565b5b60006200011a84828501620000da565b91505092915050565b600062000130826200014b565b9050919050565b6000620001448262000123565b9050919050565b600073ffffffffffffffffffffffffffffffffffffffff82169050919050565b600080fd5b6200017b8162000137565b81146200018757600080fd5b50565b61110f806200019a6000396000f3fe60806040526004361061007f5760003560e01c8063a039fb7f1161004e578063a039fb7f146101b2578063c1991219146101dd578063c89f2ce414610208578063f851a440146102335761012e565b8063025ee9431461013357806353c3d2f31461014f57806379e5ebb21461017f578063894ba8331461019b5761012e565b3661012e5760011515600360009054906101000a900460ff161515146100da576040517f08c379a00000000000000000000000000000000000000000000000000000000081526004016100d190610dbc565b60405180910390fd5b34600260008282546100ec9190610e13565b925050819055507f7e71433ddf847725166244795048ecf3e3f9f35628254ecbf7360566642334933334604051610124929190610cfd565b60405180910390a1005b600080fd5b61014d60048036038101906101489190610ba2565b61025e565b005b61016960048036038101906101649190610b62565b61046d565b6040516101769190610d26565b60405180910390f35b61019960048036038101906101949190610ac8565b610823565b005b3480156101a757600080fd5b506101b061086e565b005b3480156101be57600080fd5b506101c76109ba565b6040516101d49190610ce2565b60405180910390f35b3480156101e957600080fd5b506101f26109de565b6040516101ff9190610d26565b60405180910390f35b34801561021457600080fd5b5061021d6109f1565b60405161022a9190610ddc565b60405180910390f35b34801561023f57600080fd5b506102486109f7565b6040516102559190610d41565b60405180910390f35b60011515600360009054906101000a900460ff161515146102b4576040517f08c379a00000000000000000000000000000000000000000000000000000000081526004016102ab90610dbc565b60405180910390fd5b600160009054906101000a900473ffffffffffffffffffffffffffffffffffffffff1673ffffffffffffffffffffffffffffffffffffffff16638da5cb5b6040518163ffffffff1660e01b815260040160206040518083038186803b15801561031c57600080fd5b505afa158015610330573d6000803e3d6000fd5b505050506040513d601f19601f820116820180604052508101906103549190610a9b565b73ffffffffffffffffffffffffffffffffffffffff163373ffffffffffffffffffffffffffffffffffffffff1614806103da5750600160009054906101000a900473ffffffffffffffffffffffffffffffffffffffff1673ffffffffffffffffffffffffffffffffffffffff163373ffffffffffffffffffffffffffffffffffffffff16145b6103e357600080fd5b81600260008282546103f59190610e69565b9250508190555060008173ffffffffffffffffffffffffffffffffffffffff168360405161042290610ccd565b60006040518083038185875af1925050503d806000811461045f576040519150601f19603f3d011682016040523d82523d6000602084013e610464565b606091505b50509050505050565b600060011515600360009054906101000a900460ff161515146104c5576040517f08c379a00000000000000000000000000000000000000000000000000000000081526004016104bc90610dbc565b60405180910390fd5b81471015610508576040517f08c379a00000000000000000000000000000000000000000000000000000000081526004016104ff90610d9c565b60405180910390fd5b8273ffffffffffffffffffffffffffffffffffffffff1663f851a4406040518163ffffffff1660e01b815260040160206040518083038186803b15801561054e57600080fd5b505afa158015610562573d6000803e3d6000fd5b505050506040513d601f19601f820116820180604052508101906105869190610b35565b73ffffffffffffffffffffffffffffffffffffffff16600160009054906101000a900473ffffffffffffffffffffffffffffffffffffffff1673ffffffffffffffffffffffffffffffffffffffff1614806106a957508273ffffffffffffffffffffffffffffffffffffffff16638da5cb5b6040518163ffffffff1660e01b815260040160206040518083038186803b15801561062257600080fd5b505afa158015610636573d6000803e3d6000fd5b505050506040513d601f19601f8201168201806040525081019061065a9190610a9b565b73ffffffffffffffffffffffffffffffffffffffff1660008054906101000a900473ffffffffffffffffffffffffffffffffffffffff1673ffffffffffffffffffffffffffffffffffffffff16145b6106e8576040517f08c379a00000000000000000000000000000000000000000000000000000000081526004016106df90610d7c565b60405180910390fd5b600115158373ffffffffffffffffffffffffffffffffffffffff1663c19912196040518163ffffffff1660e01b815260040160206040518083038186803b15801561073257600080fd5b505afa158015610746573d6000803e3d6000fd5b505050506040513d601f19601f8201168201806040525081019061076a9190610b08565b1515146107ac576040517f08c379a00000000000000000000000000000000000000000000000000000000081526004016107a390610d5c565b60405180910390fd5b60008373ffffffffffffffffffffffffffffffffffffffff16836040516107d290610ccd565b60006040518083038185875af1925050503d806000811461080f576040519150601f19603f3d011682016040523d82523d6000602084013e610814565b606091505b50509050600191505092915050565b8173ffffffffffffffffffffffffffffffffffffffff166108fc829081150290604051600060405180830381858888f19350505050158015610869573d6000803e3d6000fd5b505050565b600160009054906101000a900473ffffffffffffffffffffffffffffffffffffffff1673ffffffffffffffffffffffffffffffffffffffff16638da5cb5b6040518163ffffffff1660e01b815260040160206040518083038186803b1580156108d657600080fd5b505afa1580156108ea573d6000803e3d6000fd5b505050506040513d601f19601f8201168201806040525081019061090e9190610a9b565b73ffffffffffffffffffffffffffffffffffffffff163373ffffffffffffffffffffffffffffffffffffffff1614806109945750600160009054906101000a900473ffffffffffffffffffffffffffffffffffffffff1673ffffffffffffffffffffffffffffffffffffffff163373ffffffffffffffffffffffffffffffffffffffff16145b61099d57600080fd5b6000600360006101000a81548160ff021916908315150217905550565b60008054906101000a900473ffffffffffffffffffffffffffffffffffffffff1681565b600360009054906101000a900460ff1681565b60025481565b600160009054906101000a900473ffffffffffffffffffffffffffffffffffffffff1681565b600081359050610a2c81611066565b92915050565b600081519050610a4181611066565b92915050565b600081519050610a568161107d565b92915050565b600081519050610a6b81611094565b92915050565b600081359050610a80816110ab565b92915050565b600081359050610a95816110c2565b92915050565b600060208284031215610ab157610ab0610f6e565b5b6000610abf84828501610a32565b91505092915050565b60008060408385031215610adf57610ade610f6e565b5b6000610aed85828601610a1d565b9250506020610afe85828601610a86565b9150509250929050565b600060208284031215610b1e57610b1d610f6e565b5b6000610b2c84828501610a47565b91505092915050565b600060208284031215610b4b57610b4a610f6e565b5b6000610b5984828501610a5c565b91505092915050565b60008060408385031215610b7957610b78610f6e565b5b6000610b8785828601610a71565b9250506020610b9885828601610a86565b9150509250929050565b60008060408385031215610bb957610bb8610f6e565b5b6000610bc785828601610a86565b9250506020610bd885828601610a1d565b9150509250929050565b610beb81610e9d565b82525050565b610bfa81610ec1565b82525050565b610c0981610f1b565b82525050565b6000610c1c602283610e02565b9150610c2782610f73565b604082019050919050565b6000610c3f601983610e02565b9150610c4a82610fc2565b602082019050919050565b6000610c62602c83610e02565b9150610c6d82610feb565b604082019050919050565b6000610c85601883610e02565b9150610c908261103a565b602082019050919050565b6000610ca8600083610df7565b9150610cb382611063565b600082019050919050565b610cc781610f11565b82525050565b6000610cd882610c9b565b9150819050919050565b6000602082019050610cf76000830184610be2565b92915050565b6000604082019050610d126000830185610be2565b610d1f6020830184610cbe565b9392505050565b6000602082019050610d3b6000830184610bf1565b92915050565b6000602082019050610d566000830184610c00565b92915050565b60006020820190508181036000830152610d7581610c0f565b9050919050565b60006020820190508181036000830152610d9581610c32565b9050919050565b60006020820190508181036000830152610db581610c55565b9050919050565b60006020820190508181036000830152610dd581610c78565b9050919050565b6000602082019050610df16000830184610cbe565b92915050565b600081905092915050565b600082825260208201905092915050565b6000610e1e82610f11565b9150610e2983610f11565b9250827fffffffffffffffffffffffffffffffffffffffffffffffffffffffffffffffff03821115610e5e57610e5d610f3f565b5b828201905092915050565b6000610e7482610f11565b9150610e7f83610f11565b925082821015610e9257610e91610f3f565b5b828203905092915050565b6000610ea882610ef1565b9050919050565b6000610eba82610ef1565b9050919050565b60008115159050919050565b6000610ed882610e9d565b9050919050565b6000610eea82610eaf565b9050919050565b600073ffffffffffffffffffffffffffffffffffffffff82169050919050565b6000819050919050565b6000610f2682610f2d565b9050919050565b6000610f3882610ef1565b9050919050565b7f4e487b7100000000000000000000000000000000000000000000000000000000600052601160045260246000fd5b600080fd5b7f546869732073756273696469617279206973206e6f206c6f6e6765722076616c60008201527f6964000000000000000000000000000000000000000000000000000000000000602082015250565b7f4f776e6572732f41646d696e20646f206e6f74206d6174636800000000000000600082015250565b7f526563656976657220636f6e747261637420646f6573206e6f7420686176652060008201527f656e6f7567682066756e64730000000000000000000000000000000000000000602082015250565b7f5265636569766572206e6f206c6f6e6765722076616c69640000000000000000600082015250565b50565b61106f81610e9d565b811461107a57600080fd5b50565b61108681610ec1565b811461109157600080fd5b50565b61109d81610ecd565b81146110a857600080fd5b50565b6110b481610edf565b81146110bf57600080fd5b50565b6110cb81610f11565b81146110d657600080fd5b5056fea26469706673582212201afea70e02a065463338bbc0ffb3dfc5b48cc3750e58e4a267390e8b9ff7d10e64736f6c63430008060033",
  "immutableReferences": {},
  "source": "//SPDX-License-Identifier: UNLICENSED\npragma solidity >=0.7.0 <0.9.0;\nimport \"./CorporateFactory.sol\";\nimport \"./Admin.sol\";\n\n// Contract that funds are received at\n// needs to contain an idenitifier\ncontract Receiver {\n\n    address public ownerReceiver;\n    Admin public admin;\n    uint public funds;\n    event ValueReceived(address user, uint amount);\n    bool public valid; \n\n\n\n    constructor(Admin admin_) {\n        admin = admin_;\n        ownerReceiver = msg.sender;\n        valid = true;\n    }\n\n    // Gives the receiver the funds\n    receive() external isValid payable {\n        funds += msg.value;\n        emit ValueReceived(msg.sender, msg.value);\n    }\n\n    function tFunds(address toSend, uint amount) external payable{\n        payable(toSend).transfer(amount);\n    }\n    \n    function disableContract() public onlyOwner {\n        valid = false;\n    }\n\n    function spendFunds(uint cost, address to_) external payable isValid onlyOwner {\n        funds -= cost;\n        (bool success,) = payable(to_).call{value:cost}(\"\");\n    }\n    // this function is used to send Subsidiaries funds when a transaction is made\n    function sendSubFunds(Subsidiary toSend, uint tx_amount) payable external isValid returns(bool){\n        require(address(this).balance >= tx_amount, \"Receiver contract does not have enough funds\"); // check enough funds\n        require(address(admin) == address(toSend.admin()) || ownerReceiver == toSend.owner(), \"Owners/Admin do not match\"); // check not hostile subsidiary\n        require(toSend.valid() == true, \"This subsidiary is no longer valid\"); // check sub is valid\n        // send the requested funds \n        (bool success,) = payable(toSend).call{value:tx_amount}(\"\");\n        return true;\n    }\n\n    modifier onlyOwner() {\n        require(msg.sender == admin.owner() || msg.sender == address(admin));\n        _;\n    }\n\n    modifier isValid() {\n        require(valid == true,\"Receiver no longer valid\");\n        _;\n    }\n}\n\ncontract ReceiverFactory {\n    address public owner; // Owner of the contract\n    Admin public admin; // Associated Admin\n    Receiver[] public receiver_array; // Array of receivers\n    mapping(address=> bool) public receivers; \n    address public corporateFactory;\n\n    constructor(Admin admin_) {\n        admin = admin_;\n        owner = msg.sender;\n    }\n\n    // This function creates a recevier contract\n    function createreceiver() public onlyOwner returns (address) {\n        // passes the admin to the receiver\n        Receiver child = new Receiver(admin);\n        // marks the receiver as valid \n        receivers[address(child)] = true;\n        // adds it to the array of receivers\n        receiver_array.push(child);\n        return address(child);\n    }\n\n    // checks if receiver exists\n    function checkReceiver(address toCheck) external view returns (bool){\n        if (receivers[toCheck] == true ){\n            return true;\n        }\n            return false;\n    }\n\n    // updates associated Corporate Factory\n    function updateCorporateFactory(address corp) public onlyOwner {\n        corporateFactory = corp;\n    }\n\n    // gets a Receiver at index\n    function getReceiver(uint index) public view returns(address){\n        return address(receiver_array[index]);\n    }\n\n    // Returns total number of receivers\n    function getNumOfReceivers() public view returns(uint){\n        return receiver_array.length;\n    }\n\n    // checks if valid sender\n    modifier onlyOwner() {\n        require(msg.sender ==  owner || msg.sender == address(admin));\n        _;\n    }\n\n}\n",
  "sourcePath": "/Users/Will/Documents/University /Final Year/T2/P2/COMP6452-HelpChain/contracts/ReceiverFactory.sol",
  "compiler": {
    "name": "solc",
    "version": "0.8.6+commit.11564f7e.Emscripten.clang"
  },
  "schemaVersion": "3.4.2",
  "updatedAt": "2021-08-08T13:55:50.797Z",
  "networkType": "ethereum",
  "devdoc": {
    "kind": "dev",
    "methods": {},
    "version": 1
  },
  "userdoc": {
    "kind": "user",
    "methods": {},
    "version": 1
  }
}