{
  "contractName": "RecieverFactory",
  "abi": [
    {
      "inputs": [
        {
          "internalType": "address",
          "name": "owner_",
          "type": "address"
        },
        {
          "internalType": "address",
          "name": "fundsPool_",
          "type": "address"
        }
      ],
      "stateMutability": "nonpayable",
      "type": "constructor"
    },
    {
      "inputs": [],
      "name": "fundsPool",
      "outputs": [
        {
          "internalType": "address",
          "name": "",
          "type": "address"
        }
      ],
      "stateMutability": "view",
      "type": "function"
    },
    {
      "inputs": [],
      "name": "owner",
      "outputs": [
        {
          "internalType": "address",
          "name": "",
          "type": "address"
        }
      ],
      "stateMutability": "view",
      "type": "function"
    },
    {
      "inputs": [],
      "name": "createReciever",
      "outputs": [
        {
          "internalType": "address",
          "name": "",
          "type": "address"
        }
      ],
      "stateMutability": "nonpayable",
      "type": "function"
    }
  ],
  "bytecode": "0x608060405234801561001057600080fd5b50604051610a96380380610a96833981810160405281019061003291906100cf565b806000806101000a81548173ffffffffffffffffffffffffffffffffffffffff021916908373ffffffffffffffffffffffffffffffffffffffff16021790555081600160006101000a81548173ffffffffffffffffffffffffffffffffffffffff021916908373ffffffffffffffffffffffffffffffffffffffff160217905550505061015d565b6000815190506100c981610146565b92915050565b600080604083850312156100e6576100e5610141565b5b60006100f4858286016100ba565b9250506020610105858286016100ba565b9150509250929050565b600061011a82610121565b9050919050565b600073ffffffffffffffffffffffffffffffffffffffff82169050919050565b600080fd5b61014f8161010f565b811461015a57600080fd5b50565b61092a8061016c6000396000f3fe608060405234801561001057600080fd5b50600436106100415760003560e01c80638a90d601146100465780638da5cb5b14610064578063dca13f8314610082575b600080fd5b61004e6100a0565b60405161005b9190610226565b60405180910390f35b61006c6100c4565b6040516100799190610226565b60405180910390f35b61008a6100ea565b6040516100979190610226565b60405180910390f35b60008054906101000a900473ffffffffffffffffffffffffffffffffffffffff1681565b600160009054906101000a900473ffffffffffffffffffffffffffffffffffffffff1681565b6000600160009054906101000a900473ffffffffffffffffffffffffffffffffffffffff1673ffffffffffffffffffffffffffffffffffffffff163373ffffffffffffffffffffffffffffffffffffffff161461014657600080fd5b60003060008054906101000a900473ffffffffffffffffffffffffffffffffffffffff166040516101769061020a565b610181929190610241565b604051809103906000f08015801561019d573d6000803e3d6000fd5b5090506002819080600181540180825580915050600190039060005260206000200160009091909190916101000a81548173ffffffffffffffffffffffffffffffffffffffff021916908373ffffffffffffffffffffffffffffffffffffffff1602179055508091505090565b6106588061029d83390190565b6102208161026a565b82525050565b600060208201905061023b6000830184610217565b92915050565b60006040820190506102566000830185610217565b6102636020830184610217565b9392505050565b60006102758261027c565b9050919050565b600073ffffffffffffffffffffffffffffffffffffffff8216905091905056fe608060405234801561001057600080fd5b50604051610658380380610658833981810160405281019061003291906100cf565b816000806101000a81548173ffffffffffffffffffffffffffffffffffffffff021916908373ffffffffffffffffffffffffffffffffffffffff16021790555080600160006101000a81548173ffffffffffffffffffffffffffffffffffffffff021916908373ffffffffffffffffffffffffffffffffffffffff160217905550505061015d565b6000815190506100c981610146565b92915050565b600080604083850312156100e6576100e5610141565b5b60006100f4858286016100ba565b9250506020610105858286016100ba565b9150509250929050565b600061011a82610121565b9050919050565b600073ffffffffffffffffffffffffffffffffffffffff82169050919050565b600080fd5b61014f8161010f565b811461015a57600080fd5b50565b6104ec8061016c6000396000f3fe60806040526004361061004a5760003560e01c8063025ee9431461004f578063be99970514610078578063c89f2ce414610094578063f2306d8e146100bf578063f5e944d5146100ea575b600080fd5b34801561005b57600080fd5b50610076600480360381019061007191906102fa565b610115565b005b610092600480360381019061008d91906102cd565b6101d1565b005b3480156100a057600080fd5b506100a9610253565b6040516100b69190610373565b60405180910390f35b3480156100cb57600080fd5b506100d4610259565b6040516100e19190610358565b60405180910390f35b3480156100f657600080fd5b506100ff61027d565b60405161010c9190610358565b60405180910390f35b60008054906101000a900473ffffffffffffffffffffffffffffffffffffffff1673ffffffffffffffffffffffffffffffffffffffff163373ffffffffffffffffffffffffffffffffffffffff161461016d57600080fd5b816002600082825461017f91906103e4565b925050819055508073ffffffffffffffffffffffffffffffffffffffff166108fc839081150290604051600060405180830381858888f193505050501580156101cc573d6000803e3d6000fd5b505050565b600160009054906101000a900473ffffffffffffffffffffffffffffffffffffffff1673ffffffffffffffffffffffffffffffffffffffff163373ffffffffffffffffffffffffffffffffffffffff161461022b57600080fd5b80341461023757600080fd5b8060026000828254610249919061038e565b9250508190555050565b60025481565b60008054906101000a900473ffffffffffffffffffffffffffffffffffffffff1681565b600160009054906101000a900473ffffffffffffffffffffffffffffffffffffffff1681565b6000813590506102b281610488565b92915050565b6000813590506102c78161049f565b92915050565b6000602082840312156102e3576102e2610483565b5b60006102f1848285016102b8565b91505092915050565b6000806040838503121561031157610310610483565b5b600061031f858286016102b8565b9250506020610330858286016102a3565b9150509250929050565b61034381610418565b82525050565b6103528161044a565b82525050565b600060208201905061036d600083018461033a565b92915050565b60006020820190506103886000830184610349565b92915050565b60006103998261044a565b91506103a48361044a565b9250827fffffffffffffffffffffffffffffffffffffffffffffffffffffffffffffffff038211156103d9576103d8610454565b5b828201905092915050565b60006103ef8261044a565b91506103fa8361044a565b92508282101561040d5761040c610454565b5b828203905092915050565b60006104238261042a565b9050919050565b600073ffffffffffffffffffffffffffffffffffffffff82169050919050565b6000819050919050565b7f4e487b7100000000000000000000000000000000000000000000000000000000600052601160045260246000fd5b600080fd5b61049181610418565b811461049c57600080fd5b50565b6104a88161044a565b81146104b357600080fd5b5056fea2646970667358221220d6a4a68453b05edf7a4291bc2d4e8fe20f535295e11ccf33e75ebd6e3d9c4a9c64736f6c63430008060033a26469706673582212201c32b4e3e477de4874fb1d1b0ad501466229dfd26c012de451dd3a5db0e3a56564736f6c63430008060033",
  "immutableReferences": {},
  "source": "pragma solidity >=0.7.0 <0.9.0;\n\n\n\n\ncontract RecieverFactory {\n\n    address public fundsPool;\n    address public owner;\n\n    constructor(address owner_, address fundsPool_) {\n        fundsPool = fundsPool_;\n        owner = owner_;\n    }\n\n    Reciever[] recievers;\n    function createReciever() public onlyOwner returns (address) {\n        Reciever child = new Reciever(address(this), address(fundsPool));\n        recievers.push(child);\n        return address(child);\n    }\n\n\n    modifier onlyOwner() {\n        require(msg.sender == owner);\n        _;\n    }\n\n}\n\n\n// Contract that funds are recieved at\n// needs to contain an idenitifier\ncontract Reciever {\n\n    address public ownerReciever;\n    address public fundsPoolAddress;\n    uint public funds;\n\n\n    constructor(address ownerReciever_, address fundsPoolAddress_) {\n        ownerReciever = ownerReciever_;\n        fundsPoolAddress = fundsPoolAddress_;\n    }\n\n\n    // Gives the reciever the funds\n    function addFunds(uint amount) public payable onlyFundsPool {\n        require(msg.value == amount);\n        funds += amount;\n    }\n\n    function spendFunds(uint cost, address to_) public onlyOwner {\n        funds -= cost;\n        payable(to_).transfer(cost);\n    }\n\n    modifier onlyFundsPool() {\n        require(msg.sender == fundsPoolAddress);\n        _;\n    }\n\n    modifier onlyOwner() {\n        require(msg.sender == ownerReciever);\n        _;\n    }\n}",
  "sourcePath": "/Users/cameronbaker/Documents/Third_Year_Uni/comp6452/Ass2-Group/COMP6452-HelpChain/contracts/RecieverFactory.sol",
  "compiler": {
    "name": "solc",
    "version": "0.8.6+commit.11564f7e.Emscripten.clang"
  },
  "schemaVersion": "3.3.4",
  "updatedAt": "2021-07-24T07:44:42.073Z",
  "devdoc": {
    "kind": "dev",
    "methods": {},
    "version": 1
  },
  "userdoc": {
    "kind": "user",
    "methods": {},
    "version": 1
  }
}