{
  "contractName": "Subsidiary",
  "abi": [
    {
      "inputs": [
        {
          "internalType": "contract Admin",
          "name": "admin_",
          "type": "address"
        },
        {
          "internalType": "address",
          "name": "owner_",
          "type": "address"
        }
      ],
      "stateMutability": "nonpayable",
      "type": "constructor"
    },
    {
      "anonymous": false,
      "inputs": [],
      "name": "CallbackInsertTX",
      "type": "event"
    },
    {
      "anonymous": false,
      "inputs": [
        {
          "indexed": false,
          "internalType": "uint256",
          "name": "txId",
          "type": "uint256"
        },
        {
          "indexed": false,
          "internalType": "address",
          "name": "receiverId",
          "type": "address"
        },
        {
          "indexed": false,
          "internalType": "uint256",
          "name": "txAmount",
          "type": "uint256"
        }
      ],
      "name": "TransactionRequest",
      "type": "event"
    },
    {
      "anonymous": false,
      "inputs": [
        {
          "indexed": false,
          "internalType": "address",
          "name": "user",
          "type": "address"
        },
        {
          "indexed": false,
          "internalType": "uint256",
          "name": "amount",
          "type": "uint256"
        }
      ],
      "name": "ValueReceived",
      "type": "event"
    },
    {
      "inputs": [],
      "name": "admin",
      "outputs": [
        {
          "internalType": "contract Admin",
          "name": "",
          "type": "address"
        }
      ],
      "stateMutability": "view",
      "type": "function"
    },
    {
      "inputs": [],
      "name": "owner",
      "outputs": [
        {
          "internalType": "address",
          "name": "",
          "type": "address"
        }
      ],
      "stateMutability": "view",
      "type": "function"
    },
    {
      "inputs": [],
      "name": "parent_",
      "outputs": [
        {
          "internalType": "contract Corporate",
          "name": "",
          "type": "address"
        }
      ],
      "stateMutability": "view",
      "type": "function"
    },
    {
      "stateMutability": "payable",
      "type": "receive"
    },
    {
      "inputs": [
        {
          "internalType": "uint256",
          "name": "value",
          "type": "uint256"
        }
      ],
      "name": "setInsertTX",
      "outputs": [
        {
          "internalType": "uint256",
          "name": "",
          "type": "uint256"
        }
      ],
      "stateMutability": "nonpayable",
      "type": "function"
    },
    {
      "inputs": [],
      "name": "getTake",
      "outputs": [
        {
          "internalType": "bool",
          "name": "",
          "type": "bool"
        }
      ],
      "stateMutability": "payable",
      "type": "function"
    },
    {
      "inputs": [
        {
          "internalType": "uint256",
          "name": "txId",
          "type": "uint256"
        },
        {
          "internalType": "address",
          "name": "receiverId",
          "type": "address"
        },
        {
          "internalType": "uint256",
          "name": "txAmount",
          "type": "uint256"
        }
      ],
      "name": "insertTransaction",
      "outputs": [
        {
          "internalType": "bool",
          "name": "",
          "type": "bool"
        }
      ],
      "stateMutability": "nonpayable",
      "type": "function"
    }
  ],
  "bytecode": "0x60806040523480156200001157600080fd5b5060405162000e0638038062000e068339818101604052810190620000379190620001a9565b336000806101000a81548173ffffffffffffffffffffffffffffffffffffffff021916908373ffffffffffffffffffffffffffffffffffffffff16021790555081600160006101000a81548173ffffffffffffffffffffffffffffffffffffffff021916908373ffffffffffffffffffffffffffffffffffffffff16021790555080600260006101000a81548173ffffffffffffffffffffffffffffffffffffffff021916908373ffffffffffffffffffffffffffffffffffffffff1602179055506001600460008373ffffffffffffffffffffffffffffffffffffffff1673ffffffffffffffffffffffffffffffffffffffff16815260200190815260200160002060006101000a81548160ff021916908315150217905550476003819055506001600560006101000a81548160ff021916908315150217905550505062000271565b6000815190506200018c816200023d565b92915050565b600081519050620001a38162000257565b92915050565b60008060408385031215620001c357620001c262000238565b5b6000620001d38582860162000192565b9250506020620001e6858286016200017b565b9150509250929050565b6000620001fd8262000218565b9050919050565b60006200021182620001f0565b9050919050565b600073ffffffffffffffffffffffffffffffffffffffff82169050919050565b600080fd5b6200024881620001f0565b81146200025457600080fd5b50565b620002628162000204565b81146200026e57600080fd5b50565b610b8580620002816000396000f3fe6080604052600436106100595760003560e01c8063725a1ef5146100f45780638b734233146101315780638da5cb5b1461014f578063b119a9d61461017a578063ef5ea07c146101a5578063f851a440146101e2576100ef565b366100ef5760011515600560009054906101000a900460ff161515146100b4576040517f08c379a00000000000000000000000000000000000000000000000000000000081526004016100ab906108c4565b60405180910390fd5b7f7e71433ddf847725166244795048ecf3e3f9f35628254ecbf73605666423349333346040516100e592919061084a565b60405180910390a1005b600080fd5b34801561010057600080fd5b5061011b6004803603810190610116919061071e565b61020d565b6040516101289190610904565b60405180910390f35b61013961021e565b6040516101469190610873565b60405180910390f35b34801561015b57600080fd5b50610164610339565b604051610171919061082f565b60405180910390f35b34801561018657600080fd5b5061018f61035f565b60405161019c91906108a9565b60405180910390f35b3480156101b157600080fd5b506101cc60048036038101906101c7919061074b565b610383565b6040516101d99190610873565b60405180910390f35b3480156101ee57600080fd5b506101f761062b565b604051610204919061088e565b60405180910390f35b600081600381905550819050919050565b60008060009054906101000a900473ffffffffffffffffffffffffffffffffffffffff1673ffffffffffffffffffffffffffffffffffffffff163373ffffffffffffffffffffffffffffffffffffffff161461027957600080fd5b60011515600560009054906101000a900460ff161515146102cf576040517f08c379a00000000000000000000000000000000000000000000000000000000081526004016102c6906108c4565b60405180910390fd5b60006003549050600060038190555060008054906101000a900473ffffffffffffffffffffffffffffffffffffffff1673ffffffffffffffffffffffffffffffffffffffff166108fc829081150290604051600060405180830381858888f1935050505091505090565b600260009054906101000a900473ffffffffffffffffffffffffffffffffffffffff1681565b60008054906101000a900473ffffffffffffffffffffffffffffffffffffffff1681565b60008060009054906101000a900473ffffffffffffffffffffffffffffffffffffffff1673ffffffffffffffffffffffffffffffffffffffff163373ffffffffffffffffffffffffffffffffffffffff161480610430575060011515600460003373ffffffffffffffffffffffffffffffffffffffff1673ffffffffffffffffffffffffffffffffffffffff16815260200190815260200160002060009054906101000a900460ff161515145b61043957600080fd5b60011515600560009054906101000a900460ff1615151461048f576040517f08c379a0000000000000000000000000000000000000000000000000000000008152600401610486906108c4565b60405180910390fd5b6003548373ffffffffffffffffffffffffffffffffffffffff163110156104eb576040517f08c379a00000000000000000000000000000000000000000000000000000000081526004016104e2906108e4565b60405180910390fd5b60405180608001604052808581526020018473ffffffffffffffffffffffffffffffffffffffff1681526020018381526020016040518060400160405280601581526020017f687474703a2f2f6d756d626f4a756d626f2e6a70670000000000000000000000815250815250600660008681526020019081526020016000206000820151816000015560208201518160010160006101000a81548173ffffffffffffffffffffffffffffffffffffffff021916908373ffffffffffffffffffffffffffffffffffffffff1602179055506040820151816002015560608201518160030190805190602001906105e1929190610651565b509050507fe8315ec63c4fa3a5871a02ea19c7f3d5e7e399992ed31f05d0ba17345ddb95bf8484846040516106189392919061091f565b60405180910390a1600190509392505050565b600160009054906101000a900473ffffffffffffffffffffffffffffffffffffffff1681565b82805461065d906109f7565b90600052602060002090601f01602090048101928261067f57600085556106c6565b82601f1061069857805160ff19168380011785556106c6565b828001600101855582156106c6579182015b828111156106c55782518255916020019190600101906106aa565b5b5090506106d391906106d7565b5090565b5b808211156106f05760008160009055506001016106d8565b5090565b60008135905061070381610b21565b92915050565b60008135905061071881610b38565b92915050565b60006020828403121561073457610733610a58565b5b600061074284828501610709565b91505092915050565b60008060006060848603121561076457610763610a58565b5b600061077286828701610709565b9350506020610783868287016106f4565b925050604061079486828701610709565b9150509250925092565b6107a781610967565b82525050565b6107b681610979565b82525050565b6107c5816109af565b82525050565b6107d4816109d3565b82525050565b60006107e7602283610956565b91506107f282610a5d565b604082019050919050565b600061080a604b83610956565b915061081582610aac565b606082019050919050565b610829816109a5565b82525050565b6000602082019050610844600083018461079e565b92915050565b600060408201905061085f600083018561079e565b61086c6020830184610820565b9392505050565b600060208201905061088860008301846107ad565b92915050565b60006020820190506108a360008301846107bc565b92915050565b60006020820190506108be60008301846107cb565b92915050565b600060208201905081810360008301526108dd816107da565b9050919050565b600060208201905081810360008301526108fd816107fd565b9050919050565b60006020820190506109196000830184610820565b92915050565b60006060820190506109346000830186610820565b610941602083018561079e565b61094e6040830184610820565b949350505050565b600082825260208201905092915050565b600061097282610985565b9050919050565b60008115159050919050565b600073ffffffffffffffffffffffffffffffffffffffff82169050919050565b6000819050919050565b60006109ba826109c1565b9050919050565b60006109cc82610985565b9050919050565b60006109de826109e5565b9050919050565b60006109f082610985565b9050919050565b60006002820490506001821680610a0f57607f821691505b60208210811415610a2357610a22610a29565b5b50919050565b7f4e487b7100000000000000000000000000000000000000000000000000000000600052602260045260246000fd5b600080fd5b7f546869732053756273696469617279206973206e6f206c6f6e6765722076616c60008201527f6964000000000000000000000000000000000000000000000000000000000000602082015250565b7f54686520526563656976657220636f6e747261637420646f6573206e6f74206860008201527f6176652073756666696369656e742062616c616e636520666f7220746869732060208201527f7472616e73616374696f6e000000000000000000000000000000000000000000604082015250565b610b2a81610967565b8114610b3557600080fd5b50565b610b41816109a5565b8114610b4c57600080fd5b5056fea264697066735822122009e8d4224c645cffd8627d08c86350d13a80cf9fe3249485c34cc9c9c26c820864736f6c63430008060033",
  "immutableReferences": {},
  "source": "//SPDX-License-Identifier: UNLICENSED\npragma solidity >=0.7.0 <0.9.0;\n\nimport \"./Whitelist.sol\";\nimport \"./Admin.sol\";\n\n/*\n    This class is a factory class used to produce instances of Corporates, Corporates will act as a parent class to Subsidiary \n*/\ncontract CorporateFactory { \n    address public owner; // owner address \n    Admin public admin; // admin contract\n    mapping(uint => corporate) public corporates; //list of corporates \n    uint numCorps; // number of corporates\n    bool active = true; //whether this contract is active \n\n    // Struct used to store corporates in the mapping\n    struct corporate {\n        address corpAddress;\n        uint id;\n        bool valid;\n    }\n\n    // The constructor links an associated Admin contract \n    constructor(Admin admin_) {\n        owner = msg.sender;\n        admin = admin_;\n    }\n\n    //function to create a new Corporate with name <corpName> \n    function createCorp(string memory corpName, address owner_) public  permissioned activeContract returns(address corpAddr){\n        Corporate newCorp = new Corporate(admin,corpName, owner_, numCorps); // passes parent's admin, address of owner and corp name\n        corporates[numCorps] = corporate(address(newCorp), numCorps, true); // add the corporate to the last spot in the list \n        numCorps += 1;\n        return address(newCorp);\n    }\n\n    // get corporate address given id \n    function getCorporate(uint id) public view activeContract returns(address)  {\n        return corporates[id].corpAddress;\n    }\n\n    // This function is used by the Admin to activate/disable the Corporate Factory contracts \n    function toggleContractActivation() public adminOnly returns (bool){\n        active = !active;\n        return(active);\n    }\n\n    // This function is used to mark a corporate as invalid\n    function disableCorporate(uint id) public permissioned activeContract{\n        require(checkIfCorporateValid(id) == true); // check that it is still valid\n        Corporate(corporates[id].corpAddress).disableCorporate(); // disable the Corporate\n    }\n\n    function checkIfCorporateValid(uint id) public view activeContract returns (bool){\n        require(corporates[id].corpAddress != address(0), 'Not a listed corporate'); //check if corporate in factory list\n        return Corporate(corporates[id].corpAddress).valid(); // return if the contract is valid \n\n    }\n    \n    modifier adminOnly {\n        require(msg.sender == admin.owner(), \"Only the admin can access this function\");\n        _;\n    }\n    modifier permissioned {\n        require(msg.sender == owner || msg.sender == admin.owner(), \"Only the owner/admin can access this function\");\n        _;\n    }\n\n    modifier activeContract{\n        require(active == true, \"Contract no longer active\");\n        _;\n    }\n}\n\ncontract Corporate {\n    address public owner; // owner of the contract e.g. a Corporates own address\n    Admin public admin; // admin of the system\n    CorporateFactory parent; // Corporate Factory this was created from \n    \n    uint public corporate_id; // Corporate ID assigned to \n    string public corporate_name_; // name of the Corporate\n    mapping(address => sub) public subsidiaries; // a mapping of addresses to the sub struct.\n    address[] public subs; // could make this into a struct so the id can be found easily.\n    Whitelist public whitelist; //whitelist associated with the corporate\n    bool public valid; //checks if the contract is valid \n    \n    struct sub {\n        address subAddress;\n        uint id;\n        bool valid;\n    }\n\n    // allows for an owner i.e. corporate to be passed into the constructor \n    constructor(Admin admin_,string memory name, address owner_, uint corp_id_){\n        admin = admin_;\n        owner = owner_;\n        corporate_name_ = name; \n        corporate_id = corp_id_;\n        parent = CorporateFactory(msg.sender);\n        valid = true;    \n    }\n\n    // This function is used to create a Subsidiary branch of the Corporate representing a store\n    function createSub(uint id) public  permissioned validContract returns(address){\n        Subsidiary newSub = new Subsidiary(admin, owner);\n        subs.push(address(newSub)); // add new sub to subsidiary array \n        subsidiaries[address(newSub)] = sub(address(newSub), id, true); // add new sub to mapping\n        return address(newSub);\n    }\n\n    // Returns the subsidiary struct\n    function getSubContract(uint id) public view validContract returns(address)  {\n        return subs[id];\n    }\n\n    function checkIfSubsidiaryValid(address toCheck) public view validContract returns(bool){\n        require(subsidiaries[toCheck].subAddress != address(0), \"Not a subsidiary address\");\n        return subsidiaries[toCheck].valid;\n    }\n    \n    function disableContract() public permissioned validContract{\n        valid = false;\n    }\n\n    // Updates the whiteList \n    function updateWhitelist(Whitelist whitelist_) public permissioned validContract {\n        require(whitelist_.owner() == owner || whitelist.owner() == admin.owner(), \"Whitelist not created by known party\");\n        whitelist = whitelist_;\n    }\n\n    // Disable the Corporate\n    function disableCorporate() public permissioned validContract returns(bool){\n        valid = false;\n        return valid;\n    }\n\n    modifier adminOnly {\n        require(msg.sender == admin.owner(), \"Only the admin can access this function\");\n        _;\n    }\n    modifier permissioned {\n        require(msg.sender == owner || msg.sender == admin.owner() || msg.sender == address(parent), \"Only the owner/admin/parent can access this function\");\n        _;\n    }\n    \n\n    modifier validContract {\n        require(valid == true);\n        _;\n    }\n}\n\n\n\n// This contract represents a Subsidiary branch of a Corporate partner\ncontract Subsidiary {\n    Corporate public parent_; // Corporate Contract\n    Admin public admin; //Admin\n    address public owner; //Corporate owner address\n    \n    uint amount; //Balanace\n    mapping(address => bool) private permissionedAddress; //provides an array of addresses the Sub can withdraw funds to\n    event ValueReceived(address user, uint amount);\n    bool valid;\n\n    // Transaction struct to be sent to the off-chain oracle \n    struct Transaction {\n        uint txId; \n        address receiverId;\n        uint txAmount;\n        string txLink;\n    }\n\n    // Event that triggers the off-chain oracle\n    event TransactionRequest (\n        uint txId,\n        address receiverId,\n        uint txAmount\n    );\n\n    // transaction id to person id\n    mapping(uint => Transaction) transactions; // List of transactions @DEV: need to provide rec address and amount (maybe through struct)\n    uint numOfTransactions;\n\n    constructor(Admin admin_, address owner_) {\n        parent_ = Corporate(msg.sender);\n        admin = admin_;\n        owner = owner_;\n        permissionedAddress[owner_] = true;\n        amount = address(this).balance;\n        valid = true;\n    }\n    //testing oracle\n    event CallbackInsertTX();\n\n    function setInsertTX(uint value) public returns (uint){\n        // require(ownership);\n        amount = value;\n        return value;\n    }\n\n\n    // need to make sure no possibility for double spend\n    // Will reset to zero and prevent withdrawl whilst the send transaction is processed.\n    function getTake() public payable accountsAccess accountValid returns(bool)  {\n        uint prevAmount = amount;\n        amount = 0;\n        return payable(address(parent_)).send(prevAmount);   \n    }\n\n    // Oracle end point for inserting transaction details into blockchain and recording the mapping\n    function insertTransaction(uint txId, address receiverId, uint txAmount) restricted accountValid public returns(bool) {\n        require(receiverId.balance >= amount, \"The Receiver contract does not have sufficient balance for this transaction\"); \n        transactions[txId] = Transaction(txId, receiverId, txAmount, \"http://mumboJumbo.jpg\");\n        emit TransactionRequest(txId, receiverId, txAmount);\n        return true;\n    }\n\n    // Provides functionality to receive funds for the subsidiary\n    receive() external accountValid payable{\n        emit ValueReceived(msg.sender, msg.value);\n    }\n    \n\n    modifier restricted {\n        require(msg.sender == address(parent_) || permissionedAddress[msg.sender] == true);\n        _;\n    }\n\n    // Restrict account access\n    modifier accountsAccess {\n        require(msg.sender == address(parent_));\n        _;\n    }\n    \n    \n    modifier accountValid {\n        require(valid == true, \"This Subsidiary is no longer valid\");\n        _;\n    }\n}",
  "sourcePath": "/Users/Will/Documents/University /Final Year/T2/P2/COMP6452-HelpChain/contracts/CorporateFactory.sol",
  "compiler": {
    "name": "solc",
    "version": "0.8.6+commit.11564f7e.Emscripten.clang"
  },
  "schemaVersion": "3.4.2",
  "updatedAt": "2021-08-07T15:35:48.917Z",
  "networkType": "ethereum",
  "devdoc": {
    "kind": "dev",
    "methods": {},
    "version": 1
  },
  "userdoc": {
    "kind": "user",
    "methods": {},
    "version": 1
  }
}