{
  "contractName": "Subsidiary",
  "abi": [
    {
      "inputs": [
        {
          "internalType": "contract Admin",
          "name": "admin_",
          "type": "address"
        },
        {
          "internalType": "address",
          "name": "owner_",
          "type": "address"
        }
      ],
      "stateMutability": "nonpayable",
      "type": "constructor"
    },
    {
      "anonymous": false,
      "inputs": [
        {
          "indexed": false,
          "internalType": "uint256",
          "name": "txId",
          "type": "uint256"
        },
        {
          "indexed": false,
          "internalType": "address",
          "name": "receiverId",
          "type": "address"
        },
        {
          "indexed": false,
          "internalType": "uint256",
          "name": "txAmount",
          "type": "uint256"
        }
      ],
      "name": "TransactionRequest",
      "type": "event"
    },
    {
      "anonymous": false,
      "inputs": [
        {
          "indexed": false,
          "internalType": "address",
          "name": "user",
          "type": "address"
        },
        {
          "indexed": false,
          "internalType": "uint256",
          "name": "amount",
          "type": "uint256"
        }
      ],
      "name": "ValueReceived",
      "type": "event"
    },
    {
      "inputs": [],
      "name": "admin",
      "outputs": [
        {
          "internalType": "contract Admin",
          "name": "",
          "type": "address"
        }
      ],
      "stateMutability": "view",
      "type": "function"
    },
    {
      "inputs": [],
      "name": "amount",
      "outputs": [
        {
          "internalType": "uint256",
          "name": "",
          "type": "uint256"
        }
      ],
      "stateMutability": "view",
      "type": "function"
    },
    {
      "inputs": [],
      "name": "numOfTransactions",
      "outputs": [
        {
          "internalType": "uint256",
          "name": "",
          "type": "uint256"
        }
      ],
      "stateMutability": "view",
      "type": "function"
    },
    {
      "inputs": [],
      "name": "owner",
      "outputs": [
        {
          "internalType": "address",
          "name": "",
          "type": "address"
        }
      ],
      "stateMutability": "view",
      "type": "function"
    },
    {
      "inputs": [],
      "name": "parent_",
      "outputs": [
        {
          "internalType": "contract Corporate",
          "name": "",
          "type": "address"
        }
      ],
      "stateMutability": "view",
      "type": "function"
    },
    {
      "inputs": [
        {
          "internalType": "uint256",
          "name": "",
          "type": "uint256"
        }
      ],
      "name": "transactions",
      "outputs": [
        {
          "internalType": "uint256",
          "name": "txId",
          "type": "uint256"
        },
        {
          "internalType": "address",
          "name": "receiverId",
          "type": "address"
        },
        {
          "internalType": "uint256",
          "name": "txAmount",
          "type": "uint256"
        },
        {
          "internalType": "string",
          "name": "txLink",
          "type": "string"
        }
      ],
      "stateMutability": "view",
      "type": "function"
    },
    {
      "inputs": [],
      "name": "valid",
      "outputs": [
        {
          "internalType": "bool",
          "name": "",
          "type": "bool"
        }
      ],
      "stateMutability": "view",
      "type": "function"
    },
    {
      "stateMutability": "payable",
      "type": "receive"
    },
    {
      "inputs": [],
      "name": "getTake",
      "outputs": [
        {
          "internalType": "bool",
          "name": "",
          "type": "bool"
        }
      ],
      "stateMutability": "payable",
      "type": "function"
    },
    {
      "inputs": [
        {
          "internalType": "contract Receiver",
          "name": "receiverId",
          "type": "address"
        },
        {
          "internalType": "uint256",
          "name": "txAmount",
          "type": "uint256"
        },
        {
          "internalType": "string",
          "name": "link",
          "type": "string"
        }
      ],
      "name": "insertTransaction",
      "outputs": [
        {
          "internalType": "bool",
          "name": "",
          "type": "bool"
        }
      ],
      "stateMutability": "nonpayable",
      "type": "function"
    }
  ],
  "bytecode": "0x60806040523480156200001157600080fd5b506040516200140d3803806200140d8339818101604052810190620000379190620001a9565b336000806101000a81548173ffffffffffffffffffffffffffffffffffffffff021916908373ffffffffffffffffffffffffffffffffffffffff16021790555081600160006101000a81548173ffffffffffffffffffffffffffffffffffffffff021916908373ffffffffffffffffffffffffffffffffffffffff16021790555080600260006101000a81548173ffffffffffffffffffffffffffffffffffffffff021916908373ffffffffffffffffffffffffffffffffffffffff1602179055506001600460008373ffffffffffffffffffffffffffffffffffffffff1673ffffffffffffffffffffffffffffffffffffffff16815260200190815260200160002060006101000a81548160ff021916908315150217905550476003819055506001600560006101000a81548160ff021916908315150217905550505062000271565b6000815190506200018c816200023d565b92915050565b600081519050620001a38162000257565b92915050565b60008060408385031215620001c357620001c262000238565b5b6000620001d38582860162000192565b9250506020620001e6858286016200017b565b9150509250929050565b6000620001fd8262000218565b9050919050565b60006200021182620001f0565b9050919050565b600073ffffffffffffffffffffffffffffffffffffffff82169050919050565b600080fd5b6200024881620001f0565b81146200025457600080fd5b50565b620002628162000204565b81146200026e57600080fd5b50565b61118c80620002816000396000f3fe60806040526004361061008a5760003560e01c8063aa8c217c11610059578063aa8c217c146101b9578063b119a9d6146101e4578063c19912191461020f578063d83328001461023a578063f851a44014610265576100ee565b80638b734233146100f35780638da5cb5b146101115780639ace38c21461013c578063a4e0aaa61461017c576100ee565b366100ee5760011515600560009054906101000a900460ff161515146100e5576040517f08c379a00000000000000000000000000000000000000000000000000000000081526004016100dc90610ca2565b60405180910390fd5b47600381905550005b600080fd5b6100fb610290565b6040516101089190610c28565b60405180910390f35b34801561011d57600080fd5b506101266103ab565b6040516101339190610c0d565b60405180910390f35b34801561014857600080fd5b50610163600480360381019061015e9190610b07565b6103d1565b6040516101739493929190610cfd565b60405180910390f35b34801561018857600080fd5b506101a3600480360381019061019e9190610a98565b6104a9565b6040516101b09190610c28565b60405180910390f35b3480156101c557600080fd5b506101ce61082c565b6040516101db9190610ce2565b60405180910390f35b3480156101f057600080fd5b506101f9610832565b6040516102069190610c5e565b60405180910390f35b34801561021b57600080fd5b50610224610856565b6040516102319190610c28565b60405180910390f35b34801561024657600080fd5b5061024f610869565b60405161025c9190610ce2565b60405180910390f35b34801561027157600080fd5b5061027a61086f565b6040516102879190610c43565b60405180910390f35b60008060009054906101000a900473ffffffffffffffffffffffffffffffffffffffff1673ffffffffffffffffffffffffffffffffffffffff163373ffffffffffffffffffffffffffffffffffffffff16146102eb57600080fd5b60011515600560009054906101000a900460ff16151514610341576040517f08c379a000000000000000000000000000000000000000000000000000000000815260040161033890610ca2565b60405180910390fd5b60006003549050600060038190555060008054906101000a900473ffffffffffffffffffffffffffffffffffffffff1673ffffffffffffffffffffffffffffffffffffffff166108fc829081150290604051600060405180830381858888f1935050505091505090565b600260009054906101000a900473ffffffffffffffffffffffffffffffffffffffff1681565b60066020528060005260406000206000915090508060000154908060010160009054906101000a900473ffffffffffffffffffffffffffffffffffffffff169080600201549080600301805461042690610ee7565b80601f016020809104026020016040519081016040528092919081815260200182805461045290610ee7565b801561049f5780601f106104745761010080835404028352916020019161049f565b820191906000526020600020905b81548152906001019060200180831161048257829003601f168201915b5050505050905084565b6000604051806080016040528060075481526020018573ffffffffffffffffffffffffffffffffffffffff168152602001848152602001838152506006600060075481526020019081526020016000206000820151816000015560208201518160010160006101000a81548173ffffffffffffffffffffffffffffffffffffffff021916908373ffffffffffffffffffffffffffffffffffffffff160217905550604082015181600201556060820151816003019080519060200190610570929190610895565b509050506007600081548092919061058790610f4a565b9190505550600160009054906101000a900473ffffffffffffffffffffffffffffffffffffffff1673ffffffffffffffffffffffffffffffffffffffff16638da5cb5b6040518163ffffffff1660e01b815260040160206040518083038186803b1580156105f457600080fd5b505afa158015610608573d6000803e3d6000fd5b505050506040513d601f19601f8201168201806040525081019061062c9190610a11565b73ffffffffffffffffffffffffffffffffffffffff168473ffffffffffffffffffffffffffffffffffffffff1663f851a4406040518163ffffffff1660e01b815260040160206040518083038186803b15801561068857600080fd5b505afa15801561069c573d6000803e3d6000fd5b505050506040513d601f19601f820116820180604052508101906106c09190610a6b565b73ffffffffffffffffffffffffffffffffffffffff16638da5cb5b6040518163ffffffff1660e01b815260040160206040518083038186803b15801561070557600080fd5b505afa158015610719573d6000803e3d6000fd5b505050506040513d601f19601f8201168201806040525081019061073d9190610a11565b73ffffffffffffffffffffffffffffffffffffffff1614610793576040517f08c379a000000000000000000000000000000000000000000000000000000000815260040161078a90610cc2565b60405180910390fd5b8373ffffffffffffffffffffffffffffffffffffffff166353c3d2f330856040518363ffffffff1660e01b81526004016107ce929190610c79565b602060405180830381600087803b1580156107e857600080fd5b505af11580156107fc573d6000803e3d6000fd5b505050506040513d601f19601f820116820180604052508101906108209190610a3e565b50600190509392505050565b60035481565b60008054906101000a900473ffffffffffffffffffffffffffffffffffffffff1681565b600560009054906101000a900460ff1681565b60075481565b600160009054906101000a900473ffffffffffffffffffffffffffffffffffffffff1681565b8280546108a190610ee7565b90600052602060002090601f0160209004810192826108c3576000855561090a565b82601f106108dc57805160ff191683800117855561090a565b8280016001018555821561090a579182015b828111156109095782518255916020019190600101906108ee565b5b509050610917919061091b565b5090565b5b8082111561093457600081600090555060010161091c565b5090565b600061094b61094684610d6e565b610d49565b90508281526020810184848401111561096757610966611025565b5b610972848285610ea5565b509392505050565b600081519050610989816110e3565b92915050565b60008151905061099e816110fa565b92915050565b6000815190506109b381611111565b92915050565b6000813590506109c881611128565b92915050565b600082601f8301126109e3576109e2611020565b5b81356109f3848260208601610938565b91505092915050565b600081359050610a0b8161113f565b92915050565b600060208284031215610a2757610a2661102f565b5b6000610a358482850161097a565b91505092915050565b600060208284031215610a5457610a5361102f565b5b6000610a628482850161098f565b91505092915050565b600060208284031215610a8157610a8061102f565b5b6000610a8f848285016109a4565b91505092915050565b600080600060608486031215610ab157610ab061102f565b5b6000610abf868287016109b9565b9350506020610ad0868287016109fc565b925050604084013567ffffffffffffffff811115610af157610af061102a565b5b610afd868287016109ce565b9150509250925092565b600060208284031215610b1d57610b1c61102f565b5b6000610b2b848285016109fc565b91505092915050565b610b3d81610dbb565b82525050565b610b4c81610ddf565b82525050565b610b5b81610e39565b82525050565b610b6a81610e5d565b82525050565b610b7981610e81565b82525050565b6000610b8a82610d9f565b610b948185610daa565b9350610ba4818560208601610eb4565b610bad81611034565b840191505092915050565b6000610bc5602283610daa565b9150610bd082611045565b604082019050919050565b6000610be8602583610daa565b9150610bf382611094565b604082019050919050565b610c0781610e2f565b82525050565b6000602082019050610c226000830184610b34565b92915050565b6000602082019050610c3d6000830184610b43565b92915050565b6000602082019050610c586000830184610b52565b92915050565b6000602082019050610c736000830184610b61565b92915050565b6000604082019050610c8e6000830185610b70565b610c9b6020830184610bfe565b9392505050565b60006020820190508181036000830152610cbb81610bb8565b9050919050565b60006020820190508181036000830152610cdb81610bdb565b9050919050565b6000602082019050610cf76000830184610bfe565b92915050565b6000608082019050610d126000830187610bfe565b610d1f6020830186610b34565b610d2c6040830185610bfe565b8181036060830152610d3e8184610b7f565b905095945050505050565b6000610d53610d64565b9050610d5f8282610f19565b919050565b6000604051905090565b600067ffffffffffffffff821115610d8957610d88610ff1565b5b610d9282611034565b9050602081019050919050565b600081519050919050565b600082825260208201905092915050565b6000610dc682610e0f565b9050919050565b6000610dd882610e0f565b9050919050565b60008115159050919050565b6000610df682610dbb565b9050919050565b6000610e0882610dcd565b9050919050565b600073ffffffffffffffffffffffffffffffffffffffff82169050919050565b6000819050919050565b6000610e4482610e4b565b9050919050565b6000610e5682610e0f565b9050919050565b6000610e6882610e6f565b9050919050565b6000610e7a82610e0f565b9050919050565b6000610e8c82610e93565b9050919050565b6000610e9e82610e0f565b9050919050565b82818337600083830152505050565b60005b83811015610ed2578082015181840152602081019050610eb7565b83811115610ee1576000848401525b50505050565b60006002820490506001821680610eff57607f821691505b60208210811415610f1357610f12610fc2565b5b50919050565b610f2282611034565b810181811067ffffffffffffffff82111715610f4157610f40610ff1565b5b80604052505050565b6000610f5582610e2f565b91507fffffffffffffffffffffffffffffffffffffffffffffffffffffffffffffffff821415610f8857610f87610f93565b5b600182019050919050565b7f4e487b7100000000000000000000000000000000000000000000000000000000600052601160045260246000fd5b7f4e487b7100000000000000000000000000000000000000000000000000000000600052602260045260246000fd5b7f4e487b7100000000000000000000000000000000000000000000000000000000600052604160045260246000fd5b600080fd5b600080fd5b600080fd5b600080fd5b6000601f19601f8301169050919050565b7f546869732053756273696469617279206973206e6f206c6f6e6765722076616c60008201527f6964000000000000000000000000000000000000000000000000000000000000602082015250565b7f54686973207265636569766572206973206e6f7420637265617465642062792060008201527f61646d696e000000000000000000000000000000000000000000000000000000602082015250565b6110ec81610dbb565b81146110f757600080fd5b50565b61110381610ddf565b811461110e57600080fd5b50565b61111a81610deb565b811461112557600080fd5b50565b61113181610dfd565b811461113c57600080fd5b50565b61114881610e2f565b811461115357600080fd5b5056fea264697066735822122029ac6bc868437497865437143c789df164b62f25238e46fe8b1c60dcc35be4d664736f6c63430008060033",
  "immutableReferences": {},
  "source": "//SPDX-License-Identifier: UNLICENSED\npragma solidity >=0.7.0 <0.9.0;\n\nimport \"./Whitelist.sol\";\nimport \"./Admin.sol\";\nimport \"./ReceiverFactory.sol\";\n\n/*\n    This class is a factory class used to produce instances of Corporates, Corporates will act as a parent class to Subsidiary \n*/\ncontract CorporateFactory { \n    address public owner; // owner address \n    Admin public admin; // admin contract\n    mapping(uint => corporate) public corporates; //list of corporates \n    uint public numCorps; // number of corporates\n    bool active = true; //whether this contract is active \n\n    // Struct used to store corporates in the mapping\n    struct corporate {\n        address corpAddress;\n        uint id;\n        bool valid;\n    }\n\n    // The constructor links an associated Admin contract \n    constructor(Admin admin_) {\n        owner = msg.sender;\n        admin = admin_;\n    }\n\n    //function to create a new Corporate with name <corpName> \n    function createCorp(string memory corpName, address owner_) public  permissioned activeContract returns(address corpAddr){\n        Corporate newCorp = new Corporate(admin,corpName, owner_, numCorps); // passes parent's admin, address of owner and corp name\n        corporates[numCorps] = corporate(address(newCorp), numCorps, true); // add the corporate to the last spot in the list \n        numCorps += 1;\n        return address(newCorp);\n    }\n\n    // get corporate address given id \n    function getCorporate(uint id) public view activeContract returns(address)  {\n        return corporates[id].corpAddress;\n    }\n\n    // This function is used by the Admin to activate/disable the Corporate Factory contracts \n    function toggleContractActivation() public adminOnly returns (bool){\n        active = !active;\n        return(active);\n    }\n\n    // This function is used to mark a corporate as invalid\n    function disableCorporate(uint id) public permissioned activeContract{\n        require(checkIfCorporateValid(id) == true); // check that it is still valid\n        Corporate(corporates[id].corpAddress).disableCorporate(); // disable the Corporate\n    }\n\n    function checkIfCorporateValid(uint id) public view activeContract returns (bool){\n        require(corporates[id].corpAddress != address(0), 'Not a listed corporate'); //check if corporate in factory list\n        return Corporate(corporates[id].corpAddress).valid(); // return if the contract is valid \n\n    }\n    \n    modifier adminOnly {\n        require(msg.sender == admin.owner(), \"Only the admin can access this function\");\n        _;\n    }\n    modifier permissioned {\n        require(msg.sender == owner || msg.sender == admin.owner(), \"Only the owner/admin can access this function\");\n        _;\n    }\n\n    modifier activeContract{\n        require(active == true, \"Contract no longer active\");\n        _;\n    }\n}\n\ncontract Corporate {\n    address public owner; // owner of the contract e.g. a Corporates own address\n    Admin public admin; // admin of the system\n    CorporateFactory parent; // Corporate Factory this was created from \n    \n    uint public corporate_id; // Corporate ID assigned to \n    string public corporate_name_; // name of the Corporate\n    mapping(address => sub) public subsidiaries; // a mapping of addresses to the sub struct.\n    address[] public subs; // could make this into a struct so the id can be found easily.\n    Whitelist public whitelist; //whitelist associated with the corporate\n    bool public valid; //checks if the contract is valid \n    uint public numOfSubs; \n    \n    struct sub {\n        address subAddress;\n        uint id;\n        bool valid;\n    }\n\n    // allows for an owner i.e. corporate to be passed into the constructor \n    constructor(Admin admin_,string memory name, address owner_, uint corp_id_){\n        admin = admin_;\n        owner = owner_;\n        corporate_name_ = name; \n        corporate_id = corp_id_;\n        parent = CorporateFactory(msg.sender);\n        valid = true;    \n    }\n\n    // This function is used to create a Subsidiary branch of the Corporate representing a store\n    function createSub() public  permissioned validContract returns(address){\n        Subsidiary newSub = new Subsidiary(admin, owner);\n        subs.push(address(newSub)); // add new sub to subsidiary array \n        subsidiaries[address(newSub)] = sub(address(newSub), numOfSubs, true); // add new sub to mapping\n        numOfSubs++;\n        return address(newSub);\n    }\n\n    // Returns the subsidiary struct\n    function getSubContract(uint id) public view validContract returns(address)  {\n        return subs[id];\n    }\n\n    function checkIfSubsidiaryValid(address toCheck) public view validContract returns(bool){\n        require(subsidiaries[toCheck].subAddress != address(0), \"Not a subsidiary address\");\n        return subsidiaries[toCheck].valid;\n    }\n    \n    function disableContract() public permissioned validContract{\n        valid = false;\n    }\n\n    // Updates the whiteList \n    function updateWhitelist(Whitelist whitelist_) public permissioned validContract {\n        require(whitelist_.owner() == owner || whitelist.owner() == admin.owner(), \"Whitelist not created by known party\");\n        whitelist = whitelist_;\n    }\n\n    // Disable the Corporate\n    function disableCorporate() public permissioned validContract returns(bool){\n        valid = false;\n        return valid;\n    }\n\n    modifier adminOnly {\n        require(msg.sender == admin.owner(), \"Only the admin can access this function\");\n        _;\n    }\n    modifier permissioned {\n        require(msg.sender == owner || msg.sender == admin.owner() || msg.sender == address(parent), \"Only the owner/admin/parent can access this function\");\n        _;\n    }\n    \n\n    modifier validContract {\n        require(valid == true);\n        _;\n    }\n}\n\n// This contract represents a Subsidiary branch of a Corporate partner\ncontract Subsidiary {\n    Corporate public parent_; // Corporate Contract\n    Admin public admin; //Admin\n    address public owner; //Corporate owner address\n    \n    uint public amount; //Balance\n    mapping(address => bool) private permissionedAddress; //provides an array of addresses the Sub can withdraw funds to\n    event ValueReceived(address user, uint amount);\n    bool public valid;\n\n    // Transaction struct to be sent to the off-chain oracle \n    struct Transaction {\n        uint txId; \n        address receiverId;\n        uint txAmount;\n        string txLink;\n    }\n\n    // Event that logs the off-chain oracle call\n    event TransactionRequest (\n        uint txId,\n        address receiverId,\n        uint txAmount\n    );\n\n    // transaction id to person id\n    mapping(uint => Transaction) public transactions; // List of transactions @DEV: need to provide rec address and amount (maybe through struct)\n    uint public numOfTransactions;\n\n    constructor(Admin admin_, address owner_) {\n        parent_ = Corporate(msg.sender);\n        admin = admin_;\n        owner = owner_;\n        permissionedAddress[owner_] = true;\n        amount = address(this).balance;\n        valid = true;\n    }\n\n\n    // need to make sure no possibility for double spend\n    // Will reset to zero and prevent withdrawl whilst the send transaction is processed.\n    function getTake() public payable accountsAccess accountValid returns(bool)  {\n        uint prevAmount = amount;\n        amount = 0;\n        return payable(address(parent_)).send(prevAmount);   \n    }\n\n    // Oracle end point for inserting transaction details into blockchain and recording the mapping\n    // function insertTransaction(uint txId, address receiverId, uint txAmount) restricted accountValid public returns(bool) {\n    function insertTransaction(Receiver receiverId, uint txAmount, string memory link) public returns(bool) {\n        transactions[numOfTransactions] = Transaction(numOfTransactions, address(receiverId), txAmount, link);\n        numOfTransactions++;\n        require(receiverId.admin().owner() == admin.owner(), \"This receiver is not created by admin\");\n        receiverId.sendSubFunds(this, txAmount);\n        return true;\n    }\n\n    // Provides functionality to receive funds for the subsidiary\n    receive() external accountValid payable{\n        amount = address(this).balance;\n    }\n    \n\n    modifier restricted {\n        require(msg.sender == address(parent_) || permissionedAddress[msg.sender] == true);\n        _;\n    }\n\n    // Restrict account access\n    modifier accountsAccess {\n        require(msg.sender == address(parent_));\n        _;\n    }\n    \n    \n    modifier accountValid {\n        require(valid == true, \"This Subsidiary is no longer valid\");\n        _;\n    }\n}",
  "sourcePath": "/Users/dylan/Library/Mobile Documents/com~apple~CloudDocs/Developer/UNSW/COMP6452_Blockchain_Architecture/COMP6452-HelpChain/contracts/CorporateFactory.sol",
  "compiler": {
    "name": "solc",
    "version": "0.8.6+commit.11564f7e.Emscripten.clang"
  },
  "schemaVersion": "3.4.2",
  "updatedAt": "2021-08-08T13:30:49.805Z",
  "devdoc": {
    "kind": "dev",
    "methods": {},
    "version": 1
  },
  "userdoc": {
    "kind": "user",
    "methods": {},
    "version": 1
  }
}