{
  "contractName": "Subsidiary",
  "abi": [
    {
      "inputs": [
        {
          "internalType": "address",
          "name": "parent",
          "type": "address"
        }
      ],
      "stateMutability": "nonpayable",
      "type": "constructor"
    },
    {
      "anonymous": false,
      "inputs": [
        {
          "indexed": false,
          "internalType": "address",
          "name": "user",
          "type": "address"
        },
        {
          "indexed": false,
          "internalType": "uint256",
          "name": "amount",
          "type": "uint256"
        }
      ],
      "name": "ValueReceived",
      "type": "event"
    },
    {
      "stateMutability": "payable",
      "type": "receive"
    },
    {
      "inputs": [],
      "name": "getTake",
      "outputs": [
        {
          "internalType": "bool",
          "name": "",
          "type": "bool"
        }
      ],
      "stateMutability": "payable",
      "type": "function"
    },
    {
      "inputs": [
        {
          "internalType": "uint256",
          "name": "transID",
          "type": "uint256"
        },
        {
          "internalType": "uint256",
          "name": "person_id",
          "type": "uint256"
        }
      ],
      "name": "insertTransaction",
      "outputs": [
        {
          "internalType": "bool",
          "name": "",
          "type": "bool"
        }
      ],
      "stateMutability": "nonpayable",
      "type": "function"
    }
  ],
  "bytecode": "0x608060405234801561001057600080fd5b506040516104e93803806104e983398181016040528101906100329190610095565b806000806101000a81548173ffffffffffffffffffffffffffffffffffffffff021916908373ffffffffffffffffffffffffffffffffffffffff160217905550600060018190555050610110565b60008151905061008f816100f9565b92915050565b6000602082840312156100ab576100aa6100f4565b5b60006100b984828501610080565b91505092915050565b60006100cd826100d4565b9050919050565b600073ffffffffffffffffffffffffffffffffffffffff82169050919050565b600080fd5b610102816100c2565b811461010d57600080fd5b50565b6103ca8061011f6000396000f3fe60806040526004361061002d5760003560e01c80634daa6a98146100725780638b734233146100af5761006d565b3661006d577f7e71433ddf847725166244795048ecf3e3f9f35628254ecbf73605666423349333346040516100639291906102ec565b60405180910390a1005b600080fd5b34801561007e57600080fd5b506100996004803603810190610094919061027f565b6100cd565b6040516100a69190610315565b60405180910390f35b6100b76101a5565b6040516100c49190610315565b60405180910390f35b60008060009054906101000a900473ffffffffffffffffffffffffffffffffffffffff1673ffffffffffffffffffffffffffffffffffffffff163373ffffffffffffffffffffffffffffffffffffffff16148061017a575060011515600260003373ffffffffffffffffffffffffffffffffffffffff1673ffffffffffffffffffffffffffffffffffffffff16815260200190815260200160002060009054906101000a900460ff161515145b61018357600080fd5b8160036000858152602001908152602001600020819055506001905092915050565b60008060009054906101000a900473ffffffffffffffffffffffffffffffffffffffff1673ffffffffffffffffffffffffffffffffffffffff163373ffffffffffffffffffffffffffffffffffffffff161461020057600080fd5b60006001549050600060018190555060008054906101000a900473ffffffffffffffffffffffffffffffffffffffff1673ffffffffffffffffffffffffffffffffffffffff166108fc829081150290604051600060405180830381858888f1935050505091505090565b6000813590506102798161037d565b92915050565b6000806040838503121561029657610295610378565b5b60006102a48582860161026a565b92505060206102b58582860161026a565b9150509250929050565b6102c881610330565b82525050565b6102d781610342565b82525050565b6102e68161036e565b82525050565b600060408201905061030160008301856102bf565b61030e60208301846102dd565b9392505050565b600060208201905061032a60008301846102ce565b92915050565b600061033b8261034e565b9050919050565b60008115159050919050565b600073ffffffffffffffffffffffffffffffffffffffff82169050919050565b6000819050919050565b600080fd5b6103868161036e565b811461039157600080fd5b5056fea26469706673582212201d4a40055e091cfc0f17bd26ce2ed109d3c9ac4c506e56c05bc19a09b637e4ce64736f6c63430008060033",
  "immutableReferences": {},
  "source": "pragma solidity >=0.7.0 <0.9.0;\n\nimport \"./whitelist.sol\";\n\n\ncontract CorporateFactory { \n    address public owner; // owner address \n    mapping(uint => corporate) public corporates;\n    uint numCorps; // a mapping of contract ids to the corporate struct.\n    bool active = true;\n\n    struct corporate {\n        address corpAddress;\n        uint id;\n        bool valid;\n    }\n\n    constructor() {\n        owner = msg.sender;\n    }\n\n    function createCorp(string memory corpName) public  permissioned activeContract returns(bool){\n        Corporate newCorp = new Corporate(owner,corpName);\n        corporates[numCorps] = corporate(address(newCorp), numCorps, true);\n        numCorps += 1;\n        return true;\n    }\n\n    function getCorporate(uint id) public view permissioned returns(address)  {\n        return corporates[id].corpAddress;\n    }\n\n    function toggleContractActivation() public permissioned returns (bool){\n        active = !active;\n        return(active);\n    }\n\n    modifier permissioned {\n        require(msg.sender == owner, \"Only the owner can access this function\");\n        _;\n    }\n\n    modifier activeContract{\n        require(active = true, \"Contract no longer active\");\n        _;\n    }\n}\n\ncontract Corporate {\n    address public creator_; // creator of the contract\n    address public owner; // creator of the contract\n    string public corporate_name_; // name of the contract\n    mapping(uint => sub) public subsidiaries; // a mapping of contract ids to the sub struct.\n    address[] public subs; // could make this into a struct so the id can be found easily.\n    whitelist public whitelist_;\n    \n    struct sub {\n        address subAddress;\n        uint id;\n        bool init;\n    }\n\n\n    constructor(address owner_, string memory name){\n        owner = owner_;\n        creator_ = msg.sender;\n        corporate_name_ = name;     \n    }\n\n    function createSub(uint id) public  permissioned returns(bool){\n        // if set to default address the contract does not yet exist \n        require(getSubContract(id) != address(0));\n        Subsidiary newSub = new Subsidiary(address(this));\n        subs.push(address(newSub));\n        subsidiaries[id] = sub(address(newSub), id, true);\n        return true;\n    }\n\n    function getSubContract(uint id) public permissioned returns(address)  {\n        return subsidiaries[id].subAddress;\n    }\n\n    function updateWhitelist(uint id) public permissioned returns(address)  {\n        return subsidiaries[id].subAddress;\n    }\n\n    modifier permissioned {\n        require(msg.sender == owner || msg.sender == creator_);\n        _;\n    }\n}\n\n\ncontract Subsidiary {\n    address payable parent_;\n    uint amount;\n    mapping(address => bool) permissionedAddress;\n    event ValueReceived(address user, uint amount);\n\n    // transaction id to person id\n    mapping(uint => uint) transactions;\n\n    constructor(address parent) {\n        parent_ = payable(parent);\n        amount = 0;\n    }\n\n    // need to make sure no possibility for double spend\n    // Will reset to zero and prevent withdrawl whilst the send transaction is processed.\n    function getTake() accountsAccess() public payable returns(bool)  {\n        uint prevAmount = amount;\n        amount = 0;\n        return parent_.send(prevAmount); // need to write a fallback function if this fails.\n    }\n\n    // Oracle end point.\n    // reassess this function as it always returns true.\n    function insertTransaction(uint transID, uint person_id) restricted() public returns(bool) {\n        transactions[transID] = person_id;\n        return true;\n    }\n\n    receive() external payable{\n        emit ValueReceived(msg.sender, msg.value);\n    }\n    \n    modifier restricted {\n        require(msg.sender == parent_ || permissionedAddress[msg.sender] == true);\n        _;\n    }\n\n    modifier accountsAccess {\n        require(msg.sender == parent_);\n        _;\n    }\n}",
  "sourcePath": "/Users/dylan/Library/Mobile Documents/com~apple~CloudDocs/Developer/UNSW/COMP6452_Blockchain_Architecture/COMP6452-HelpChain/contracts/CorporateFactory.sol",
  "compiler": {
    "name": "solc",
    "version": "0.8.6+commit.11564f7e.Emscripten.clang"
  },
  "schemaVersion": "3.4.2",
  "updatedAt": "2021-07-27T22:25:46.834Z",
  "devdoc": {
    "kind": "dev",
    "methods": {},
    "version": 1
  },
  "userdoc": {
    "kind": "user",
    "methods": {},
    "version": 1
  }
}