{
  "contractName": "Subsidiary",
  "abi": [
    {
      "inputs": [
        {
          "internalType": "address",
          "name": "parent",
          "type": "address"
        }
      ],
      "stateMutability": "nonpayable",
      "type": "constructor"
    },
    {
      "inputs": [],
      "name": "getTake",
      "outputs": [
        {
          "internalType": "bool",
          "name": "",
          "type": "bool"
        }
      ],
      "stateMutability": "payable",
      "type": "function"
    },
    {
      "inputs": [
        {
          "internalType": "uint256",
          "name": "transID",
          "type": "uint256"
        },
        {
          "internalType": "uint256",
          "name": "person_id",
          "type": "uint256"
        }
      ],
      "name": "insertTransaction",
      "outputs": [
        {
          "internalType": "bool",
          "name": "",
          "type": "bool"
        }
      ],
      "stateMutability": "nonpayable",
      "type": "function"
    }
  ],
  "bytecode": "0x608060405234801561001057600080fd5b5060405161042c38038061042c83398181016040528101906100329190610095565b806000806101000a81548173ffffffffffffffffffffffffffffffffffffffff021916908373ffffffffffffffffffffffffffffffffffffffff160217905550600060018190555050610110565b60008151905061008f816100f9565b92915050565b6000602082840312156100ab576100aa6100f4565b5b60006100b984828501610080565b91505092915050565b60006100cd826100d4565b9050919050565b600073ffffffffffffffffffffffffffffffffffffffff82169050919050565b600080fd5b610102816100c2565b811461010d57600080fd5b50565b61030d8061011f6000396000f3fe6080604052600436106100295760003560e01c80634daa6a981461002e5780638b7342331461006b575b600080fd5b34801561003a57600080fd5b506100556004803603810190610050919061023b565b610089565b604051610062919061028a565b60405180910390f35b610073610161565b604051610080919061028a565b60405180910390f35b60008060009054906101000a900473ffffffffffffffffffffffffffffffffffffffff1673ffffffffffffffffffffffffffffffffffffffff163373ffffffffffffffffffffffffffffffffffffffff161480610136575060011515600260003373ffffffffffffffffffffffffffffffffffffffff1673ffffffffffffffffffffffffffffffffffffffff16815260200190815260200160002060009054906101000a900460ff161515145b61013f57600080fd5b8160036000858152602001908152602001600020819055506001905092915050565b60008060009054906101000a900473ffffffffffffffffffffffffffffffffffffffff1673ffffffffffffffffffffffffffffffffffffffff163373ffffffffffffffffffffffffffffffffffffffff16146101bc57600080fd5b60006001549050600060018190555060008054906101000a900473ffffffffffffffffffffffffffffffffffffffff1673ffffffffffffffffffffffffffffffffffffffff166108fc829081150290604051600060405180830381858888f1935050505091505090565b600081359050610235816102c0565b92915050565b60008060408385031215610252576102516102bb565b5b600061026085828601610226565b925050602061027185828601610226565b9150509250929050565b610284816102a5565b82525050565b600060208201905061029f600083018461027b565b92915050565b60008115159050919050565b6000819050919050565b600080fd5b6102c9816102b1565b81146102d457600080fd5b5056fea264697066735822122013932070cbf764513b1239d12ba3337eb6f0ca0d68c5ca922e8923992f554aec64736f6c63430008060033",
  "immutableReferences": {},
  "source": "pragma solidity >=0.7.0 <0.9.0;\n\nimport \"./whitelist.sol\";\n\n\ncontract CorporateFactory { \n    address public owner; // owner address \n    mapping(uint => corporate) public corporates;\n    uint numCorps; // a mapping of contract ids to the corporate struct.\n\n    struct corporate {\n        address corpAddress;\n        uint id;\n        bool valid;\n    }\n\n    constructor(address owner_) public {\n        owner = owner_;\n    }\n\n    // function createCorp(string memory corpName) public  permissioned returns(bool){\n    //     Corporate newCorp = new Corporate(owner,corpName);\n    //     corporate[numCorps] = corporate(address(newCorp), numCorps, true);\n    //     numCorps += 1;\n    // }\n\n    function getCorporate(uint id) public permissioned returns(address)  {\n        return corporates[id].corpAddress;\n    }\n\n    modifier permissioned {\n        require(msg.sender == owner);\n        _;\n    }\n}\n\ncontract Corporate {\n    address public creator_; // creator of the contract\n    string public corporate_name_; // name of the contract\n    mapping(uint => sub) public subsidiaries; // a mapping of contract ids to the sub struct.\n    address[] public subs; // could make this into a struct so the id can be found easily.\n    whitelist public whitelist_;\n    address public owner;\n    \n    struct sub {\n        address subAddress;\n        uint id;\n        bool init;\n    }\n\n\n    constructor(address owner_, string memory name) public {\n        owner = owner_;\n        creator_ = msg.sender;\n        corporate_name_ = name;     \n    }\n\n    function createSub(uint id) public  permissioned returns(bool){\n        // if set to default address the contract does not yet exist \n        require(getSubContract(id) != address(0));\n        Subsidiary newSub = new Subsidiary(address(this));\n        subs.push(address(newSub));\n        subsidiaries[id] = sub(address(newSub), id, true);\n    }\n\n    function getSubContract(uint id) public permissioned returns(address)  {\n        return subsidiaries[id].subAddress;\n    }\n\n    function updateWhitelist(uint id) public permissioned returns(address)  {\n        return subsidiaries[id].subAddress;\n    }\n\n    modifier permissioned {\n        require(msg.sender == owner || msg.sender == creator_);\n        _;\n    }\n}\n\n\ncontract Subsidiary {\n    address payable parent_;\n    uint amount;\n    mapping(address => bool) permissionedAddress;\n\n    // transaction id to person id\n    mapping(uint => uint) transactions;\n\n    constructor(address parent) {\n        parent_ = payable(parent);\n        amount = 0;\n    }\n\n    // need to make sure no possibility for double spend\n    // Will reset to zero and prevent withdrawl whilst the send transaction is processed.\n    function getTake() accountsAccess() public payable returns(bool)  {\n        uint prevAmount = amount;\n        amount = 0;\n        return parent_.send(prevAmount); // need to write a fallback function if this fails.\n    }\n\n    // Oracle end point.\n    // reassess this function as it always returns true.\n    function insertTransaction(uint transID, uint person_id) restricted() public returns(bool) {\n        transactions[transID] = person_id;\n        return true;\n    }\n    \n    modifier restricted {\n        require(msg.sender == parent_ || permissionedAddress[msg.sender] == true);\n        _;\n    }\n\n    modifier accountsAccess {\n        require(msg.sender == parent_);\n        _;\n    }\n}",
  "sourcePath": "/Users/cameronbaker/Documents/Third_Year_Uni/comp6452/Ass2-Group/COMP6452-HelpChain/contracts/CorporateFactory.sol",
  "compiler": {
    "name": "solc",
    "version": "0.8.6+commit.11564f7e.Emscripten.clang"
  },
  "schemaVersion": "3.3.4",
  "updatedAt": "2021-07-27T04:36:50.098Z",
  "networkType": "ethereum",
  "devdoc": {
    "kind": "dev",
    "methods": {},
    "version": 1
  },
  "userdoc": {
    "kind": "user",
    "methods": {},
    "version": 1
  }
}