{
  "contractName": "Subsidiary",
  "abi": [
    {
      "inputs": [
        {
          "internalType": "contract Admin",
          "name": "admin_",
          "type": "address"
        },
        {
          "internalType": "address",
          "name": "owner_",
          "type": "address"
        }
      ],
      "stateMutability": "nonpayable",
      "type": "constructor"
    },
    {
      "anonymous": false,
      "inputs": [
        {
          "indexed": false,
          "internalType": "uint256",
          "name": "txId",
          "type": "uint256"
        },
        {
          "indexed": false,
          "internalType": "address",
          "name": "receiverId",
          "type": "address"
        },
        {
          "indexed": false,
          "internalType": "uint256",
          "name": "txAmount",
          "type": "uint256"
        }
      ],
      "name": "TransactionRequest",
      "type": "event"
    },
    {
      "anonymous": false,
      "inputs": [
        {
          "indexed": false,
          "internalType": "address",
          "name": "user",
          "type": "address"
        },
        {
          "indexed": false,
          "internalType": "uint256",
          "name": "amount",
          "type": "uint256"
        }
      ],
      "name": "ValueReceived",
      "type": "event"
    },
    {
      "inputs": [],
      "name": "admin",
      "outputs": [
        {
          "internalType": "contract Admin",
          "name": "",
          "type": "address"
        }
      ],
      "stateMutability": "view",
      "type": "function"
    },
    {
      "inputs": [],
      "name": "owner",
      "outputs": [
        {
          "internalType": "address",
          "name": "",
          "type": "address"
        }
      ],
      "stateMutability": "view",
      "type": "function"
    },
    {
      "inputs": [],
      "name": "parent_",
      "outputs": [
        {
          "internalType": "contract Corporate",
          "name": "",
          "type": "address"
        }
      ],
      "stateMutability": "view",
      "type": "function"
    },
    {
      "stateMutability": "payable",
      "type": "receive"
    },
    {
      "inputs": [],
      "name": "getTake",
      "outputs": [
        {
          "internalType": "bool",
          "name": "",
          "type": "bool"
        }
      ],
      "stateMutability": "payable",
      "type": "function"
    },
    {
      "inputs": [
        {
          "internalType": "uint256",
          "name": "txId",
          "type": "uint256"
        },
        {
          "internalType": "address",
          "name": "receiverId",
          "type": "address"
        },
        {
          "internalType": "uint256",
          "name": "txAmount",
          "type": "uint256"
        }
      ],
      "name": "insertTransaction",
      "outputs": [
        {
          "internalType": "bool",
          "name": "",
          "type": "bool"
        }
      ],
      "stateMutability": "nonpayable",
      "type": "function"
    }
  ],
  "bytecode": "0x60806040523480156200001157600080fd5b5060405162000d6538038062000d658339818101604052810190620000379190620001a9565b336000806101000a81548173ffffffffffffffffffffffffffffffffffffffff021916908373ffffffffffffffffffffffffffffffffffffffff16021790555081600160006101000a81548173ffffffffffffffffffffffffffffffffffffffff021916908373ffffffffffffffffffffffffffffffffffffffff16021790555080600260006101000a81548173ffffffffffffffffffffffffffffffffffffffff021916908373ffffffffffffffffffffffffffffffffffffffff1602179055506001600460008373ffffffffffffffffffffffffffffffffffffffff1673ffffffffffffffffffffffffffffffffffffffff16815260200190815260200160002060006101000a81548160ff021916908315150217905550476003819055506001600560006101000a81548160ff021916908315150217905550505062000271565b6000815190506200018c816200023d565b92915050565b600081519050620001a38162000257565b92915050565b60008060408385031215620001c357620001c262000238565b5b6000620001d38582860162000192565b9250506020620001e6858286016200017b565b9150509250929050565b6000620001fd8262000218565b9050919050565b60006200021182620001f0565b9050919050565b600073ffffffffffffffffffffffffffffffffffffffff82169050919050565b600080fd5b6200024881620001f0565b81146200025457600080fd5b50565b620002628162000204565b81146200026e57600080fd5b50565b610ae480620002816000396000f3fe60806040526004361061004e5760003560e01c80638b734233146100e95780638da5cb5b14610107578063b119a9d614610132578063ef5ea07c1461015d578063f851a4401461019a576100e4565b366100e45760011515600560009054906101000a900460ff161515146100a9576040517f08c379a00000000000000000000000000000000000000000000000000000000081526004016100a09061083e565b60405180910390fd5b7f7e71433ddf847725166244795048ecf3e3f9f35628254ecbf73605666423349333346040516100da9291906107c4565b60405180910390a1005b600080fd5b6100f16101c5565b6040516100fe91906107ed565b60405180910390f35b34801561011357600080fd5b5061011c6102e0565b60405161012991906107a9565b60405180910390f35b34801561013e57600080fd5b50610147610306565b6040516101549190610823565b60405180910390f35b34801561016957600080fd5b50610184600480360381019061017f91906106c5565b61032a565b60405161019191906107ed565b60405180910390f35b3480156101a657600080fd5b506101af6105d2565b6040516101bc9190610808565b60405180910390f35b60008060009054906101000a900473ffffffffffffffffffffffffffffffffffffffff1673ffffffffffffffffffffffffffffffffffffffff163373ffffffffffffffffffffffffffffffffffffffff161461022057600080fd5b60011515600560009054906101000a900460ff16151514610276576040517f08c379a000000000000000000000000000000000000000000000000000000000815260040161026d9061083e565b60405180910390fd5b60006003549050600060038190555060008054906101000a900473ffffffffffffffffffffffffffffffffffffffff1673ffffffffffffffffffffffffffffffffffffffff166108fc829081150290604051600060405180830381858888f1935050505091505090565b600260009054906101000a900473ffffffffffffffffffffffffffffffffffffffff1681565b60008054906101000a900473ffffffffffffffffffffffffffffffffffffffff1681565b60008060009054906101000a900473ffffffffffffffffffffffffffffffffffffffff1673ffffffffffffffffffffffffffffffffffffffff163373ffffffffffffffffffffffffffffffffffffffff1614806103d7575060011515600460003373ffffffffffffffffffffffffffffffffffffffff1673ffffffffffffffffffffffffffffffffffffffff16815260200190815260200160002060009054906101000a900460ff161515145b6103e057600080fd5b60011515600560009054906101000a900460ff16151514610436576040517f08c379a000000000000000000000000000000000000000000000000000000000815260040161042d9061083e565b60405180910390fd5b6003548373ffffffffffffffffffffffffffffffffffffffff16311015610492576040517f08c379a00000000000000000000000000000000000000000000000000000000081526004016104899061085e565b60405180910390fd5b7fe8315ec63c4fa3a5871a02ea19c7f3d5e7e399992ed31f05d0ba17345ddb95bf8484846040516104c59392919061087e565b60405180910390a160405180608001604052808581526020018473ffffffffffffffffffffffffffffffffffffffff1681526020018381526020016040518060400160405280601581526020017f687474703a2f2f6d756d626f4a756d626f2e6a70670000000000000000000000815250815250600660008681526020019081526020016000206000820151816000015560208201518160010160006101000a81548173ffffffffffffffffffffffffffffffffffffffff021916908373ffffffffffffffffffffffffffffffffffffffff1602179055506040820151816002015560608201518160030190805190602001906105c39291906105f8565b50905050600190509392505050565b600160009054906101000a900473ffffffffffffffffffffffffffffffffffffffff1681565b82805461060490610956565b90600052602060002090601f016020900481019282610626576000855561066d565b82601f1061063f57805160ff191683800117855561066d565b8280016001018555821561066d579182015b8281111561066c578251825591602001919060010190610651565b5b50905061067a919061067e565b5090565b5b8082111561069757600081600090555060010161067f565b5090565b6000813590506106aa81610a80565b92915050565b6000813590506106bf81610a97565b92915050565b6000806000606084860312156106de576106dd6109b7565b5b60006106ec868287016106b0565b93505060206106fd8682870161069b565b925050604061070e868287016106b0565b9150509250925092565b610721816108c6565b82525050565b610730816108d8565b82525050565b61073f8161090e565b82525050565b61074e81610932565b82525050565b60006107616022836108b5565b915061076c826109bc565b604082019050919050565b6000610784604b836108b5565b915061078f82610a0b565b606082019050919050565b6107a381610904565b82525050565b60006020820190506107be6000830184610718565b92915050565b60006040820190506107d96000830185610718565b6107e6602083018461079a565b9392505050565b60006020820190506108026000830184610727565b92915050565b600060208201905061081d6000830184610736565b92915050565b60006020820190506108386000830184610745565b92915050565b6000602082019050818103600083015261085781610754565b9050919050565b6000602082019050818103600083015261087781610777565b9050919050565b6000606082019050610893600083018661079a565b6108a06020830185610718565b6108ad604083018461079a565b949350505050565b600082825260208201905092915050565b60006108d1826108e4565b9050919050565b60008115159050919050565b600073ffffffffffffffffffffffffffffffffffffffff82169050919050565b6000819050919050565b600061091982610920565b9050919050565b600061092b826108e4565b9050919050565b600061093d82610944565b9050919050565b600061094f826108e4565b9050919050565b6000600282049050600182168061096e57607f821691505b6020821081141561098257610981610988565b5b50919050565b7f4e487b7100000000000000000000000000000000000000000000000000000000600052602260045260246000fd5b600080fd5b7f546869732053756273696469617279206973206e6f206c6f6e6765722076616c60008201527f6964000000000000000000000000000000000000000000000000000000000000602082015250565b7f54686520526563656976657220636f6e747261637420646f6573206e6f74206860008201527f6176652073756666696369656e742062616c616e636520666f7220746869732060208201527f7472616e73616374696f6e000000000000000000000000000000000000000000604082015250565b610a89816108c6565b8114610a9457600080fd5b50565b610aa081610904565b8114610aab57600080fd5b5056fea26469706673582212201f24e27c0fe735409f33817504662746abcaf5df8c0d7bd2eda5d5a48fb0cca564736f6c63430008060033",
  "immutableReferences": {},
  "source": "pragma solidity >=0.7.0 <0.9.0;\n\nimport \"./Whitelist.sol\";\nimport \"./Admin.sol\";\n\n/*\n    This class is a factory class used to produce instances of Corporates, Corporates will act as a parent class to Subsidiary \n*/\ncontract CorporateFactory { \n    address public owner; // owner address \n    Admin public admin; // admin contract\n    mapping(uint => corporate) public corporates; //list of corporates \n    uint numCorps; // number of corporates\n    bool active = true; //whether this contract is active \n\n    // Struct used to store corporates in the mapping\n    struct corporate {\n        address corpAddress;\n        uint id;\n        bool valid;\n    }\n\n    // The constructor links an associated Admin contract \n    constructor(Admin admin_) {\n        owner = msg.sender;\n        admin = admin_;\n    }\n\n    //function to create a new Corporate with name <corpName> \n    function createCorp(string memory corpName, address owner_) public  permissioned activeContract returns(address corpAddr){\n        Corporate newCorp = new Corporate(admin,corpName, owner_, numCorps); // passes parent's admin, address of owner and corp name\n        corporates[numCorps] = corporate(address(newCorp), numCorps, true); // add the corporate to the last spot in the list \n        numCorps += 1;\n        return address(newCorp);\n    }\n\n    // get corporate address given id \n    function getCorporate(uint id) public view activeContract returns(address)  {\n        return corporates[id].corpAddress;\n    }\n\n    // This function is used by the Admin to activate/disable the Corporate Factory contracts \n    function toggleContractActivation() public adminOnly returns (bool){\n        active = !active;\n        return(active);\n    }\n\n    // This function is used to mark a corporate as invalid\n    function disableCorporate(uint id) public permissioned activeContract{\n        require(checkIfCorporateValid(id) == true); // check that it is still valid\n        Corporate(corporates[id].corpAddress).disableCorporate(); // disable the Corporate\n    }\n\n    function checkIfCorporateValid(uint id) public view activeContract returns (bool){\n        require(corporates[id].corpAddress != address(0), 'Not a listed corporate'); //check if corporate in factory list\n        return Corporate(corporates[id].corpAddress).valid(); // return if the contract is valid \n\n    }\n    \n    modifier adminOnly {\n        require(msg.sender == admin.owner(), \"Only the admin can access this function\");\n        _;\n    }\n    modifier permissioned {\n        require(msg.sender == owner || msg.sender == admin.owner(), \"Only the owner/admin can access this function\");\n        _;\n    }\n\n    modifier activeContract{\n        require(active == true, \"Contract no longer active\");\n        _;\n    }\n}\n\ncontract Corporate {\n    address public owner; // owner of the contract e.g. a Corporates own address\n    Admin public admin; // admin of the system\n    CorporateFactory parent; // Corporate Factory this was created from \n    \n    uint public corporate_id; // Corporate ID assigned to \n    string public corporate_name_; // name of the Corporate\n    mapping(address => sub) public subsidiaries; // a mapping of addresses to the sub struct.\n    address[] public subs; // could make this into a struct so the id can be found easily.\n    Whitelist public whitelist; //whitelist associated with the corporate\n    bool public valid; //checks if the contract is valid \n    \n    struct sub {\n        address subAddress;\n        uint id;\n        bool valid;\n    }\n\n    // allows for an owner i.e. corporate to be passed into the constructor \n    constructor(Admin admin_,string memory name, address owner_, uint corp_id_){\n        admin = admin_;\n        owner = owner_;\n        corporate_name_ = name; \n        corporate_id = corp_id_;\n        parent = CorporateFactory(msg.sender);\n        valid = true;    \n    }\n\n    // This function is used to create a Subsidiary branch of the Corporate representing a store\n    function createSub(uint id) public  permissioned validContract returns(address){\n        Subsidiary newSub = new Subsidiary(admin, owner);\n        subs.push(address(newSub)); // add new sub to subsidiary array \n        subsidiaries[address(newSub)] = sub(address(newSub), id, true); // add new sub to mapping\n        return address(newSub);\n    }\n\n    // Returns the subsidiary struct\n    function getSubContract(uint id) public view validContract returns(address)  {\n        return subs[id];\n    }\n\n    function checkIfSubsidiaryValid(address toCheck) public view validContract returns(bool){\n        require(subsidiaries[toCheck].subAddress != address(0), \"Not a subsidiary address\");\n        return subsidiaries[toCheck].valid;\n    }\n    \n    function disableContract() public permissioned validContract{\n        valid = false;\n    }\n\n    // Updates the whiteList \n    function updateWhitelist(Whitelist whitelist_) public permissioned validContract {\n        require(whitelist_.owner() == owner || whitelist.owner() == admin.owner(), \"Whitelist not created by known party\");\n        whitelist = whitelist_;\n    }\n\n    // Disable the Corporate\n    function disableCorporate() public permissioned validContract returns(bool){\n        valid = false;\n        return valid;\n    }\n\n    modifier adminOnly {\n        require(msg.sender == admin.owner(), \"Only the admin can access this function\");\n        _;\n    }\n    modifier permissioned {\n        require(msg.sender == owner || msg.sender == admin.owner() || msg.sender == address(parent), \"Only the owner/admin/parent can access this function\");\n        _;\n    }\n    \n\n    modifier validContract {\n        require(valid == true);\n        _;\n    }\n}\n\n\n\n// This contract represents a Subsidiary branch of a Corporate partner\ncontract Subsidiary {\n    Corporate public parent_; // Corporate Contract\n    Admin public admin; //Admin\n    address public owner; //Corporate owner address\n    \n    uint amount; //Balanace\n    mapping(address => bool) private permissionedAddress; //provides an array of addresses the Sub can withdraw funds to\n    event ValueReceived(address user, uint amount);\n    bool valid;\n\n    // Transaction struct to be sent to the off-chain oracle \n    struct Transaction {\n        uint txId; \n        address receiverId;\n        uint txAmount;\n        string txLink;\n    }\n\n    // Event that triggers the off-chain oracle\n    event TransactionRequest (\n        uint txId,\n        address receiverId,\n        uint txAmount\n    );\n\n    // transaction id to person id\n    mapping(uint => Transaction) transactions; // List of transactions @DEV: need to provide rec address and amount (maybe through struct)\n    uint numOfTransactions;\n\n    constructor(Admin admin_, address owner_) {\n        parent_ = Corporate(msg.sender);\n        admin = admin_;\n        owner = owner_;\n        permissionedAddress[owner_] = true;\n        amount = address(this).balance;\n        valid = true;\n    }\n\n    // need to make sure no possibility for double spend\n    // Will reset to zero and prevent withdrawl whilst the send transaction is processed.\n    function getTake() public payable accountsAccess accountValid returns(bool)  {\n        uint prevAmount = amount;\n        amount = 0;\n        return payable(address(parent_)).send(prevAmount);   \n    }\n\n    // Oracle end point for inserting transaction details into blockchain and recording the mapping\n    function insertTransaction(uint txId, address receiverId, uint txAmount) restricted accountValid public returns(bool) {\n        require(receiverId.balance >= amount, \"The Receiver contract does not have sufficient balance for this transaction\"); \n        emit TransactionRequest(txId, receiverId, txAmount);\n        transactions[txId] = Transaction(txId, receiverId, txAmount, \"http://mumboJumbo.jpg\");\n        return true;\n    }\n\n    // Provides functionality to receive funds for the subsidiary\n    receive() external accountValid payable{\n        emit ValueReceived(msg.sender, msg.value);\n    }\n    \n\n    modifier restricted {\n        require(msg.sender == address(parent_) || permissionedAddress[msg.sender] == true);\n        _;\n    }\n\n    // Restrict account access\n    modifier accountsAccess {\n        require(msg.sender == address(parent_));\n        _;\n    }\n    \n    \n    modifier accountValid {\n        require(valid == true, \"This Subsidiary is no longer valid\");\n        _;\n    }\n}",
  "sourcePath": "/Users/dylan/Library/Mobile Documents/com~apple~CloudDocs/Developer/UNSW/COMP6452_Blockchain_Architecture/COMP6452-HelpChain/contracts/CorporateFactory.sol",
  "compiler": {
    "name": "solc",
    "version": "0.8.6+commit.11564f7e.Emscripten.clang"
  },
  "schemaVersion": "3.4.2",
  "updatedAt": "2021-08-07T07:47:45.080Z",
  "networkType": "ethereum",
  "devdoc": {
    "kind": "dev",
    "methods": {},
    "version": 1
  },
  "userdoc": {
    "kind": "user",
    "methods": {},
    "version": 1
  }
}