{
  "contractName": "Subsidiary",
  "abi": [
    {
      "inputs": [
        {
          "internalType": "address",
          "name": "parent",
          "type": "address"
        }
      ],
      "stateMutability": "nonpayable",
      "type": "constructor"
    },
    {
      "anonymous": false,
      "inputs": [
        {
          "indexed": false,
          "internalType": "address",
          "name": "user",
          "type": "address"
        },
        {
          "indexed": false,
          "internalType": "uint256",
          "name": "amount",
          "type": "uint256"
        }
      ],
      "name": "ValueReceived",
      "type": "event"
    },
    {
      "inputs": [],
      "name": "parent_",
      "outputs": [
        {
          "internalType": "address payable",
          "name": "",
          "type": "address"
        }
      ],
      "stateMutability": "view",
      "type": "function"
    },
    {
      "stateMutability": "payable",
      "type": "receive"
    },
    {
      "inputs": [],
      "name": "getTake",
      "outputs": [
        {
          "internalType": "bool",
          "name": "",
          "type": "bool"
        }
      ],
      "stateMutability": "payable",
      "type": "function"
    },
    {
      "inputs": [
        {
          "internalType": "uint256",
          "name": "transID",
          "type": "uint256"
        },
        {
          "internalType": "address",
          "name": "person_id",
          "type": "address"
        },
        {
          "internalType": "uint256",
          "name": "tx_amount",
          "type": "uint256"
        }
      ],
      "name": "insertTransaction",
      "outputs": [
        {
          "internalType": "bool",
          "name": "",
          "type": "bool"
        }
      ],
      "stateMutability": "nonpayable",
      "type": "function"
    }
  ],
  "bytecode": "0x608060405234801561001057600080fd5b5060405161076e38038061076e83398181016040528101906100329190610095565b806000806101000a81548173ffffffffffffffffffffffffffffffffffffffff021916908373ffffffffffffffffffffffffffffffffffffffff160217905550600060018190555050610110565b60008151905061008f816100f9565b92915050565b6000602082840312156100ab576100aa6100f4565b5b60006100b984828501610080565b91505092915050565b60006100cd826100d4565b9050919050565b600073ffffffffffffffffffffffffffffffffffffffff82169050919050565b600080fd5b610102816100c2565b811461010d57600080fd5b50565b61064f8061011f6000396000f3fe6080604052600436106100385760003560e01c80638b7342331461007d578063b119a9d61461009b578063ef5ea07c146100c657610078565b36610078577f7e71433ddf847725166244795048ecf3e3f9f35628254ecbf736056664233493333460405161006e9291906104a2565b60405180910390a1005b600080fd5b610085610103565b60405161009291906104cb565b60405180910390f35b3480156100a757600080fd5b506100b06101c8565b6040516100bd9190610487565b60405180910390f35b3480156100d257600080fd5b506100ed60048036038101906100e891906103d5565b6101ec565b6040516100fa91906104cb565b60405180910390f35b60008060009054906101000a900473ffffffffffffffffffffffffffffffffffffffff1673ffffffffffffffffffffffffffffffffffffffff163373ffffffffffffffffffffffffffffffffffffffff161461015e57600080fd5b60006001549050600060018190555060008054906101000a900473ffffffffffffffffffffffffffffffffffffffff1673ffffffffffffffffffffffffffffffffffffffff166108fc829081150290604051600060405180830381858888f1935050505091505090565b60008054906101000a900473ffffffffffffffffffffffffffffffffffffffff1681565b60008060009054906101000a900473ffffffffffffffffffffffffffffffffffffffff1673ffffffffffffffffffffffffffffffffffffffff163373ffffffffffffffffffffffffffffffffffffffff161480610299575060011515600260003373ffffffffffffffffffffffffffffffffffffffff1673ffffffffffffffffffffffffffffffffffffffff16815260200190815260200160002060009054906101000a900460ff161515145b6102a257600080fd5b6001548373ffffffffffffffffffffffffffffffffffffffff163110156102fe576040517f08c379a00000000000000000000000000000000000000000000000000000000081526004016102f5906104e6565b60405180910390fd5b60405180606001604052808581526020018473ffffffffffffffffffffffffffffffffffffffff16815260200183815250600360008681526020019081526020016000206000820151816000015560208201518160010160006101000a81548173ffffffffffffffffffffffffffffffffffffffff021916908373ffffffffffffffffffffffffffffffffffffffff16021790555060408201518160020155905050600190509392505050565b6000813590506103ba816105eb565b92915050565b6000813590506103cf81610602565b92915050565b6000806000606084860312156103ee576103ed610571565b5b60006103fc868287016103c0565b935050602061040d868287016103ab565b925050604061041e868287016103c0565b9150509250925092565b61043181610529565b82525050565b61044081610517565b82525050565b61044f8161053b565b82525050565b6000610462604b83610506565b915061046d82610576565b606082019050919050565b61048181610567565b82525050565b600060208201905061049c6000830184610428565b92915050565b60006040820190506104b76000830185610437565b6104c46020830184610478565b9392505050565b60006020820190506104e06000830184610446565b92915050565b600060208201905081810360008301526104ff81610455565b9050919050565b600082825260208201905092915050565b600061052282610547565b9050919050565b600061053482610547565b9050919050565b60008115159050919050565b600073ffffffffffffffffffffffffffffffffffffffff82169050919050565b6000819050919050565b600080fd5b7f54686520526563656976657220636f6e747261637420646f6573206e6f74206860008201527f6176652073756666696369656e742062616c616e636520666f7220746869732060208201527f7472616e73616374696f6e000000000000000000000000000000000000000000604082015250565b6105f481610517565b81146105ff57600080fd5b50565b61060b81610567565b811461061657600080fd5b5056fea26469706673582212206a7da6a8945d2457f0dff77d1f1a26e1b4efd6fc825d7588597faf3033e4b90764736f6c63430008060033",
  "immutableReferences": {},
  "source": "pragma solidity >=0.7.0 <0.9.0;\n\nimport \"./Whitelist.sol\";\n\n\ncontract CorporateFactory { \n    address public owner; // owner address \n    mapping(uint => corporate) public corporates;\n    uint numCorps; // a mapping of contract ids to the corporate struct.\n    bool active = true;\n\n    struct corporate {\n        address corpAddress;\n        uint id;\n        bool valid;\n    }\n\n    constructor() {\n        owner = msg.sender;\n    }\n\n    function createCorp(string memory corpName) public  permissioned activeContract returns(bool){\n        Corporate newCorp = new Corporate(owner,corpName);\n        corporates[numCorps] = corporate(address(newCorp), numCorps, true);\n        numCorps += 1;\n        return true;\n    }\n\n    function getCorporate(uint id) public view permissioned activeContract returns(address)  {\n        return corporates[id].corpAddress;\n    }\n\n    function toggleContractActivation() public permissioned returns (bool){\n        active = !active;\n        return(active);\n    }\n\n    function disableCorporate(uint id) public permissioned activeContract returns (bool){\n        corporates[id].valid = false;\n    }\n\n    function checkIfCorporateValid(uint id) public view activeContract returns (bool){\n        require(corporates[id].corpAddress != address(0), 'Not a valid corporate');\n        return corporates[id].valid;\n\n    }\n    \n    modifier permissioned {\n        require(msg.sender == owner, \"Only the owner can access this function\");\n        _;\n    }\n\n    modifier activeContract{\n        require(active == true, \"Contract no longer active\");\n        _;\n    }\n}\n\ncontract Corporate {\n    address public creator_; // creator of the contract\n    address public owner; // owner of the contract i.e the corporate\n    uint public corporate_id;\n    string public corporate_name_; // name of the contract\n    mapping(address => sub) public subsidiaries; // a mapping of addresses to the sub struct.\n    address[] public subs; // could make this into a struct so the id can be found easily.\n    Whitelist public whitelist; //whitelist associated with the corporate\n    bool valid; //checks if the contract is valid \n    \n    struct sub {\n        address subAddress;\n        uint id;\n        bool valid;\n    }\n\n\n    // allows for an owner i.e. corporate to be passed into the constructor \n    constructor(address owner_, string memory name){\n        owner = owner_;\n        creator_ = msg.sender;\n        corporate_name_ = name; \n        valid = true;    \n    }\n\n    // This function is used to create a Subsidiary branch of the Corporate representing a store\n    function createSub(uint id) public  permissioned validContract returns(bool){\n        // if set to default address the contract does not yet exist \n        require(getSubContract(id) != address(0));\n        Subsidiary newSub = new Subsidiary(address(this));\n        subs.push(address(newSub)); // add new sub to subsidiary array \n        subsidiaries[address(newSub)] = sub(address(newSub), id, true); // add new sub to mapping\n        return true;\n    }\n\n    // returns the subsidiary struct\n    function getSubContract(uint id) public view permissioned validContract returns(address)  {\n        return subs[id];\n    }\n\n    function checkIfSubsidiaryValid(address toCheck) public view validContract returns(bool){\n        require(subsidiaries[toCheck].subAddress != address(0), \"Not a subsidiary address\");\n        return subsidiaries[toCheck].valid;\n    }\n\n    // updates the whiteList \n    function updateWhitelist(Whitelist whitelist_) public permissioned validContract {\n        require(whitelist_.owner() == owner || whitelist.owner() == creator_, \"Whitelist not created by known party\");\n        whitelist = whitelist_;\n    }\n\n    //disable the Corporate\n    function disableCorporate() public permissioned validContract returns(bool){\n        valid = false;\n    }\n\n    modifier permissioned {\n        require(msg.sender == owner || msg.sender == creator_);\n        _;\n    }\n\n    modifier validContract {\n        require(valid == true);\n        _;\n    }\n}\n\n\n\n// This contract represent a Subsidiary branch of a corporate \ncontract Subsidiary {\n    address payable public parent_; // Corporate Contract\n    uint amount; //Balanace\n    mapping(address => bool) private permissionedAddress; //provides an array of addresses the Sub can withdraw funds to\n    event ValueReceived(address user, uint amount);\n\n\n    struct transaction{\n        uint id; \n        address receiver_id;\n        uint amount;\n    }\n\n    // transaction id to person id\n    mapping(uint => transaction) transactions; // List of transactions @DEV: need to provide rec address and amount (maybe through struct)\n    uint numOfTransactions;\n    constructor(address parent) {\n        parent_ = payable(parent);\n        amount = 0;\n    }\n\n    // need to make sure no possibility for double spend\n    // Will reset to zero and prevent withdrawl whilst the send transaction is processed.\n    function getTake() public payable accountsAccess returns(bool)  {\n        uint prevAmount = amount;\n        amount = 0;\n        return parent_.send(prevAmount); // need to write a fallback function if this fails.\n    }\n\n    // Oracle end point.\n    // reassess this function as it always returns true.\n    function insertTransaction(uint transID, address person_id, uint tx_amount) restricted public returns(bool) {\n        require(person_id.balance >= amount, \"The Receiver contract does not have sufficient balance for this transaction\"); \n        transactions[transID] = transaction(transID, person_id, tx_amount);\n        return true;\n    }\n\n    // provides functionality to receive funds\n    receive() external payable{\n        emit ValueReceived(msg.sender, msg.value);\n    }\n    \n    modifier restricted {\n        require(msg.sender == parent_ || permissionedAddress[msg.sender] == true);\n        _;\n    }\n\n    modifier accountsAccess {\n        require(msg.sender == parent_);\n        _;\n    }\n}",
  "sourcePath": "/Users/Will/Documents/University /Final Year/T2/P2/COMP6452-HelpChain/contracts/CorporateFactory.sol",
  "compiler": {
    "name": "solc",
    "version": "0.8.6+commit.11564f7e.Emscripten.clang"
  },
  "schemaVersion": "3.4.2",
  "updatedAt": "2021-07-29T03:31:43.242Z",
  "networkType": "ethereum",
  "devdoc": {
    "kind": "dev",
    "methods": {},
    "version": 1
  },
  "userdoc": {
    "kind": "user",
    "methods": {},
    "version": 1
  }
}