{
  "contractName": "Whitelist",
  "abi": [
    {
      "inputs": [
        {
          "internalType": "bytes32",
          "name": "whiteListHash_",
          "type": "bytes32"
        }
      ],
      "stateMutability": "nonpayable",
      "type": "constructor"
    },
    {
      "inputs": [],
      "name": "owner",
      "outputs": [
        {
          "internalType": "address",
          "name": "",
          "type": "address"
        }
      ],
      "stateMutability": "view",
      "type": "function"
    },
    {
      "inputs": [],
      "name": "whiteListHash",
      "outputs": [
        {
          "internalType": "bytes32",
          "name": "",
          "type": "bytes32"
        }
      ],
      "stateMutability": "view",
      "type": "function"
    }
  ],
  "bytecode": "0x608060405234801561001057600080fd5b506040516102563803806102568339818101604052810190610032919061008d565b336000806101000a81548173ffffffffffffffffffffffffffffffffffffffff021916908373ffffffffffffffffffffffffffffffffffffffff160217905550506100e0565b600081519050610087816100c9565b92915050565b6000602082840312156100a3576100a26100c4565b5b60006100b184828501610078565b91505092915050565b6000819050919050565b600080fd5b6100d2816100ba565b81146100dd57600080fd5b50565b610167806100ef6000396000f3fe608060405234801561001057600080fd5b50600436106100365760003560e01c806314665f6e1461003b5780638da5cb5b14610059575b600080fd5b610043610077565b60405161005091906100da565b60405180910390f35b61006161007d565b60405161006e91906100bf565b60405180910390f35b60015481565b60008054906101000a900473ffffffffffffffffffffffffffffffffffffffff1681565b6100aa816100f5565b82525050565b6100b981610107565b82525050565b60006020820190506100d460008301846100a1565b92915050565b60006020820190506100ef60008301846100b0565b92915050565b600061010082610111565b9050919050565b6000819050919050565b600073ffffffffffffffffffffffffffffffffffffffff8216905091905056fea2646970667358221220ba1d29896c804768389ba623bb37ae474c46e018d3f3a4af6dad112751cd695b64736f6c63430008060033",
  "immutableReferences": {},
  "source": "pragma solidity >=0.7.0 <0.9.0;\n\n\ncontract Whitelist {\n\n    address public owner;\n    bytes32 public whiteListHash;\n    \n    constructor(bytes32 whiteListHash_) {\n        owner = msg.sender;\n    }\n   \n\n}",
  "sourcePath": "/Users/dylan/Library/Mobile Documents/com~apple~CloudDocs/Developer/UNSW/COMP6452_Blockchain_Architecture/COMP6452-HelpChain/contracts/Whitelist.sol",
  "compiler": {
    "name": "solc",
    "version": "0.8.6+commit.11564f7e.Emscripten.clang"
  },
  "schemaVersion": "3.4.2",
  "updatedAt": "2021-07-29T06:45:04.055Z",
  "networkType": "ethereum",
  "devdoc": {
    "kind": "dev",
    "methods": {},
    "version": 1
  },
  "userdoc": {
    "kind": "user",
    "methods": {},
    "version": 1
  }
}